:10000000C01A00209DA2010011390000153900001E
:10001000A70B0000000000000000FFFF54000000DC
:1000200004180F00000000000000000000000000A5
:1000300000000000000000000000000000000000C0
:10004000000000000000000000000000A701000008
:0400500000000000AC
:10005400C01A00209DA201001139000015390000CA
:10006400A70A0A010002000004180FACA067A70148
:10007400000000000000000000000000000000007C
:10008400000000000000000000000000000000006C
:100094000000000000000000FFFFFFFFFFFFFFFF64
:1000A400FFFFFFFF006007000000000000000000E9
:1000B400FFFFFFFFFFFFFFFF8000000000000000C4
:1000C400000000000000000000000000000000002C
:1000D4000000000000000000204E0020204E002000
:1000E400C01A002024880300A80603006011002021
:0C00F4003411002000E0070000000000B4
:10020000C01A00209DA2010011390000153900001C
:10021000E581000019390000213900009BA201008E
:100220009BA201009BA201009BA201009BA20100D6
:10023000253900009BA201009BA201009BA20100A6
:10024000983900009839000098390000983900006A
:100250009839000061550000916200009839000053
:1002600098390000DD0E00006553000079B60000EB
:10027000983900009839000098390000983900003A
:100280009839000098390000983900009BA20100BD
:1002900098390000BD4B00009839000098390000E3
:1002A00098390000BD4C0000954C000098390000C2
:1002B0009839000098390000983900006D7C0100E1
:1002C000F97B0100F57B010035730100697C0100B9
:1002D000FD7B01001D7C0100017C01009BA201004F
:1002E000B17C01009839000098390000F93B00000A
:1002F0009839000098390000983900009BA201004D
:1003000098390000983900009839000098390000A9
:100310009839000098390000983900009839000099
:100320009839000098390000983900009839000089
:0403300098390000F8
:10033400F8B500BFF8BC08BC9E467047F8B500BFCE
:10034400F8BC08BC9E46704710B5054C237833B9F9
:10035400044B13B1044800E000BF0123237010BD17
:100364003023002000000000AC7F030008B5034BDD
:100374001BB10349034800E000BF08BD00000000B2
:1003840034230020AC7F0300154B002B08BF134B14
:100394009D46A3F5803A00218B460F461348144A24
:1003A400121A30F05BF90F4B002B00D098470E4B1C
:1003B400002B00D098470020002104000D000D48B8
:1003C400002802D00C4800E000BF30F009F92000FA
:1003D40029000BF079FB30F0EFF800BF00000800B3
:1003E400C01A00200000000000000000302300209C
:1003F400204E00200000000000000000002310B583
:1004040001211C4640FA03F2D20744BF03F10B0258
:1004140001FA02F203F1010348BF1443102BF1D196
:100424000A201AF005FF2046BDE81040012109F01A
:10043400E5B90000024B186047F6FF70FFF7DEBF16
:10044400883F002038B505460CF016FA902D044676
:10045400024614D1124901200EF0B8FE114B1A784D
:10046400114B3AB10020114A1B68107003B1984730
:10047400012038BD1B68002BFAD00220F7E70C4995
:1004840001200EF0A3FE2CB9074B1B68002BEFD004
:100494000420ECE7032CEBD1034B20461B68E6E772
:1004A400A80603004C230020883F0020783F00204A
:1004B400B7060300002208B5054B1A700CF0DCF9EE
:1004C40028B909F0C7F8034A13780133137008BD3B
:1004D400783F00204C23002008B50CF0CDF940B93A
:1004E400044B40F6B83118701846BDE808401EF0B9
:1004F400BDBC08BD783F002000230348034A0370B5
:1005040013701EF0A7BC00BF803F00204D230020C5
:100514001FB50CF0B1F918B3134C2378042B1FD872
:100524000223002000934FF48A5203AB48F23401B3
:100534008DF80D0002F06AF923781BB11AF082FAE3
:1005440021F012FD237809490133012023700EF0B4
:100554003DFE4FF47A7106481EF088FC04B010BDCD
:1005640003F0D6FCFAE700BF4D230020BF3D030093
:10057400803F0020436810B55A8848F205039A4228
:100584000DD1084B90F91140186800F007FE22467F
:100594000346054901200EF019FE012010BD00207C
:1005A400FCE700BF8C3F0020C806030030B51C46A2
:1005B40000230546104691B08DF80D308DF80E30AD
:1005C4009DF850308DF80C102246014604A88DF891
:1005D4000F30043430F037F803AB00930194044B2C
:1005E4000122294610200DF0A1FD11B030BD00BF3D
:1005F4002722030030B50124214B89B018685968BB
:1006040006AA03C253F8080F8DF80F401B79049013
:100614008DF814300CF030F902282FD142250E2326
:1006240006AA052100200095FFF7C0FF21462046B9
:100634000DF002FE002108460DF0DCFD052304AA9E
:10064400042100200095FFF7B1FF214620460DF05C
:10065400F3FD002108460DF0CDFD20230DF10F021E
:100664000093214623460020FFF7A0FF21462046A1
:100674000DF0E2FD002108460DF0BCFD09B030BDCF
:10068400E40603007FB51026054604AC04F8011DFA
:1006940022460123009600210620FFF787FF284603
:1006A40001210DF0C9FD002108460DF0A3FD0096BF
:1006B40023460022062128460DF03CFB04B070BD01
:1006C4002DE9F04F8046894616469A4600254FF696
:1006D400FF7B1E4F87B0ECB202A9204619F0BAFF87
:1006E4000190204619F0AEFF019B044663B95045C2
:1006F4000DD19DF80930434509D19DF80C304B4587
:1007040005D10135052DE6D107B0BDE8F08F5C4574
:10071400F7D0231D9BB2012BF3D99DF80930434533
:10072400EFD1012E3B460CBF3246002206210120A8
:100734000DF0FCFC9DF80C109DF809000DF07CFDFB
:10074400214600200DF056FDDBE700BF56090300EB
:10075400A1F10B02042A70B50B46044601F1FF35E2
:1007640011D8A1F10A033249421C01200EF02EFDDA
:100774000D2D5CD8DFE805F01225414B5B5B5B5B1C
:100784005B5B5B5B5B52EAB2082A02D8421C2949D4
:10079400EBE7294901200EF019FDE9E7042174B9BA
:1007A400204600F0C7FC01210846FFF76BFF002339
:1007B4000122BDE8704019460120FFF781BF0120E6
:1007C400EFE76CB91D4901200EF000FD204600F052
:1007D40025FC21460120FFF755FF23461A46E8E78A
:1007E400174901200EF0F2FC012000F017FC002153
:1007F4000120FFF747FF0023F0E724B9BDE870406C
:10080400012007F0A3B9BDE870401AF01BB9002C11
:10081400F9D1BDE87040012007F0D2B81CB9BDE899
:100824007040FFF759BEBDE87040FFF765BE70BD6C
:1008340005070300160703002B0703003407030012
:100844003E07030013B50C46A1F10A03421C0749F5
:1008540001200EF0BBFC0E2C06D16423022200936F
:100864001146012000F096FB02B010BDF106030012
:1008740013B504461F4901200EF0A8FC042C37D8F8
:10088400DFE804F01B1003101E0003221A4B4FF480
:100894007A711A7000231948037002B0BDE8104041
:1008A4001EF0E4BA0122144B1A700023134803709B
:1008B40002B0BDE810401EF0CDBA0F4B0322F3E79F
:1008C4000F4B1B78A3B10F4901200EF07FFC4FF4AE
:1008D4009673032200930521002000F05BFB0222A3
:1008E400054B06481A70002340F6B8310370D4E76C
:1008F40002B010BD480703004F230020903F0020A2
:100904004E2300206007030008B5094901200EF0BA
:100914005DFC0849084800F01FF90848FFF78AFD04
:1009240000F0AAFBBDE8084005481EF093BA00BFDA
:10093400740703005507000049080000750800000B
:10094400903F002073B5184D2C782E46022C16D0FB
:10095400032C19D05CB90BF08FFF4FF4967303226C
:10096400009348B9012100F015FB012333700022E4
:100974000E4B1A7002B070BD05212046F3E7012327
:100984002B7003F0C5FAF2E74FF496732246012464
:1009940000930521002000F0FDFA054B1C70FFF7C1
:1009A40029FE2C70E3E700BF4F230020903F002076
:1009B4004E230020837B70B504462BB103685A880C
:1009C400062A03D0082A39D0002070BD5D79067943
:1009D400C37C2A462D4901200EF0F8FB86B1022E75
:1009E40013D0E47C9CB1012CEED1012D1FD12849F8
:1009F40028460EF0EBFB0221002000F09BFBE3E70E
:100A0400244901200EF0E2FBEBE72349F9E7012D2D
:100A140007D1284621490EF0D9FB204600F0FEFA02
:100A2400D2E71F4901200EF0D1FB0120F6E71D4952
:100A340020460EF0CBFB02212046DEE7C27C002AD2
:100A4400C2D1027D8089511C8842BDD35D79A368DF
:100A540015499C5C012022460EF0B8FB012D0DD1F6
:100A6400452C02D902212846C7E7272C02D929465A
:100A74002846C2E7002CD8D00421F4E7022DA3D1E4
:100A840001212246084600F0A7FA9DE78C070300DF
:100A9400ED070300CB070300DB0703003407030063
:100AA4003E070300F6070300FF0703000023024884
:100AB400642103701EF0DAB9983F0020F8B5224C87
:100AC400636883422ED0636998422DD10125EDB22B
:100AD4002D0163195E683023625D1C485343002274
:100AE400944618440368F34003F001030168F1409D
:100AF40001F00107BB4219D10132052AF6D162196E
:100B04001772B3B9537A01335372137B13B9104874
:100B14001EF0A0F9002301222C44A37263732273F4
:100B2400E372F8BD0025D2E7FF25D1E700223B465A
:100B3400DCE7012382F80CC0D3724FF4FA71BDE8EC
:100B4400F84004481EF092B9581C002014C0034019
:100B5400A03F0020A83F00202DE9F74307460E469A
:100B6400012504F079F8104CDFF8489004F12008CE
:100B7400002301226168207806F0F0F849462079C4
:100B840004F078F8626814F8100BCDE900550123DD
:100B9400114606F09DF84445EAD1044B1F60044B0E
:100BA4001E6003B0BDE8F083581C002050230020D1
:100BB40054230020C10A00002DE9F84300241A4BF5
:100BC4004FF005081C704FF001092346174D184FCC
:100BD400EE7826B36B780133DBB2042B84BF00229A
:100BE4002A703A686B7088BF85F804905AB1B3FBD9
:100BF400F8F101EB81001B1A13F0FF0F03D10A3146
:100C0400C9B220469047103534B156B1BDE8F84317
:100C1400C82105481EF02AB901243346D8E71E46E8
:100C2400F1E7BDE8F88300BFA03F0020611C00206D
:100C340050230020F8B500252E46134B134C144FB7
:100C44001D70E37A7BB13B683BB1627BE8B27AB951
:100C5400617A0A2928BF11219847A6726672267301
:100C6400E67226726673103405B1F8BD0125E8E713
:100C7400A17A1D299FBF0522B1FBF2F10A31C9B245
:100C840088BF1121E8E700BFA83F0020581C0020BE
:100C9400542300202DE9F84F3F4BC5005E19B2796B
:100CA4001C463E49002A57D012F0010F4FF018039A
:100CB40030D000224FF001084FF0300C41F21009FF
:100CC40042F2100A03FB001396F801E0344F13F8C4
:100CD400321003EBC2060CFB017176684EFA02FB7C
:100CE4001BF0010F08FA06F602F1010214BF41F8E5
:100CF4000A6041F80960032AE9D163195988294B2C
:100D04002C4453F820001EF0B1F8A379013BA371E1
:100D1400BDE8F88F4343CA18CF5C01234FF0300E6F
:100D24005168DFF87CC003FA01F841F210010EFBB0
:100D340007C747F8018092F80880D7680EFB08C8F7
:100D440003FA07F748F80170177C526993400EFBC9
:100D540007C25350B188D2E7022203F83020182288
:100D64000123504330250A18085C51680C4C03FADF
:100D740001F641F2100105FB00404650107AD66896
:100D840005FB004003FA06F64650107C5269934076
:100D940005FB00425350BBE7B83F0020781C0020FD
:100DA40000C00340D03F002070B5024605460E49FE
:100DB40001200EF00BFA012641F230020B4C236B9A
:100DC400A6500022DB07626205D4204606F012FA20
:100DD40042F23003E650064B1868236B0123684344
:100DE400E061E36070BD00BF2C08030000400540D3
:100DF400582300202DE9F047294CC5006219967844
:100E04002849182356B303FB00104FF0010E0023AA
:100E1400302741F2100842F2100992F801C0224E24
:100E240010F8332000EBC30107FB026249684CFA57
:100E340003FA1AF0010F0EFA01F103F1010314BFD2
:100E440042F8091042F80810032BE9D10022631973
:100E5400D8789A70BDE8F047FFF7A6BF58430B183F
:100E64000C5C0121302758680F4E01FA00F541F25D
:100E7400100007FB046425501C7ADD6807FB04643A
:100E840001FA05F525501C7C5D6907FB046301FA32
:100E940005F51D50D0789170C0F16400DAE700BF09
:100EA400B83F0020781C002000C0034038B541F250
:100EB40030020125074C236BA5500022DB07626238
:100EC40005D4204606F096F942F23003E550022399
:100ED400E36038BD0040054010B50D4901200EF017
:100EE40075F902220B4CE2600B4A117801290CD0EF
:100EF400137A012B04D1094A52F823001DF0AAFFEA
:100F040042F214030122E25010BD0023F3E700BFB4
:100F14004A08030000400540B83F0020D03F0020AD
:100F240010B50024094B1C70094B187810B1012826
:100F340004D010BDBDE81040FFF7ACBE05490EF06B
:100F440045F92046BDE81040FFF754BFC83F0020D4
:100F5400B83F002062080300002210B50A4B1A7043
:100F64000A4B1C7A14B1012C05D010BD0120BDE838
:100F74001040FFF78FBE204605490EF027F92046A2
:100F8400BDE81040FFF736BFB03F0020B83F002057
:100F94006C0803002DE9F843089F054698468946E6
:100FA4001646FFF783FF0023094C760004F835301A
:100FB400084B04EBC50484F80190A4F80280A780D0
:100FC400A67153F82500BDE8F8431DF043BF00BFE8
:100FD400B83F0020D03F002070B5144605460E46A9
:100FE400FFF764FF01220B4B642C28BF642403F831
:100FF4003520002203EBC5035E70DC709A70064B4B
:1010040053F825001DF026FFC4F16400BDE87040CC
:10101400FFF7CABEB83F0020D03F002070B5044699
:10102400FFF744FF0022114B114953F824303025B7
:101034001A70182303FB04F001230A18085C516892
:101044000C4C03FA01F641F2100105FB0040465036
:10105400107AD66805FB004003FA06F64650107C69
:101064005269934005FB0042535070BDD03F0020AD
:10107400781C002000C003407FB5254D0E220021BE
:1010840068462FF0EBFA00242E462919285D002328
:1010940004224968083405F061FE182CF5D10024B7
:1010A4003019C16900230422007E083405F056FE7D
:1010B400182CF5D1174C6946204606F0A2F84FF4D7
:1010C4000072A3691F2043F01003A361124B1A603E
:1010D4000223E36005F06EFABDF802200F4B0132E3
:1010E400B0FBF2F20E480F49B2FBF0F201200132DC
:1010F4001A600EF06BF80C4B0C4A00201A600C4A74
:101104005A60FFF78BFF0120FFF788FF04B070BD22
:10111400781C00200040054000E100E05823002036
:1011240040420F0054080300D03F0020C83F002075
:10113400B03F00202DE9F04104460F46FFF7B6FE0C
:10114400134B012153F82420002313701822302656
:1011540041F2100C42F2100E0E480F4D02FB040037
:1011640010F8332000EBC30406FB0252646847FA0C
:1011740003F818F0010F01FA04F403F1010314BF9A
:1011840042F80E4042F80C40032BE9D1BDE8F0814F
:10119400D03F0020781C002000C0034010B5044656
:1011A40019F037F9A04236BFE443001B001910BD03
:1011B4001FB501230022009306210DF10F030CF04B
:1011C4000AFE20B99DF80F3023B102F0E5FB05B00B
:1011D4005DF804FB02F0E1FBF9E7000030B5002400
:1011E400144D85B02C700BF047FB022817D10090EA
:1011F4000DF10E032246032101200CF0ECFDBDF895
:101204000E0048B1204602F0C9FB4FF47A6128462B
:101214001DF02CFE05B030BD02F0BEFBFAE708F06D
:1012240019FA054B0090054A054901200DF0CEFF3F
:10123400F0E700BFE03F00202F23030076080300FF
:101244007B08030008B50BF017FB02280CD1002221
:10125400064B01201A7006F079FCBDE808400246EE
:10126400034901200DF0B2BF08BD00BFD83F0020E4
:10127400C908030013B5044600900A4B0A4A0B49F7
:1012840001200DF0A3FF5CB12246094901200DF0B5
:101294009DFF0094074B084A044901200DF096FF76
:1012A40002B010BD8F080300760803007B0803001A
:1012B400980803002F230300C4080300FFF778BF36
:1012C40009B9FFF775BF704738B5C37B05460BB145
:1012D400832038BDC47C2CB901F0A8FB20B9EB7B7A
:1012E400002BF5D18120F4E72046F2E738B5C37B23
:1012F40005460BB1832038BDC47C6CB9017D82895D
:101304008B1C9A420AD380680DF0AFFA06F0DCFB1E
:1013140030B9EB7B002BEDD18120ECE78020EAE7AC
:101324002046E8E7C37B10B504460BB1832010BD0B
:10133400C37C1BB1012B10D08120F8E7017D828989
:101344008B1C9A420CD380680DF08FFA06F0C2FF12
:1013540040B9E37B002BE9D1EEE706F0D3FFF7E7D2
:101364008020E4E70020E2E7F8B5C37B04460BB134
:101374008320F8BDC37C052B29D8DFE803F0032ABA
:1013840035414C4F057D8289AB1C9A4201D28020A5
:10139400EFE7ADB2294680680DF067FA0646A0680B
:1013A40002352844A7890DF079FA28440130874290
:1013B400EDD32946A289A0680DF05EFA01463046B5
:1013C40006F084FC002848D1E37B002BD0D1812097
:1013D400CFE7017D82898B1C9A42D8D380680DF0B7
:1013E40044FA06F093FCEDE7037D81895A1C91428F
:1013F400CDD38268591C1144D05C06F0B7FCE1E7F8
:10140400017D82898B1C9A42C1D380680DF02DFA2C
:1014140006F02EFDD6E706F087FDD3E7057D828929
:10142400AB1C9A42B3D3ADB2294680680DF01DFAC5
:101434000646A06802352844A7890DF02FFA2844EF
:1014440001308742A3D32946A289A0680DF014FA7B
:101454000146304606F0B0FDB4E7002089E7C37BBF
:101464002DE9F7430446002B40F0BA80C37C062BD9
:1014740000F2B880DFE803F0044A5A6A7585A800D0
:10148400057D8289AB1C9A4203D2802003B0BDE85B
:10149400F083ADB2294680680DF0E7F9A289E91C12
:1014A4008A42064605F10203EFD3881C8242ECD33C
:1014B400A0680535C75C0DF0D8F98046A068B4F87B
:1014C4000C9028440DF0EAF9284401308145DCD31E
:1014D4002946A289A0680DF0CFF98146A068284466
:1014E4000DF0DCF901300544A0684B4610FA85F58F
:1014F400009542463946304609F096FD002873D1DE
:10150400E37B002B14BF83208120BFE7057D828904
:10151400EB1C9A42B9D3ADB2294680680DF0A5F907
:10152400A3680235595D09F0FFFDE7E7057D82896F
:10153400EB1C9A42A9D3ADB2294680680DF095F907
:10154400A3680235595D09F0EDF9D7E7017D828979
:101554008B1C9A4299D380680DF087F909F050FAF0
:10156400CCE7057D8289EB1C9A428ED3ADB2294625
:1015740080680DF07AF9A3680235595D09F0A6FB7D
:10158400BCE7057D8289AB1C9A42FFF47EAFADB205
:10159400294680680DF069F9A289E91C8A42064649
:1015A40005F10203FFF471AFA068C75C8B1C9A427B
:1015B40007D30DF05AF902463946304609F0EEFBDE
:1015C4009CE74FF6FF72F7E7017D82898B1C9A42F4
:1015D400FFF45BAF80680DF048F909F079FA8DE704
:1015E400832053E7812051E700204FE7C37B10B5E8
:1015F40004460BB1832010BDC37C012B0BD003D355
:10160400022B0BD08120F6E708F0ECF948B9E37B14
:10161400002BEFD1F6E708F0F5F9F7E708F002FA46
:10162400F4E70020E7E7C37BF7B50446002B40F05E
:10163400D280C37C072B00F2D080DFE813F00800CF
:101644003800590086009B00AA00B600C900037D3B
:101654008289591C8A42C0F0C2809DB2691C881CD0
:101664008242C0F0BC80A068C75C0DF0FEF8EB1CA1
:10167400A6895A1C964228BFA268014624BFD25CA0
:101684002B1D03F1010038BFFF2286422ABFA06848
:10169400FF23C35C384607F01FFB002840F0A180FD
:1016A400E37B002B14BF8320812003B0F0BD067DB3
:1016B4008589731C9D42C0F09280B7B2BA1C9542D2
:1016C40007F10103C0F08B808068C15C13460132CE
:1016D400954224BFC25CFB1C03F1010738BFFF2203
:1016E400BD422CBFC35CFF23805D07F009FBD4E738
:1016F400037D8289591C8A4271D39DB2A91C8A42F6
:1017040005F101076BD3881C824268D3A068C65CCC
:10171400C75D0DF0AAF8291DB4F80CC04B1C9C45FC
:1017240028BFA368024624BF5B5C691D01F1010068
:1017340038BFFF23844532BFFF21A068415C304697
:101744000091394607F0ECFAA7E7027D8189501C25
:10175400814293B222BFA0680133805C03F101028D
:1017640038BFFF2091422ABFA268FF21D15C07F055
:10177400E9FA92E7017D8289CB1C9A422FD38068D3
:10178400455C01310DF071F80146284607F0AEFAC8
:1017940083E7037D81899A1C914220D38268591C76
:1017A400515CD05C07F0B4FA77E7037D8289191D98
:1017B4008A4214D3806899B2C55C4B1C0231C65C62
:1017C4000DF053F831460246284607F0B2FA64E7B2
:1017D40007F0BDFA61E7832067E7812065E7802091
:1017E40063E7002061E7000038B5C37B0446002BA3
:1017F400437D14BF8325C325012B1DD10368028AB1
:10180400598858790BF080FDB0B123685B88082BA8
:101814000BD8DFE803F0050A0A0C0505050A0500E4
:10182400E37B002B14BF83258125284638BD204641
:10183400BDE83840FFF75ABD637D002BF5D123681E
:10184400228A598858790BF056FD0028EDD0236878
:101854005B88082BE9D801A252F823F08518000010
:101864002F1800002F1800008F180000991800008E
:10187400A3180000AD1800002F180000B7180000CE
:101884002046BDE83840FFF71FBD2046BDE838407C
:10189400FFF748BD2046BDE83840FFF765BD204648
:1018A400BDE83840FFF7DBBD2046BDE83840FFF710
:1018B4009DBE2046BDE83840FFF7B5BE7047012005
:1018C400704701207047012070477047002070471F
:1018D40000207047002070470020704700207047A8
:1018E400002070470120704701207047B5207047E1
:1018F4000020704700207047002070470020704788
:1019040070470020704700207047704700207047E0
:10191400842070477047704770470120704700006B
:101924000246024901200DF051BC00BFEA08030041
:101934007047002070477047704770470020704719
:101944007047002070470000034B1B68187801287B
:1019540008BF0220704700BFE8370020002070470E
:1019640003460120024AC3E9032000221A7070478B
:101974000100FEFF704700207047002070470020E0
:101984007047002070470020704700207047704760
:10199400B520704700207047002070477047002032
:1019A400704770477047B52070477047704770475D
:1019B40000207047704770470023FF21084A1370C6
:1019C40082F8783082F8653082F8773082F879309E
:1019D40082F87A1082F87B30024A1360704700BFA5
:1019E4005C230020E83F0020F8B50D468C680A68A7
:1019F40006462849202002F06CFE6B687BB9264914
:101A0400202002F066FE202009F01AFC2349202041
:101A140002F074FEBDE8F840202009F011BC002E4D
:101A2400F1D01F4D1F4E204F013C14F8013F23B944
:101A34001A49202002F062FEE5E7752B18D0762BB8
:101A440018D0772B18D0732B18D0722B18D0712B79
:101A540018D0622B18D06E2B18D02A2B18D013490B
:101A6400134A212B18BF1146202002F032FEDCE776
:101A74002946F9E73146F7E73946F5E70D49F3E733
:101A84000D49F1E70D49EFE70D49EDE70D49EBE7A6
:101A94000D49E9E705560300A509030056090300AB
:101AA40063090300570903006E090300AF0903002B
:101AB400AC0903007A090300840903008F090300B9
:101AC4009A090300A4090300A9090300F0B500263C
:101AD400204A92F87B30184452FA80F090F865C09E
:101AE40090F8665030461C4BA5EB0C051F78EDB200
:101AF400F4B2A54225D90CEB060313445B7811B16B
:101B04000CB92D2B17D0782B1FD0582B05D108B129
:101B140037240AE0013C012C14D9602B17D8402B40
:101B2400F6D83A2B34BF302400241B1BDBB29F426F
:101B340003D900FB07300136DAE70523002082F8D9
:101B44007930F0BD10270020F5E70028E2D05724B3
:101B5400EBE700BF5C230020A81C0020FFF72CBF8C
:101B6400034B93F8770093F87B30C01AC0B27047E8
:101B74005C2300200021FFF7A9BF000010B50A4B29
:101B840093F87B20024453FA82F292F865201344BE
:101B94005C78A4F12D0359425941FFF797FF2D2C8E
:101BA40008BF404210BD00BF5C23002030B50C4A82
:101BB40092F87B300344C043DBB2C00F39B1D5186F
:101BC40095F8664095F86550641B241A0C7042FA27
:101BD40083F393F865301844024B184430BD00BFBA
:101BE4005C2300205D230020F7B515460E460DF159
:101BF40007011C46FFF7DAFF9DF807300746AB42A2
:101C040088BF8DF807501CB19DF807402C1BE4B227
:101C140022463046002100F079FB30199DF8072058
:101C2400394600F017FB9DF8070003B0F0BD38B546
:101C34000C4601230822FFF7D7FF04F10803621EB4
:101C4400043413F8011D12F8015FA3421D701170D2
:101C5400F7D138BD38B5054601460120FFF7C4FE6B
:101C6400D5E901436CB91C46084D236863B1294684
:101C7400202002F02EFD21460020FFF7B5FE0C3493
:101C8400F3E71B786E2BEFD038BD00BF2558030057
:101C940008B50449202002F01CFDBDE808402020BE
:101CA40009F0CEBA1709030038B5FFF7F1FF002495
:101CB400054D61190C34631953F80C3C03B938BD54
:101CC4000020FFF791FEF4E72C1703002DE9F84FED
:101CD4001F4B204D53F820201F49202002F0F9FC0F
:101CE4002B681BB9BDE8F84FFFF7DEBF1B4FFFF7AA
:101CF400CFFF0026B946DFF86CA097F87B30F4B22A
:101D0400013B9C4204DB2868BDE8F84FFFF7A2BF03
:101D140047FA86F393F8658000234C44C84494F84A
:101D2400662094F8651003F1010B521ADBB2D2B2AB
:101D3400934205D30A49202002F0CBFC0136DCE7AC
:101D440043445A785146202002F0C3FC5B46E6E740
:101D5400AC1C0020E83F0020120903005C23002093
:101D640026580300645A03002DE9F74F884C94F871
:101D74007730002B00F0A180864B671C1B7813F092
:101D8400010F1FD00025844E14E0631993F86620D8
:101D940093F865302020D21A44FA85F393F865103D
:101DA400D2B2394409F047FA3146202002F091FCBE
:101DB4000135EDB294F87730AB42E6D8774920206C
:101DC40002F087FC002694F87730DFF8DCE1019319
:101DD400734B4FF00008714645461EF8012B91F8ED
:101DE40001C007EB020AACEB020C5FFA8CFC18682A
:101DF400002852D00138D14619E02AB9002D4AD022
:101E04004FF001080C33F2E719F8011BA1F1410B63
:101E1400BBF1190F98BF2031A2F1410B98BFC9B291
:101E2400BBF1190F9CBF2032D2B28A42EAD1A9EB8E
:101E34000A01614510F8012FDFD1002ADED11D46C9
:101E4400584B01361D6094F87B30F6B2013384F8A8
:101E54007B30D5E90123002A35D01B786E2B31D095
:101E64003F2B23D04FF000094FF0070BC846042343
:101E740094F87710AA68B14212F808702BD8AFB161
:101E8400904498F801302A2B10D0212F1CBF032333
:101E940084F879300AE01D46B4E7B8F1000F01D1A7
:101EA400002DCDD10223002584F8793094F87900EF
:101EB400002869D168680CF0C7F903B0BDE8F04F99
:101EC400FFF77ABD1346019AB24282D803221D4617
:101ED40084F87920EAE7732F09D8712F0BD2212FC8
:101EE4001FD0622F3CD0002F4BD1032246E0A7F134
:101EF4007502022A45D8752F29D0762F2AD0732F40
:101F04002BD0722F47F6FF7A18BF4FF0FF3A01210A
:101F140048460193FFF7DAFD5045019B01D984F847
:101F24007930AA68424452782A2A94F879201CBF4E
:101F340008F101085FFA88F8002AB7D1212F1FBFE2
:101F4400013609F10109F6B25FFA89F990E74FF019
:101F5400FF0ADCE74FF6FF7AD9E74FF07F0AD6E7AE
:101F640094F87B204A4454FA82F292F86520224481
:101F74005278222AD5D07B2AD3D0052284F879201E
:101F8400CFE784F879B0CCE7FFF7A0FE95E700BF70
:101F94005C230020D82300202658030054090300A2
:101FA4002C170300E83F0020C12300202DE9F34152
:101FB40006460D464FF000085C4C5D4F66B90DF1C6
:101FC4000701284609F032F978B1262800F0A980E3
:101FD400012384F879304BE0002D00F0A28016F83C
:101FE400013B013D8DF80730EDB23A789DF807309A
:101FF4000D2A3B7001D10A2BE0D00D2B0CD0A3F19C
:102004000A025142514122788846042AD6D8DFE890
:1020140002F0051D263C31000121F4E721B1FFF750
:10202400A3FE4FF00108C9E7202B63D0222B07D170
:102034000223237094F87820642A5DD10623C8E72C
:102044007B2B01D10323F4E70123F2E709B9202B09
:10205400F0D194F87730112B3FD10323B9E7222B29
:10206400F7D00029E6D005234FF0010884F8793031
:1020740004232370B8F1000FA0D094F8790008B1BC
:10208400FFF724FEFFF798FC98E77D2B94F87A007D
:1020940003D1FF28DDD005239BE7602B13D8402B09
:1020A40013D8392B8CBF002230229A1AD2B20F2AAD
:1020B40010D8FF280BD0FF2302EB00128DF8072065
:1020C40084F87A30B6E75722EFE73722EDE784F851
:1020D4007A2073E7202BDED170E70133DBB294F86A
:1020E400782084F87730234483F865200023237014
:1020F400002994D1884661E72378012B09D19DF802
:102104000730A3F1410119299CBF2033DBB28DF8BC
:1021140007309DF80710A3180132597084F878200D
:102124004CE7404602B0BDE8F08100BF5C230020CC
:10213400D923002049BA89B24840C0F30311414071
:10214400080380B24840C3B280EA4310704719F0D4
:1021540091B8704770477047704770477047704731
:10216400704770477047704770477047704700204A
:1021740070477047704700207047704770470020D1
:1021840070477047704770470020704770470120C0
:102194007047012070477047704770477047704719
:1021A400704770472DE9F0470024204DDFF89C90DC
:1021B400DFF89CA05FFA84F840461CF015FCFF2869
:1021C40006460CD122461A49287802F097FA287854
:1021D400013409F035F8142CECD1BDE8F087154B27
:1021E40047B213EA270338BF534659F8242012494B
:1021F400287802F083FA002FE9DA14B1B8F1030F5A
:1022040008D10E4B16F0010F0D49287818BF194656
:1022140002F074FA0A2CDAD10A4B16F0010F0A49BB
:10222400287818BF194602F069FAD0E72D2000205B
:10223400CD0A030056090300F50A0300900A0300BF
:10224400A60A0300B80A0300C20A03003C0A0300FA
:10225400785603008842F0B54FEA92031AD8044630
:102264000D469BB29E00871904370434BC4205F125
:1022740004053AD1C3EB8333314402EB8303013EBB
:10228400304411FA83F3994220D011F8012B00F85D
:10229400012FF8E7541E204421440D4604469BB206
:1022A400A0EB8306043E043CB442A5F104050ED120
:1022B4006FF003045C43C3EB833302EB83032144D9
:1022C4009BB201342044CB1A994209D1F0BD2F7935
:1022D4002771EF78E770AF78A7706F786770E2E7DF
:1022E40011F8012900F8012DEEE715F804CC04F8E3
:1022F40004CC15F803CC04F803CC15F802CC04F88C
:1023040002CC15F801CC04F801CCAEE702449042AB
:1023140000D1704700F8011BF9E710B50138013905
:102324000AB9104606E010F8014F11F8013F9C422B
:1023340001D0E01A10BD013A92B2F1E782B2074B24
:102344004AB1000C1A8008BF4FF6CE22044B14BFCA
:1023540018801A8070474BF6EF62F2E77C1D00206C
:102364007E1D0020094B1888020448BF80F06200DB
:1023740042001A80064A1388190444BF83F4805328
:1023840083F00B0359001180584070477C1D0020D6
:102394007E1D00200022034B1870034B1970034B61
:1023A4001A707047E3230020E2230020E423002076
:1023B4002DE9F04F234E85B0337807468846002B2D
:1023C4003DD04FF6FB73204D98422C7803D952210F
:1023D4001E4800F03BFF1E4B4FF0000B9A4632782C
:1023E4005FFA8BF94A45187811D9484402A9C0B25A
:1023F400019325F0E9F8082241460DEB0200FFF7AE
:102404008CFF0BF1010B019B0028E8D14C462B7883
:10241400A34207D1631C3278DBB29A422B7004BF0B
:1024240000232B709AF8003041461C44E4B2204645
:1024340025F0F2F918B93946204625F093F805B08D
:10244400BDE8F08FE2230020E4230020EA0B030020
:10245400E3230020024B187800F07F00704700BF90
:10246400E5230020034B18780130C0B2187000F047
:102474007F007047E52300201FB5030A8DF80E3056
:102484000323009303AB8DF80D0000F0BFF905B0F2
:102494005DF804FB1FB58DF80F100421030A8DF8B5
:1024A4000E30009103AB8DF80D0000F0AFF905B0CC
:1024B4005DF804FB2DE9F043994689B0BDF840501E
:1024C4009DF84460074688460DF10900114608222C
:1024D400BDF84C40FFF7BEFE8DF81250012E4FEAB6
:1024E40015258DF811908DF813508DF8146017D0C0
:1024F400032E1CD1082212990DF11500FFF7AAFE34
:102504009DF850308DF81D3016230093BDF85420EB
:1025140002AB4146384600F079F909B0BDE8F083D2
:102524008DF81540240A8DF816400F23EDE701209D
:10253400F3E71FB50C46194602238DF80D200093CE
:102544000A4603AB0146204600F060F904B010BD12
:1025540070B586B0044616460DF10D0008221D46DE
:10256400FFF778FE0A232A460093342103AB204662
:102574008DF8156000F04AF906B070BD30B500243E
:1025840085B0ADF80A20021D92B2012A1D46ADF8AD
:102594000840ADF80610ADF8044003D94FF6FF72B9
:1025A400904207D1064A2B46127801A923F04EF92E
:1025B40005B030BD014601AA204623F00DFAF7E725
:1025C400801D00202DE9F74F9846FF2A16BF474B80
:1025D40000241B680E4618BF9C5C814618BF640823
:1025E400B8F1FF0F16BF414B00271B6815461CBFEF
:1025F40013F808707F08FFF735FF4FEA19238DF8A9
:1026040000008DF803600621360A68468DF80460E0
:102614008DF801908DF802308DF805401CF09CFF78
:10262400FF28064604D11824204603B0BDE8F08FE5
:102634004FEA440B0BF1070A0AEB4701C9B21CF03D
:102644003FFF0028EFD10446A3451BD10BF106013F
:102654003A4601F0FE0130465FFA8AF41CF0F7FFB7
:102664004FF0000A5FFA8AF5AF4223D83346BDF82B
:10267400302006214846FFF781FF044630461CF00F
:102684000DFED1E7214628461CF0DCFFA11D0246C1
:10269400C9B230461CF0DBFF611CC9B228461CF0ED
:1026A400D1FFE11D0246C9B2304602341CF0CFFF0F
:1026B400E4B2C9E76D00EDB2294640461CF0C2FF02
:1026C4002146024630461CF0C2FF691CC9B240468E
:1026D4001CF0B8FF611C0246C9B2304602341CF03B
:1026E400B6FF0AF1010AE4B2BCE700BF181D0020DE
:1026F4002DE9F04188B00F4602A906460AF088F990
:1027040000287CD0FFF7AEFE8DF810001CF040FBD3
:102714008DF811001CF03CFB000A8DF81200082211
:1027240039490DF11300FFF795FDBDF808300F216D
:102734008DF81C301B0A8DF81D309DF80D3004A84F
:102744008DF81B608DF81E301CF006FFFF28044630
:1027540057D04FF000089DF80D305FFA88F293428D
:1027640008F101081DD801220DF10E0120461CF0CC
:1027740035FF4FF000089DF80E305FFA88F293425F
:1027840008F1010824D823463A4620210020FFF707
:10279400F5FE054620461CF081FD284608B0BDE83C
:1027A400F081002130460AF05FF905468DF80700F4
:1027B4000DF10701012220461CF010FF2D0A012211
:1027C4000DF1070120468DF807501CF007FFC2E702
:1027D400012130460AF048F905468DF807000DF14D
:1027E4000701012220461CF0F9FE2D0A01220DF1F9
:1027F400070120468DF807501CF0F0FEBBE7A32527
:10280400CBE71825C9E700BFC54C0020F8B51C4626
:102814000E4617460546FFF725FE9DF81810207052
:1028240020461CF099FEFF2804460BD003463A4686
:1028340028463146FFF7A2FE054620461CF02EFD31
:102844002846F8BD1825FBE708B5FEF75DF8BDE896
:1028540008400DF067BD08B5FFF757F80DF08CFD83
:10286400BDE8084005F0C0BC7047FEF7A3B8FFF709
:1028740088B80020704738B504460D46FFF79AF82B
:1028840029462046BDE8384009F05AB9FFF77BB81D
:10289400FFF785B80122052110460EF01BBA042269
:1028A400052101200EF016BA0322052101200EF0A5
:1028B40011BA0222052101200EF00CBA05220120D2
:1028C40011460EF007BA0622052101200EF002BAC5
:1028D4004122052101200EF0FDB9402205210120ED
:1028E4000EF0F8B94222052101200EF0F3B90022BE
:1028F400052101200EF0EEB90222062101200EF07E
:10290400E9B94222062101200EF0E4B94122062150
:1029140001200EF0DFB90122062110460EF0DAB9CB
:102924004022062101200EF0D5B900220621012003
:102934000EF0D0B90322082101200EF0CBB90222F7
:10294400082101200EF0C6B90722082101200EF04B
:10295400C1B90622082101200EF0BCB904220821C5
:1029640001200EF0B7B90522082101200EF0B2B9FA
:102974000022082101200EF0ADB9012208211046E1
:102984000EF0A8B94022032101200EF0A3B90122C0
:10299400032110460EF09EB90022032101200EF0FF
:1029A40099B90222032101200EF094B901220421D5
:1029B40010460EF08FB90422012011460EF08AB998
:1029C4000322042101200EF085B9052204210120EF
:1029D4000EF080B90022042101200EF07BB9002200
:1029E400012011460EF076B90122002109200EF0D3
:1029F40071B90122002110460EF06CB9002307B50D
:102A0400CDE90033012369464FF0FF308DF80230E1
:102A140010F08AF8003018BF012003B05DF804FB01
:102A240001207047012070470120704710B5084C01
:102A340023681B6858790AF06CFE23681B68587970
:102A4400FEF769FF00200DF02BFE012010BD00BF32
:102A5400284B00202DE9F84F80460D461446994630
:102A6400164E06F1010A0DB9BDE8F88F102D4FF08E
:102A74000D02494650462F4628BF1027FFF7EAFBB0
:102A84000123337000230D48F473B37324F05CFF07
:102A9400424601340A495FFA87FBE4B212F8013B6B
:102AA40011F8010F434002F8013CA2EB0803DBB22A
:102AB4005B45F3D3ED1BADB29046D4E7EA23002087
:102AC400E92300202DE9F04F4FF00209364D85B07F
:102AD40003930F9B174601900D220E460146681C76
:102AE400BDF838800293FFF7B5FB49234C46AA464C
:102AF4002B7028464FEA1823AB7385F80F8024F017
:102B040023FF2B7883EA17232B706B787B406B7041
:102B14004FF0000B21E0C4F1100CA7EB0B031FFADC
:102B24008CFC9BB2634528BF63463046A11B00EB77
:102B3400010C5FFA8CF2A0EB060C1FFA8CFC9C458E
:102B44001BD31C44E4B29B44102C1E441FFA8BFB81
:102B540003D1284624F0F8FE0024BB45DBD314B18E
:102B6400504624F0F1FEB9F1010F4FF00004039E2A
:102B740047460BD04FF00109CAE710F801CB1AF809
:102B840002E08CEA0E0C0AF802C0D0E70298042294
:102B94000549FFF75FFB22460421019B029805B01B
:102BA400BDE8F04FFFF756BFEA230020F7B5099FB1
:102BB400BDF820400646CDE900471D46FFF782FFD9
:102BC4002CB13346012221462846FFF743FF00205B
:102BD40003B0F0BD2DE9F7431E46054688469146ED
:102BE400BDF828700D4C0346394630460122FFF7E4
:102BF40031FF33464A4641462846CDE90074FFF783
:102C040061FF042221460B98FFF787FB002814BFBD
:102C14007E20002003B0BDE8F08300BFE62300203F
:102C24002DE9F3410C4615461E468046084F991877
:102C3400214438460422FFF70DFBCDE900676319F0
:102C44002A4621464046FFF7C5FF02B0BDE8F081A1
:102C5400FA23002000207047002070477047704717
:102C6400F7B50024094E0A4F0A4D56F8243003B92B
:102C74003B6835F8142008490092012022460134AB
:102C84000CF0A4FA292CF0D103B0F0BD841D00206F
:102C94002C1E002090400020B123030008B5FFF74C
:102CA400DFFFBDE8084000F0F1B8000007B50020E0
:102CB400FEF760FFC2B2282A0DD8084B53F8223021
:102CC4000BB9074B1B680749012031F8121000911A
:102CD40005490CF07BFA03B05DF804FB841D002069
:102CE4002C1E002090400020B1230300FFF7B8BF42
:102CF4007047000038B50020FEF73CFF0446012071
:102D0400FEF738FF0546054901200CF05FFAA9B229
:102D1400E0B2BDE8384000F0D1B800BFBC230300E6
:102D2400F7B50024094E0A4F0A4D56F8243003B96A
:102D34003B6835F8142008490092012022460134EA
:102D44000CF044FA292CF0D103B0F0BD841D00200E
:102D54002C1E00203E400020B123030073B502ABBB
:102D640003E906000446019D1BF02EFD064620469D
:102D74001BF038FD9DF800008EB1202C0FD82B7865
:102D8400012B37D84FF6FF75394903EB431323441E
:102D940031F81320AA4202D0013221F813204FF651
:102DA400FF72344B344933F8146031F814509642AE
:102DB4001CBF721C23F8142004F0FD02092A31D12F
:102DC4009A8A898A02448A42B4BF9A82998233F8E1
:102DD4001430AB4204D3AE4202D22046FEF79CFD2F
:102DE4000025264BEA5CA24228D00135112DF9D1E9
:102DF40002B070BD022BD2D14FF6FF714FF6FF75B2
:102E04001B4B33F814208A421CBF013223F81420D0
:102E140004F1210233F81210A9421CBF013123F836
:102E24001210BCE71D2CD2D15A8F1118A942BDBF74
:102E340002F1FF3212185A875D87C8E717F0D3FEF4
:102E44000F4B04461B78834203D8DD210D4800F064
:102E5400FDF94FF6FF710C4A04EB04142C4432F8CC
:102E640014308B42C4D0013322F81430C0E700BFC1
:102E7400E2400020904000203E4000203C27030018
:102E8400611D0020A42603001C40002052220021C2
:102E94000148FFF73BBA00BF904000205222FF21B7
:102EA4000148FFF733BA00BF3E40002008B5FFF7E2
:102EB400EDFFBDE80840FFF7F1BF0000014B23F828
:102EC400101070473E400020032310B50F4C4FF400
:102ED4008062C4E904330E4B0E49E3610023A1610F
:102EE40021660D49E01DC4E919120C49A36263620D
:102EF400E3622367E366636722622DF0B7FB084948
:102F040020462DF0B3FB2023A37110BD684100209F
:102F1400FE2700204D270300FE2300205627030030
:102F24005A2703002DE9F84F1F4B16461A7881469D
:102F34008A4698460AB9FFF7C7FF182707FB09878F
:102F44003D6FD7F86CB05D452BD9BC6E796E641BB0
:102F5400B44228BF34462944504622462DF073FB20
:102F6400BB6E2544AB4208BF0025A244361BABEB25
:102F7400050B5E4528BF5E4656B1182303FB098343
:102F8400596E3246294450462DF05DFB3444354495
:102F940024B1182303FB0988C8F870502046BDE803
:102FA400F88F0024E3E700BF6841002010B50B460A
:102FB400EFF311844FF0200181F311881946FFF7D4
:102FC400B1FF84F3118810BD2DE9F84F144D9B46D1
:102FD4002B788146884692460BB9FFF775FFEFF3CD
:102FE400118C4FF0200181F31188002018236F69A0
:102FF40003FB0054666E2EB101308742F8DC4FF0BB
:10300400FF3009E08742FADDC4E91898C4F868A0E3
:103014002667E666C4F874B08CF31188BDE8F88FAF
:1030240068410020FFF750BF70B54FF060441A4B61
:1030340000261A68194D42F001021A60DA680C2061
:1030440042F08072DA60164BC4F8B03F0223C4F831
:10305400006EC4F8806EC5F8F03003F0ABFA114B83
:1030640000F5D52000F2FC40B0FBF3F00E4A0F4B04
:1030740001382861C4F8406E1A600D4BC4F8803ED4
:103084004FF48073C5F80433D4F8003E43F48073DE
:10309400C4F8003E70BD00BFF0ED00E0000004E0A5
:1030A40055CEACC5F8590D00FF030040001000E0F8
:1030B4000D00010010B501240E4B00201C6003F02C
:1030C40005FE234604220321002003F047FE204688
:1030D4000FF03AFAFFF7A8FF0FF037FAFFF7A2FF55
:1030E4002346402204490548FFF76EFF044B18604D
:1030F400C00F10BD44D40340FE2B00206127030001
:10310400301E0020024B1868003018BF01207047A1
:10311400F0ED00E0D123054A037013784170090AE9
:103124008170591CC3701170042070473E2C00201C
:103134002DE9F74F354E074633681C5C032C63D9E1
:10314400DFF8CC8017F060F94FF6FF7A0025C1460E
:103154000534E4B20190D8F800204AB1AC4207D952
:1031640017F052F9019BC01A80B2B0F5FA7F05D965
:10317400601B18BF012003B0BDE8F08F002D3DD0C7
:10318400012D1DD14FF0020B3268D55D4FF0604226
:10319400D2F8801ECB0711D51146D9F80C0040F0A7
:1031A4008070C9F80C00D1F8000E40F48070C1F8AA
:1031B400000E086A0028F0D082F820505D46CAE765
:1031C400E21E05F1010B95425FFA8BFB02D15FFA17
:1031D4008AF5DBE7A21E954202D1CAF30725D5E79B
:1031E400621E95420ED0A91EC9B238461CF02AFAB6
:1031F40051460546FEF79EFF8246C7E75B254FF022
:10320400010BC3E75D25C1E70120B4E7181D0020C9
:10321400F0ED00E010B50B4B90B040226946186801
:10322400FFF7C4FE58B1C1B268461CF095F90446D4
:10323400014612200EF034FE20461CF02FF810B088
:1032440010BD00BF301E002042DE704738B5044672
:103254000D4600F001FD03F094FC294620460EF0D3
:10326400EBFD2B4622460549012007F0EFFF2946D6
:103274002046BDE83840FFF7E7BF00BF71270300D1
:103284006D4B2DE9F0415A686C4CA2655A6AE265AF
:103294006B4AD2F800122166D2F8042262669A6A56
:1032A400A266DA6AE2661A6B22675A6B6267A26BDD
:1032B400DB6B12F0040FA367D4E90F5318BF1D464C
:1032C40017F086F8002285420346606522655DD3C7
:1032D4005C4A95425AD8AA696264E969A164B4F85F
:1032E4005810C1F30801062954D157498A4251D3D1
:1032F40056498A424ED211884DF64262914249D1D2
:1033040040F201706268C4F89420A268C4F898205E
:103314004F4A5049934238BF13460A468B423CD326
:10332400D31AE3640023C4E91F33C4E92133C4E995
:103334002333484E444FDFF814C1AE4233D8D4E9A6
:103344001FC7D4E92165D4E923124FF0000E013BD5
:10335400DBB2FF2B42D1BEF1000F05D0C4E91FC779
:10336400C4E92165C4E92312B4F85830C3F308034F
:10337400052B57D03CD8032B47D0042B58D040F60C
:103384000722013B4B2B98BF104640E000221D460C
:10339400C4E911224FF42060BAE71E68B6F1CD3FAC
:1033A400BED10433BAE756F8042DBA42C5D36245F8
:1033B400C3D2D107C1D5002104EB010EDEF87CE0B5
:1033C4009645BAD004311829F6D10BB9052301E08A
:1033D400013BDBB204EB8301CA67AEE7E0464FF082
:1033E400010EBC4637462E460D4611464246AEE710
:1033F4000C2B1AD03B2B0CD0062BC0D140F6042347
:10340400B0F5206F08BF184601E040F60120BDE882
:10341400F081114B9B6913F0020F40F2025318BF65
:103424001846F4E740F60320F1E740F60520EEE7FE
:1034340040F60220EBE700BF00ED00E000000020B2
:1034440000E100E0A01A00204C030000A8060300DD
:103454009C000020C01A00200080014A10B503F02F
:10346400AFFD044603F0A4FD0022012101FA02F39A
:10347400234014D01B4B33F812301B4A062B13D0B5
:1034840040F207218B420DD1184919480C68844237
:1034940008D14CF23C334B800B88138012E001328C
:1034A400102AE3D1104AF8E74FF20F010F4B588866
:1034B400884214D11988B1F5406F10D211804CF2B2
:1034C4003C325A80084B1A8840F201739A4201BF79
:1034D400084B094AD2E90001C3E9000110BD4FF4C9
:1034E400C061EBE784270300482C00200000002083
:1034F40007020FF0402C002094000020014B188894
:10350400000A7047482C0020014B1888704700BF00
:10351400482C00202DE9F04F4D4C0546A36BD4F800
:1035240050B05A0747BF0027B846D4F84CB0D4F877
:103534005480D4F840A05DBF464FD4F83CA0DFF8D7
:103544003C91DFF83C9113F0080F434B434A18BFFA
:103554001A46B7EB08061FBF6421730801FB0B333F
:10356400B3FBF6F387B01CBF9BB205933C494B46B3
:10357400CDE9017ACDF8008008BF059601F0BEF8C8
:10358400B3B2CDE900931FFA8BF2059B3549284667
:1035940001F0B4F8A36B5B070AD49C3E5E4507D1E7
:1035A400626D314B9A4203D23049284601F0A6F8A5
:1035B400BA4501D8C24504D24A462D49284601F0ED
:1035C4009DF8284607F03CFE236E0BB9636EBBB32F
:1035D4002849284601F07DF800260127DFF8A48059
:1035E400DFF8A490226E07FA06F3134207D058F8C6
:1035F400262013781BB14946284601F06AF80136A3
:10360400202EEFD100260127DFF87880DFF87890AC
:10361400626E07FA06F3134209D008EB8603D3F867
:10362400802013781BB14946284601F052F8013630
:103634001D2EEDD1284607B0BDE8F04F01F058B873
:1036440028460D4907B0BDE8F04F01F057B800BF58
:1036540000000020C01A00208B2A0300922A0300D5
:103664009A2A0300C82A03009C000020012B0300AF
:103674002D2B03004B2B03007A2B0300862A030017
:10368400E1430300902B0300045603002DE9F843A3
:103694000446FFF739FF40F60123984239D010D889
:1036A40040F2025398421DD040F20173984224D054
:1036B40040F20153984213D16549204601F01EF8A7
:1036C40022E040F6032398426CD03DD340F6042315
:1036D400984200F09C8040F60523984200F0B580A3
:1036E400BDE8F8835B49204601F008F85A4B5B4972
:1036F4005A6C204601F002F806E0574A5849D2E9CC
:103704002523204600F0FAFF2046BDE8F84307F0E1
:1037140097BD514D5349204600F0F0FF95F86C30A9
:103724009F0703D55049204600F0E8FF95F86F3015
:103734005E0603D54D49204600F0E0FF95F96F3051
:10374400002BE1DA4A49B8E7434D4A49204600F0E4
:10375400D5FF95F86830980704D06A6C3F49204635
:1037640000F0CCFF95F96830002B04DA6A6F424907
:10377400204600F0C3FF00260127DFF80881DFF8A8
:103784001491AA6E07FA06F3134207D058F82620BC
:1037940013781BB14946204600F0B0FF0136082ECD
:1037A400EFD1B1E72C4D3549204600F0A7FF2B4956
:1037B4006A6C204600F0A2FF95F86930590703D5DA
:1037C4002F49204600F09AFF95F96930002B04DA5E
:1037D4006A6F2949204600F091FF0826294FDFF837
:1037E400B480AB6EF340DA0707D557F82620137878
:1037F4001BB14146204600F081FF0136102EF0D166
:1038040095F86830002B7FF47FAF1F4955E7124DC0
:103814001E49204600F072FF6A6C1049204600F0F1
:103824006DFF1026174FDFF86C80AB6EF340DB079B
:1038340007D557F8262013781BB14146204600F0DF
:103844005DFF01361A2EF0D15EE711494BE700BF48
:1038540015280300522803000000002082280300DA
:103864009B280300B5280300CD2803000729030083
:103874003A290300762903009B290300BF2903008A
:10388400D6290300A42703001C2A03004C2A0300A2
:10389400652A0300B72903002DE9F84F06460025E1
:1038A400154C164FDFF85C80DFF85CA023785FFAD4
:1038B40085FB0BB9BDE8F88F57F8043B2246104945
:1038C400304600F006FF227804F1010982B96278DB
:1038D40082B10BF0030103290CBF41465146304627
:1038E40000F0F7FE304607F0ABFC01354C46DDE74F
:1038F4004C46E8E74146F2E7842C0300040000202C
:103904000C28030054090300ED47030000F00CB831
:1039140000F00AB800F008B800F006B800F004B8E7
:1039240000F002B800F000B872B61EF0080F09D01B
:103934001EF0040F0DD0DFF850E0AEE8FF1F6FF06B
:1039440002000CE0DFF840E0AEE8FF1F6FF00E006D
:1039540005E0DFF834E0AEE8FF1F6FF006006946CB
:10396400EFF309828EE8070086460848084C85452F
:1039740001D3A54501D384F30888FFF781FC84F3C0
:10398400088816F001FD000004000020A0110020AA
:10399400C01A0020FFF7C6BF7047704770477047D2
:1039A40000F07E63B3F17E6F70B505460E46144693
:1039B40016D105F08FFA18B19A210D48FFF746FC8D
:1039C40022463146C5F30B0003F0B6FB044605F06E
:1039D4008DFA5CB19D21BDE870400548FFF736BC07
:1039E400520816F06FFC08B18F21F4E770BD00BFD8
:1039F400A833030037B57F2A14BF154600254BF2C0
:103A040034629142044619D17F2241F20201684690
:103A14000823FFF7EFFF082225496846FEF77DFCDF
:103A240030B908237F2241F2F0116846FFF7E2FF24
:103A3400082269462046FEF70DFC09E041F2F01227
:103A440091421AD11B4901388A6CC96C1D1F0BB9EC
:103A540003B030BD013B9D4200F8012F4FEA122212
:103A6400F5D1002203349A42F2D00132042A04F838
:103A7400011F4FEA1121F6D1EAE701F47042B2F5D1
:103A8400805F07D1C1F30B0404F17E649AB203FB97
:103A94000541D0E701F46042B2F5005FD8D1C1F32B
:103AA4000B0405499AB2214403FB0511C3E700BF87
:103AB400363403000080E00F00E0070070B50546CF
:103AC40016461C46DBB14BF23463994210D1082CE4
:103AD40028BF08247F2241F202012346FFF78AFF10
:103AE400A2B207492846FEF718FC40B941F2F0118A
:103AF400234632462846BDE87040FFF77BBF70BDC1
:103B0400363403002DE9F7430446E0070F46154613
:103B140003D5DD213448FFF799FBE90703D5DE21FE
:103B24003148FFF793FB04F47043B3F5805F3ED153
:103B3400C4F30B0404F17E646B1E2C4A23449342A9
:103B4400264603D9E3212848FFF780FBDFF8989045
:103B540006EB050846453DD1A2070ED04FF6FF738C
:103B640037F8022B02A943EA0243A01E41F8043DA0
:103B74000422FFF715FF0234023DAB070ED0023DCD
:103B840025F00103FB5A02A96FEA03436FEA1343CA
:103B9400042241F8043D6019FFF702FF25B12A46CB
:103BA40039462046FFF7FCFE03B0BDE8F08304F479
:103BB4006043B3F5005F05D10D4BC4F30B041C4403
:103BC4002646C3E7EA210848FFF740FB6FF00F06DB
:103BD4000024BBE716F8013BFF2BBBD0F421484679
:103BE400FFF734FBB6E700BFA8330300FF1FE00F65
:103BF40000E00700FFF78ABE1FB5144A01AB106846
:103C04005168128903C31A8001238DF804300D23EF
:103C14008DF80A3003230E4C082123208DF80B3035
:103C240002F006FE01A9204603F0BDFC4FF400613A
:103C3400022342F21800074AC2F88411235051604B
:103C440041F21C02A35004B010BD00BF3E34030077
:103C54000080014A00E100E0014803F093BC00BF8A
:103C64000080014AA52803D10021024803F07BBC4F
:103C7400704700BF0080014A024B586800F0010001
:103C8400704700BF0080014A024A536A002BFCD1EE
:103C9400704700BF0080014A002070470020704731
:103CA4007047000007B572B602F06BFF894B8A4972
:103CB4005B6940228B6000230B764B768B76F02376
:103CC400CB760B774B778B77CA77802281F82020CD
:103CD40081F82130E023602081F822307F4B81F885
:103CE400232083F8002383F8012383F8022383F835
:103CF400032383F8042383F8052383F8062383F836
:103D0400072383F8082383F8092383F80A2383F815
:103D14000B2383F80C2383F80D2383F80E2383F8F5
:103D24000F2383F8102383F8112383F8122383F8D5
:103D3400132383F8142383F8152383F8162383F8B5
:103D4400172383F8182383F8192383F81A2383F895
:103D54001B2383F81C2383F81D2383F81E2383F875
:103D64001F2383F8202383F82103202083F82223B0
:103D740083F8232383F8242383F8252383F8262335
:103D840083F8272383F8282383F8292383F82A2315
:103D940083F82B0383F82C0383F82D2383F82E2335
:103DA40083F82F2383F8302383F8312383F83223D5
:103DB40083F8332383F8342383F8352383F83623B5
:103DC40083F8372383F8382383F8392383F83A2395
:103DD40083F83B2383F83C23CB6823F4E0631B0480
:103DE4001B0C43F0BF6343F40133CB604B6943F0D6
:103DF40010034B614FF4E0234B6204F0A1F9FFF789
:103E04002DFBEFF308834FF0CD31354A043B934249
:103E14005DD2344A002192B23348FEF777FA62B693
:103E2400684603F0B1F9314B9B6DDB0318D4304A7B
:103E3400136823F4FF0323F4FE4343F4BC1343F455
:103E4400A063136052F8043C23F4704343F44043EA
:103E540042F8043C52F8043C43F4E06342F8043C66
:103E64009DF80130012B0FD19DF8003063B94FF05C
:103E740000531B681F4B1B681F4B1B681F4B1B68A1
:103E84001F4B1B681F4B1B681F4AD2F8803043F03E
:103E94000303C2F8803002224FF040231A6704F073
:103EA400C9F801F0E5FA002300938DF804300123EA
:103EB40068468DF8033002F000FF00F027F916F091
:103EC400B5FA12480EF04AFB03B05DF804FB196022
:103ED400043B9CE75400000000ED00E000E100E03A
:103EE4006011002094100000A000002000C00040D9
:103EF40034C00040004000200080002000C00020AA
:103F0400000001200040012000800040305E0300DA
:103F140040F2016016F038BAFEF7A0BE08B50021E1
:103F24000B20FEF799FEBDE80840FEF798BE03207B
:103F340000F078BA08B5FFF7E1FA044B0B289ABFF2
:103F440000B203EB8000184608BD00BF8E350300A5
:103F540008B5FFF7D9FA044BC0F30F2253F8223007
:103F6400C0B203EB800008BD5835030010B5FFF75D
:103F7400C5FA0446FFF7C8FAC0B228B9012C24D107
:103F840064F07F04E4B216E0072CF9D801A353F8D7
:103F940024F000BFBB3F0000853F0000B93F000094
:103FA400BF3F0000BF3F0000C33F0000C73F000009
:103FB400CB3F00000924204610BD0224FBE7032464
:103FC400F9E70B24F7E70624F5E70446F3E700BF17
:103FD40007282DE9F84F04460F462DD0082808BFBE
:103FE400022421460120FDF7E6FCFFF745FE651E8D
:103FF400D5F1000848EB050800B3012C1ED1A5201B
:10400400FFF730FE2646EFF31089012383F310886F
:10401400EFF3118A4FF0000B8BF31188354D4046B6
:1040240007F07CFB631EC5F800B0042B59D8DFE809
:1040340003F00E4D4D5155000324D2E7FFF71CFE4B
:1040440018B1FFF721FE0026DDE70646DBE72A4A22
:10405400136923F00403136130BF284AD2F82434CF
:10406400D2F8202413409BB2254A2B60D2F80011C9
:10407400480102D51168490106D4D2F8001188011B
:1040840005D51268910102D543F480332B601C4B93
:10409400D3F80021520506D51B685B0542BF2B6887
:1040A40043F400332B601EB10121164803F05BFA80
:1040B400404607F053FBCFB18AF3118889F3108887
:1040C4002146BDE8F84F0020FDF775BC012002F041
:1040D400C7FDC2E7012002F0D7FDBEE702F0D6FD1E
:1040E400BBE788210848FFF7B1F8B6E787F31088E3
:1040F400E6E700BF542C002000ED00E000C00340C0
:1041040000E100E00080014ABE35030042F2204194
:10411400044AD2F820341B0C1B045350024A136087
:10412400704700BF00C00340502C00200021FFF75F
:104134004FBFFFF7FBBF00002DE9F04F89B00EF031
:1041440001FA0746002840F0DD806F4E6F4D31685C
:10415400286815F003FB0446002827D033683C4642
:10416400D3E900019A6912689047336804A89B69EF
:104174009B689847336802209B69DB6898473268DC
:1041840005985368E7B2B3FBF0F3BB42916904F1BD
:10419400010442D8CB680020984733689B695B6868
:1041A40098473168286815F0D9FA04460026DFF8E4
:1041B4008891002C53D1564B4FEA8608F35C002BB0
:1041C40031D1A246534BF35C0193534B03EB080BE1
:1041D400019B5FFA8AF7BB42286853D84F4BF35CC4
:1041E400002B3CD04C4B019F9844FBB27E2B28689B
:1041F40035D8D8F8003003AA07EB030A514602ABBE
:1042040015F0E6FC48452AD05146286815F026FDED
:10421400013704460028E8D021E012680B6907FB47
:1042240000209847ABE73C4B03AA53F82670286854
:1042340002AB394615F0CCFC484507D078B9039B4E
:10424400012B0CD03946286815F008FD344B39464B
:1042540053F8083028681A6815F0E4FB0446013660
:10426400282EA6D1B4FA84F32E4A5B0913702E4B80
:104274009C4241D02DD8002C32D0013B9C423FD0EF
:10428400C5242DE0DBF8003003AA1F44394602ABF5
:1042940015F09EFC48450AD010B10AF1010A97E7CF
:1042A400039B8BB9214B029AF35C9A42F5D01F4BC6
:1042B4001B4A9B5D52F808203946286815F024FBF8
:1042C4000028EAD0044689E73946286815F0C6FC78
:1042D400EDE7174B9C4211D004339C42D0D1C1244A
:1042E4002B681B7C23B14FF489711248FEF7AEFF93
:1042F400204609B0BDE8F08FC324F1E7C424EFE7FA
:10430400C224EDE7C624F3E7801E00207C1E0020B3
:10431400A80F0300E00E0300F80F0300D00F030002
:10432400080F0300582C002002E000F0981003004E
:1043340004E000F04E3603000BE000F0272970B5CE
:1043440006460C4615461AD8144A127822B3144A63
:104354001068144A52F82110134A125D3AB13246D9
:1043640015F0AEFBC0B1BDE87040FDF7F2BE7F2D85
:1043740008BF00253246294415F010FBF2E7FF2957
:1043840003D9BDE87040FFF799BB40F24511BDE881
:1043940070400648FEF75ABF70BD00BF582C00207D
:1043A4007C1E0020F80F0300A80F03004E36030004
:1043B4002728F8B504460D46164619D81449097835
:1043C40029B31449144F0868144951F824103C5D6A
:1043D4003CB1126815F026FBC8B1BDE8F840FDF702
:1043E400B8BE7F2D08BF0025294415F08DFAF3E7E8
:1043F400FF2805D91A463146BDE8F840FFF782BBCD
:104404004FF4BC71BDE8F8400548FEF71FBFF8BD86
:10441400582C00207C1E0020A80F0300F80F030076
:104424004E36030008B5084B1B7863B1074B0022D6
:1044340053F82010064B186815F082FB18B1BDE83C
:104444000840FDF786BE08BD582C0020F80F030075
:104454007C1E002070B5164685180AB9304470BD1C
:1044640001F00F030A2B34BF30243724013A2344CC
:10447400090905F8013DD2B2EFE70000F0B5F9B142
:1044840000281CDA2D23B0F1004F137000D04042F5
:10449400012115E0801B8642ECB205F10105F9D932
:1044A40004B927B101274D1C30345454E9B2013307
:1044B400092B09D1303050540131C8B2F0BD00216C
:1044C40000231F46DFF808C05CF823600025E2E7FC
:1044D400D83603002DE9F04F4FF0000B95B002AC35
:1044E40081468A4617461D465E46A0463B7863B918
:1044F40002ABE41AE4B2224619465046C8470028E3
:1045040040F093803444E0B290E0252B13D0BBF10B
:10451400000F14D12370013412AB9C426DD3A4EB71
:104524000804E4B2224641465046C84700287CD1DC
:104534002644F6B260E0BBF1000F00D101373B78AE
:10454400632B00F092801BD8392B09D8302B80F0D4
:104554009E80002BCCD0252B51D04FF0000BDBE7F5
:10456400582B00F08B80622BF7D14FF0000B2B6897
:1045740001936B680093009B9B4543D10835ECE79E
:10458400702B1ED017D8642B01D06C2BE5D16C2B6B
:1045940005F1040B28686CD17B78752B14BF0121BD
:1045A400002101D0642B00D101372246FFF766FFBA
:1045B40004445D46D1E7752BE9D0782B5ED0732B8C
:1045C400CBD1A4EB0804E4B2224602A9504605F17B
:1045D400040B2D68C84740BB2644F6B2C4B22B5D19
:1045E4000130002BFAD1224629465046C847E0B98B
:1045F4005D4683462644F6B24446013776E7237087
:104604000134AAE7019B204613F80B100222FFF79E
:1046140021FF12AB984204460ED3A0EB0804E4B287
:10462400224641465046C84718B1002015B0BDE89F
:10463400F08F26444446F6B2009B013B5B4582BFA3
:1046440020232370013412AB9C420BD3A4EB080447
:10465400E4B2224641465046C8470028E5D12644E4
:104664004446F6B20BF1010B85E72B680435237041
:10467400C6E7752B0CBF0021012196E720460222D4
:104684002978FFF7E7FE05F1040B044691E77A78F1
:1046940002F0DF02582A19D1322B07F1010B09D19C
:1046A4000422204629882F1DFFF7D4FE3D460446E8
:1046B4005F4652E7342B09D12F1D2D680422290CA3
:1046C4002046FFF7C7FE0422A9B2EDE74FF0010B25
:1046D40022E70EB403B503AA52F8041B019207F0B3
:1046E400D3F8C0B202B05DF804EB03B07047000029
:1046F4000149FFF7EEBF00BF540903000EB433B500
:1047040005AA52F8041B0546019207F0BDF80446B9
:104714002846FFF7EDFFE0B202B0BDE8304003B039
:10472400704708B507F0B0F8C0B208BD2DE9F04FE6
:104734009B46584B85B01B78064689461546109F04
:104744009DF844A0DDF85080002B00F09280072AE9
:1047540000F291800E9B002B00F08D800F9B002BAC
:1047640000F08980129BB3F5006F00F38480012868
:1047740001D1002F7FD0484B03EB05131B7B002B8B
:104784007BD0464C1022002168462BF067FF04EBD7
:1047940045141022B9F1000F5CD1494620462BF094
:1047A4005DFFA37843F01003A370E37843F0300374
:1047B400E370BAF1000F03D1DBB243F00303E370FB
:1047C40036496A01129B885A013B63F30E100E9B13
:1047D40001EB020C8852CCF808300F9B9DF84C106A
:1047E400CCF804309CF80330012E61F38303CDF838
:1047F40000B08CF8033042D113230CF1100ECCF826
:104804000C309CE80F008EE80F006FF00301DCF819
:104814001C20B9F1010F61F39F02CCF81C20CCF8E5
:10482400147004D10F9BCCF80470CCF81830002716
:1048340019492A018B1841F80280159A28465A60B2
:104844009F605E732246694602F018FB384605B045
:10485400BDE8F08F002120462BF000FF1023A37049
:104864000323E370BAF1000FAAD1DBB243F03003A3
:10487400A5E70B48EBE70B48E9E70B48E7E7B8F196
:10488400000FD4D19CF8023068F304138CF8023082
:10489400CDE700BFDC2D00205C2C0020DC2C0020A8
:1048A400028000F0018000F0078000F038B5104B62
:1048B40005461B78BBB1C0B102F06BF900230D496A
:1048C40001EB0312147B3CB92B60012314601373B6
:1048D40002F065F9204638BD0133082BF0D102F00F
:1048E4005EF90548F7E70548F5E70548F3E700BF33
:1048F400DC2D00205C2C0020048000F0028000F0FD
:10490400018000F038B502F044F9002305460A4A54
:10491400D1180C7B5CB91033802BF9D102F060FA0A
:10492400064B28461C7002F03AF9204638BD28464A
:1049340002F035F90248F9E75C2C0020DC2D002058
:10494400058000F00D4B10B51B78044693B1072881
:1049540012D802F01EF90A4B03EB04131A7B2AB196
:1049640000241C7302F01BF9204610BD02F017F955
:104974000448FAE70448F8E70448F6E7DC2D002089
:104984005C2C0020068000F0028000F0018000F022
:10499400164B13B51868002301908DF8043002F00B
:1049A400F8F8134B1C7824B102F0F9F8114802B05E
:1049B40010BD01221A7002F0F2F80F4B1C731C7721
:1049C40083F82C4083F83C4083F84C4083F85C40E7
:1049D40083F86C4083F87C4004230DEB03008DF8CE
:1049E400073002F021FA2046E1E700BFFC3603005D
:1049F400DC2D0020038000F05C2C002010B588B072
:104A04000E9C009207940D9C024606949DF830403B
:104A140005940B9C04949DF8284003940024CDE94C
:104A2400013420460B462146FFF780FE08B010BD36
:104A340010B588B00E9C009207940D9C0246069413
:104A44009DF8304005940B9C04949DF828400394F1
:104A54000024CDE9013420460B460121FFF766FE10
:104A640008B010BD08B50A4B1B785BB107280BD8FA
:104A7400084B03EB00131B7B43B1002102F0C4F984
:104A8400002008BD0448FCE70448FAE70448F8E7B6
:104A9400DC2D00205C2C0020028000F0018000F05E
:104AA400078000F008B50A4B1B785BB107280BD8C8
:104AB400084B03EB00131B7B43B1012102F0A4F963
:104AC400002008BD0448FCE70448FAE70448F8E776
:104AD400DC2D00205C2C0020028000F0018000F01E
:104AE400078000F008B50A4B1B7853B107280AD891
:104AF400084B03EB00131B7B3BB102F00FFA0020C1
:104B040008BD0548FCE70548FAE70548F8E700BF93
:104B1400DC2D00205C2C0020028000F0018000F0DD
:104B2400078000F00D4B1B7893B1072812D889B188
:104B34000B4B03EB00131B7B73B10A4BDA6A0123A3
:104B440003FA00F010401ABF00200B700870704781
:104B5400054870470548704705487047DC2D00201C
:104B64005C2C002000000440028000F0018000F072
:104B7400078000F00B4B10B51B780C4663B1072877
:104B84000CD859B1084B03EB00131B7B43B102F063
:104B9400D7F92060002010BD0448FCE70448FAE778
:104BA4000448F8E7DC2D00205C2C0020028000F093
:104BB400018000F0078000F02DE9F843174B1F6DCA
:104BC4005B6D1F4000D5FEE701260025144CDFF87D
:104BD4005480DFF85490374217D02368C8F8006037
:104BE4009BB1A16862680131A16028469847637B44
:104BF400012B0AD148B909EB4513197B1A7F60F3DD
:104C0400410160F3410219731A770135082D4FEA07
:104C1400460604F11004DED1BDE8F8830000044028
:104C24005C2C002050200440DC2C002070B504468D
:104C34000125084E04B970BD94FAA4F0B0FA80F0CE
:104C440005FA00F324EA030456F82030002BF1D0CF
:104C54009847EFE7E02D00204FF00072044BC3F8B3
:104C640080211A604FF08062C3F880211A60704777
:104C740000E100E038B504460D4601F08AFF034B1D
:104C840043F82450BDE8384001F089BFE02D0020EE
:104C9400084BD3F82404D3F82024104042F22042D5
:104CA40020F42A5020F02A004004400C9850FFF7CA
:104CB400BDBF00BF00C00340084BD3F82404D3F8A1
:104CC4002024104042F2204220F4AA4020F0550053
:104CD4000004000C9850FFF7A9BF00BF00C00340B8
:104CE400104A30B5136841611546ABB91060836052
:104CF40011E0091B9C6841611A467CB123465C693A
:104D04008C42F6D9002CF4D052B19060836013B178
:104D14005A69511A596130BD0022F0E72346F4E77D
:104D24002860F3E7342E002010B500F0B1FA094BE7
:104D3400094A196831B11368C41A4B69A34203D3F1
:104D44001B1B4B61106003E0C01A002310604B6111
:104D540010BD00BF342E0020242E0020074B10B5B8
:104D64001B6802205C69064B1B681C4400F0C4FAF3
:104D74002046BDE8104000F093BA00BF342E002056
:104D8400242E002070B59DF8145016460571002598
:104D9400049A8560BDF818500446C5800260C0E9D5
:104DA40003360D4629B961610BB11146984796B196
:104DB400354601F0EEFE0646FFF7B6FF29462046CB
:104DC400FFF78EFF054B1B68A34201D1FFF7C6FF17
:104DD400304601F0E4FE002070BD00BF342E0020F8
:104DE40000210C4A13687BB183420AD1836879B1EC
:104DF4008B6083681BB15A6941690A445A61002077
:104E0400704719469B68EEE70028EFD002207047F0
:104E14001360EEE7342E002070B501F0BAFE114D98
:104E240006462C78CCB9104B1C60104B1C60104B00
:104E34001C8000F0F3F9012000F05EFA00F0AAFAF9
:104E44000C4B0246186040F2E73123460A482BF027
:104E540029FA0A4B186001232B70304601F09FFE9B
:104E6400002070BD202E0020342E0020242E00208F
:104E74002C2E0020302E002018FCFFFF282E0020AE
:104E84002DE9F0410546F8B101F083FE0F4F0646C7
:104E9400FFF74AFF2846D7F80080FFF7A1FF044632
:104EA40028B1304601F07BFE2046BDE8F081A845DC
:104EB4003B6803D123B1FFF751FFF2E7002BF0D198
:104EC400022000F025FAECE72224EDE7342E00203E
:104ED400F0B50D4685B016461F46044680B1FFF76F
:104EE400CFFFBDF82C30002202939DF828302946CC
:104EF400CDE9007320463346FFF744FF05B0F0BD0B
:104F04002220FBE738B50C46054698B191B1002341
:104F14000B7001F03EFE0121074B1B680BB1227898
:104F24001AB101F03CFE002038BD9D420CBF217037
:104F34009B68F3E72220F7E7342E0020F0B51F46E4
:104F4400002387B00D4616468DF817300446A0B1ED
:104F54000DF11701FFF7D6FF9DF817207AB9BDF8B8
:104F64003430294602939DF830302046CDE9007351
:104F74003346FFF707FF07B0F0BD2220FBE703200D
:104F8400F9E70000F8B50C460646C8B1C1B101F016
:104F940000FE0546FFF7C8FE73692360134B1B68C8
:104FA400B3420FD023B9284601F0F9FD03201CE0D9
:104FB400596922689B680A442260F1E700230FE0E4
:104FC400222012E0276800F063F9094E3368C01A02
:104FD4008742F3D900F05CF93368C01A23681B1ABE
:104FE4002846236001F0DBFD0020F8BD342E0020AC
:104FF400242E002070B501F0CCFD064600F048F9DF
:10500400094B05461C880120A4B200F099F918B197
:1050140000F03EF905460134304601F0C0FD00229F
:10502400214642EA050070BD2C2E00200A4B10B523
:105034001B680C4683420CD3084B4FF47A721968F0
:105044000023A0FB01012BF02DF90130206000208A
:1050540010BD2120FCE700BF282E0020302E0020A8
:10506400104B10B51A684FF47A73A0FB0301A2B178
:10507400531E134211D1B2FA82F2C2F11F02C2F1DD
:105084002004A2F1200301FA04F420FA02F22243DC
:1050940021FA03F342EA030010BD00232BF002F9C6
:1050A400FAE700BF302E002000000000F8B51646D5
:1050B4001BA3D3E900238B4208BF82422AD3174B98
:1050C4001A684FF47A73A0FB034503FB0155C2B180
:1050D400531E13EA020014D1B2FA82F2C2F11F0283
:1050E400C2F12007A2F1200124FA02F305FA07F71E
:1050F4003B4325FA01F10B4325FA02F2C6E90032DB
:10510400F8BD0023204629462BF0CCF8C6E900015F
:105114000020F5E72120F3E7AFF30080302E0020D4
:10512400EFA7C64B37894100C2072DE9F84F044663
:105134000BD5374A138801339BB21380FFF7F4FD74
:10514400344B1B680BB1FFF709FEA3075DD500F0D4
:105154009FF8314E074635684FF0000A451B01F0B1
:1051640018FD8046DFF8AC90D9F80040002C48D0F8
:105174006369AB4209D95D1B65613760FFF7EEFDDA
:105184004046BDE8F84F01F00ABD23462A46376081
:105194005969914209D8187994F804C0521A84457F
:1051A40088BF1C469B68002BF2D1404601F0F7FCF7
:1051B400D4F81480C4F814A001F0EBFC8346204614
:1051C400FFF70EFE584601F0EAFC23694BB101F0EB
:1051D400E0FC834621692046FFF782FD584601F032
:1051E400DEFCE36813B121682046984700F050F8CC
:1051F4004744ED1B0446054401F0CBFC274680469A
:10520400B2E7022000F084F8BAE7BDE8F88F00BFE7
:105214002C2E0020342E0020242E00201FB5002424
:10522400184B18689A88029053F8060FADF80C20B2
:105234001B79009002A88DF804308DF808408DF891
:105244000C4001F007FF694601208DF8004001F091
:10525400C5FE4FF090431F219A6922F01F029A6104
:10526400094A11609A6A12F00802FBD11A620120FD
:1052740001F0CEFE4FF48062044BC3F880211A6023
:1052840004B010BD003703001420004800E100E022
:105294004FF090439A6A1207FCD4186A70470000D2
:1052A4004FF09042936A1907FCD4136A116C526947
:1052B400120704D4CA1A022A01D899420ED1C21A7A
:1052C400012A98BF981CB0F1FF3F28BF01304FF06E
:1052D400904318649A6942F008029A61054A137867
:1052E4003BB14FF09041CB6B43F00203CB630023FF
:1052F40013707047381E002082074FF0904200F070
:105304000103916948BF43F008030B43936170475D
:10531400830700F001020AD50121084B42F008027C
:1053240019704FF09041CB6B23F00303CB634FF024
:1053340090418B6923EA02038B617047381E002079
:105344004FF0904301285B6904D0022805D1C3F3D0
:10535400C000704703F00100704700207047000050
:1053640010B501F016FC4FF0904304465B691A0730
:10537400074A03F0010003F00D0348BF40F00200A8
:105384001360FFF7D1FE2046BDE8104001F007BCD2
:10539400142000481B2001F00DB900000022114622
:1053A4002D48F0B503682D4D54592CB11E68AC1826
:1053B400002E3DD1234601210832282AF4D101B11F
:1053C4000360002214462649264E0B6895592DB1D8
:1053D4001F68B518002F32D12B4601240832282A21
:1053E400F4D104B10B6000680368002B2FD04FF098
:1053F4004022936F007923F0FF7323F4803343EA50
:1054040000439367184B4FF0004209681A600B6819
:10541400FBB14FF04022936F097923F4FF7323F01B
:1054240001030B439367104B4FF080421A60F0BDA9
:105434001E792779B74284BF23460121BCE71F792F
:1054440095F804C0BC453CBF2B460124C6E7074B76
:10545400D9E7064BE8E700BF3C2E00204C2E002085
:10546400402E0020742E00206850004068600040E8
:1054740010B5012228240F4B00211A700E48224631
:105484002BF0ECF8224600210C482BF0E7F80C4BEB
:105494000C4A13600C4A13604FF040430B4A1360EC
:1054A400536020220A4BC3F880211A60FFF776FF6D
:1054B400002010BD382E00204C2E0020742E002019
:1054C400442E00203C2E0020402E0020646000402A
:1054D40000E100E04FF04022D2F88800D2F8883092
:1054E400C0F38800C3F388039842F5D16FF488733E
:1054F400184440B2704700004FF04022936E526E41
:1055040010B5134013F0804211D0114B1B681C6876
:105514002CB1002119605960FFF7DCFFA0474FF060
:1055240080420C4B1A60BDE81040FFF737BF002BD8
:10553400F9DA094B1B681C682CB11A605A60FFF732
:10554400C9FF0121A047034B4FF00042EAE700BF27
:10555400402E0020646000403C2E0020FFF7CCBFAA
:10556400012203685A619A69D207FCD541F2AC5210
:10557400042103795B0103F1804303F570339950EF
:105584007047000038B141B1013AB2F5006F0448E8
:1055940038BF00207047034870470148704700BF78
:1055A400037000F0027000F038B504460D4601F0B7
:1055B400F0FAA28892B222B92A6001F0F0FA064801
:1055C40038BD1422638802FB034308332B6001F0C7
:1055D400E6FA0020F4E700BF0B7000F038B504468B
:1055E4000D4601F0D6FAA3889BB223B92B6001F0D3
:1055F400D6FA0C4838BD14226388E18802FB0343C1
:1056040008332B6063885A1C92FBF1F301FB1323CC
:105614009BB26380A388013B9BB2A38001F0BFFAD5
:105624000020E7E70B7000F090F83130022B0BD12B
:105634003022437F90F821005A43044B9B5823FAAD
:1056440000F000F0010070470020704714C00340D0
:10565400002313B51C4A52F8234094F821108142C8
:105664000ED00133042BF6D102B010BD0028FBD1BB
:105674009DF80730002BF7D0A068FFF7F3F9F3E7A4
:1056840094F83130022BEFD12046FFF7CDFF637E33
:105694002076022BE8D194F82E3003F0FF02002B81
:1056A400E2D102A901F8012DA068FFF73BFA237E9D
:1056B4001BB194F82F30002BD8D00023A06884F8B5
:1056C4002F30FFF7EFF9CFE79C2E0020012230B5F1
:1056D40090F8324087B080F82C207CB9094D0368DB
:1056E400CDE9024504904C682433CDE900240A68CE
:1056F4004169C068FFF79CF907B030BD002380F80A
:105704002C30F9E7BD5F0000012330B590F832403A
:1057140087B080F82D307CB9094D0268CDE9024587
:1057240004904C683C32CDE900340B680169806810
:10573400FFF764F907B030BD002380F82D30F9E796
:1057440049570000F7B5906A01A91446FFF72CFFEA
:10575400144B984220D00025019B1D619D6001F0EF
:1057640018FA019A0746D66826B1D2E900232946D9
:105774002046B04701A9A06AFFF730FFA06A8388DA
:105784009BB263B101A9FFF70FFF01992046FFF710
:10579400BBFF384601F003FA012003B0F0BD84F8E2
:1057A4002D30F6E70B7000F0F8B5044617460D46A9
:1057B40001F0EFF9A388E28806469A4205D800234F
:1057C4003B6001F0ECF91648F8BD1422238805F17A
:1057D400100C02FB034308332A4603CA62451860CF
:1057E4005960154603F10803F6D1106814221860B5
:1057F4002388E18802FB034308333B602388304657
:105804005A1C92FBF1F301FB13239BB22380A38860
:1058140001339BB2A38001F0C2F90020D4E700BF9A
:105824000A7000F02DE9F3410D460446002800F00B
:10583400868001F0AEF9012D064637D1A36A9B8814
:105844009BB2002B39D0A068FFF74CF90023A06A63
:1058540084F82D3083889BB2002B34D1226893695D
:105864009B04FCD5023D012D1BD8E068FFF73AF9F3
:105874000023606A84F82C3083889BB2002B41D1CA
:1058840094F83130032B0CD042F2AC52042123792A
:105894005B0103F1804303F57033995002222368BE
:1058A4005A61304601F07BF9002009E0022D48D10D
:1058B400636A9B889BB2002BD4D101F070F926480F
:1058C40002B0BDE8F08101A9FFF76EFE0199A0685E
:1058D4000831FFF74FF9214F019B1F61A06A8388AC
:1058E4009BB2002BBAD001A9FFF778FE019BD3F835
:1058F4000C80B8F1000FF1D09B6800223946204695
:10590400C047EBE76946FFF74FFE0099E0680831AE
:10591400FFF730F9114F009B1F61606A83889BB2C7
:10592400002BADD06946FFF759FE009BDD68002DC2
:10593400F3D09B68002239462046A847EDE7084883
:10594400BEE7032D8ED1A36A9B889BB2002B7FF404
:105954007AAF636A73E700BF087000F0097000F063
:10596400027000F0036898697047436A9888C0B26F
:1059740070472DE9F341984600230546406A0E46D8
:1059840084881746A4B2CDE900333CB16946FFF7D9
:105994000BFE01A90446E868FFF7ECF8009969B129
:1059A40064B94868019BC01A3860C8F800300B68B5
:1059B40033602B68986902B0BDE8F0810021C8F813
:1059C400001039603160F4E7836A9888C0B2704788
:1059D4002DE9F341984600230546806A0E468488E3
:1059E4001746A4B2CDE900333CB16946FFF7DCFDAC
:1059F40001A90446A868FFF7BDF8009969B164B924
:105A04004868019BC01A3860C8F800300B683360DE
:105A14002B68986902B0BDE8F0810021C8F8001035
:105A240039603160F4E7007E70472DE9F0410446A7
:105A34000F469046FFF7A6FD0546002839D11520EC
:105A440001F0CCF80646A26A93889BB213B194F88D
:105A54002E308BB323689E6916F002060ED1042201
:105A64005A619A699207FCD541F2AC52102123790C
:105A74005B0103F1804303F570339950012384F8EB
:105A8400303094F8323033B9B8444745206818D1DF
:105A940083699B06FCD566B942F2AC521021237986
:105AA4005B0103F1804303F57033995008222368A6
:105AB4005A612846BDE8F081002EC5D0FFF77CF876
:105AC400C1E717F8011B01F049FDDEE710B50446F4
:105AD40080B190F82E302BB9FFF7A6FD10B9A0685D
:105AE400FEF7C0FF002094F82E300133DBB284F8B7
:105AF4002E3010BD0048FCE7027000F010B50446DB
:105B0400A0B190F82E309BB190F82E30012B05D126
:105B1400FFF78AFD10B9A068FEF7C4FF002094F8CF
:105B24002E30013BDBB284F82E3010BD0148FCE777
:105B34000148FAE7027000F0057000F037B590F8FC
:105B440031500446022D1ED1012190F82220457EB9
:105B5400837F01FA02F23020154925B900FB0313B3
:105B640042F2100105E0012D07D100FB031341F2BD
:105B740010015A50002003B030BD247E00FB0313F3
:105B8400002CF4D1ECE7012DF4D1037E73B9112379
:105B94008DF80730FFF79AFF2A460DF107012046DA
:105BA400FFF743FF2046FFF7A9FFE3E71323EFE7DF
:105BB40000C00340F0B504468BB09E4F03AE0D46C3
:105BC4000FCF0FC697E8070086E807001CB99A4C68
