S01E00005A42436F6F7264696E61746F72434C495F56315F305F302E733337DA
S214000000C01A0020D9A201009D340000A1340000CF
S214000010A70B0000000000000000FFFF54000000D7
S21400002004180F00000000000000000000000000A0
S21400003000000000000000000000000000000000BB
S214000040000000000000000000000000A701000003
S20800005000000000A7
S214000054C01A0020D9A201009D340000A13400007B
S214000064A70A0A010002000004180FACA067A70143
S2140000740000000000000000000000000000000077
S2140000840000000000000000000000000000000067
S2140000940000000000000000FFFFFFFFFFFFFFFF5F
S2140000A4FFFFFFFF006007000000000000000000E4
S2140000B4FFFFFFFFFFFFFFFF8000000000000000BF
S2140000C40000000000000000000000000000000027
S2140000D40000000000000000704D0020704D00205D
S2140000E4C01A0020E88B0300980703006011002064
S2100000F42C11002000E0070000000000B7
S214000200C01A0020D9A201009D340000A1340000CD
S214000210C5790000A5340000AD340000D7A2010067
S214000220D7A20100D7A20100D7A20100D7A20100E1
S214000230B1340000D7A20100D7A20100D7A2010066
S2140002402435000024350000243500002435000045
S21400025024350000E9500000195E00002435000037
S2140002602435000081050000ED4E00002DB700008B
S2140002702435000024350000243500002435000015
S214000280243500002435000024350000D7A20100E4
S21400029024350000494700002435000024350000BE
S2140002A0243500004948000021480000243500009D
S2140002B0243500002435000024350000A97C010008
S2140002C0357C0100317C010071730100A57C0100C2
S2140002D0397C0100597C01003D7C0100D7A2010059
S2140002E0ED7C010024350000243500008537000031
S2140002F0243500002435000024350000D7A2010074
S2140003002435000024350000243500002435000084
S2140003102435000024350000243500002435000074
S2140003202435000024350000243500002435000064
S208000330243500006B
S214000334F8B500BFF8BC08BC9E467047F8B500BFC9
S214000344F8BC08BC9E46704710B5054C237833B9F4
S214000354044B13B1044800E000BF0123237010BD12
S214000364FC22002000000000A483030008B5034B11
S2140003741BB10349034800E000BF08BD00000000AD
S21400038400230020A4830300154B002B08BF134B47
S2140003949D46A3F5803A00218B460F461348144A1F
S2140003A4121A30F0D3F90F4B002B00D098470E4B9F
S2140003B4002B00D098470020002104000D000D48B3
S2140003C4002802D00C4800E000BF30F081F920007D
S2140003D429000BF0D3FB30F067F900BF00000800DB
S2140003E4C01A00200000000000000000FC220020CC
S2140003F4704D00200000000000000000042810B526
S2140004040C4614D111B101290BD010BD0C490120A2
S2140004140EF09EFE2046BDE810403222012100F078
S214000424D1B808490120BDE810400EF091BE03285B
S214000434EBD119B10129E8D10349F3E70349F1E700
S21400044498070300A8070300C7070300B7070300BD
S21400045408B5054901200EF07BFE044800F03EF87E
S214000464BDE8084000F0FEB8D6070300010400000B
S21400047438B5837BFBB102685388082B1BD1C37C39
S214000484CBB9037D8489591C8C4214D35479826871
S2140004941149D55C01202A460EF05AFE012C13D1D0
S2140004A4452D02D90221204603E0272D05D92146F1
S2140004B4204600F035F9002038BD0DB10421F2E7DE
S2140004C4204600F0A1F8F6E7022CF4D101212A46D2
S2140004D4084600F077F8EEE7EE07030010B504468A
S2140004E4034901200EF034FE0CB1024B1C6010BD13
S2140004F41B08030018230020014B1B68184700BF85
S2140005041823002070B5024605460E4901200EF059
S2140005141FFE012641F230020B4C236BA65000222C
S214000524DB07626205D4204606F028FC42F230035C
S214000534E650064B1868236B01236843E061E360CA
S21400054470BD00BF27080300004005401C230020A0
S21400055438B541F230020125074C236BA550002222
S214000564DB07626205D4204606F008FC42F230033C
S214000574E5500223E36038BD0040054010B50D4940
S21400058401200EF0E5FD02220B4CE2600B4A1178C6
S21400059401290CD0137A012B04D1094A52F82300FE
S2140005A41EF058FC42F214030122E25010BD002350
S2140005B4F3E700BF4508030000400540503F002015
S2140005C4683F002070B5144605460E46FFF7C0FF88
S2140005D401220B4B642C28BF642403F83520002228
S2140005E403EBC5035E70DC709A70064B53F8250067
S2140005F41EF030FCC4F16400BDE87040FFF782BF13
S214000604503F0020683F002070B50446FFF7A0FF67
S2140006140022114B114953F8243030251A70182340
S21400062403FB04F001230A18085C51680C4C03FA17
S21400063401F641F2100105FB00404650107AD668D8
S21400064405FB004003FA06F64650107C52699340B8
S21400065405FB0042535070BD683F0020581C002024
S21400066400C003407FB5254D0E220021684630F0B9
S2140006746DF800242E462919285D002304224968B3
S214000684083406F02FF9182CF5D100243019C16966
S21400069400230422007E083406F024F9182CF5D131
S2140006A4174C6946204606F070FB4FF40072A369A7
S2140006B41F2043F01003A361124B1A600223E36069
S2140006C405F03CFDBDF802200F4B0132B0FBF2F200
S2140006D40E480F49B2FBF0F2012001321A600EF008
S2140006E437FD0C4B0C4A00201A600C4A5A60FFF780
S2140006F48BFF0120FFF788FF04B070BD581C002054
S2140007040040054000E100E01C23002040420F00AA
S2140007144F080300683F0020603F0020483F002049
S2140007242DE9F04104460F46FFF712FF134B012153
S21400073453F82420002313701822302641F2100C9C
S21400074442F2100E0E480F4D02FB040010F8332040
S21400075400EBC30406FB0252646847FA03F818F079
S214000764010F01FA04F403F1010314BF42F80E402A
S21400077442F80C40032BE9D1BDE8F081683F002025
S214000784581C002000C003401FB50123002200931C
S21400079406210DF10F030DF00CFB20B99DF80F3068
S2140007A423B102F0BFFE05B05DF804FB02F0BBFE09
S2140007B4F9E7000030B50024144D85B02C700CF019
S2140007C4D3F8022817D100900DF10E032246032118
S2140007D401200DF0EEFABDF80E0048B1204602F0F6
S2140007E4A3FE4FF47A6128461EF040FB05B030BDE8
S2140007F402F098FEFAE708F099FF054B0090054AC8
S214000804054901200EF0A4FCF0E700BF783F002065
S214000814522503005D0803006208030008B50CF0C7
S214000824A3F802280CD10022064B01201A7006F009
S21400083479FDBDE808400246034901200EF088BC55
S21400084408BD00BF703F0020C1080300912808B50A
S21400085404D1002002F067FE002008BD9028FBD1DA
S214000864002002F05FFE02481EF0F4FAF4E700BF30
S214000874703F002013B5044600900C4B0C4A0D49FB
S21400088401200EF065FC74B122460B4901200EF0DF
S2140008945FFC002008F05AF9084B0090084A054906
S2140008A401200EF055FC02B010BD00BF87080300FF
S2140008B45D08030062080300900803005225030045
S2140008C4BC080300002307B5044A00930449054BFB
S2140008D401200EF03DFC03B05DF804FB760803002F
S2140008E46208030087080300FFF74EBF09B9FFF745
S2140008F44BBF704738B5C37B05460BB1832038BD64
S214000904C47C2CB901F0C8FC20B9EB7B002BF5D1D4
S2140009148120F4E72046F2E7C37B10B504460BB10A
S214000924832010BDC37C1BB1012B10D08120F8E7B7
S214000934017D82898B1C9A420CD380680DF049FF96
S21400094407F0B8F840B9E37B002BE9D1EEE707F0EF
S214000954C9F8F7E78020E4E70020E2E7F8B5C37BB0
S21400096404460BB18320F8BDC37C052B29D8DFE8E9
S21400097403F0032A35414C4F057D8289AB1C9A420D
S21400098401D28020EFE7ADB2294680680DF021FF42
S2140009940646A06802352844A7890DF033FF28448C
S2140009A401308742EDD32946A289A0680DF018FFCE
S2140009B40146304606F076FD002848D1E37B002B3E
S2140009C4D0D18120CFE7017D82898B1C9A42D8D36F
S2140009D480680DF0FEFE06F085FDEDE7037D818957
S2140009E45A1C9142CDD38268591C1144D05C06F03F
S2140009F4A9FDE1E7017D82898B1C9A42C1D38068F8
S214000A040DF0E7FE06F020FED6E706F079FED3E703
S214000A14057D8289AB1C9A42B3D3ADB22946806861
S214000A240DF0D7FE0646A06802352844A7890DF0C7
S214000A34E9FE284401308742A3D32946A289A06848
S214000A440DF0CEFE0146304606F0A2FEB4E70020C6
S214000A5489E7C37B2DE9F7430446002B40F0BA80B0
S214000A64C37C062B00F2B880DFE803F0044A5A6A17
S214000A747585A800057D8289AB1C9A4203D2802026
S214000A8403B0BDE8F083ADB2294680680DF0A1FE40
S214000A94A289E91C8A42064605F10203EFD3881CA4
S214000AA48242ECD3A0680535C75C0DF092FE804602
S214000AB4A068B4F80C9028440DF0A4FE2844013035
S214000AC48145DCD32946A289A0680DF089FE8146BB
S214000AD4A06828440DF096FE01300544A0684B46F5
S214000AE410FA85F500954246394630460AF0F6FA7D
S214000AF4002873D1E37B002B14BF83208120BFE73B
S214000B04057D8289EB1C9A42B9D3ADB2294680682A
S214000B140DF05FFEA3680235595D0AF05FFBE7E758
S214000B24057D8289EB1C9A42A9D3ADB2294680681A
S214000B340DF04FFEA3680235595D09F04DFFD7E767
S214000B44017D82898B1C9A4299D380680DF041FE00
S214000B5409F0B0FFCCE7057D8289EB1C9A428ED360
S214000B64ADB2294680680DF034FEA3680235595D9F
S214000B740AF006F9BCE7057D8289AB1C9A42FFF4AD
S214000B847EAFADB2294680680DF023FEA289E91C2B
S214000B948A42064605F10203FFF471AFA068C75CFB
S214000BA48B1C9A4207D30DF014FE02463946304693
S214000BB40AF04EF99CE74FF6FF72F7E7017D82894B
S214000BC48B1C9A42FFF45BAF80680DF002FE09F0BE
S214000BD4D9FF8DE7832053E7812051E700204FE7B4
S214000BE4C37B10B504460BB1832010BDC37C012B18
S214000BF40BD003D3022B0BD08120F6E708F054FF6A
S214000C0448B9E37B002BEFD1F6E708F05DFFF7E782
S214000C1408F06AFFF4E70020E7E7C37BF7B504466D
S214000C24002B40F0D280C37C072B00F2D080DFE894
S214000C3413F008003800590086009B00AA00B6008E
S214000C44C900037D8289591C8A42C0F0C2809DB2C5
S214000C54691C881C8242C0F0BC80A068C75C0DF08A
S214000C64B8FDEB1CA6895A1C964228BFA26801460A
S214000C7424BFD25C2B1D03F1010038BFFF2286423D
S214000C842ABFA068FF23C35C384607F015FC00287B
S214000C9440F0A180E37B002B14BF8320812003B0A7
S214000CA4F0BD067D8589731C9D42C0F09280B7B264
S214000CB4BA1C954207F10103C0F08B808068C15CC2
S214000CC413460132954224BFC25CFB1C03F10107A4
S214000CD438BFFF22BD422CBFC35CFF23805D07F0F4
S214000CE4FFFBD4E7037D8289591C8A4271D39DB2E7
S214000CF4A91C8A4205F101076BD3881C824268D37B
S214000D04A068C65CC75D0DF064FD291DB4F80CC070
S214000D144B1C9C4528BFA368024624BF5B5C691D28
S214000D2401F1010038BFFF23844532BFFF21A068CC
S214000D34415C30460091394607F0E2FBA7E7027DA6
S214000D448189501C814293B222BFA0680133805C23
S214000D5403F1010238BFFF2091422ABFA268FF2197
S214000D64D15C07F0DFFB92E7017D8289CB1C9A42B7
S214000D742FD38068455C01310DF02BFD01462846D3
S214000D8407F0A4FB83E7037D81899A1C914220D354
S214000D948268591C515CD05C07F0AAFB77E7037D98
S214000DA48289191D8A4214D3806899B2C55C4B1C8B
S214000DB40231C65C0DF00DFD31460246284607F0AA
S214000DC4A8FB64E707F0B3FB61E7832067E78120AD
S214000DD465E7802063E7002061E7000038B5C37B41
S214000DE40446002B437D14BF8325C325012B18D14D
S214000DF40368028A598858790CF0D2FA88B12368B5
S214000E045B88082B0BD8DFE803F0050A0A050505FE
S214000E14050A0500E37B002B14BF8325812528469D
S214000E2438BD637D002BFAD12368228A5988587905
S214000E340CF0ADFA0028F2D023685B88082BEED8B5
S214000E4401A252F823F000BF710E0000230E00002A
S214000E54230E00007B0E0000850E00008F0E00009F
S214000E64990E0000230E0000A30E00002046BDE8E5
S214000E743840FFF73FBD2046BDE83840FFF74CBD7D
S214000E842046BDE83840FFF769BD2046BDE8384037
S214000E94FFF7DFBD2046BDE83840FFF7A1BE204679
S214000EA4BDE83840FFF7B9BE7047012070470120FF
S214000EB47047012070477047002070470020704735
S214000EC400207047002070470020704700207047BD
S214000ED40120704701207047B520704700207047F6
S214000EE4002070470020704700207047704700209D
S214000EF470477047002070478420704770477047DB
S214000F04704770470020704770477047704700204E
S214000F147047704700F014BD0320704700207047E8
S214000F24034B1B681878012808BF0220704700BFCF
S214000F34B83700200020704703460120024AC3E960
S214000F44032000221A7070470100FEFF704700203D
S214000F54704700207047002070470020704700202C
S214000F64704700207047002070477047B5207047D0
S214000F740020704700207047704700207047704775
S214000F847047B52070477047704770470020704719
S214000F94704770470023FF21084A137082F87830A0
S214000FA482F8653082F8773082F8793082F87A10E1
S214000FB482F87B30024A1360704700BF202300206B
S214000FC4803F0020F8B50D468C680A680646284916
S214000FD4202003F044F96B687BB92649202003F0EF
S214000FE43EF920200AF086F92349202003F04CF924
S214000FF4BDE8F84020200AF07DB9002EF1D01F4D40
S2140010041F4E204F013C14F8013F23B91A492020F3
S21400101403F03AF9E5E7752B18D0762B18D0772B22
S21400102418D0732B18D0722B18D0712B18D0622BB3
S21400103418D06E2B18D02A2B18D01349134A212BFC
S21400104418BF1146202003F00AF9DCE72946F9E721
S2140010543146F7E73946F5E70D49F3E70D49F1E779
S2140010640D49EFE70D49EDE70D49EBE70D49E9E7D3
S214001074F559030075090300260903003309030024
S214001084270903003E0903007F0903007C090300C7
S2140010944A090300540903005F0903006A090300B0
S2140010A47409030079090300F0B50026204A92F873
S2140010B47B30184452FA80F090F865C090F8665079
S2140010C430461C4BA5EB0C051F78EDB2F4B2A542D6
S2140010D425D90CEB060313445B7811B10CB92D2B00
S2140010E417D0782B1FD0582B05D108B137240AE027
S2140010F4013C012C14D9602B17D8402BF6D83A2B78
S21400110434BF302400241B1BDBB29F4203D900FBF0
S21400111407300136DAE70523002082F87930F0BD7F
S21400112410270020F5E70028E2D05724EBE700BF9D
S21400113420230020881C0020FFF72CBF034B93F8C5
S214001144770093F87B30C01AC0B270472023002083
S2140011540021FFF7A9BF000010B50A4B93F87B20C7
S214001164024453FA82F292F8652013445C78A4F1A0
S2140011742D0359425941FFF797FF2D2C08BF4042D3
S21400118410BD00BF2023002030B50C4A92F87B30F7
S2140011940344C043DBB2C00F39B1D51895F8664096
S2140011A495F86550641B241A0C7042FA83F393F87E
S2140011B465301844024B184430BD00BF202300207D
S2140011C421230020F7B515460E460DF107011C46EF
S2140011D4FFF7DAFF9DF807300746AB4288BF8DF865
S2140011E407501CB19DF807402C1BE4B2224630463B
S2140011F4002100F079FB30199DF80720394600F0ED
S21400120417FB9DF8070003B0F0BD38B50C46012364
S2140012140822FFF7D7FF04F10803621E043413F80C
S214001224011D12F8015FA3421D701170F7D138BD7D
S21400123438B5054601460120FFF7C4FED5E901434B
S2140012446CB91C46084D236863B12946202003F078
S21400125406F821460020FFF7B5FE0C34F3E71B78AA
S2140012646E2BEFD038BD00BF155C030008B50449EB
S214001274202002F0F4FFBDE8084020200AF03AB827
S214001284E708030038B5FFF7F1FF0024054D6119A0
S2140012940C34631953F80C3C03B938BD0020FFF72F
S2140012A491FEF4E7801803002DE9F84F1F4B204DFC
S2140012B453F820201F49202002F0D1FF2B681BB9C9
S2140012C4BDE8F84FFFF7DEBF1B4FFFF7CFFF002642
S2140012D4B946DFF86CA097F87B30F4B2013B9C4229
S2140012E404DB2868BDE8F84FFFF7A2BF47FA86F389
S2140012F493F8658000234C44C84494F8662094F818
S214001304651003F1010B521ADBB2D2B2934205D335
S2140013140A49202002F0A3FF0136DCE743445A784A
S2140013245146202002F09BFF5B46E6E78C1C00201B
S214001334803F0020E208030020230020165C030000
S214001344545E03002DE9F74F884C94F87730002B51
S21400135400F0A180864B671C1B7813F0010F1FD08A
S2140013640025844E14E0631993F8662093F86530DC
S2140013742020D21A44FA85F393F86510D2B2394481
S21400138409F0B3FF3146202002F069FF0135EDB2C3
S21400139494F87730AB42E6D87749202002F05FFF16
S2140013A4002694F87730DFF8DCE10193734B4FF0B6
S2140013B40008714645461EF8012B91F801C007EB5C
S2140013C4020AACEB020C5FFA8CFC1868002852D0B8
S2140013D40138D14619E02AB9002D4AD04FF0010849
S2140013E40C33F2E719F8011BA1F1410BBBF1190FFD
S2140013F498BF2031A2F1410B98BFC9B2BBF1190FB7
S2140014049CBF2032D2B28A42EAD1A9EB0A016145D6
S21400141410F8012FDFD1002ADED11D46584B0136C5
S2140014241D6094F87B30F6B2013384F87B30D5E93E
S2140014340123002A35D01B786E2B31D03F2B23D0C6
S2140014444FF000094FF0070BC846042394F87710B2
S214001454AA68B14212F808702BD8AFB1904498F835
S21400146401302A2B10D0212F1CBF032384F8793097
S2140014740AE01D46B4E7B8F1000F01D1002DCDD126
S2140014840223002584F8793094F87900002869D17D
S21400149468680CF08DFE03B0BDE8F04FFFF77ABD28
S2140014A41346019AB24282D803221D4684F8792054
S2140014B4EAE7732F09D8712F0BD2212F1FD0622F82
S2140014C43CD0002F4BD1032246E0A7F17502022A36
S2140014D445D8752F29D0762F2AD0732F2BD0722F6C
S2140014E447F6FF7A18BF4FF0FF3A012148460193AA
S2140014F4FFF7DAFD5045019B01D984F87930AA68D4
S214001504424452782A2A94F879201CBF08F101082C
S2140015145FFA88F8002AB7D1212F1FBF013609F1D8
S2140015240109F6B25FFA89F990E74FF0FF0ADCE7A3
S2140015344FF6FF7AD9E74FF07F0AD6E794F87B2078
S2140015444A4454FA82F292F8652022445278222AB7
S214001554D5D07B2AD3D0052284F87920CFE784F827
S21400156479B0CCE7FFF7A0FE95E700BF2023002064
S2140015749C230020165C0300240903008018030043
S214001584803F0020852300202DE9F34106460D46C2
S2140015944FF000085C4C5D4F66B90DF10701284614
S2140015A409F09EFE78B1262800F0A980012384F86D
S2140015B479304BE0002D00F0A28016F8013B013D87
S2140015C48DF80730EDB23A789DF807300D2A3B7057
S2140015D401D10A2BE0D00D2B0CD0A3F10A02514204
S2140015E4514122788846042AD6D8DFE802F0051D41
S2140015F4263C31000121F4E721B1FFF7A3FE4FF0AA
S2140016040108C9E7202B63D0222B07D102232370BD
S21400161494F87820642A5DD10623C8E77B2B01D191
S2140016240323F4E70123F2E709B9202BF0D194F859
S2140016347730112B3FD10323B9E7222BF7D00029AB
S214001644E6D005234FF0010884F87930042323708C
S214001654B8F1000FA0D094F8790008B1FFF724FE83
S214001664FFF798FC98E77D2B94F87A0003D1FF28BF
S214001674DDD005239BE7602B13D8402B13D8392BDA
S2140016848CBF002230229A1AD2B20F2A10D8FF2812
S2140016940BD0FF2302EB00128DF8072084F87A3073
S2140016A4B6E75722EFE73722EDE784F87A2073E7A8
S2140016B4202BDED170E70133DBB294F8782084F86F
S2140016C47730234483F8652000232370002994D1BF
S2140016D4884661E72378012B09D19DF80730A3F1EA
S2140016E4410119299CBF2033DBB28DF807309DF8E1
S2140016F40710A3180132597084F878204CE7404646
S21400170402B0BDE8F08100BF202300209D23002006
S21400171449BA89B24840C0F303114140080380B275
S2140017244840C3B280EA4310704719F0A3BD70471F
S21400173470477047704770477047704770477047E8
S214001744704770477047704700207047704770476F
S21400175400207047704770470020704770477047F6
S214001764704700207047704701207047012070477B
S214001774704770477047704770477047704700005F
S2140017842DE9F0470024204DDFF89C90DFF89CA05C
S2140017945FFA84F840461DF027F9FF2806460CD168
S2140017A422461A49287802F06FFD2878013409F099
S2140017B4A1FD142CECD1BDE8F087154B47B213EA13
S2140017C4270338BF534659F824201249287802F0D4
S2140017D45BFD002FE9DA14B1B8F1030F08D10E4B04
S2140017E416F0010F0D49287818BF194602F04CFD73
S2140017F40A2CDAD10A4B16F0010F0A49287818BFCA
S214001804194602F041FDD0E7F91F00209D0A0300A7
S21400181426090300C50A0300600A0300760A0300CB
S214001824880A0300920A03000C0A0300685A03009D
S2140018348842F0B54FEA92031AD804460D469BB286
S2140018449E00871904370434BC4205F104053AD1D6
S214001854C3EB8333314402EB8303013E304411FA75
S21400186483F3994220D011F8012B00F8012FF8E7F2
S214001874541E204421440D4604469BB2A0EB830626
S214001884043E043CB442A5F104050ED16FF00304F3
S2140018945C43C3EB833302EB830321449BB20134E2
S2140018A42044CB1A994209D1F0BD2F792771EF78DD
S2140018B4E770AF78A7706F786770E2E711F80129D0
S2140018C400F8012DEEE715F804CC04F804CC15F85E
S2140018D403CC04F803CC15F802CC04F802CC15F8B3
S2140018E401CC04F801CCAEE70244904200D1704724
S2140018F400F8011BF9E710B5013801390AB910469A
S21400190406E010F8014F11F8013F9C4201D0E01A9E
S21400191410BD013A92B2F1E782B2074B4AB1000C0D
S2140019241A8008BF4FF6CE22044B14BF18801A80C4
S21400193470474BF6EF62F2E75C1D00205E1D002048
S214001944094B1888020448BF80F0620042001A80DF
S214001954064A1388190444BF83F4805383F00B03A8
S21400196459001180584070475C1D00205E1D002001
S2140019740022034B1870034B1970034B1A70704700
S214001984A7230020A6230020A82300202DE9F04F3B
S214001994234E85B0337807468846002B3DD04FF655
S2140019A4FB73204D98422C7803D952211E4801F02F
S2140019B465F91E4B4FF0000B9A4632785FFA8BF9A6
S2140019C44A45187811D9484402A9C0B2019325F0B3
S2140019D473FE082241460DEB0200FFF78CFF0BF165
S2140019E4010B019B0028E8D14C462B78A34207D173
S2140019F4631C3278DBB29A422B7004BF00232B7030
S214001A049AF8003041461C44E4B2204625F07CFF98
S214001A1418B93946204625F01DFE05B0BDE8F08FFE
S214001A24A6230020A8230020BA0B0300A723002027
S214001A34024B187800F07F00704700BFA9230020EF
S214001A44034B18780130C0B2187000F07F0070475E
S214001A54A92300201FB5030A8DF80E300323009334
S214001A6403AB8DF80D0000F0BFF905B05DF804FB7C
S214001A741FB58DF80F100421030A8DF80E3000915F
S214001A8403AB8DF80D0000F0AFF905B05DF804FB6C
S214001A942DE9F043994689B0BDF840509DF844605E
S214001AA4074688460DF1090011460822BDF84C4049
S214001AB4FFF7BEFE8DF81250012E4FEA15258DF85D
S214001AC411908DF813508DF8146017D0032E1CD186
S214001AD4082212990DF11500FFF7AAFE9DF8503062
S214001AE48DF81D3016230093BDF8542002AB4146F2
S214001AF4384600F079F909B0BDE8F0838DF8154052
S214001B04240A8DF816400F23EDE70120F3E71FB5EE
S214001B140C46194602238DF80D2000930A4603ABA3
S214001B240146204600F060F904B010BD70B586B0DA
S214001B34044616460DF10D0008221D46FFF778FEF2
S214001B440A232A460093342103AB20468DF81560F9
S214001B5400F04AF906B070BD30B5002485B0ADF883
S214001B640A20021D92B2012A1D46ADF80840ADF8BF
S214001B740610ADF8044003D94FF6FF72904207D121
S214001B84064A2B46127801A923F0D8FE05B030BDCC
S214001B94014601AA204623F097FFF7E7601D0020C0
S214001BA42DE9F74F9846FF2A16BF474B00241B68BB
S214001BB40E4618BF9C5C814618BF6408B8F1FF0F38
S214001BC416BF414B00271B6815461CBF13F8087048
S214001BD47F08FFF735FF4FEA19238DF800008DF8CC
S214001BE403600621360A68468DF804608DF8019075
S214001BF48DF802308DF805401DF0AEFCFF28064631
S214001C0404D11824204603B0BDE8F08F4FEA440BF5
S214001C140BF1070A0AEB4701C9B21DF051FC002874
S214001C24EFD10446A3451BD10BF106013A4601F059
S214001C34FE0130465FFA8AF41DF009FD4FF0000AF3
S214001C445FFA8AF5AF4223D83346BDF83020062122
S214001C544846FFF781FF044630461DF01FFBD1E7D8
S214001C64214628461DF0EEFCA11D0246C9B23046A8
S214001C741DF0EDFC611CC9B228461DF0E3FCE11D15
S214001C840246C9B2304602341DF0E1FCE4B2C9E7AC
S214001C946D00EDB2294640461DF0D4FC21460246AE
S214001CA430461DF0D4FC691CC9B240461DF0CAFC7F
S214001CB4611C0246C9B2304602341DF0C8FC0AF163
S214001CC4010AE4B2BCE700BFF81C00202DE9F0418D
S214001CD488B00F4602A906460AF012FF00287CD0F8
S214001CE4FFF7AEFE8DF810001DF052F88DF81100C7
S214001CF41DF04EF8000A8DF81200082239490DF13D
S214001D041300FFF795FDBDF808300F218DF81C3041
S214001D141B0A8DF81D309DF80D3004A88DF81B6045
S214001D248DF81E301DF018FCFF28044657D04FF0DF
S214001D3400089DF80D305FFA88F2934208F1010816
S214001D441DD801220DF10E0120461DF047FC4FF070
S214001D5400089DF80E305FFA88F2934208F10108F5
S214001D6424D823463A4620210020FFF7F5FE0546F0
S214001D7420461DF093FA284608B0BDE8F0810021FD
S214001D8430460AF0E9FE05468DF807000DF1070116
S214001D94012220461DF022FC2D0A01220DF1070126
S214001DA420468DF807501DF019FCC2E70121304685
S214001DB40AF0D2FE05468DF807000DF10701012250
S214001DC420461DF00BFC2D0A01220DF107012046CA
S214001DD48DF807501DF002FCBBE7A325CBE71825BA
S214001DE4C9E700BF154C0020F8B51C460E4617463A
S214001DF40546FFF725FE9DF81810207020461DF0B6
S214001E04ABFBFF2804460BD003463A462846314629
S214001E14FFF7A2FE054620461DF040FA2846F8BD08
S214001E241825FBE708B5FEF713FB0EF01FFABDE80E
S214001E34084006F081BF08B5FFF75BF80EF040FADD
S214001E44BDE8084005F0C0BD7047FEF711BBFFF7BC
S214001E5486B80020704738B504460D46FFF798F854
S214001E642946204606F084FF29462046BDE8384029
S214001E7409F0C0BEFFF775B8FFF77FB80122052149
S214001E8410460EF0CBBE0422052101200EF0C6BE7D
S214001E940322052101200EF0C1BE022205210120E5
S214001EA40EF0BCBE0522012011460EF0B7BE062277
S214001EB4052101200EF0B2BE4122052101200EF0BC
S214001EC4ADBE4022052101200EF0A8BE4222052107
S214001ED401200EF0A3BE0022052101200EF09EBEB6
S214001EE40222062101200EF099BE4222062101207C
S214001EF40EF094BE4122062101200EF08FBE012270
S214001F04062110460EF08ABE4022062101200EF05D
S214001F1485BE0022062101200EF080BE0322082181
S214001F2401200EF07BBE0222082101200EF076BEB0
S214001F340722082101200EF071BE06220821012086
S214001F440EF06CBE0422082101200EF067BE0522A6
S214001F54082101200EF062BE0022082101200EF0A6
S214001F645DBE0122082110460EF058BE4022032111
S214001F7401200EF053BE0122032110460EF04EBE81
S214001F840022032101200EF049BE02220321012073
S214001F940EF044BE0122042110460EF03FBE042279
S214001FA4012011460EF03ABE0322042101200EF051
S214001FB435BE0522042101200EF030BE0022042185
S214001FC401200EF02BBE0022012011460EF026BE84
S214001FD40122002109200EF021BE01220021104614
S214001FE40EF01CBE07B50123082269460020FFF741
S214001FF4E9F84FF6FD71684600F0CAF8FF28024675
S21400200406D1064901200DF0A3F803B05DF804FBE1
S214002014034901200DF09CF8F7E700BFD425030020
S214002024F025030007B50123082269460020FFF7C0
S214002034C9F8684600F010F930B9044901200DF0DB
S21400204487F803B05DF804FB0149F7E76A26030046
S2140020547826030007B50123082269460020FFF707
S214002064B1F8684600F076F8FF28024606D106491D
S21400207401200DF06DF803B05DF804FB0349012060
S2140020840DF066F8F7E700BF0D2603001D260300D3
S2140020942DE9F74300261C4902200DF059F8344672
S2140020A44FF6FF77DFF86880DFF868900AF056FE90
S2140020B4F5B2A8420AD80AF051FE2246034613494E
S2140020C402200DF045F803B0BDE8F083284625F05D
S2140020D40BFBB842034615D02A46414602200DF0B3
S2140020E453F828466946013425F0E6FA0220E4B29D
S2140020F40DF01AF810B168460CF09CFF4946022011
S2140021040DF026F80136D1E73A26030053260300DD
S214002114482603002609030037B50020FFF718F801
S21400212404460220FFF714F805466946E4B2012087
S214002134FFF76BF8AAB26946204600F05BF8224621
S2140021440346034902200DF003F803B030BD00BF78
S2140021548D260300F7B5064698B100254FF6FF779F
S214002164ECB2204625F0C0FAB84209D069462046AB
S21400217425F0A2FA082269463046FFF7BCFB08B1F0
S2140021841DB1FF24204603B0F0BD0125E8E700009A
S2140021942DE9F34106460F4600254FF6FF78ECB2CC
S2140021A4204625F0A1FA404511D06946204625F080
S2140021B483FA082269463046FFF79DFB58B125B1DD
S2140021C4FF24204602B0BDE8F0810125E7E731464A
S2140021D4204625F099FB4FF6FD739F4203D03946FF
S2140021E4204625F037FA024A535D01335355E8E793
S2140021F4AA2300200128F8B50546174612D80B4E28
S214002204325C8AB925F080FB044638B94FF6FD7374
S2140022149F4203D03946284625F01CFA01237355FD
S2140022242046F8BD6A24FBE77624F9E7AA230020B3
S214002234012810B50CD8074B1A5C0AB1013A1A5497
S2140022441C5C1CB94FF6FF7125F004FA002000E070
S2140022546A2010BDAA23002008B5FFF77BFFBDE85F
S2140022640840FFF7E5BF002307B5CDE90033012397
S21400227469464FF0FF308DF8023010F073FC0030E2
S21400228418BF012003B05DF804FB0120704701204D
S214002294704701207047000010B5084C23681B687F
S2140022A458790BF02EFA23681B685879FEF727FE38
S2140022B400200EF099F9012010BD00BF784A0020D6
S2140022C42DE9F84F80460D4614469946164E06F1FB
S2140022D4010A0DB9BDE8F88F102D4FF00D024946DE
S2140022E450462F4628BF1027FFF7A2FA0123337063
S2140022F400230D48F473B37325F09EFB4246013465
S2140023040A495FFA87FBE4B212F8013B11F8010FA1
S214002314434002F8013CA2EB0803DBB25B45F3D36F
S214002324ED1BADB29046D4E7B0230020AF230020C7
S2140023342DE9F04F4FF00209364D85B003930F9BFD
S214002344174601900D220E460146681CBDF83880DB
S2140023540293FFF76DFA49234C46AA462B7028468B
S2140023644FEA1823AB7385F80F8025F065FB2B78AE
S21400237483EA17232B706B787B406B704FF0000B4F
S21400238421E0C4F1100CA7EB0B031FFA8CFC9BB2E4
S214002394634528BF63463046A11B00EB010C5FFA79
S2140023A48CF2A0EB060C1FFA8CFC9C451BD31C4439
S2140023B4E4B29B44102C1E441FFA8BFB03D1284620
S2140023C425F03AFB0024BB45DBD314B1504625F078
S2140023D433FBB9F1010F4FF00004039E47460BD0C0
S2140023E44FF00109CAE710F801CB1AF802E08CEAAC
S2140023F40E0C0AF802C0D0E7029804220549FFF73B
S21400240417FA22460421019B029805B0BDE8F04F56
S214002414FFF756BFB0230020F7B5099FBDF820404C
S2140024240646CDE900471D46FFF782FF2CB133462A
S214002434012221462846FFF743FF002003B0F0BDE3
S2140024442DE9F7431E46054688469146BDF8287092
S2140024540D4C0346394630460122FFF731FF33461A
S2140024644A4641462846CDE90074FFF761FF042238
S21400247421460B98FFF73FFA002814BF7E20002061
S21400248403B0BDE8F08300BFAC2300202DE9F34180
S2140024940C4615461E468046084F99182144384671
S2140024A40422FFF7C5F9CDE9006763192A462146D9
S2140024B44046FFF7C5FF02B0BDE8F081C023002008
S2140024C40020704700207047704770472DE9F3419D
S2140024D40025254E254FDFF8A4800AF045FCECB213
S2140024E4A0420BD80AF040FC04460AF03BFC224605
S2140024F403461F4902200CF02BFE0BE00DF10502EB
S2140025040DF1060120460AF02BFC30B119490220D1
S2140025140CF01EFE02B0BDE8F081BDF8063022467F
S214002524314602200CF030FE9DF80500FF2808D145
S2140025340AF016FA4146024602200CF009FE01355E
S214002544CBE70DF105020DF106010AF009FC30B9DE
S214002554BDF80620394602200CF016FEE4E70649CC
S21400256402200CF011FED5E7B8260300BC260300B3
S214002574D7260300A2260300C6260300CC260300A3
S21400258408B5104A104902200CF0E2FD0A220F4951
S21400259402200CF0DDFD3C220D4902200CF0D8FD93
S2140025A41E220C4902200CF0D3FD03220A49022005
S2140025B40CF0CEFDBDE808400122084902200CF0CC
S2140025C4C7BD00BF782703007C2703008A270300C3
S2140025D4B0270300D6270300E327030002280300DE
S2140025E408B501200FF002FDBDE808408208024944
S2140025F402200CF0ADBD00BF5627030000200FF0EC
S214002604F5BC02200FF0F2BC08B50020FEF7A0FDD2
S214002614C2B2012A05D9BDE80840054901200CF0DC
S21400262497BD04490120BDE808400CF091BD00BFE9
S214002634EF2603001A27030070470FF08BBF70477E
S21400264491287FB504D11DF033FB07B05DF804FB79
S2140026549028FAD10D4B1B78012B0CD100230120B6
S214002664CDE9010303230A2200934FF6F8713C23B5
S2140026740FF016FDE9E70DF117000AF067FB0028D6
S214002684E3D19DF81730012BDFD1E7E7611D002069
S214002694F7B50024094E0A4F0A4D56F8243003B9FC
S2140026A43B6835F81420084900920120224601347C
S2140026B40CF04EFD292CF0D103B0F0BD641D0020B3
S2140026C40C1E0020284000202128030008B5FFF730
S2140026D4DFFFBDE8084000F0F1B8000007B50020B1
S2140026E4FEF736FDC2B2282A0DD8084B53F822301E
S2140026F40BB9074B1B680749012031F812100091EB
S21400270405490CF025FD03B05DF804FB641D0020AC
S2140027140C1E00202840002021280300FFF7B8BF25
S2140027247047000038B50020FEF712FD044601206D
S214002734FEF70EFD0546054901200CF009FDA9B279
S214002744E0B2BDE8384000F0D1B800BF2C28030042
S214002754F7B50024094E0A4F0A4D56F8243003B93B
S2140027643B6835F8142008490092012022460134BB
S2140027740CF0EEFC292CF0D103B0F0BD641D002053
S2140027840C1E0020D63F00202128030073B502ABA0
S21400279403E906000446019D1CF016F8064620468A
S2140027A41CF020F89DF800008EB1202C0FD82B7852
S2140027B4012B37D84FF6FF75394903EB43132344EF
S2140027C431F81320AA4202D0013221F813204FF622
S2140027D4FF72344B344933F8146031F8145096427F
S2140027E41CBF721C23F8142004F0FD02092A31D100
S2140027F49A8A898A02448A42B4BF9A82998233F8B2
S2140028041430AB4204D3AE4202D22046FEF778FB25
S2140028140025264BEA5CA24228D00135112DF9D1B9
S21400282402B070BD022BD2D14FF6FF714FF6FF7582
S2140028341B4B33F814208A421CBF013223F81420A1
S21400284404F1210233F81210A9421CBF013123F807
S2140028541210BCE71D2CD2D15A8F1118A942BDBF45
S21400286402F1FF3212185A875D87C8E718F0BDF9DF
S2140028740F4B04461B78834203D8DD210D4800F035
S214002884FDF94FF6FF710C4A04EB04142C4432F89D
S21400289414308B42C4D0013322F81430C0E700BF92
S2140028A47A40002028400020D63F0020AC2B0300AE
S2140028B4411D0020142B0300B43F002052220021A7
S2140028C40148FFF711B800BF284000205222FF211C
S2140028D40148FFF709B800BFD63F002008B5FFF748
S2140028E4EDFFBDE80840FFF7F1BF0000014B23F8F9
S2140028F410107047D63F0020032310B50F4C4FF43A
S2140029048062C4E904330E4B0E49E3610023A161DF
S21400291421660D49E01DC4E919120C49A3626362DD
S214002924E3622367E366636722622DF017FF0849B4
S21400293420462DF013FF2023A37110BD0041002074
S214002944C4270020BD2B0300C4230020C62B03008D
S214002954CA2B03002DE9F84F1F4B16461A788146FA
S2140029648A4698460AB9FFF7C7FF182707FB098760
S2140029743D6FD7F86CB05D452BD9BC6E796E641B81
S214002984B44228BF34462944504622462DF0D3FE8E
S214002994BB6E2544AB4208BF0025A244361BABEBF6
S2140029A4050B5E4528BF5E4656B1182303FB098314
S2140029B4596E3246294450462DF0BDFE3444354403
S2140029C424B1182303FB0988C8F870502046BDE8D4
S2140029D4F88F0024E3E700BF0041002010B50B4643
S2140029E4EFF311844FF0200181F311881946FFF7A5
S2140029F4B1FF84F3118810BD2DE9F84F144D9B46A2
S214002A042B788146884692460BB9FFF775FFEFF39D
S214002A14118C4FF0200181F31188002018236F6970
S214002A2403FB0054666E2EB101308742F8DC4FF08B
S214002A34FF3009E08742FADDC4E91898C4F868A0B4
S214002A442667E666C4F874B08CF31188BDE8F88F80
S214002A5400410020FFF750BF70B54FF060441A4B9A
S214002A6400261A68194D42F001021A60DA680C2032
S214002A7442F08072DA60164BC4F8B03F0223C4F802
S214002A84006EC4F8806EC5F8F03003F057FB114BA7
S214002A9400F5D52000F2FC40B0FBF3F00E4A0F4BD5
S214002AA401382861C4F8406E1A600D4BC4F8803EA5
S214002AB44FF48073C5F80433D4F8003E43F48073AF
S214002AC4C4F8003E70BD00BFF0ED00E0000004E076
S214002AD455CEACC5F8590D00FF030040001000E0C9
S214002AE40D00010010B501240E4B00201C6003F0FD
S214002AF4B1FE234604220321002003F0F3FE204601
S214002B040FF040FDFFF7A8FF0FF03DFDFFF7A2FF13
S214002B142346402204490548FFF76EFF044B18601D
S214002B24C00F10BD44D40340C42B0020D12B030097
S214002B34101E0020024B1868003018BF0120704792
S214002B44F0ED00E0D123054A037013784170090ABA
S214002B548170591CC370117004207047042C002027
S214002B642DE9F74F354E074633681C5C032C63D9B2
S214002B74DFF8CC8017F066FC4FF6FF7A0025C146D6
S214002B840534E4B20190D8F800204AB1AC4207D923
S214002B9417F058FC019BC01A80B2B0F5FA7F05D92D
S214002BA4601B18BF012003B0BDE8F08F002D3DD098
S214002BB4012D1DD14FF0020B3268D55D4FF06042F7
S214002BC4D2F8801ECB0711D51146D9F80C0040F078
S214002BD48070C9F80C00D1F8000E40F48070C1F87B
S214002BE4000E086A0028F0D082F820505D46CAE736
S214002BF4E21E05F1010B95425FFA8BFB02D15FFAE8
S214002C048AF5DBE7A21E954202D1CAF30725D5E76B
S214002C14621E95420ED0A91EC9B238461CF012FD9B
S214002C2451460546FEF774FD8246C7E75B254FF01E
S214002C34010BC3E75D25C1E70120B4E7F81C0020BB
S214002C44F0ED00E010B50B4B90B0402269461868D2
S214002C54FFF7C4FE58B1C1B268461CF07DFC0446BA
S214002C64014612200FF0C0F820461CF017FB10B0E7
S214002C7410BD00BF101E002042DE704738B5044663
S214002C840D4600F0AFFD03F040FD294620460FF048
S214002C9477F82B4622460549012008F031FB2946E1
S214002CA42046BDE83840FFF7E7BF00BFE12B03002E
S214002CB46D4B2DE9F0415A686C4CA2655A6AE26580
S214002CC46B4AD2F800122166D2F8042262669A6A27
S214002CD4A266DA6AE2661A6B22675A6B6267A26BAE
S214002CE4DB6B12F0040FA367D4E90F5318BF1D461D
S214002CF417F08CFB002285420346606522655DD38F
S214002D045C4A95425AD8AA696264E969A164B4F82F
S214002D145810C1F30801062954D157498A4251D3A1
S214002D2456498A424ED211884DF64262914249D1A2
S214002D3440F201706268C4F89420A268C4F898202F
S214002D444F4A5049934238BF13460A468B423CD3F7
S214002D54D31AE3640023C4E91F33C4E92133C4E966
S214002D642333484E444FDFF814C1AE4233D8D4E977
S214002D741FC7D4E92165D4E923124FF0000E013BA6
S214002D84DBB2FF2B42D1BEF1000F05D0C4E91FC74A
S214002D94C4E92165C4E92312B4F85830C3F3080320
S214002DA4052B57D03CD8032B47D0042B58D040F6DD
S214002DB40722013B4B2B98BF104640E000221D46DD
S214002DC4C4E911224FF42060BAE71E68B6F1CD3F7D
S214002DD4BED10433BAE756F8042DBA42C5D36245C9
S214002DE4C3D2D107C1D5002104EB010EDEF87CE086
S214002DF49645BAD004311829F6D10BB9052301E05B
S214002E04013BDBB204EB8301CA67AEE7E0464FF052
S214002E14010EBC4637462E460D4611464246AEE7E0
S214002E240C2B1AD03B2B0CD0062BC0D140F6042317
S214002E34B0F5206F08BF184601E040F60120BDE853
S214002E44F081114B9B6913F0020F40F2025318BF36
S214002E541846F4E740F60320F1E740F60520EEE7CF
S214002E6440F60220EBE700BF00ED00E00000002083
S214002E7400E100E0A01A00204C03000098070300BD
S214002E849C000020C01A00200080014A042804D0B8
S214002E9403280CBF01200220704700207047000062
S214002EA44FF480732DE9F04385B0ADF80C30002460
S214002EB401F098FC0127DFF84480DFF8449003AB68
S214002EC4E35C012218F8336008EBC3035D68304600
S214002ED40023294603F006FD4946E8B201F090FCBB
S214002EE4CDE9007701232A462946304603F0B4FC90
S214002EF414B105B0BDE8F0830124E0E7F42B030029
S214002F04892F000008B5FFF7C1FF022816BF024B41
S214002F140020185C08BD00BF052C002008B5FFF78C
S214002F24B5FF02281CBF014B195408BD052C002010
S214002F3408B5FFF7ABFF022805D0034A135CB3FAC3
S214002F4483F35B09135408BD052C002008B5FFF76E
S214002F549DFF02280FD03021084A12F8303002EBC9
S214002F64C0025943064B50685B5823FA00F0C0432E
S214002F7400F0010008BD0020FCE700BFF42B0300AE
S214002F8414C0034070B504460026FFF7DFFF05466D
S214002F9401E000261D462046FFF7D8FFA842034658
S214002FA4F7D10136052EF2D12046FFF7ABFFA84233
S214002FB40BD029462046FFF7B1FF2046FFF7A2FFB5
S214002FC40146204609F022FC70BD2046FFF7B0FFFC
S214002FD42046FFF797FF0146204609F017FC2046D7
S214002FE4FFF7A6FFE9E7000010B503F0ADFD0446C1
S214002FF403F0A2FD0022012101FA02F3234014D0BB
S2140030041B4B33F812301B4A062B13D040F2072111
S2140030148B420DD1184919480C68844208D14CF2E9
S2140030243C334B800B88138012E00132102AE3D124
S214003034104AF8E74FF20F010F4B5888884214D114
S2140030441988B1F5406F10D211804CF23C325A8088
S214003054084B1A8840F201739A4201BF084B094A8A
S214003064D2E90001C3E9000110BD4FF4C061EBE7EB
S214003074042C0300102C00200000002007020FF090
S214003084082C002094000020014B1888000A704782
S214003094102C0020014B1888704700BF102C00200D
S2140030A42DE9F04F4D4C0546A36BD4F850B05A07A3
S2140030B447BF0027B846D4F84CB0D4F85480D4F8A8
S2140030C440A05DBF464FD4F83CA0DFF83C91DFF843
S2140030D43C9113F0080F434B434A18BF1A46B7EB0C
S2140030E408061FBF6421730801FB0B33B3FBF6F31A
S2140030F487B01CBF9BB205933C494B46CDE9017A89
S214003104CDF8008008BF059601F0BEF8B3B2CDE94D
S21400311400931FFA8BF2059B3549284601F0B4F854
S214003124A36B5B070AD49C3E5E4507D1626D314BA8
S2140031349A4203D23049284601F0A6F8BA4501D887
S214003144C24504D24A462D49284601F09DF8284631
S21400315408F0D0F8236E0BB9636EBBB32849284633
S21400316401F07DF800260127DFF8A480DFF8A4909C
S214003174226E07FA06F3134207D058F8262013786F
S2140031841BB14946284601F06AF80136202EEFD1D5
S21400319400260127DFF87880DFF87890626E07FA59
S2140031A406F3134209D008EB8603D3F8802013787D
S2140031B41BB14946284601F052F801361D2EEDD1C2
S2140031C4284607B0BDE8F04F01F058B828460D4928
S2140031D407B0BDE8F04F01F057B800BF000000206C
S2140031E4C01A00200B2F0300122F03001A2F03000F
S2140031F4482F03009C000020812F0300AD2F0300FE
S214003204CB2F0300FA2F0300062F0300054A030002
S21400321410300300F45903002DE9F8430446FFF781
S21400322439FF40F60123984239D010D840F20253B1
S21400323498421DD040F20173984224D040F20153C4
S214003244984213D16549204601F01EF822E040F664
S214003254032398426CD03DD340F60423984200F0F2
S2140032649C8040F60523984200F0B580BDE8F883BC
S2140032745B49204601F008F85A4B5B495A6C2046D5
S21400328401F002F806E0574A5849D2E925232046B9
S21400329400F0FAFF2046BDE8F84308F02BB8514D7D
S2140032A45349204600F0F0FF95F86C309F0703D58D
S2140032B45049204600F0E8FF95F86F305E0603D5C7
S2140032C44D49204600F0E0FF95F96F30002BE1DA17
S2140032D44A49B8E7434D4A49204600F0D5FF95F8D9
S2140032E46830980704D06A6C3F49204600F0CCFF4B
S2140032F495F96830002B04DA6A6F4249204600F0DC
S214003304C3FF00260127DFF80881DFF81491AA6EB0
S21400331407FA06F3134207D058F8262013781BB191
S2140033244946204600F0B0FF0136082EEFD1B1E73B
S2140033342C4D3549204600F0A7FF2B496A6C2046E1
S21400334400F0A2FF95F86930590703D52F492046A7
S21400335400F09AFF95F96930002B04DA6A6F294960
S214003364204600F091FF0826294FDFF8B480AB6EA4
S214003374F340DA0707D557F8262013781BB14146E1
S214003384204600F081FF0136102EF0D195F8683003
S214003394002B7FF47FAF1F4955E7124D1E49204688
S2140033A400F072FF6A6C1049204600F06DFF10268C
S2140033B4174FDFF86C80AB6EF340DB0707D557F882
S2140033C4262013781BB14146204600F05DFF0136E7
S2140033D41A2EF0D15EE711494BE700BF952C030087
S2140033E4D22C030000000020022D03001B2D030036
S2140033F4352D03004D2D0300872D0300BA2D030041
S214003404F62D03001B2E03003F2E0300562E03004A
S214003414242C03009C2E0300CC2E0300E52E030070
S214003424372E03002DE9F84F06460025154C164F97
S214003434DFF85C80DFF85CA023785FFA85FB0BB9C5
S214003444BDE8F88F57F8043B22461049304600F092
S21400345406FF227804F1010982B9627882B10BF082
S214003464030103290CBF41465146304600F0F7FEDF
S214003474304607F03FFF01354C46DDE74C46E8E7AB
S2140034844146F2E704310300040000208C2C0300BC
S21400349424090300E04C030000F00CB800F00AB85E
S2140034A400F008B800F006B800F004B800F002B85F
S2140034B400F000B872B61EF0080F09D01EF0040F14
S2140034C40DD0DFF850E0AEE8FF1F6FF002000CE00E
S2140034D4DFF840E0AEE8FF1F6FF00E0005E0DFF80F
S2140034E434E0AEE8FF1F6FF006006946EFF309828A
S2140034F48EE8070086460848084C854501D3A5454E
S21400350401D384F30888FFF7D3FB84F3088816F006
S21400351459FF000004000020A0110020C01A00205B
S214003524FFF7C6BF704770477047704700F07E636A
S214003534B3F17E6F70B505460E46144616D105F0F7
S214003544B9F818B19A210D48FFF798FB2246314680
S214003554C5F30B0003F0B4FB044605F0B7F85CB102
S2140035649D21BDE870400548FFF788BB520816F059
S214003574C7FE08B18F21F4E770BD00BF28380300EA
S21400358437B57F2A14BF154600254BF234629142A4
S214003594044619D17F2241F2020168460823FFF748
S2140035A4EFFF082225496846FEF7A5F930B9082337
S2140035B47F2241F2F0116846FFF7E2FF08226946CF
S2140035C42046FEF735F909E041F2F01291421AD18D
S2140035D41B4901388A6CC96C1D1F0BB903B030BD7A
S2140035E4013B9D4200F8012F4FEA1222F5D100223A
S2140035F403349A42F2D00132042A04F8011F4FEA37
S2140036041121F6D1EAE701F47042B2F5805F07D1E2
S214003614C1F30B0404F17E649AB203FB0541D0E7C0
S21400362401F46042B2F5005FD8D1C1F30B0405493A
S2140036349AB2214403FB0511C3E700BFB638030062
S2140036440080E00F00E0070070B5054616461C46ED
S214003654DBB14BF23463994210D1082C28BF0824FE
S2140036647F2241F202012346FFF78AFFA2B20749EE
S2140036742846FEF740F940B941F2F0112346324697
S2140036842846BDE87040FFF77BBF70BDB638030020
S2140036942DE9F7430446E0070F46154603D5DD211A
S2140036A43448FFF7EBFAE90703D5DE213148FFF784
S2140036B4E5FA04F47043B3F5805F3ED1C4F30B041B
S2140036C404F17E646B1E2C4A23449342264603D997
S2140036D4E3212848FFF7D2FADFF8989006EB0508AE
S2140036E446453DD1A2070ED04FF6FF7337F8022B9E
S2140036F402A943EA0243A01E41F8043D0422FFF750
S21400370415FF0234023DAB070ED0023D25F001033F
S214003714FB5A02A96FEA03436FEA1343042241F8F3
S214003724043D6019FFF702FF25B12A4639462046B4
S214003734FFF7FCFE03B0BDE8F08304F46043B3F582
S214003744005F05D10D4BC4F30B041C442646C3E7A7
S214003754EA210848FFF792FA6FF00F060024BBE749
S21400376416F8013BFF2BBBD0F4214846FFF786FA38
S214003774B6E700BF28380300FF1FE00F00E007008D
S214003784FFF78ABE1FB5144A01AB10685168128948
S21400379403C31A8001238DF804300D238DF80A30F4
S2140037A403230E4C082123208DF80B3002F004FE70
S2140037B401A9204603F0BBFC4FF40061022342F249
S2140037C41800074AC2F884112350516041F21C02C3
S2140037D4A35004B010BD00BFBE3803000080014AE9
S2140037E400E100E0014803F091BC00BF0080014AFC
S2140037F4A52803D10021024803F079BC704700BF16
S2140038040080014A024B586800F00100704700BF70
S2140038140080014A024A536A002BFCD1704700BF5D
S2140038240080014A0020704700207047704700005F
S21400383407B572B602F069FF894B8A495B69402274
S2140038448B6000230B764B768B76F023CB760B7748
S2140038544B778B77CA77802281F8202081F8213035
S214003864E023602081F822307F4B81F8232083F800
S214003874002383F8012383F8022383F8032383F8C1
S214003884042383F8052383F8062383F8072383F8A1
S214003894082383F8092383F80A2383F80B2383F881
S2140038A40C2383F80D2383F80E2383F80F2383F861
S2140038B4102383F8112383F8122383F8132383F841
S2140038C4142383F8152383F8162383F8172383F821
S2140038D4182383F8192383F81A2383F81B2383F801
S2140038E41C2383F81D2383F81E2383F81F2383F8E1
S2140038F4202383F82103202083F8222383F823231C
S21400390483F8242383F8252383F8262383F82723A0
S21400391483F8282383F8292383F82A2383F82B03A0
S21400392483F82C0383F82D2383F82E2383F82F2380
S21400393483F8302383F8312383F8322383F8332340
S21400394483F8342383F8352383F8362383F8372320
S21400395483F8382383F8392383F83A2383F83B2300
S21400396483F83C23CB6823F4E0631B041B0C43F06E
S214003974BF6343F40133CB604B6943F010034B61E0
S2140039844FF4E0234B6203F0CBFFFFF72DFBEFF37E
S21400399408834FF0CD31354A043B93425DD2344A16
S2140039A4002192B23348FDF79FFF62B6684603F0E3
S2140039B4AFF9314B9B6DDB0318D4304A136823F4FC
S2140039C4FF0323F4FE4343F4BC1343F4A0631360E1
S2140039D452F8043C23F4704343F4404342F8043C56
S2140039E452F8043C43F4E06342F8043C9DF801308A
S2140039F4012B0FD19DF8003063B94FF000531B68BC
S214003A041F4B1B681F4B1B681F4B1B681F4B1B68F9
S214003A141F4B1B681F4AD2F8803043F00303C2F8DA
S214003A24803002224FF040231A6703F0EFFE01F0C5
S214003A34E3FA002300938DF80430012368468DF8DA
S214003A44033002F0FEFE00F027F916F00DFD1248D2
S214003A540EF0A2FD03B05DF804FB1960043B9CE77E
S214003A645400000000ED00E000E100E060110020DA
S214003A748C100000A000002000C0004034C00040AD
S214003A84004000200080002000C00020000001202C
S214003A9400400120008000402062030040F20160E4
S214003AA416F090BCFEF710BD08B500210B20FEF7FB
S214003AB409FDBDE80840FEF708BD032000F078BA0B
S214003AC408B5FFF7E1FA044B0B289ABF00B203EBE4
S214003AD48000184608BD00BF0E3A030008B5FFF77D
S214003AE4D9FA044BC0F30F2253F82230C0B203EBCA
S214003AF4800008BDD839030010B5FFF7C5FA0446A0
S214003B04FFF7C8FAC0B228B9012C24D164F07F04A8
S214003B14E4B216E0072CF9D801A353F824F000BF4A
S214003B24473B0000113B0000453B00004B3B0000B8
S214003B344B3B00004F3B0000533B0000573B00004C
S214003B440924204610BD0224FBE70324F9E70B24CE
S214003B54F7E70624F5E70446F3E700BF07282DE950
S214003B64F84F04460F462DD0082808BF02242146E5
S214003B740120FDF70EFAFFF745FE651ED5F1000895
S214003B8448EB050800B3012C1ED1A520FFF730FE34
S214003B942646EFF31089012383F31088EFF3118A86
S214003BA44FF0000B8BF31188354D404607F010FE9E
S214003BB4631EC5F800B0042B59D8DFE803F00E4D99
S214003BC44D5155000324D2E7FFF71CFE18B1FFF74A
S214003BD421FE0026DDE70646DBE72A4A136923F0C2
S214003BE40403136130BF284AD2F82434D2F82024C0
S214003BF413409BB2254A2B60D2F80011480102D527
S214003C041168490106D4D2F80011880105D5126856
S214003C14910102D543F480332B601C4BD3F800216A
S214003C24520506D51B685B0542BF2B6843F4003378
S214003C342B601EB10121164803F059FA404607F0DE
S214003C44E7FDCFB18AF3118889F310882146BDE8D1
S214003C54F84F0020FDF79DB9012002F0C5FDC2E72C
S214003C64012002F0D5FDBEE702F0D4FDBBE78821B3
S214003C740848FFF703F8B6E787F31088E6E700BFBF
S214003C841C2C002000ED00E000C0034000E100E032
S214003C940080014A3E3A030042F22041044AD2F828
S214003CA420341B0C1B045350024A1360704700BF99
S214003CB400C00340182C00200021FFF74FBFFFF779
S214003CC4FBBF00002DE9F04F89B00EF059FC074603
S214003CD4002840F0DD806F4E6F4D3168286815F07F
S214003CE45BFD0446002827D033683C46D3E9000130
S214003CF49A6912689047336804A89B699B6898473A
S214003D04336802209B69DB689847326805985368D5
S214003D14E7B2B3FBF0F3BB42916904F1010442D865
S214003D24CB680020984733689B695B68984731687E
S214003D34286815F031FD04460026DFF88891002C2B
S214003D4453D1564B4FEA8608F35C002B31D1A2467A
S214003D54534BF35C0193534B03EB080B019B5FFA45
S214003D648AF7BB42286853D84F4BF35C002B3CD0F1
S214003D744C4B019F9844FBB27E2B286835D8D8F864
S214003D84003003AA07EB030A514602AB15F03EFFC8
S214003D9448452AD05146286815F07EFF0137044668
S214003DA40028E8D021E012680B6907FB002098473A
S214003DB4ABE73C4B03AA53F82670286802AB394697
S214003DC415F024FF484507D078B9039B012B0CD087
S214003DD43946286815F060FF344B394653F80830E6
S214003DE428681A6815F03CFE04460136272EA6D12C
S214003DF4B4FA84F32E4A5B0913702E4B9C4241D0CE
S214003E042DD8002C32D0013B9C423FD0C5242DE057
S214003E14DBF8003003AA1F44394602AB15F0F6FE61
S214003E2448450AD010B10AF1010A97E7039B8BB9FB
S214003E34214B029AF35C9A42F5D01F4B1B4A9B5DBA
S214003E4452F808203946286815F07CFD0028EAD088
S214003E54044689E73946286815F01EFFEDE7174B38
S214003E649C4211D004339C42D0D1C1242B681B7CC5
S214003E7423B14FF489711248FEF700FF204609B0BB
S214003E84BDE8F08FC324F1E7C424EFE7C224EDE7CE
S214003E94C624F3E77C1E0020781E0020740F03005F
S214003EA4B00E0300C40F03009B0F0300D80E0300DC
S214003EB4202C002002E000F06010030004E000F074
S214003EC4CE3A03000BE000F0262970B506460C46F1
S214003ED415461AD8144A127822B3144A1068144A9B
S214003EE452F82110134A125D3AB1324615F006FE16
S214003EF4C0B1BDE87040FDF71ABC7F2D08BF002591
S214003F043246294415F068FDF2E7FF2903D9BDE8D7
S214003F147040FFF799BB40F24511BDE87040064873
S214003F24FEF7ACBE70BD00BF202C0020781E00201B
S214003F34C40F0300740F0300CE3A03002628F8B516
S214003F4404460D46164619D81449097829B3144967
S214003F54144F0868144951F824103C5D3CB11268AB
S214003F6415F07EFDC8B1BDE8F840FDF7E0BB7F2D37
S214003F7408BF0025294415F0E5FCF3E7FF2805D91A
S214003F841A463146BDE8F840FFF782BB4FF4BC71D1
S214003F94BDE8F8400548FEF771BEF8BD202C0020A9
S214003FA4781E0020740F0300C40F0300CE3A0300EB
S214003FB408B5084B1B7863B1074B002253F8201052
S214003FC4064B186815F0DAFD18B1BDE80840FDF791
S214003FD4AEBB08BD202C0020C40F0300781E0020B2
S214003FE470B5164685180AB9304470BD01F00F0343
S214003FF40A2B34BF30243724013A2344090905F830
S214004004013DD2B2EFE70000F0B5F9B100281CDAA2
S2140040142D23B0F1004F137000D04042012115E06B
S214004024801B8642ECB205F10105F9D904B927B123
S21400403401274D1C30345454E9B20133092B09D1FD
S214004044303050540131C8B2F0BD002100231F4661
S214004054DFF808C05CF823600025E2E7583B03005D
S2140040642DE9F04F4FF0000B95B002AC81468A461E
S21400407417461D465E46A0463B7863B902ABE41A73
S214004084E4B2224619465046C847002840F09380BA
S2140040943444E0B290E0252B13D0BBF1000F14D1CA
S2140040A42370013412AB9C426DD3A4EB0804E4B233
S2140040B4224641465046C84700287CD12644F6B2DC
S2140040C460E0BBF1000F00D101373B78632B00F0B2
S2140040D492801BD8392B09D8302B80F09E80002B79
S2140040E4CCD0252B51D04FF0000BDBE7582B00F03B
S2140040F48B80622BF7D14FF0000B2B6801936B6813
S2140041040093009B9B4543D10835ECE7702B1ED0EB
S21400411417D8642B01D06C2BE5D16C2B05F1040B5E
S21400412428686CD17B78752B14BF0121002101D03F
S214004134642B00D101372246FFF766FF04445D4630
S214004144D1E7752BE9D0782B5ED0732BCBD1A4EBBB
S2140041540804E4B2224602A9504605F1040B2D6871
S214004164C84740BB2644F6B2C4B22B5D0130002BD0
S214004174FAD1224629465046C847E0B95D468346EA
S2140041842644F6B24446013776E723700134AAE79C
S214004194019B204613F80B100222FFF721FF12ABF7
S2140041A4984204460ED3A0EB0804E4B222464146E5
S2140041B45046C84718B1002015B0BDE8F08F264415
S2140041C44446F6B2009B013B5B4582BF2023237026
S2140041D4013412AB9C420BD3A4EB0804E4B222468F
S2140041E441465046C8470028E5D126444446F6B220
S2140041F40BF1010B85E72B6804352370C6E7752B96
S2140042040CBF0021012196E7204602222978FFF7F9
S214004214E7FE05F1040B044691E77A7802F0DF0224
S214004224582A19D1322B07F1010B09D10422204652
S21400423429882F1DFFF7D4FE3D4604465F4652E705
S214004244342B09D12F1D2D680422290C2046FFF794
S214004254C7FE0422A9B2EDE74FF0010B22E70EB425
S21400426403B503AA52F8041B019207F067FBC0B219
S21400427402B05DF804EB03B0704700000149FFF795
S214004284EEBF00BF240903000EB433B505AA52F8E6
S214004294041B0546019207F051FB04462846FFF727
S2140042A4EDFFE0B202B0BDE8304003B0704708B599
S2140042B407F044FBC0B208BD2DE9F04F9B46584BAF
S2140042C485B01B78064689461546109F9DF844A07F
S2140042D4DDF85080002B00F09280072A00F29180CF
S2140042E40E9B002B00F08D800F9B002B00F0898026
S2140042F4129BB3F5006F00F38480012801D1002FD0
S2140043047FD0484B03EB05131B7B002B7BD0464C1E
S2140043141022002168462CF019FA04EB45141022EA
S214004324B9F1000F5CD1494620462CF00FFAA37869
S21400433443F01003A370E37843F03003E370BAF15C
S214004344000F03D1DBB243F00303E37036496A017E
S214004354129B885A013B63F30E100E9B01EB020C72
S2140043648852CCF808300F9B9DF84C10CCF80430DB
S2140043749CF80330012E61F38303CDF800B08CF86B
S214004384033042D113230CF1100ECCF80C309CE809
S2140043940F008EE80F006FF00301DCF81C20B9F163
S2140043A4010F61F39F02CCF81C20CCF8147004D1E2
S2140043B40F9BCCF80470CCF81830002719492A0152
S2140043C48B1841F80280159A28465A609F605E73DF
S2140043D42246694602F016FB384605B0BDE8F08F63
S2140043E4002120462CF0B2F91023A3700323E370B7
S2140043F4BAF1000FAAD1DBB243F03003A5E70B48AD
S214004404EBE70B48E9E70B48E7E7B8F1000FD4D130
S2140044149CF8023068F304138CF80230CDE700BF32
S214004424A42D0020242C0020A42C0020028000F0C0
S214004434018000F0078000F038B5104B05461B7865
S214004444BBB1C0B102F069F900230D4901EB0312B8
S214004454147B3CB92B6001231460137302F063F9D8
S214004464204638BD0133082BF0D102F05CF905482C
S214004474F7E70548F5E70548F3E700BFA42D002055
S214004484242C0020048000F0028000F0018000F05C
S21400449438B502F042F9002305460A4AD1180C7BC7
S2140044A45CB91033802BF9D102F05EFA064B28462D
S2140044B41C7002F038F9204638BD284602F033F95D
S2140044C40248F9E7242C0020A42D0020058000F0E3
S2140044D40D4B10B51B78044693B1072812D802F08A
S2140044E41CF90A4B03EB04131A7B2AB100241C7331
S2140044F402F019F9204610BD02F015F90448FAE74F
S2140045040448F8E70448F6E7A42D0020242C0020ED
S214004514068000F0028000F0018000F0164B13B510
S2140045241868002301908DF8043002F0F6F8134B57
S2140045341C7824B102F0F7F8114802B010BD01222D
S2140045441A7002F0F0F80F4B1C731C7783F82C409B
S21400455483F83C4083F84C4083F85C4083F86C4016
S21400456483F87C4004230DEB03008DF8073002F03B
S2140045741FFA2046E1E700BF7C3B0300A42D002081
S214004584038000F0242C002010B588B00E9C009206
S21400459407940D9C024606949DF8304005940B9CA7
S2140045A404949DF8284003940024CDE90134204661
S2140045B40B462146FFF780FE08B010BD10B588B044
S2140045C40E9C009207940D9C024606949DF830407B
S2140045D405940B9C04949DF8284003940024CDE98C
S2140045E4013420460B460121FFF766FE08B010BDD5
S2140045F408B50A4B1B785BB107280BD8084B03EBAE
S21400460400131B7B43B1002102F0C2F9002008BD51
S2140046140448FCE70448FAE70448F8E7A42D002019
S214004624242C0020028000F0018000F0078000F0B7
S21400463408B50A4B1B785BB107280BD8084B03EB6D
S21400464400131B7B43B1012102F0A2F9002008BD30
S2140046540448FCE70448FAE70448F8E7A42D0020D9
S214004664242C0020028000F0018000F0078000F077
S21400467408B50A4B1B7853B107280AD8084B03EB36
S21400468400131B7B3BB102F00DFA002008BD054861
S214004694FCE70548FAE70548F8E700BFA42D002024
S2140046A4242C0020028000F0018000F0078000F037
S2140046B40D4B1B7893B1072812D889B10B4B03EB2B
S2140046C400131B7B73B10A4BDA6A012303FA00F06A
S2140046D410401ABF00200B700870704705487047DA
S2140046E40548704705487047A42D0020242C002058
S2140046F400000440028000F0018000F0078000F013
S2140047040B4B10B51B780C4663B107280CD859B16F
S214004714084B03EB00131B7B43B102F0D5F9206072
S214004724002010BD0448FCE70448FAE70448F8E70C
S214004734A42D0020242C0020028000F0018000F02C
S214004744078000F02DE9F843174B1F6D5B6D1F4083
S21400475400D5FEE701260025144CDFF85480DFF868
S2140047645490374217D02368C8F800609BB1A168FC
S21400477462680131A16028469847637B012B0AD101
S21400478448B909EB4513197B1A7F60F3410160F3BE
S214004794410219731A770135082D4FEA460604F1CB
S2140047A41004DED1BDE8F88300000440242C002069
S2140047B450200440A42C002070B504460125084E61
S2140047C404B970BD94FAA4F0B0FA80F005FA00F3C8
S2140047D424EA030456F82030002BF1D09847EFE77C
S2140047E4A82D00204FF00072044BC3F880211A60F5
S2140047F44FF08062C3F880211A60704700E100E041
S21400480438B504460D4601F088FF034B43F82450A0
S214004814BDE8384001F087BFA82D0020084BD3F828
S2140048242404D3F82024104042F2204220F42A50D4
S21400483420F02A004004400C9850FFF7BDBF00BF8C
S21400484400C00340084BD3F82404D3F820241040B7
S21400485442F2204220F4AA4020F055000004000C46
S2140048649850FFF7A9BF00BF00C00340104A30B5F8
S214004874136841611546ABB91060836011E0091BEB
S2140048849C6841611A467CB123465C698C42F6D921
S214004894002CF4D052B19060836013B15A69511A57
S2140048A4596130BD0022F0E72346F4E72860F3E7B9
S2140048B4FC2D002010B500F0AFFA094B094A196820
S2140048C431B11368C41A4B69A34203D31B1B4B6153
S2140048D4106003E0C01A002310604B6110BD00BFD7
S2140048E4FC2D0020EC2D0020074B10B51B68022081
S2140048F45C69064B1B681C4400F0C2FA2046BDE8FF
S214004904104000F091BA00BFFC2D0020EC2D0020D2
S21400491470B59DF81450164605710025049A8560F6
S214004924BDF818500446C5800260C0E903360D463B
S21400493429B961610BB11146984796B1354601F025
S214004944ECFE0646FFF7B6FF29462046FFF78EFF25
S214004954054B1B68A34201D1FFF7C6FF304601F0A2
S214004964E2FE002070BD00BFFC2D002000210C4A92
S21400497413687BB183420AD1836879B18B608368FC
S2140049841BB15A6941690A445A61002070471946A6
S2140049949B68EEE70028EFD0022070471360EEE72E
S2140049A4FC2D002070B501F0B8FE114D06462C789B
S2140049B4CCB9104B1C60104B1C60104B1C8000F0D4
S2140049C4F1F9012000F05CFA00F0A8FA0C4B02465C
S2140049D4186040F2E73123460A482BF0DBFC0A4B0A
S2140049E4186001232B70304601F09DFE002070BD38
S2140049F4E82D0020FC2D0020EC2D0020F42D0020B6
S214004A04F82D002018FCFFFFF02D00202DE9F041C2
S214004A140546F8B101F081FE0F4F0646FFF74AFF40
S214004A242846D7F80080FFF7A1FF044628B1304691
S214004A3401F079FE2046BDE8F081A8453B6803D125
S214004A4423B1FFF751FFF2E7002BF0D1022000F06C
S214004A5423FAECE72224EDE7FC2D0020F0B50D4602
S214004A6485B016461F46044680B1FFF7CFFFBDF853
S214004A742C30002202939DF828302946CDE9007395
S214004A8420463346FFF744FF05B0F0BD2220FBE77F
S214004A9438B50C46054698B191B100230B7001F069
S214004AA43CFE0121074B1B680BB122781AB101F0BA
S214004AB43AFE002038BD9D420CBF21709B68F3E788
S214004AC42220F7E7FC2D0020F0B51F46002387B010
S214004AD40D4616468DF817300446A0B10DF11701A1
S214004AE4FFF7D6FF9DF817207AB9BDF8343029466B
S214004AF402939DF830302046CDE900733346FFF725
S214004B0407FF07B0F0BD2220FBE70320F9E700000B
S214004B14F8B50C460646C8B1C1B101F0FEFD05461F
S214004B24FFF7C8FE73692360134B1B68B3420FD0AC
S214004B3423B9284601F0F7FD03201CE059692268D2
S214004B449B680A442260F1E700230FE0222012E06B
S214004B54276800F061F9094E3368C01A8742F3D912
S214004B6400F05AF93368C01A23681B1A28462360D3
S214004B7401F0D9FD0020F8BDFC2D0020EC2D00200E
S214004B8470B501F0CAFD064600F046F9094B054625
S214004B941C880120A4B200F097F918B100F03CF983
S214004BA405460134304601F0BEFD0022214642EAA5
S214004BB4050070BDF42D00200A4B10B51B680C468A
S214004BC483420CD3084B4FF47A7219680023A0FB77
S214004BD401012BF0DFFB01302060002010BD2120F6
S214004BE4FCE700BFF02D0020F82D0020104B10B578
S214004BF41A684FF47A73A0FB0301A2B1531E134242
S214004C0411D1B2FA82F2C2F11F02C2F12004A2F15B
S214004C14200301FA04F420FA02F2224321FA03F3F1
S214004C2442EA030010BD00232BF0B4FBFAE700BFF2
S214004C34F82D0020F8B516461BA3D3E900238B42B3
S214004C4408BF82422AD3174B1A684FF47A73A0FB24
S214004C54034503FB0155C2B1531E13EA020014D1E7
S214004C64B2FA82F2C2F11F02C2F12007A2F12001B9
S214004C7424FA02F305FA07F73B4325FA01F10B433E
S214004C8425FA02F2C6E90032F8BD0023204629467A
S214004C942BF080FBC6E900010020F5E72120F3E7AE
S214004CA4AFF30080F82D0020EFA7C64B37894100EC
S214004CB4C2072DE9F84F04460BD5374A138801334B
S214004CC49BB21380FFF7F6FD344B1B680BB1FFF75E
S214004CD40BFEA3075DD500F09FF8314E07463568F6
S214004CE44FF0000A451B01F018FD8046DFF8AC9033
S214004CF4D9F80040002C48D06369AB4209D95D1B43
S214004D0465613760FFF7F0FD4046BDE8F84F01F0F7
S214004D140ABD23462A4637605969914209D818794C
S214004D2494F804C0521A844588BF1C469B68002B1E
S214004D34F2D1404601F0F7FCD4F81480C4F814A06D
S214004D4401F0EBFC83462046FFF710FE584601F0C0
S214004D54EAFC23694BB101F0E0FC83462169204656
S214004D64FFF784FD584601F0DEFCE36813B12168C2
S214004D742046984700F050F84744ED1B0446054487
S214004D8401F0CBFC27468046B2E7022000F084F808
S214004D94BAE7BDE8F88F00BFF42D0020FC2D0020F4
S214004DA4EC2D00201FB50024184B18689A88029032
S214004DB453F8060FADF80C201B79009002A88DF866
S214004DC404308DF808408DF80C4001F007FF694662
S214004DD401208DF8004001F0C5FE4FF090431F21DE
S214004DE49A6922F01F029A61094A11609A6A12F0BF
S214004DF40802FBD11A62012001F0CEFE4FF4806255
S214004E04044BC3F880211A6004B010BD803B030035
S214004E141420004800E100E04FF090439A6A12071D
S214004E24FCD4186A704700004FF09042936A190742
S214004E34FCD4136A116C5269120704D4CA1A022AE3
S214004E4401D899420ED1C21A012A98BF981CB0F113
S214004E54FF3F28BF01304FF0904318649A6942F030
S214004E6408029A61054A13783BB14FF09041CB6B28
S214004E7443F00203CB63002313707047181E002010
S214004E8482074FF0904200F00103916948BF43F057
S214004E9408030B4393617047830700F001020AD5A9
S214004EA40121084B42F0080219704FF09041CB6B79
S214004EB423F00303CB634FF090418B6923EA02038C
S214004EC48B617047181E00204FF0904301285B69E1
S214004ED404D0022805D1C3F3C000704703F00100D4
S214004EE4704700207047000010B501F016FC4FF024
S214004EF4904304465B691A07074A03F0010003F06F
S214004F040D0348BF40F002001360FFF7D1FE2046B1
S214004F14BDE8104001F007BC142000481B2001F037
S214004F240DB90000002211462D48F0B503682D4D3A
S214004F3454592CB11E68AC18002E3DD123460121CD
S214004F440832282AF4D101B1036000221446264907
S214004F54264E0B6895592DB11F68B518002F32D10F
S214004F642B4601240832282AF4D104B10B600068C9
S214004F740368002B2FD04FF04022936F007923F064
S214004F84FF7323F4803343EA00439367184B4FF0D0
S214004F94004209681A600B68FBB14FF04022936F19
S214004FA4097923F4FF7323F001030B439367104B33
S214004FB44FF080421A60F0BD1E792779B74284BF4D
S214004FC423460121BCE71F7995F804C0BC453CBFC5
S214004FD42B460124C6E7074BD9E7064BE8E700BF94
S214004FE4042E0020142E0020082E00203C2E002024
S214004FF4685000406860004010B5012228240F4B1A
S21400500400211A700E4822462BF0A0FB22460021EF
S2140050140C482BF09BFB0C4B0C4A13600C4A136099
S2140050244FF040430B4A1360536020220A4BC3F8E8
S21400503480211A60FFF776FF002010BD002E0020A6
S214005044142E00203C2E00200C2E0020042E0020BF
S214005054082E00206460004000E100E04FF040228B
S214005064D2F88800D2F88830C0F38800C3F38803E7
S2140050749842F5D16FF48873184440B27047000024
S2140050844FF04022936E526E10B5134013F08042D8
S21400509411D0114B1B681C682CB100211960596093
S2140050A4FFF7DCFFA0474FF080420C4B1A60BDE8C8
S2140050B41040FFF737BF002BF9DA094B1B681C6852
S2140050C42CB11A605A60FFF7C9FF0121A047034BB1
S2140050D44FF00042EAE700BF082E0020646000405C
S2140050E4042E0020FFF7CCBF012203685A619A6998
S2140050F4D207FCD541F2AC52042103795B0103F1DB
S214005104804303F5703399507047000038B141B1BD
S214005114013AB2F5006F044838BF002070470348D0
S21400512470470148704700BF037000F0027000F03B
S21400513438B504460D4601F0F0FAA28892B222B9B8
S2140051442A6001F0F0FA064838BD1422638802FB90
S214005154034308332B6001F0E6FA0020F4E700BFAF
S2140051640B7000F038B504460D4601F0D6FAA38855
S2140051749BB223B92B6001F0D6FA0C4838BD142232
S2140051846388E18802FB034308332B6063885A1C58
S21400519492FBF1F301FB13239BB26380A388013BCC
S2140051A49BB2A38001F0BFFA0020E7E70B7000F083
S2140051B490F83130022B0BD13022437F90F8210037
S2140051C45A43044B9B5823FA00F000F00100704742
S2140051D40020704714C00340002313B51C4A52F83D
S2140051E4234094F8211081420ED00133042BF6D1CB
S2140051F402B010BD0028FBD19DF80730002BF7D075
S214005204A068FFF7F5F9F3E794F83130022BEFD1F5
S2140052142046FFF7CDFF637E2076022BE8D194F874
S2140052242E3003F0FF02002BE2D102A901F8012D73
S214005234A068FFF73DFA237E1BB194F82F30002BAD
S214005244D8D00023A06884F82F30FFF7F1F9CFE711
S214005254642E0020012230B590F8324087B080F8E2
S2140052642C207CB9094D0368CDE9024504904C68AE
S2140052742433CDE900240A684169C068FFF79EF923
S21400528407B030BD002380F82C30F9E7455B0000FA
S214005294012330B590F8324087B080F82D307CB9C1
S2140052A4094D0268CDE9024504904C683C32CDE9CC
S2140052B400340B6801698068FFF766F907B030BDF3
S2140052C4002380F82D30F9E7D1520000F7B5906A34
S2140052D401A91446FFF72CFF144B984220D0002552
S2140052E4019B1D619D6001F018FA019A0746D66875
S2140052F426B1D2E9002329462046B04701A9A06A70
S214005304FFF730FFA06A83889BB263B101A9FFF759
S2140053140FFF01992046FFF7BBFF384601F003FA5A
S214005324012003B0F0BD84F82D30F6E70B7000F0D2
S214005334F8B5044617460D4601F0EFF9A388E2884F
S21400534406469A4205D800233B6001F0ECF916485D
S214005354F8BD1422238805F1100C02FB034308331E
S2140053642A4603CA624518605960154603F10803C5
S214005374F6D11068142218602388E18802FB0343E0
S21400538408333B60238830465A1C92FBF1F301FB3A
S21400539413239BB22380A38801339BB2A38001F01E
S2140053A4C2F90020D4E700BF0A7000F02DE9F341EB
S2140053B40D460446002800F0868001F0AEF9012D63
S2140053C4064637D1A36A9B889BB2002B39D0A068C7
S2140053D4FFF74EF90023A06A84F82D3083889BB229
S2140053E4002B34D1226893699B04FCD5023D012D21
S2140053F41BD8E068FFF73CF90023606A84F82C3079
S21400540483889BB2002B41D194F83130032B0CD007
S21400541442F2AC52042123795B0103F1804303F585
S21400542470339950022223685A61304601F07BF9A2
S214005434002009E0022D48D1636A9B889BB2002BAA
S214005444D4D101F070F9264802B0BDE8F08101A974
S214005454FFF76EFE0199A0680831FFF751F9214F56
S214005464019B1F61A06A83889BB2002BBAD001A956
S214005474FFF778FE019BD3F80C80B8F1000FF1D04B
S2140054849B68002239462046C047EBE76946FFF78B
S2140054944FFE0099E0680831FFF732F9114F009B80
S2140054A41F61606A83889BB2002BADD06946FFF704
S2140054B459FE009BDD68002DF3D09B680022394618
S2140054C42046A847EDE70848BEE7032D8ED1A36A19
S2140054D49B889BB2002B7FF47AAF636A73E700BFA6
S2140054E4087000F0097000F0027000F00368986914
S2140054F47047436A9888C0B270472DE9F3419846CE
S21400550400230546406A0E4684881746A4B2CDE9B1
S21400551400333CB16946FFF70BFE01A90446E86870
S214005524FFF7EEF8009969B164B94868019BC01AA0
S2140055343860C8F800300B6833602B68986902B08E
S214005544BDE8F0810021C8F8001039603160F4E746
S214005554836A9888C0B270472DE9F34198460023C1
S2140055640546806A0E4684881746A4B2CDE9003301
S2140055743CB16946FFF7DCFD01A90446A868FFF7BD
S214005584BFF8009969B164B94868019BC01A3860CD
S214005594C8F800300B6833602B68986902B0BDE821
S2140055A4F0810021C8F8001039603160F4E7007E0D
S2140055B470472DE9F04104460F469046FFF7A6FDD6
S2140055C40546002839D1152001F0CCF80646A26A13
S2140055D493889BB213B194F82E308BB323689E69DC
S2140055E416F002060ED104225A619A699207FCD577
S2140055F441F2AC52102123795B0103F1804303F599
S21400560470339950012384F8303094F8323033B92B
S214005614B8444745206818D183699B06FCD566B90B
S21400562442F2AC52102123795B0103F1804303F567
S21400563470339950082223685A612846BDE8F081E1
S214005644002EC5D0FFF77EF8C1E717F8011B01F05E
S21400565449FDDEE710B5044680B190F82E302BB92C
S214005664FFF7A6FD10B9A068FEF7C2FF002094F865
S2140056742E300133DBB284F82E3010BD0048FCE730
S214005684027000F010B50446A0B190F82E309BB11D
S21400569490F82E30012B05D1FFF78AFD10B9A068CB
S2140056A4FEF7C6FF002094F82E30013BDBB284F8E8
S2140056B42E3010BD0148FCE70148FAE7027000F0FE
S2140056C4057000F037B590F831500446022D1ED10F
S2140056D4012190F82220457E837F01FA02F23020D1
S2140056E4154925B900FB031342F2100105E0012D0C
S2140056F407D100FB031341F210015A50002003B0F7
S21400570430BD247E00FB0313002CF4D1ECE7012DFE
S214005714F4D1037E73B911238DF80730FFF79AFF8F
S2140057242A460DF107012046FFF743FF2046FFF700
S214005734A9FFE3E71323EFE700C00340F0B50446F0
S2140057448BB09E4F03AE0D460FCF0FC697E80700EB
S21400575486E807001CB99A4C20460BB0F0BD0DB97C
S214005764984CF9E73822002120462AF0EFFF9649A4
S214005774964A0B78002B40F0D3800120C2E9003310
S214005784C2E90233087042F823402B7D286884F867
S21400579431300023206084F832302B7B23718C4B0D
S2140057A4984240F0CA80202384F82330894B236132
S2140057B44FF4802300266361D5E9072362621680CE
S2140057C45680968084F82C60A3621E805E809E803D
S2140057D46B6803A90593EB8984F82D60ADF81C303B
S2140057E42B8A84F82F60ADF81A30AB7C8DF80C60E9
S2140057F48DF81830EB7C8DF81E3005238DF81930A3
S21400580401F0F2FB14212A7B734B287A03EB421730
S214005814C7F8AC15A97A2E3240EA014C03EB4213C2
S214005824C3F804C06A7AEB7A42EA034CC7F8BCC5EC
S214005834E17784F820306B7DE07622776377AB7D62
S214005844042284F82130EB7DA3772B7E84F8223063
S214005854012301F047F80123022294F82010207F48
S21400586401F040F894F83130022B7DD13346012202
S21400587494F82110607F01F035F83346042294F83A
S2140058842210A07F01F02EF8012394F82120607FD7
S2140058941146CDE9003300F0DFFF00F03EFF2E7D19
S2140058A40746032E71D141F2AC5202212B7B042011
S2140058B45B0103F1804303F57033995041F25C02B7
S2140058C429688850297EEA7D42EA014241F2B851AD
S2140058D45A50A97D6A7D42EA014241F2B4515A50B7
S2140058E44FF0FF3242F248032868C2502B7D032B48
S2140058F40CBF0521042101F031FB4FF440622B68F4
S2140059045A61FEF70BFE002104F10800FEF794FD31
S214005914014600284AD0314C384600F004FF1BE705
S214005924002352F8231000293FF42DAF8C423FF495
S2140059342AAF0133042BF4D10DE7294B984207D143
S214005944212384F82330274B23614FF4A02331E727
S214005954254B98427FF404AF222384F82330234B4C
S21400596423614FF4C02325E7032B96D1334694F8DE
S2140059742110607F012200F0B5FF3346042294F81C
S2140059842210A07F00F0AEFF87E7022EA8D194F87D
S21400599421001749FEF734FFFEF724FF002366763E
S2140059A4A37623762046FFF78DFE99E704F10C00D4
S2140059B4FEF742FD04460028AED0ACE78C3B03005D
