S01100005A334C69676874536F632E73333739
S31500004000C01A002031360200A9860000AD860000E5
S31500004010A70A0A010042000004180FACA067A70116
S31500004020000000000000000000000000000000008A
S3150000403000000000ACB90300000000000000000012
S315000040400000000000000000FFFFFFFFFFFFFFFF72
S31500004050FFFFFFFF006007000000000000000000F7
S31500004060FFFFFFFFFFFFFFFF8000000000000000D2
S31500004070000000000000000000000000000000003A
S315000040800000000000000000904E0020904E00202E
S31500004090C01A002048140400708803006011002034
S311000040A02C11002000E0070000000000CA
S31500004200C01A002031360200A9860000AD860000E3
S31500004210A9CA0000B1860000B98600002D3602004A
S315000042202D3602002D3602002D3602002D360200F4
S31500004230BD8600002D3602002D3602002D36020006
S31500004240308700003087000030870000308700008C
S3150000425030870000319E00009D9F000030870000DF
S315000042603087000030870000359C00003087000052
S31500004270308700003087000030870000308700005C
S315000042803087000030870000308700002D3602009E
S3150000429030870000C9940000308700003087000096
S315000042A03087000091950000699500003087000076
S315000042B03087000030870000308700009DF901003C
S315000042C029F9010025F9010065F0010099F90100BD
S315000042D02DF901004DF9010031F901002D360200DA
S315000042E0E1F9010030870000308700009189000065
S315000042F03087000030870000308700002D3602002E
S3150000430030870000308700003087000030870000CB
S3150000431030870000308700003087000030870000BB
S3150000432030870000308700003087000030870000AB
S3090000433030870000CC
S31500004334F8B500BFF8BC08BC9E467047F8B500BF88
S31500004344F8BC08BC9E46704710B5054C237833B9B3
S31500004354044B13B1044800E000BF0123237010BDD1
S315000043643C22002000000000C40C040008B5034BE6
S315000043741BB10349034800E000BF08BD000000006C
S3150000438440220020C40C0400154B002B08BF134B1D
S315000043949D46A3F5803A00218B460F461348144ADE
S315000043A4121A34F041FA0F4B002B00D098470E4BEB
S315000043B4002B00D098470020002104000D000D4872
S315000043C4002802D00C4800E000BF34F0EFF92000CA
S315000043D429000CF0BAFB34F0D5F900BF0000080040
S315000043E4C01A002000000000000000003C2200204B
S315000043F4904E002000000000000000001FB50123BD
S315000044040022009306210DF10F030EF096FE20B94B
S315000044149DF80F3023B104F08BF905B05DF804FB69
S3150000442404F087F9F9E7000030B50024144D85B08F
S315000044342C700DF0CFFA022817D100900DF10E035F
S315000044442246032101200EF078FEBDF80E0048B185
S31500004454204604F06FF94FF47A61284624F0FCF8FC
S3150000446405B030BD04F064F9FAE70AF019FB054B10
S315000044740090054A0549012010F0B0F8F0E700BFA6
S31500004484F03D002019A50300708803007588030019
S3150000449408B50DF09FFA02280CD10022064B012024
S315000044A41A7006F083FDBDE8084002460349012060
S315000044B410F094B808BD00BFE83D0020D48803007E
S315000044C4912808B504D1002004F033F9002008BD72
S315000044D49028FBD1002004F02BF9024824F0B0F810
S315000044E4F4E700BFE83D0020014824F0A9B800BF66
S315000044F4F03D002013B5044600900D4B0D4A0E49BD
S31500004504012010F06BF88CB113F064F8024618B170
S315000045140A49012010F062F8002009F0D1FC084B8A
S315000045240090084A0449012010F058F802B010BD62
S315000045349A8803007088030075880300A388030023
S3150000454419A50300CF880300002307B5044A009386
S315000045540449054B012010F041F803B05DF804FB53
S3150000456489880300758803009A880300FFF746BF0D
S3150000457409B9FFF743BF704738B5C37B05460BB18E
S31500004584832038BDC47C2CB902F0B6F820B9EB7B85
S31500004594002BF5D18120F4E72046F2E7C37B10B562
S315000045A404460BB1832010BDC37C012B13D003D367
S315000045B4402B13D08120F6E7017D82898B1C9A4219
S315000045C418D380680FF05AFB08F0E6FAA0B9E37B2B
S315000045D4002BE7D1EEE708F0F7FAF7E7037D8189C8
S315000045E49A1C914206D38268591C515CD05C13F024
S315000045F481FAEBE78020D6E70020D4E7F8B5C37B41
S3150000460404460BB18320F8BDC37C052B29D8DFE80B
S3150000461403F0032A35414C4F057D8289AB1C9A422F
S3150000462401D28020EFE7ADB2294680680FF026FB61
S315000046340646A06802352844A7890FF037FB2844AC
S3150000464401308742EDD32946A289A0680FF01CFBEE
S315000046540146304607F0AEFF002848D1E37B002B25
S31500004664D0D18120CFE7017D82898B1C9A42D8D391
S3150000467480680FF003FB07F0BDFFEDE7037D81893A
S315000046845A1C9142CDD38268591C1144D05C07F060
S31500004694E1FFE1E7017D82898B1C9A42C1D38068E0
S315000046A40FF0ECFA08F058F8D6E708F0B1F8D3E7BB
S315000046B4057D8289AB1C9A42B3D3ADB22946806884
S315000046C40FF0DCFA0646A06802352844A7890FF0E5
S315000046D4EDFA284401308742A3D32946A289A0686B
S315000046E40FF0D2FA0146304608F0DAF8B4E70020B3
S315000046F489E7C37B2DE9F7430446002B40F03E814E
S31500004704C37C042B00F0B7800BD8012B00F0888003
S315000047143FD3022B00F09480032B00F0A18081206C
S315000047243DE0402B00F0DA800FD8052B00F0B38073
S31500004734062BF4D1017D82898B1C9A422ED3806884
S315000047440FF09CFA0BF07EFC61E0412B00F0058132
S31500004754422BE4D1037D8289D91D8A421ED39DB2A0
S315000047648068691CC65C0FF089FA0746A068EB1CD2
S31500004774A289291D10F803800FF080FAA368063574
S315000047845B5D4246009339460346304613F09AFC75
S315000047943DE0057D8289AB1C9A4203D2802003B09A
S315000047A4BDE8F083ADB2294680680FF067FAA289A6
S315000047B4E91C8A42064605F10203EFD3881C8242AD
S315000047C4ECD3A0680535C75C0FF058FA8046A0689C
S315000047D4B4F80C9028440FF069FA28440130814556
S315000047E4DCD32946A289A0680FF04EFA8146A06858
S315000047F428440FF05BFA01300544A0684B4610FAD2
S3150000480485F500954246394630460CF033F80028C3
S3150000481440F0B680E37B002B14BF83208120BEE7E3
S31500004824057D8289EB1C9A42B8D3ADB229468068CD
S315000048340FF024FAA3680235595D0CF001F9E6E796
S31500004844057D8289EB1C9A42A8D3ADB229468068BD
S315000048540FF014FAA3680235595D0BF01DFBD6E779
S31500004864017D82898B1C9A4298D380680FF006FAE0
S315000048740BF080FBCBE7057D8289EB1C9A428DD336
S31500004884ADB2294680680FF0F9F9A3680235595D7F
S315000048940BF024FDBBE7057D8289AB1C9A42FFF42D
S315000048A47DAFADB2294680680FF0E8F9A289E91C0C
S315000048B48A42064605F10203FFF470AFA068C75C9E
S315000048C48B1C9A4207D30FF0D9F902463946304673
S315000048D40BF0DCFD9BE74FF6FF72F7E7057D828957
S315000048E4AB1C9A42FFF45AAFADB2294680680FF06A
S315000048F4C5F9A289E91C8A42064605F10203FFF4BA
S315000049044DAF881C8242FFF449AFA0680535C75CE9
S315000049140FF0B4F98046A068B4F80C9028440FF060
S31500004924C5F9284401308145FFF438AFA2892946E8
S31500004934A0680FF0A9F98146A06828440FF0B6F9DB
S3150000494401300544A0684B4610FA85F500954246A9
S315000049543946304613F09EFB59E7057D8289EB1CE8
S315000049649A42FFF41BAFADB2294680680FF086F970
S31500004974A3680235595D13F09DFB48E783200EE7D3
S3150000498400200CE7F8B5C37B04460BB18320F8BDC1
S31500004994C37C022B21D004D8ABB1012B1AD08120C1
S315000049A4F5E7412B1CD0422B1DD0402BF7D1037DBC
S315000049B481899A1C91422DD38268591C515CD05C22
S315000049C413F0E2F901E00AF031FA28BBE37B002B8D
S315000049D4E5D0DBE70AF040FAF7E70AF053FAF4E722
S315000049E413F018FAF1E7037D8289591D8A4211D31F
S315000049F49DB28068691CC65C0FF040F9A28907461F
S31500004A04E91CA0680FF03AF939460246304613F01D
S31500004A1441FADAE78020BAE70020B8E7C37BF7B5A6
S31500004A240446002B40F0D280C37C072B00F2D080D2
S31500004A34DFE813F008003800590086009B00AA003E
S31500004A44B600C900037D8289591C8A42C0F0C2801F
S31500004A549DB2691C881C8242C0F0BC80A068C75CF9
S31500004A640FF00CF9EB1CA6895A1C964228BFA268C3
S31500004A74014624BFD25C2B1D03F1010038BFFF227F
S31500004A8486422ABFA068FF23C35C384608F05EFE50
S31500004A94002840F0A180E37B002B14BF83208120F3
S31500004AA403B0F0BD067D8589731C9D42C0F09280DB
S31500004AB4B7B2BA1C954207F10103C0F08B80806837
S31500004AC4C15C13460132954224BFC25CFB1C03F150
S31500004AD4010738BFFF22BD422CBFC35CFF23805DA4
S31500004AE408F051FED4E7037D8289591C8A4271D3AA
S31500004AF49DB2A91C8A4205F101076BD3881C824228
S31500004B0468D3A068C65CC75D0FF0B8F8291DB4F871
S31500004B140CC04B1C9C4528BFA368024624BF5B5CA3
S31500004B24691D01F1010038BFFF23844532BFFF210F
S31500004B34A068415C30460091394608F03CFEA7E780
S31500004B44027D8189501C814293B222BFA068013341
S31500004B54805C03F1010238BFFF2091422ABFA2689C
S31500004B64FF21D15C08F043FE92E7017D8289CB1CCC
S31500004B749A422FD38068455C01310FF07FF80146D5
S31500004B84284608F0F1FD83E7037D81899A1C91424A
S31500004B9420D38268591C515CD05C08F000FE77E78C
S31500004BA4037D8289191D8A4214D3806899B2C55C33
S31500004BB44B1C0231C65C0FF061F8314602462846AA
S31500004BC408F007FE64E708F01AFE61E7832067E74A
S31500004BD4812065E7802063E7002061E72DE9F04F37
S31500004BE4C37B8FB004461BB183200FB0BDE8F08FA2
S31500004BF4C37C0B2B4DD8DFE813F00C0055003001B5
S31500004C044C004C004C0057014C004C004C00C401B5
S31500004C14D801037D8289581C824234BF4FF0FF08B5
S31500004C24A06899B224BF10F80380013118F0070573
S31500004C3409D10F1DBA422FD3A0680FF019F8064602
S31500004C44B9B2FF2711E0022D25D101F108039A42DA
S31500004C54C0F0DF81A5680D4499B24B1C9A421BD360
S31500004C644FF0FF36A268575C99B2A2890B1D9A428F
S31500004C7415D3A0680EF0FCFF00903B462A46314649
S31500004C84404606F01DFC002840F0C181E37B002B62
S31500004C94AAD18120A9E700254FF0FF36D1E74FF0CE
S31500004CA4FF30E9E7037D82899DB203339A4218D324
S31500004CB4294680680EF0DFFF0646033516F007071F
S31500004CC412D1A28905F104084245C0F0AD802946F7
S31500004CD4A0680EF0CDFF83461FFA88F54FF0FF0A51
S31500004CE418E04FF0FF36E9E7022F40F09C80A289D6
S31500004CF405F108039A42C0F08E81A7682F449DB23D
S31500004D046B1C9A42C0F090804FF0FF3BA26812F8E9
S31500004D1405A09DB216F0100340F0898016F06009D4
S31500004D2403D0B9F1600F40F07B81A28905F1080335
S31500004D349A42C0F07281A168294409919DB2B9F1E1
S31500004D44000F03D0B9F1600F40F06B81AB1C9A429F
S31500004D54C0F06C812946A0680A930EF08FFF804646
S31500004D640A9B9DB2B9F1200F02D0B9F1400F62D16E
S31500004D74A289AB1C9A420A935DD32946A0680EF019
S31500004D847DFF81460A9B9DB206F01803082B55D178
S31500004D94A2896B1C9A4251D3A268525D9DB20A92B3
S31500004DA471044ED5A2892B1D9A424AD32946A0687E
S31500004DB40C930EF05DFF0C9B0B909DB216F4004312
S31500004DC444D0A28905F110039A423ED3A2682A442C
S31500004DD40C929DB2F2033BD5A289AB1C9A4237D3FF
S31500004DE42946A0680D930EF049FF0D9B9DB2B303AF
S31500004DF431D5A2896B1C9A422DD3A3685B5DCDE99C
S31500004E0406030C9BCDF8048005930B9B3A4604934A
S31500004E140A9B5946CDE90293099B304600935346B3
S31500004E2406F050FB2FE700274FF0FF3B56E7002321
S31500004E344FF6FF7809934FF6FF79A5E7FF230A9308
S31500004E44AEE74FF0FF330B93B8E700230C93C1E7AB
S31500004E544FF6FF70CBE7FF23D1E7017D8289481C1B
S31500004E64824234BFFF25A0688BB224BF455C013360
S31500004E74A90714D59E1CB24211D31946A0680EF098
S31500004E84FDFE0146B3B2EA060CD5A0895A1C90422F
S31500004E9408D3A268D25C284606F0D0FAF3E64FF6A9
S31500004EA4FF71F0E7FF22F6E7037D8289591C8A42E7
S31500004EB49DB228BF0135806805F102062CBF10F8A3
S31500004EC403804FF0FF08B24234D329460EF0D6FED3
S31500004ED48146B5B2A2896B1CA0689A422ABF10F813
S31500004EE405A04FF0FF0A9DB218F0070625D105F17B
S31500004EF4040B5A4531D329460EF0BAFE07461FFA6B
S31500004F048BF54FF0FF0BA289691C8A4238BFFF2339
S31500004F14A06832BF0993435D8DB2284428BF099324
S31500004F240A920EF0C3FE0A9A28440130824217D22E
S31500004F3480205AE64FF6FF79CCE7022E0CD105F114
S31500004F4408039A4270D346199DB210F805B001358C
S31500004F54ADB24FF0FF37D6E700264FF0FF37D0E764
S31500004F64A2892946A0680EF08FFE099B0390CDE91D
S31500004F7401B300963B4652464946404606F038FB86
S31500004F8481E6007DA289031D9A42D1D3A56886B223
S31500004F94F31CB21C711C0436EB5CAA5C695C285CCD
S31500004FA43544009506F0E2FB6DE6037D8289591CC3
S31500004FB48A42BDD380689FB2C65C791C16F01F0571
S31500004FC404D10EF055FE791D002206E0022D1BD1F8
S31500004FD442184FF0FF3007F1090106F00703022BD0
S31500004FE401BFA3684D1C5B5CA9B206F0180518BF87
S31500004FF4FF23082D12BFFF25A5686D5C01460095A9
S31500005004304606F0A1FC3EE64FF0FF30DCE7002018
S31500005014EBE5002521E6002772E6002309938EE6D8
S3150000502409934FF6FF789DE600268EE7B9F1200F27
S315000050344FF6FF787FF499AEFDE62DE9F043C37B86
S3150000504485B00446002B40F0A582C37C062B00F0F5
S315000050545B8139D8022B00F0EB8007D8002B00F0D7
S315000050648F80012B00F0C58081208FE0042B067D04
S31500005074858900F02A8140F20381731C9D42C0F0A9
S315000050848480B7B207F1010C0CF101039D427CD375
S31500005094FA1C954207F1020377D38068F91CC25CB7
S315000050A44B1C9D4224BF435C391D01F1010738BFE7
S315000050B4FF23BD4234BFFF25455C10F80C10805D0C
S315000050C4009502F04DF88BE00A2B00F0AD813AD83A
S315000050D4082B017D828900F07D8140F245818B1C7D
S315000050E49A4252D38DB2294680680EF0C7FDA91C98
S315000050F4A2898B1C9A42074647D3A0680EF0BEFDD0
S31500005104291DA2898B1C9A4280463ED3A0680EF0C4
S31500005114B5FDA91DA6894B1C9E4228BFA36802465D
S3150000512424BF5B5CE91D01F1010038BFFF23864201
S3150000513432BFFF21A068415C38B200910FFA88F1B2
S3150000514402F028F94CE04B2B00F09A814C2B00F02E
S31500005154D881472B88D1027D8189501C814293B224
S3150000516422BFA0680133805C03F1010238BFFF202F
S3150000517491422ABFA268FF21D15C02F0ADFA2FE06A
S31500005184037D8289591C8A4203D2802005B0BDE87A
S31500005194F0839DB2A91C8A4205F10107F5D3881C48
S315000051A48242F2D3A068C65CC75D0EF067FD291D76
S315000051B4B4F80CC04B1C9C4528BFA368024624BF08
S315000051C45B5C691D01F1010038BFFF23844532BFD2
S315000051D4FF21A068415C30460091394601F0B2FED9
S315000051E4002840F0D981E37B002B14BF8320812063
S315000051F4CCE7067D8589731C9D42C6D3B7B2BA1C1B
S31500005204954207F10103C0D38068C15C134601329D
S31500005214954224BFC25CFB1C03F1010738BFFF2281
S31500005224BD422CBFC35CFF23805D01F0D7FDD7E7E9
S31500005234077D85897B1C9D42A7D3BEB206F1010C6E
S315000052440CF101039D42A0D3F21C954206F1020320
S315000052549BD38068F11CC25C4B1C9D4224BF435CFB
S31500005264311D01F1010638BFFF23B54234BFFF25C6
S31500005274455C10F80C10C05D009501F015FFAFE712
S31500005284731C9D4281D3B7B2791C8B1C9D42FFF4DB
S315000052947CAF80682A46865D0EF0F0FCFB1CA5896F
S315000052A45A1C954228BFA268014624BFD25C3B1D06
S315000052B403F1010038BFFF2285422ABFA068FF23FD
S315000052C4C35C304601F0A6FE8AE7731C9D42FFF4D8
S315000052D45CAFB7B2BA1C954207F10103FFF455AFB0
S315000052E48068C15C13460132954224BFC25CFB1C34
S315000052F403F1010738BFFF22BD422CBFC35CFF2365
S31500005304805D01F0CDFD6BE7037D8289591C8A42DD
S31500005314FFF43BAF9DB2A91C8A4205F10107FFF4D5
S3150000532434AF881C8242FFF430AFA068C65CC75D08
S315000053340EF0A4FC291DB4F80CC04B1C9C4528BFD8
S31500005344A368024624BF5B5C691D01F1010038BFF6
S31500005354FF23844532BFFF21A068415C304600919B
S31500005364394601F0CDFC3BE78B1C9A42FFF40DAFA6
S315000053748DB2294680680EF081FCA91CA2898B1C7B
S315000053849A420746FFF401AFA0680EF077FC291D88
S31500005394A2898B1C9A428046FFF4F7AEA0680EF0F1
S315000053A46DFCA91DA6894B1C9E4228BFA368024614
S315000053B424BF5B5CE91D01F1010038BFFF2386426F
S315000053C432BFFF21A068415C38460091414601F096
S315000053D41FFF05E78B1C9A42FFF4D7AE8DB2294610
S315000053E480680EF04BFCA91CA2898B1C9A420746C6
S315000053F4FFF4CBAEA0680EF041FC2B1DA6895A1C07
S31500005404964228BFA26801B224BFD25C6B1D03F189
S31500005414010038BFFF2286422ABFA068FF23C35C6F
S3150000542438B201F049FFDBE6057D8289AB1C9A425E
S31500005434FFF4ABAEADB2294680680EF01FFCA91C82
S31500005444A2898B1C9A420746FFF49FAEA0680EF011
S3150000545415FC2B1DA6895A1C964228BFA268014634
S3150000546424BFD25C6B1D03F1010038BFFF228642C4
S315000054742ABFA068FF23C35C384602F005F8AFE6EE
S31500005484037D8289591C8A42FFF47FAE9DB2691C52
S31500005494881C8242FFF479AEA068C65C0EF0EEFB6F
S315000054A4E91CA2898B1C9A420746FFF46EAEA068DB
S315000054B40EF0E4FB691DA2898B1C9A428046FFF418
S315000054C464AEA0680EF0DAFBEA1DB4F80CC0511CF9
S315000054D48C4528BFA168034624BF895C05F10802F0
S315000054E402F1010038BFFF21844532BFFF22A068C4
S315000054F4825C3046CDE900124246394601F0DEFFB1
S315000055046EE6037D8289591C8A42FFF43EAE9DB243
S31500005514691C881C8242FFF438AEA068C65C0EF093
S31500005524ADFBE91CA2898B1C9A420746FFF42DAEFB
S31500005534A0680EF0A3FB691DA2898B1C9A428046C3
S31500005544FFF423AEA0680EF099FBE91DA2898B1C1B
S315000055549A428146FFF419AEA0680EF08FFB05F15E
S315000055640902A389511C8B4229BFA168FF21895CCA
S3150000557405F10A02551CAB4232BFFF22A3689A5CAE
S315000055840090CDE901124B4642463946304601F0B9
S31500005594FBFF25E68320F9E50020F7E5C37B10B57C
S315000055A404460BB1832010BDC37C412B03D0422B90
S315000055B40FD08120F7E7037D81895A1C914212D3CB
S315000055C48268D05C12F070FE78B9E37B002BE9D1D7
S315000055D4EFE7037D81895A1C914204D38268D05C2B
S315000055E412F0AAFEF0E78020DDE70020DBE738B5FD
S315000055F4C37B0446002B437D14BF8325C325012B9F
S315000056040FD10368028A598858790CF047FF40B1D4
S3150000561423685B88212B16D12046BDE83840FFF766
S31500005624DDBA637D7BB92368228A598858790CF0E0
S315000056342CFF40B123685B88052B2AD005D8032BA1
S315000056441DD021D8B3B1284638BD082B26D006D89C
S31500005654062BF8D12046BDE83840FFF793B9B3F5D9
S31500005664407F20D0B3F5805FEDD12046BDE83840B9
S31500005674FFF794BF2046BDE83840FEF77DBF2046BD
S31500005684BDE83840FEF78ABF2046BDE83840FEF73D
S31500005694B5BF2046BDE83840FFF72BB82046BDE825
S315000056A43840FFF7BBB92046BDE83840FFF7C5BC14
S315000056B470470120704701207047012070477047EA
S315000056C40020704700207047002070470020704774
S315000056D40020704700207047012070470120704762
S315000056E4B52070470020704700207047002070479F
S315000056F400207047704700207047002070477047AD
S315000057040020704784207047704770477047704781
S31500005714704770477047002070477047704770475E
S3150000572400207047704700F023BD03207047002017
S3150000573470470000034B1B681878012808BF022035
S31500005744704700BF3C360020002070470346012006
S31500005754024AC3E9032000221A7070470100FEFFC3
S31500005764704770477047002070470020704700203C
S31500005774704700207047704700207047704700202C
S3150000578470470020704700207047002070470020B3
S31500005794704700207047002070470020704770470C
S315000057A4B5207047002070470020704770470020DE
S315000057B4704770477047B520704770477047704709
S315000057C400207047704770470023FF21084A137072
S315000057D482F8783082F8653082F8773082F879304A
S315000057E482F87A1082F87B30024A1360704700BF51
S315000057F458220020F83D0020F8B50D468C680A684A
S3150000580406462749002003F030FE686870B925492A
S3150000581403F02BFE00200BF071F92349002003F05E
S3150000582439FEBDE8F84000200BF068B9002EF1D02F
S315000058341E4D1F4E1F4F013C14F8010F18B91A498B
S3150000584403F028FEE6E7752818D0762818D07728BE
S3150000585418D0732818D0722818D0712818D0622846
S3150000586418D06E2818D02A2818D01349134B21288B
S3150000587418BF1946002003F0F8FDDDE72946F9E7CD
S315000058843146F7E73946F5E70D49F3E70D49F1E700
S315000058940D49EFE70D49EDE70D49EBE70D49E9E75A
S315000058A449DE030088890300398903004689030019
S315000058B43A89030051890300928903008F89030002
S315000058C45D89030067890300728903007D890300EB
S315000058D4878903008C890300F0B50026204A92F8D4
S315000058E47B30184452FA80F090F865C090F8665000
S315000058F430461C4BA5EB0C051F78EDB2F4B2A5425D
S3150000590425D90CEB060313445B7811B10CB92D2B86
S3150000591417D0782B1FD0582B05D108B137240AE0AD
S31500005924013C012C14D9602B17D8402BF6D83A2BFE
S3150000593434BF302400241B1BDBB29F4203D900FB77
S3150000594407300136DAE70523002082F87930F0BD06
S3150000595410270020F5E70028E2D05724EBE700BF24
S3150000596458220020581C0020FFF72EBF034B93F843
S31500005974770093F87B30C01AC0B2704758220020D3
S315000059840021FFF7A9BF000010B50A4B93F87B204E
S31500005994024453FA82F292F8652013445C78A4F127
S315000059A42D0359425941FFF797FF2D2C08BF40425A
S315000059B410BD00BF5822002030B50C4A92F87B3047
S315000059C40344C043DBB2C00F39B1D51895F866401D
S315000059D495F86550641B241A0C7042FA83F393F805
S315000059E465301844024B184430BD00BF58220020CD
S315000059F459220020F7B515460E460DF107011C463F
S31500005A04FFF7DAFF9DF807300746AB4288BF8DF8EB
S31500005A1407501CB19DF807402C1BE4B222463046C1
S31500005A24002100F079FB30199DF80720394600F073
S31500005A3417FB9DF8070003B0F0BD38B50C460123EB
S31500005A440822FFF7D7FF04F10803621E043413F893
S31500005A54011D12F8015FA3421D701170F7D138BD04
S31500005A6438B5054601460120FFF7C6FED5E90143D0
S31500005A746CB91C46084D236863B12946002003F01F
S31500005A84F4FC21460020FFF7B7FE0C34F3E71B783D
S31500005A946E2BEFD038BD00BF65E0030008B504499E
S31500005AA4002003F0E2FCBDE8084000200BF026B815
S31500005AB4FA88030038B5FFF7F1FF0024054D611994
S31500005AC40C34631953F80C3C03B938BD0020FFF7B6
S31500005AD493FEF4E7449A03002DE9F84F1F4B204D3B
S31500005AE453F820201F49002003F0BFFC2B681BB984
S31500005AF4BDE8F84FFFF7DEBF1B4FFFF7CFFF0026C9
S31500005B04B946DFF86CA097F87B30F4B2013B9C42AF
S31500005B1404DB2868BDE8F84FFFF7A2BF47FA86F30F
S31500005B2493F8658000234C44C84494F8662094F89E
S31500005B34651003F1010B521ADBB2D2B2934205D3BC
S31500005B440A49002003F091FC0136DCE743445A7805
S31500005B545146002003F089FC5B46E6E75C1C002006
S31500005B64F83D0020F58803005822002066E0030073
S31500005B74E8E203002DE9F74F884C94F87730002BC0
S31500005B8400F0A180864B671C1B7813F0010F1FD011
S31500005B940025844E14E0631993F8662093F8653063
S31500005BA40020D21A44FA85F393F86510D2B2394428
S31500005BB40AF09FFF3146002003F057FC0135EDB291
S31500005BC494F87730AB42E6D87749002003F04DFCD1
S31500005BD4002694F87730DFF8DCE10193734B4FF03D
S31500005BE40008714645461EF8012B91F801C007EBE3
S31500005BF4020AACEB020C5FFA8CFC1868002852D03F
S31500005C040138D14619E02AB9002D4AD04FF00108CF
S31500005C140C33F2E719F8011BA1F1410BBBF1190F83
S31500005C2498BF2031A2F1410B98BFC9B2BBF1190F3D
S31500005C349CBF2032D2B28A42EAD1A9EB0A0161455D
S31500005C4410F8012FDFD1002ADED11D46584B01364C
S31500005C541D6094F87B30F6B2013384F87B30D5E9C5
S31500005C640123002A35D01B786E2B31D03F2B23D04D
S31500005C744FF000094FF0070BC846042394F8771039
S31500005C84AA68B14212F808702BD8AFB1904498F8BC
S31500005C9401302A2B10D0212F1CBF032384F879301E
S31500005CA40AE01D46B4E7B8F1000F01D1002DCDD1AD
S31500005CB40223002584F8793094F87900002869D104
S31500005CC468680DF0A9FC03B0BDE8F04FFFF77CBD92
S31500005CD41346019AB24282D803221D4684F87920DB
S31500005CE4EAE7732F09D8712F0BD2212F1FD0622F09
S31500005CF43CD0002F4BD1032246E0A7F17502022ABD
S31500005D0445D8752F29D0762F2AD0732F2BD0722FF2
S31500005D1447F6FF7A18BF4FF0FF3A01214846019330
S31500005D24FFF7DAFD5045019B01D984F87930AA685A
S31500005D34424452782A2A94F879201CBF08F10108B3
S31500005D445FFA88F8002AB7D1212F1FBF013609F15F
S31500005D540109F6B25FFA89F990E74FF0FF0ADCE72A
S31500005D644FF6FF7AD9E74FF07F0AD6E794F87B20FF
S31500005D744A4454FA82F292F8652022445278222A3E
S31500005D84D5D07B2AD3D0052284F87920CFE784F8AE
S31500005D9479B0CCE7FFF7A0FE95E700BF58220020B4
S31500005DA4D422002066E0030037890300449A0300E6
S31500005DB4F83D0020BD2200202DE9F34106460D469C
S31500005DC44FF000085C4C5D4F66B90DF1070128469B
S31500005DD40AF08AFE78B1262800F0A980012384F807
S31500005DE479304BE0002D00F0A28016F8013B013D0E
S31500005DF48DF80730EDB23A789DF807300D2A3B70DE
S31500005E0401D10A2BE0D00D2B0CD0A3F10A0251428A
S31500005E14514122788846042AD6D8DFE802F0051DC7
S31500005E24263C31000121F4E721B1FFF7A3FE4FF030
S31500005E340108C9E7202B63D0222B07D10223237044
S31500005E4494F87820642A5DD10623C8E77B2B01D118
S31500005E540323F4E70123F2E709B9202BF0D194F8E0
S31500005E647730112B3FD10323B9E7222BF7D0002932
S31500005E74E6D005234FF0010884F879300423237013
S31500005E84B8F1000FA0D094F8790008B1FFF724FE0A
S31500005E94FFF79AFC98E77D2B94F87A0003D1FF2844
S31500005EA4DDD005239BE7602B13D8402B13D8392B61
S31500005EB48CBF002230229A1AD2B20F2A10D8FF2899
S31500005EC40BD0FF2302EB00128DF8072084F87A30FA
S31500005ED4B6E75722EFE73722EDE784F87A2073E72F
S31500005EE4202BDED170E70133DBB294F8782084F8F6
S31500005EF47730234483F8652000232370002994D146
S31500005F04884661E72378012B09D19DF80730A3F170
S31500005F14410119299CBF2033DBB28DF807309DF867
S31500005F240710A3180132597084F878204CE74046CC
S31500005F3402B0BDE8F08100BF58220020D52200201F
S31500005F4449BA89B24840C0F303114140080380B2FC
S31500005F544840C3B280EA431070471EF06FBD7047D5
S31500005F64704770477047704770477047704770476F
S31500005F7470477047704770477047002070477047F6
S31500005F84704700207047704770470020704770477D
S31500005F947047002070477047012070470120704702
S31500005FA470477047704770477047704770470000E6
S31500005FB42DE9F0470024204DDFF89C90DFF89CA0E3
S31500005FC45FFA84F8404622F005F9FF2806460CD10C
S31500005FD422461A49287803F05DFA287801340AF033
S31500005FE48DFD142CECD1BDE8F087154B47B213EAAE
S31500005FF4270338BF534659F824201249287803F05A
S3150000600449FA002FE9DA14B1B8F1030F08D10E4B9F
S3150000601416F0010F0D49287818BF194603F03AFA0D
S315000060240A2CDAD10A4B16F0010F0A49287818BF50
S31500006034194603F02FFAD0E724360020B18A03006C
S3150000604439890300D98A0300748A03008A8A030003
S315000060549C8A0300A68A0300208A0300BCDE030090
S315000060648842F0B54FEA92031AD804460D469BB20D
S315000060749E00871904370434BC4205F104053AD15D
S31500006084C3EB8333314402EB8303013E304411FAFC
S3150000609483F3994220D011F8012B00F8012FF8E779
S315000060A4541E204421440D4604469BB2A0EB8306AD
S315000060B4043E043CB442A5F104050ED16FF003047A
S315000060C45C43C3EB833302EB830321449BB2013469
S315000060D42044CB1A994209D1F0BD2F792771EF7864
S315000060E4E770AF78A7706F786770E2E711F8012957
S315000060F400F8012DEEE715F804CC04F804CC15F8E5
S3150000610403CC04F803CC15F802CC04F802CC15F839
S3150000611401CC04F801CCAEE70244904200D17047AA
S3150000612400F8011BF9E710B5013801390AB9104620
S3150000613406E010F8014F11F8013F9C4201D0E01A25
S3150000614410BD013A92B2F1E782B2074B4AB1000C94
S315000061541A8008BF4FF6CE22044B14BF18801A804B
S3150000616470474BF6EF62F2E73C1D00203E1D00200F
S31500006174094B1888020448BF80F0620042001A8066
S31500006184064A1388190444BF83F4805383F00B032F
S3150000619459001180584070473C1D00203E1D0020C8
S315000061A40022034B1870034B1970034B1A70704787
S315000061B4E2220020E1220020E32200202DE9F04F14
S315000061C4234E85B0337807468846002B3DD04FF6DC
S315000061D4FB73204D98422C7803D952211E4801F0B6
S315000061E401FF1E4B4FF0000B9A4632785FFA8BF98B
S315000061F44A45187811D9484402A9C0B201932AF035
S3150000620457FE082241460DEB0200FFF78CFF0BF107
S31500006214010B019B0028E8D14C462B78A34207D1F9
S31500006224631C3278DBB29A422B7004BF00232B70B6
S315000062349AF8003041461C44E4B220462AF060FF36
S3150000624418B9394620462AF001FE05B0BDE8F08F9C
S31500006254E1220020E3220020CE8B0300E22200206C
S31500006264024B187800F07F00704700BFE42200203C
S31500006274034B18780130C0B2187000F07F007047E5
S31500006284E42200201FB5030A8DF80E300323009381
S3150000629403AB8DF80D0000F0BFF905B05DF804FB03
S315000062A41FB58DF80F100421030A8DF80E300091E6
S315000062B403AB8DF80D0000F0AFF905B05DF804FBF3
S315000062C42DE9F043994689B0BDF840509DF84460E5
S315000062D4074688460DF1090011460822BDF84C40D0
S315000062E4FFF7BEFE8DF81250012E4FEA15258DF8E4
S315000062F411908DF813508DF8146017D0032E1CD10D
S31500006304082212990DF11500FFF7AAFE9DF85030E8
S315000063148DF81D3016230093BDF8542002AB414678
S31500006324384600F079F909B0BDE8F0838DF81540D8
S31500006334240A8DF816400F23EDE70120F3E71FB575
S315000063440C46194602238DF80D2000930A4603AB2A
S315000063540146204600F060F904B010BD70B586B061
S31500006364044616460DF10D0008221D46FFF778FE79
S315000063740A232A460093342103AB20468DF8156080
S3150000638400F04AF906B070BD30B5002485B0ADF80A
S315000063940A20021D92B2012A1D46ADF80840ADF846
S315000063A40610ADF8044003D94FF6FF72904207D1A8
S315000063B4064A2B46127801A928F0BCFE05B030BD6A
S315000063C4014601AA204628F07BFFF7E7401D00207E
S315000063D42DE9F74F9846FF2A16BF474B00241B6842
S315000063E40E4618BF9C5C814618BF6408B8F1FF0FBF
S315000063F416BF414B00271B6815461CBF13F80870CF
S315000064047F08FFF735FF4FEA19238DF800008DF852
S3150000641403600621360A68468DF804608DF80190FB
S315000064248DF802308DF8054022F08CFCFF280646D4
S3150000643404D11824204603B0BDE8F08F4FEA440B7C
S315000064440BF1070A0AEB4701C9B222F02FFC002818
S31500006454EFD10446A3451BD10BF106013A4601F0E0
S31500006464FE0130465FFA8AF422F0E7FC4FF0000A98
S315000064745FFA8AF5AF4223D83346BDF830200621A9
S315000064844846FFF781FF0446304622F0FDFAD1E77D
S315000064942146284622F0CCFCA11D0246C9B230464C
S315000064A422F0CBFC611CC9B2284622F0C1FCE11DD6
S315000064B40246C9B23046023422F0BFFCE4B2C9E750
S315000064C46D00EDB22946404622F0B2FC2146024652
S315000064D4304622F0B2FC691CC9B2404622F0A8FC40
S315000064E4611C0246C9B23046023422F0A6FC0AF107
S315000064F4010AE4B2BCE700BFD81C00202DE9F04134
S3150000650488B00F4602A906460BF032FB00287CD061
S31500006514FFF7AEFE8DF8100022F030F88DF811006A
S3150000652422F02CF8000A8DF81200082239490DF1E0
S315000065341300FFF795FDBDF808300F218DF81C30C8
S315000065441B0A8DF81D309DF80D3004A88DF81B60CC
S315000065548DF81E3022F0F6FBFF28044657D04FF084
S3150000656400089DF80D305FFA88F2934208F101089D
S315000065741DD801220DF10E01204622F025FC4FF014
S3150000658400089DF80E305FFA88F2934208F101087C
S3150000659424D823463A4620210020FFF7F5FE054677
S315000065A4204622F071FA284608B0BDE8F0810021A1
S315000065B430460BF009FB05468DF807000DF107017F
S315000065C40122204622F000FC2D0A01220DF10701CA
S315000065D420468DF8075022F0F7FBC2E7012130462A
S315000065E40BF0F2FA05468DF807000DF107010122BA
S315000065F4204622F0E9FB2D0A01220DF1070120466F
S315000066048DF8075022F0E0FBBBE7A325CBE718255E
S31500006614C9E700BF5D4D0020F8B51C460E46174677
S315000066240546FFF725FE9DF818102070204622F037
S3150000663489FBFF2804460BD003463A4628463146D2
S31500006644FFF7A2FE0546204622F01EFA2846F8BDAC
S315000066541825FBE708B5FDF747FF0FF04FF8BDE82F
S31500006664084007F023BD08B5FFF749F80FF074F8A2
S31500006674BDE8084006F01ABA7047FFF784B8FFF77A
S3150000668488B830B4BDF80840BDF80C50CDE90245D1
S3150000669430BC05F023BA38B504460D46FFF792F828
S315000066A42946204607F01EFD29462046BDE8384007
S315000066B40AF086BAFFF76FB8FFF779B8012200210E
S315000066C409200FF023BD002307B5CDE900330123CC
S315000066D469464FF0FF308DF8023014F0BDF80030F3
S315000066E418BF012003B05DF804FB012070470120A8
S315000066F4704701207047000010B5084C23681B68DA
S3150000670458790CF0A8F923681B685879FEF7FDFF41
S3150000671400200FF0B5F9012010BD00BF544B002036
S315000067242DE9F84F80460D4614469946164E06F155
S31500006734010A0DB9BDE8F88F102D4FF00D02494638
S3150000674450462F4628BF1027FFF78AFC01233370D3
S3150000675400230D48F473B3732AF06AFD42460134EC
S315000067640A495FFA87FBE4B212F8013B11F8010FFC
S31500006774434002F8013CA2EB0803DBB25B45F3D3CA
S31500006784ED1BADB29046D4E7E9220020E8220020B2
S315000067942DE9F04F4FF00209364D85B003930F9B58
S315000067A4174601900D220E460146681CBDF8388036
S315000067B40293FFF755FC49234C46AA462B702846FC
S315000067C44FEA1823AB7385F80F802AF031FD2B7836
S315000067D483EA17232B706B787B406B704FF0000BAA
S315000067E421E0C4F1100CA7EB0B031FFA8CFC9BB23F
S315000067F4634528BF63463046A11B00EB010C5FFAD4
S315000068048CF2A0EB060C1FFA8CFC9C451BD31C4493
S31500006814E4B29B44102C1E441FFA8BFB03D128467A
S315000068242AF006FD0024BB45DBD314B150462AF0FA
S31500006834FFFCB9F1010F4FF00004039E47460BD04D
S315000068444FF00109CAE710F801CB1AF802E08CEA06
S315000068540E0C0AF802C0D0E7029804220549FFF795
S31500006864FFFB22460421019B029805B0BDE8F04FC8
S31500006874FFF756BFE9220020F7B5099FBDF820406F
S315000068840646CDE900471D46FFF782FF2CB1334685
S31500006894012221462846FFF743FF002003B0F0BD3E
S315000068A42DE9F7431E46054688469146BDF82870ED
S315000068B40D4C0346394630460122FFF731FF334675
S315000068C44A4641462846CDE90074FFF761FF042293
S315000068D421460B98FFF727FC002814BF7E200020D2
S315000068E403B0BDE8F08300BFE52200202DE9F341A3
S315000068F40C4615461E468046084F991821443846CC
S315000069040422FFF7ADFBCDE9006763192A46214649
S315000069144046FFF7C5FF02B0BDE8F081F92200202A
S315000069240020704700207047704770470023034AD1
S315000069341370034A1370034A13707047343E0020E1
S315000069442C3E00203C3E00201FB5022344F20B02DD
S3150000695400934FF440710DF10E030CF0EEFB10B1F1
S315000069640023ADF80E30BDF80E0005B05DF804FB4B
S315000069741FB5022344F20C0200934FF440710DF14B
S315000069840E030CF0DAFB18B14FF6FF63ADF80E30C8
S31500006994BDF80E0005B05DF804FB81B1438880881C
S315000069A483429EBF1A46034610461B1A0A205843C2
S315000069B4B0FBF1F0B0F5803F01D280B270474FF6DC
S315000069C4FF7070471FB50123002200934FF44071F6
S315000069D40DF10F030CF0B1FB20B140F23231044843
S315000069E401F000FB9DF80F0005B05DF804FB00BF45
S315000069F487A503001FB50123082200934FF44071B5
S31500006A040DF10F030CF099FB18B19121034801F025
S31500006A14E9FA9DF80F0005B05DF804FB87A50300AD
S31500006A24F0B585B00F460546FFF7E4FFB8420446C5
S31500006A3438D0202304AE06F8017D44F20102009307
S31500006A444FF44071334628460CF026FB20B14FF430
S31500006A548171174801F0C6FA2023082200934FF4E7
S31500006A644071334628460CF017FB20B140F2091159
S31500006A740F4801F0B7FA04EB0710C0B2102813D080
S31500006A8407D801280BD002280CD12846FEF73FFE72
S31500006A9408E0202808D0212801D01228F4E7284647
S31500006AA4FEF736FE05B0F0BD2846FEF72FFEF9E7E1
S31500006AB487A503001FB501220DF10F0300924FF4C1
S31500006AC440710CF03AFB20B14FF45071034801F0C9
S31500006AD489FA9DF80F0005B05DF804FB87A503004D
S31500006AE470B50026074C0546A680FFF76BFF257296
S31500006AF46070054C2846E680FFF7DCFFA5736080CE
S31500006B0470BD00BFFE2200200A2300201FB5022309
S31500006B14032200934FF440710DF10E030CF00DFBAC
S31500006B2420B140F21B41044801F05CFABDF80E00A6
S31500006B3405B05DF804FB00BF87A503001FB502235B
S31500006B44042200934FF440710DF10E030CF0F5FA94
S31500006B5420B140F22941044801F044FABDF80E0080
S31500006B6405B05DF804FB00BF87A503001FB502232B
S31500006B74072200934FF440710DF10E030CF0DDFA79
S31500006B8418B19F21034801F02DFABDF80E0005B097
S31500006B945DF804FB87A503002DE9F84391460546F5
S31500006BA40C46FFF7D1FE07462846FFF7E1FEB9F18A
S31500006BB4000F064608BF4FF00109FFF7B7FE022192
S31500006BC42846FFF72DFFBC4238BF3C46A4B2B44268
S31500006BD4284628BF3446FFF7C9FFDFF83C80A4B235
S31500006BE4A8F800002846FFF7C1FFA8F80440A8F853
S31500006BF40200A8F80690A8F8089088F80E50A8F89D
S31500006C040A70A8F80C606421BDE8F843014821F035
S31500006C1423BD00BF343E00201A230020F0B50E46E3
S31500006C2485B00621074615460BF041FC01230446B0
S31500006C3448B300930F220DF10E034FF4407138460A
S31500006C440CF07BFA10B100238DF80E3001230022DC
S31500006C54009306210DF10F0338460CF06EFA50B975
S31500006C649DF80F403CB9FF2E08D1FF2D06D19DF8A3
S31500006C740E4004F00104204605B0F0BDF307F6D536
S31500006C8405F00104F7E71C46F5E700001FB52122CD
S31500006C9404AB23F8021D00924FF4407102220CF05B
S31500006CA4FBF918B1F821034801F09CF905B05DF829
S31500006CB404FB00BF87A5030010B50446C088E8B1ED
S31500006CC4013881B2E180A07BFFF7E0FFA2886388E8
S31500006CD4E08893420FD0238821899A428BBFD31A26
S31500006CE49B1A434343438BBFB3FBF1F3B3FBF1F36B
S31500006CF4D31A9B186380B0FA80F0400910BD0000D7
S31500006D042DE9F8431E46314B15461B6880461B6821
S31500006D140F465C792046FFF755FE002D08BF012576
S31500006D24B8F1FF0F814601D0FF2F05D180200EF068
S31500006D34A7FE0120BDE8F8839DF8202031462046B1
S31500006D44FFF76CFF0028F2D0C14538D2A8EB09063C
S31500006D547E2ECCBF00260126FFF7E8FD0021204643
S31500006D64FFF75EFE2046FFF7BBFE194B204683F86D
S31500006D7402804FF000085E7283F8009083F8019059
S31500006D849D80DD801C7283F80A80FFF793FE114E06
S31500006D9430802046FFF78EFEFE237080294620466B
S31500006DA4B381B780F5803581B473A6F80A80FFF7FE
S31500006DB46DFF0948642121F04FFC4046B7E7A9EB73
S31500006DC408067F2ED4BF00260126C5E7544B0020B3
S31500006DD4FE2200200A2300203C3E0020F8B50D4682
S31500006DE411462B4A07461268126856791A463046E7
S31500006DF4FFF714FF20B900200EF042FE0120F8BD73
S31500006E04FFF794FD002FF6D000213046FFF708FE69
S31500006E143046FFF765FE3046FFF7D4FD1D4C207063
S31500006E243046FFF7CFFD012F607020D13046FFF7C3
S31500006E34C9FD012315FA80F080B2FE2884BFFE380E
S31500006E4480B2A07063720A23A380E38001232672B2
S31500006E54A37200244FF6FF713046FFF717FF0E4B5F
S31500006E640E486421DC8021F0F7FB2046C4E7032F9B
S31500006E740BD13046FFF7A6FD83B2A8423CBFFE33D2
S31500006E849BB25D1BA5700023DCE78020B4E700BF3E
S31500006E94544B0020FE2200200A2300203C3E002002
S31500006EA42DE9F0410E461146224A804612681268C0
S31500006EB455791A462846FFF7B1FE28B900200EF088
S31500006EC4DFFD0120BDE8F081FFF730FDB8F1000FCA
S31500006ED4F4D0002EF2D0002700212846FFF7A0FDAB
S31500006EE42846FFF7FDFD144B28469F80FFF7E2FD79
S31500006EF4124C20802846FFF7DDFDB8F1010F08BFCC
S31500006F04FE23314660800D480CBFA380A780FFF79F
S31500006F1444FD0026FE230146E08020812846A38105
S31500006F24A5736681FFF7B2FE0548642121F094FB40
S31500006F343046C4E7544B0020FE2200200A230020DA
S31500006F443C3E00202DE9F04117462E4A8046126841
S31500006F540C461268194655799DF818202846FFF7FD
S31500006F645DFE20B90EF08CFD0120BDE8F0812846B7
S31500006F74FFF728FD002F08BF0127B8F1FF0F01D145
S31500006F848020EFE7032CFBD8DFE804F0023239094E
S31500006F94A0EB080010F0800F0CBF03240124FFF7B8
S31500006FA4C5FC00212846FFF73BFD2846FFF798FD60
S31500006FB42846FFF707FD144E30702846FFF702FDFA
S31500006FC4631E5C425C4174720024104B7070394637
S31500006FD42846DC8086F80280B780F7803572B47262
S31500006FE4FFF754FE0A48642121F036FB2046B9E730
S31500006FF4A0EB080010F0800F18BF0324CFE701248C
S31500007004CDE700BF544B0020FE2200200A230020B7
S315000070143C3E00202DE9F0410E4611461E4A8046AC
S315000070241268126855791A462846FFF7F7FD20B903
S315000070340EF026FD0120BDE8F081002E08BF0126D2
S31500007044B8F1FF0F01D18020F2E70027FFF76EFCAD
S3150000705400212846FFF7E4FC2846FFF741FD0F4BC5
S3150000706428469F80FFF726FD0D4C20802846FFF713
S3150000707421FDFE23608031462846A381A4F80480BE
S31500007084E6802681A5736781FFF700FE0548642123
S3150000709421F0E2FA3846CBE7544B0020FE220020CA
S315000070A40A2300203C3E00202DE9F0411446284ADC
S315000070B4804612680F461268194655799DF81820BD
S315000070C42846FFF7ABFD28B900200EF0D9FC0120B5
S315000070D4BDE8F0812846FFF775FC002C08BF0124A3
S315000070E40646FFF723FCB8F1000FEDD00021284631
S315000070F4FFF796FC2846FFF7F3FC164AB8F1010F92
S3150000710416705670B3B2B9B219D10B449BB2FE2BAA
S3150000711484BFFE3B9BB293700123A1B20024537239
S315000071240D4B28469180D18015729472DC80FFF74E
S31500007134ADFD0A48642121F08FFA2046C5E7BE4218
S315000071443CBFFE339BB25B1A93700023E5E700BF96
S31500007154544B0020FE2200200A2300203C3E00203F
S315000071642DE9F0411446264A804612680F461268F5
S31500007174194655799DF818202846FFF74FFD28B97A
S3150000718400200EF07DFC0120BDE8F0812846FFF7C3
S3150000719491FC002C08BF01240646FFF7C7FBB8F193
S315000071A4000FEDD000212846FFF73AFC2846FFF7EA
S315000071B497FC0020134BB2B29880134BB8F1010F21
S315000071C41A805A8016D13A4492B2FE2A28BFFE2269
S315000071D4A1B29A800024FE222846D98019819D7383
S315000071E45C819A81FFF752FD0848642121F034FA44
S315000071F42046C6E7BE4226BFF21BD2B20246E7E7E6
S31500007204544B0020FE2200200A2300203C3E00208E
S315000072142DE9F8431546244A07461268894612683A
S31500007224194654799DF820202046FFF7F7FC20B92B
S315000072340EF026FC0120BDE8F883002D08BF0125C9
S31500007244FFF774FB01212046FFF7EAFB2046FFF710
S315000072545DFC164E4FF6FF6830802046FFF756FC5D
S31500007264B780002770802046F5803581B473778116
S31500007274A6F80C80FFF762FC0D4E30802046FFF71F
S315000072845DFC294670802046A6F80490F580358179
S31500007294B4737781A6F80C80FFF7F8FC05486421DF
S315000072A421F0DAF93846C3E7544B00202A2300209C
S315000072B43A2300202C3E00202DE9F8430E461146C1
S315000072C4304A07461268126855791A462846FFF767
S315000072D4A5FC28B900200EF0D3FB0120BDE8F883F5
S315000072E4FFF724FB0FB9002EF4D001212846FFF73F
S315000072F497FB2846FFF70AFC002FCCBF4FF6FF6327
S315000073040023214CB9B2DCBF494289B22080608097
S315000073141D48CCBFA380A380FFF73FFB4FF00008B6
S315000073244FF6FF690746E08020812846A573A4F836
S315000073340A80A4F80C90FFF701FC144C4645B1B240
S31500007344DCBF494289B2208060801048CCBFA4F8D3
S315000073540490A4F80480FFF720FB002363814FF612
S31500007364FF6387420146E080208138BF39462846BC
S31500007374A573A381FFF78AFC6421054821F06CF903
S31500007384A8E700BF544B00202A2300203A230020FC
S315000073942C3E00202DE9F0471746374A0646126868
S315000073A40D461268194654799DF820202046FFF7A9
S315000073B435FC20B90EF064FB0120BDE8F0872046B9
S315000073C4FFF7A4FB86194CD4B6F57F4F4BDAB6B259
S315000073D42046FFF7B3FB451948D4B5F57F4F47DA86
S315000073E4ADB2002F08BF0127FFF7A0FA01212046FE
S315000073F4FFF716FB2046FFF789FBDFF888804FF07E
S315000074040009A8F800002046FFF780FB4FF6FF6A44
S31500007414A8F802002046A8F80460A8F80670A8F8A0
S31500007424087088F80E40A8F80A90A8F80CA0FFF790
S3150000743485FB124E30802046FFF780FB394670806C
S315000074442046B580F7803781B473A6F80A90A6F86B
S315000074540CA0FFF71BFC0A48642121F0FDF84846FE
S31500007464A8E70026B4E74FF6FF66B1E70025B8E7BC
S315000074744FF6FF65B5E700BF544B00203A230020C2
S315000074842C3E00202A23002070B50E4611460A4AD7
S3150000749405461268126854791A462046FFF7BEFB61
S315000074A418B90EF0EDFA012070BD20463246294681
S315000074B4FFF772FB0020F4E7544B00202DE9F84F48
S315000074C41E462E4B83461B6889461B6817465D7904
S315000074D49DF82C209DF828102846FFF79FFB08B935
S315000074E4002010E02846FFF72FFA80462846FFF7CB
S315000074F43FFA8246FFF71AFABBF1000FF0D0B9F152
S31500007504000F05D185200EF0BBFA0120BDE8F88FE7
S31500007514474538BF4746864228BF064602212846C5
S31500007524FFF77EFA2846FFF721FB154CBFB22080F1
S315000075342846FFF71BFBBBF1010FB6B2608016D1DC
S31500007544B24528BFB246A4F804A049460C48FFF742
S3150000755424FA0146E08020812846A5736781A68126
S31500007564FFF794FB6421074821F076F8B8E7B8459D
S3150000757438BFB846A4F80480E7E700BF544B0020A0
S315000075841A230020343E00202DE9F0471C462C4BDC
S3150000759482461B680F461B6816465D799DF82820AF
S315000075A49DF824102846FFF739FB28B900200EF071
S315000075B467FA0120BDE8F0872846FFF7C5F981463A
S315000075C42846FFF7D5F9002E08BF0126FFF7AEF9C6
S315000075D4BAF1000FEAD0BDF82080A14538BFA14614
S315000075E4404528BF404602211FFA80F82846FFF787
S315000075F417FA2846FFF7BAFA124C1FFA89F92080BF
S315000076042846FFF7B3FABAF1010F6080284613D172
S31500007614FFF7ACFA3844A08031462846E680268136
S31500007624A573A4F80A90A4F80C80FFF72FFB642135
S31500007634054821F011F8B9E7FFF798FAC01BEAE705
S31500007644544B00201A230020343E00207FB54FF40B
S31500007654407104460AF02BFF00283BD02046FFF772
S31500007664C9F9022836D100900DF10E0344F20D0239
S315000076744FF4407120460BF060FD20B12046FFF721
S3150000768463F9ADF80E002046BDF80E60FFF770F9F9
S3150000769401230546009300220DF10E03082120461E
S315000076A40BF04BFD10B17F238DF80E309DF80E3094
S315000076B4012B0AD9FD2B9FBFA91B5943FE23B1FBFE
S315000076C4F3F18EBF3546691A8DB20022294620464B
S315000076D4FFF762FA04B070BD08B5084B0A461B688A
S315000076E401461B685879FFF799FA08B1FFF71EF9A6
S315000076F400200EF0C5F9012008BD00BF544B002040
S315000077047FB5524CA188257A002933D100265048EA
S31500007714FFF7D2FA16B9002800F09380FFF706F9AE
S31500007724627804AB03F8012D2022207A00924FF4EC
S31500007734407100220BF0B0FC20B140F21311454811
S3150000774400F050FC424B4FF440715A88987B04ABCE
S3150000775403F8022D2022009201220BF09DFC20B199
S3150000776440F21D113B4800F03DFC2846FDF7CEFFD4
S3150000777404B070BD0139A37A89B2A18013B9284631
S31500007784FFF784FAA0786378834219D02378617A64
S315000077949AB286B2002930D098422CBF314606F1FF
S315000077A4FE018A1AA188D2B24A43E388B2FBF3F2F5
S315000077B4D2B290423CBF06F1FE039EB2B21A627088
S315000077C4A388002BA2D1A37A002B38D02278667A1C
S315000077D493B281B22EB390422CBF0A4601F1FE0247
S315000077E4D31A51FA83F39BB2FE2B84BFFE3B9BB2A2
S315000077F42070A3700A23A38088E7984284BFFE32D0
S3150000780492B2931BA288DBB25343E288B3FBF2F332
S3150000781456FA83F39BB2FE2B84BFFE3B9BB2637086
S31500007824CEE7904284BFFE339BB25B1ADAB2904233
S315000078343CBF01F1FE0399B220708B1AD9E70126E9
S3150000784465E76421044820F007FF69E7FE2200206B
S315000078540A23002087A503003C3E00207FB51E4C6A
S315000078642046A57BFFF728FA06461C48FFF724FAAC
S3150000787406B958B3FFF75AF8628804AB23F8022D09
S315000078842122A07B00924FF4407103220BF004FCEA
S3150000789420B140F22711124800F0A4FB0F4BA07B45
S315000078A45A8804AB23F8042D21224FF44071009228
S315000078B404220BF0F1FB20B140F23111084800F02C
S315000078C491FB2846FDF724FF04B070BD64210548EA
S315000078D420F0C2FED0E700BF2A2300203A2300206E
S315000078E487A503002C3E002030B5124C85B02046F7
S315000078F4A57BFFF7E1F9C0B1FFF718F8628804AB7E
S3150000790423F8022D2122A07B00924FF44071072216
S315000079140BF0C2FB20B140F23B11074800F062FBBA
S315000079242846FDF7F4FE05B030BD6421034820F077
S3150000793493FEE3E71A23002087A50300343E0020C4
S315000079444FF6FF72F0B587B006AB23F8042D022676
S3150000795400220093CDE90162402344F210024FF461
S31500007964407104460BF0DBFB002842D14FF6FF635F
S3150000797406AD25F8023D0095CDE9016040230722B6
S315000079844FF4407120460BF0CAFB90BB2046FEF72D
S31500007994DBFF07462046FEF7EBFFBDF81430BB427B
S315000079A427D3834225D8ADF8163021230722CDE903
S315000079B400534FF44071402320460BF04DFBC0B9F1
S315000079C4302706AD05F8056D402308224FF44071B3
S315000079D4CDE9005720460BF03FFBCDE90057402385
S315000079E444F201024FF4407120468DF813600BF007
S315000079F433FB07B0F0BD0000F7B50024094E0A4F6B
S31500007A040A4D56F8243003B93B6835F81420084962
S31500007A1400920120224601340CF0E0FD292CF0D11D
S31500007A2403B0F0BD441D0020EC1D0020B83E00202C
S31500007A3433A6030008B5FFF7DFFFBDE8084000F0F2
S31500007A44F1B8000007B50020FDF79AFFC2B2282A54
S31500007A540DD8084B53F822300BB9074B1B6807495E
S31500007A64012031F81210009105490CF0B7FD03B05E
S31500007A745DF804FB441D0020EC1D0020B83E0020E8
S31500007A8433A60300FFF7B8BF7047000038B50020DF
S31500007A94FDF776FF04460120FDF772FF054605490A
S31500007AA401200CF09BFDA9B2E0B2BDE8384000F01D
S31500007AB4D1B800BF3EA60300F7B50024094E0A4F0D
S31500007AC40A4D56F8243003B93B6835F814200849A2
S31500007AD400920120224601340CF080FD292CF0D1BD
S31500007AE403B0F0BD441D0020EC1D0020663E0020BE
S31500007AF433A6030073B502AB03E906000446019DF1
S31500007B0420F058FA0646204620F062FA9DF8000056
S31500007B148EB1202C0FD82B78012B37D84FF6FF7552
S31500007B24394903EB4313234431F81320AA4202D004
S31500007B34013221F813204FF6FF72344B344933F8DF
S31500007B44146031F8145096421CBF721C23F814209A
S31500007B5404F0FD02092A31D19A8A898A02448A42AA
S31500007B64B4BF9A82998233F81430AB4204D3AE423E
S31500007B7402D22046FDF7CDFD0025264BEA5CA24243
S31500007B8428D00135112DF9D102B070BD022BD2D106
S31500007B944FF6FF714FF6FF751B4B33F814208A42DC
S31500007BA41CBF013223F8142004F1210233F8121009
S31500007BB4A9421CBF013123F81210BCE71D2CD2D1F7
S31500007BC45A8F1118A942BDBF02F1FF3212185A8703
S31500007BD45D87C8E71CF0B5F90F4B04461B78834252
S31500007BE403D8DD210D4800F0FDF94FF6FF710C4A6C
S31500007BF404EB04142C4432F814308B42C4D0013301
S31500007C0422F81430C0E700BF0A3F0020B83E002027
S31500007C14663E0020BEA90300211D002026A90300FC
S31500007C24443E0020522200210148FEF775BA00BFE7
S31500007C34B83E00205222FF210148FEF76DBA00BF6C
S31500007C44663E002008B5FFF7EDFFBDE80840FFF7E4
S31500007C54F1BF0000014B23F810107047663E002068
S31500007C64032310B50F4C4FF48062C4E904330E4B62
S31500007C740E49E3610023A16121660D49E01DC4E9B3
S31500007C8419120C49A3626362E3622367E3666367BE
S31500007C94226230F0D1FD0849204630F0CDFD202384
S31500007CA4A37110BD903F00204A270020CFA90300EE
S31500007CB44A230020D8A90300DCA903002DE9F84FC4
S31500007CC41F4B16461A7881468A4698460AB9FFF724
S31500007CD4C7FF182707FB09873D6FD7F86CB05D45CA
S31500007CE42BD9BC6E796E641BB44228BF3446294432
S31500007CF45046224630F08DFDBB6E2544AB4208BF8C
S31500007D040025A244361BABEB050B5E4528BF5E4639
S31500007D1456B1182303FB0983596E3246294450464B
S31500007D2430F077FD3444354424B1182303FB098825
S31500007D34C8F870502046BDE8F88F0024E3E700BF7A
S31500007D44903F002010B50B46EFF311844FF020014D
S31500007D5481F311881946FFF7B1FF84F3118810BD2A
S31500007D642DE9F84F144D9B462B788146884692465A
S31500007D740BB9FFF775FFEFF3118C4FF0200181F378
S31500007D841188002018236F6903FB0054666E2EB118
S31500007D9401308742F8DC4FF0FF3009E08742FADD14
S31500007DA4C4E91898C4F868A02667E666C4F874B0EF
S31500007DB48CF31188BDE8F88F903F0020FFF750BF81
S31500007DC470B54FF060441A4B00261A68194D42F0FC
S31500007DD401021A60DA680C2042F08072DA60164BEF
S31500007DE4C4F8B03F0223C4F8006EC4F8806EC5F828
S31500007DF4F03002F065FA114B00F5D52000F2FC4094
S31500007E04B0FBF3F00E4A0F4B01382861C4F8406EFC
S31500007E141A600D4BC4F8803E4FF48073C5F80433E2
S31500007E24D4F8003E43F48073C4F8003E70BD00BF2E
S31500007E34F0ED00E0000004E055CEACC5F8590D00A5
S31500007E44FF030040001000E00D00010010B50124FE
S31500007E540E4B00201C6002F071FD23460422032110
S31500007E64002002F06DFD204612F006FAFFF7A8FF87
S31500007E7412F003FAFFF7A2FF2346402204490548FD
S31500007E84FFF76EFF044B1860C00F10BD44D40340C7
S31500007E944A2B0020E3A90300F01D0020024B1868BA
S31500007EA4003018BF01207047F0ED00E0D123054AE9
S31500007EB4037013784170090A8170591CC3701170DC
S31500007EC4042070478A2B00202DE9F74F354E0746CC
S31500007ED433681C5C032C63D9DFF8CC801BF05EFC92
S31500007EE44FF6FF7A0025C1460534E4B20190D8F86E
S31500007EF400204AB1AC4207D91BF050FC019BC01AC2
S31500007F0480B2B0F5FA7F05D9601B18BF012003B013
S31500007F14BDE8F08F002D3DD0012D1DD14FF0020B91
S31500007F243268D55D4FF06042D2F8801ECB0711D57A
S31500007F341146D9F80C0040F08070C9F80C00D1F84D
S31500007F44000E40F48070C1F8000E086A0028F0D0D4
S31500007F5482F820505D46CAE7E21E05F1010B954200
S31500007F645FFA8BFB02D15FFA8AF5DBE7A21E954224
S31500007F7402D1CAF30725D5E7621E95420ED0A91E83
S31500007F84C9B2384620F054FF51460546FDF7D8FFDE
S31500007F948246C7E75B254FF0010BC3E75D25C1E7C2
S31500007FA40120B4E7D81C0020F0ED00E010B50B4B1F
S31500007FB490B0402269461868FFF7C4FE58B1C1B2B2
S31500007FC4684620F0BFFE04460146122010F012FB5C
S31500007FD4204620F059FD10B010BD00BFF01D002052
S31500007FE442DE704738B504460D4600F001FD02F046
S31500007FF44EFC2946204610F0C9FA2B46224605496E
S31500008004012008F081FD29462046BDE83840FFF7E7
S31500008014E7BF00BFF3A903006D4B2DE9F0415A6891
S315000080246C4CA2655A6AE2656B4AD2F80012216664
S31500008034D2F8042262669A6AA266DA6AE2661A6B61
S3150000804422675A6B6267A26BDB6B12F0040FA3679D
S31500008054D4E90F5318BF1D461BF084FB002285424A
S315000080640346606522655DD35C4A95425AD8AA697F
S315000080746264E969A164B4F85810C1F308010629D9
S3150000808454D157498A4251D356498A424ED211880D
S315000080944DF64262914249D140F201706268C4F8D9
S315000080A49420A268C4F898204F4A5049934238BF96
S315000080B413460A468B423CD3D31AE3640023C4E92D
S315000080C41F33C4E92133C4E92333484E444FDFF850
S315000080D414C1AE4233D8D4E91FC7D4E92165D4E923
S315000080E423124FF0000E013BDBB2FF2B42D1BEF14F
S315000080F4000F05D0C4E91FC7C4E92165C4E92312EA
S31500008104B4F85830C3F30803052B57D03CD8032BD7
S3150000811447D0042B58D040F60722013B4B2B98BF7F
S31500008124104640E000221D46C4E911224FF42060A7
S31500008134BAE71E68B6F1CD3FBED10433BAE756F8A6
S31500008144042DBA42C5D36245C3D2D107C1D5002195
S3150000815404EB010EDEF87CE09645BAD0043118290A
S31500008164F6D10BB9052301E0013BDBB204EB830135
S31500008174CA67AEE7E0464FF0010EBC4637462E46C8
S315000081840D4611464246AEE70C2B1AD03B2B0CD0BB
S31500008194062BC0D140F60423B0F5206F08BF18465D
S315000081A401E040F60120BDE8F081114B9B6913F014
S315000081B4020F40F2025318BF1846F4E740F60320B4
S315000081C4F1E740F60520EEE740F60220EBE700BFB4
S315000081D400ED00E00000002000E100E0A01A00200D
S315000081E44C430000708803009C000020C01A002045
S315000081F40080014A10B502F007FC044602F0FCFBBD
S315000082040022012101FA02F3234014D01B4B33F858
S3150000821412301B4A062B13D040F207218B420DD194
S31500008224184919480C68844208D14CF23C334B80F7
S315000082340B88138012E00132102AE3D1104AF8E7C2
S315000082444FF20F010F4B5888884214D11988B1F5A3
S31500008254406F10D211804CF23C325A80084B1A8877
S3150000826440F201739A4201BF084B094AD2E9000160
S31500008274C3E9000110BD4FF4C061EBE706AA030091
S31500008284942B00200000002007020FF08C2B002006
S3150000829494000020014B1888000A7047942B002094
S315000082A4014B1888704700BF942B00202DE9F04F2E
S315000082B44D4C0546A36BD4F850B05A0747BF002768
S315000082C4B846D4F84CB0D4F85480D4F840A05DBF76
S315000082D4464FD4F83CA0DFF83C91DFF83C9113F00C
S315000082E4080F434B434A18BF1A46B7EB08061FBF8D
S315000082F46421730801FB0B33B3FBF6F387B01CBF91
S315000083049BB205933C494B46CDE9017ACDF80080F2
S3150000831408BF059601F0BEF8B3B2CDE900931FFA83
S315000083248BF2059B3549284601F0B4F8A36B5B072D
S315000083340AD49C3E5E4507D1626D314B9A4203D204
S315000083443049284601F0A6F8BA4501D8C24504D2F8
S315000083544A462D49284601F09DF8284608F0CEFBEA
S31500008364236E0BB9636EBBB32849284601F07DF82A
S3150000837400260127DFF8A480DFF8A490226E07FA0E
S3150000838406F3134207D058F8262013781BB1494642
S31500008394284601F06AF80136202EEFD1002601277F
S315000083A4DFF87880DFF87890626E07FA06F31342F6
S315000083B409D008EB8603D3F8802013781BB149460D
S315000083C4284601F052F801361D2EEDD1284607B095
S315000083D4BDE8F04F01F058B828460D4907B0BDE88E
S315000083E4F04F01F057B800BF00000020C01A00206B
S315000083F40FAD030016AD03001EAD03004CAD030024
S315000084049C00002085AD0300B1AD0300CFAD030091
S31500008414FEAD03000AAD030048C8030014AE030012
S3150000842448DE03002DE9F8430446FFF739FF40F61A
S315000084340123984239D010D840F2025398421DD0F5
S3150000844440F20173984224D040F20153984213D16A
S315000084546549204601F01EF822E040F603239842BF
S315000084646CD03DD340F60423984200F09C8040F63D
S315000084740523984200F0B580BDE8F8835B492046A1
S3150000848401F008F85A4B5B495A6C204601F002F891
S3150000849406E0574A5849D2E92523204600F0FAFF58
S315000084A42046BDE8F84308F029BB514D5349204600
S315000084B400F0F0FF95F86C309F0703D5504920462D
S315000084C400F0E8FF95F86F305E0603D54D49204667
S315000084D400F0E0FF95F96F30002BE1DA4A49B8E77E
S315000084E4434D4A49204600F0D5FF95F86830980771
S315000084F404D06A6C3F49204600F0CCFF95F96830F9
S31500008504002B04DA6A6F4249204600F0C3FF0026B6
S315000085140127DFF80881DFF81491AA6E07FA06F33B
S31500008524134207D058F8262013781BB14946204633
S3150000853400F0B0FF0136082EEFD1B1E72C4D3549D6
S31500008544204600F0A7FF2B496A6C204600F0A2FFE4
S3150000855495F86930590703D52F49204600F09AFF4C
S3150000856495F96930002B04DA6A6F2949204600F030
S3150000857491FF0826294FDFF8B480AB6EF340DA0783
S3150000858407D557F8262013781BB14146204600F03C
S3150000859481FF0136102EF0D195F86830002B7FF458
S315000085A47FAF1F4955E7124D1E49204600F072FF62
S315000085B46A6C1049204600F06DFF1026174FDFF84D
S315000085C46C80AB6EF340DB0707D557F8262013788B
S315000085D41BB14146204600F05DFF01361A2EF0D14C
S315000085E45EE711494BE700BF99AA0300D6AA030028
S315000085F40000002006AB03001FAB030039AB0300E9
S3150000860451AB03008BAB0300BEAB0300FAAB030014
S315000086141FAC030043AC03005AAC030028AA0300B2
S31500008624A0AC0300D0AC0300E9AC03003BAC0300F0
S315000086342DE9F84F06460025154C164FDFF85C80E9
S31500008644DFF85CA023785FFA85FB0BB9BDE8F88FE9
S3150000865457F8043B22461049304600F006FF2278BC
S3150000866404F1010982B9627882B10BF0030103298E
S315000086740CBF41465146304600F0F7FE304608F03E
S315000086843DFA01354C46DDE74C46E8E74146F2E75C
S3150000869408AF03000400002090AA030037890300F2
S315000086A46CCD030000F00CB800F00AB800F008B86E
S315000086B400F006B800F004B800F002B800F000B804
S315000086C472B61EF0080F09D01EF0040F0DD0DFF8A5
S315000086D450E0AEE8FF1F6FF002000CE0DFF840E068
S315000086E4AEE8FF1F6FF00E0005E0DFF834E0AEE8F9
S315000086F4FF1F6FF006006946EFF309828EE8070054
S3150000870486460848084C854501D3A54501D384F31C
S315000087140888FFF781FC84F308881AF0FFFF00003D
S3150000872404000020A0110020C01A0020FFF7C6BFD5
S31500008734704770477047704700F07E63B3F17E6FF1
S3150000874470B505460E46144616D105F06DF918B1F6
S315000087549A210D48FFF746FC22463146C5F30B0025
S3150000876402F00EFA044605F06BF95CB19D21BDE8F2
S3150000877470400548FFF736BC52081AF06DFF08B181
S315000087848F21F4E770BD00BF2CB6030037B57F2AEE
S3150000879414BF154600254BF234629142044619D1A2
S315000087A47F2241F2020168460823FFF7EFFF082201
S315000087B425496846FDF7B7FC30B908237F2241F204
S315000087C4F0116846FFF7E2FF082269462046FDF7E6
S315000087D447FC09E041F2F01291421AD11B490138D3
S315000087E48A6CC96C1D1F0BB903B030BD013B9D4299
S315000087F400F8012F4FEA1222F5D1002203349A42DF
S31500008804F2D00132042A04F8011F4FEA1121F6D1ED
S31500008814EAE701F47042B2F5805F07D1C1F30B04B5
S3150000882404F17E649AB203FB0541D0E701F4604289
S31500008834B2F5005FD8D1C1F30B0405499AB22144BD
S3150000884403FB0511C3E700BFBAB603000080E00FBF
S3150000885400E0070070B5054616461C46DBB14BF230
S315000088643463994210D1082C28BF08247F2241F290
S3150000887402012346FFF78AFFA2B207492846FDF7FD
S3150000888452FC40B941F2F011234632462846BDE86F
S315000088947040FFF77BBF70BDBAB603002DE9F743FE
S315000088A40446E0070F46154603D5DD213448FFF795
S315000088B499FBE90703D5DE213148FFF793FB04F45E
S315000088C47043B3F5805F3ED1C4F30B0404F17E64B8
S315000088D46B1E2C4A23449342264603D9E321284897
S315000088E4FFF780FBDFF8989006EB050846453DD177
S315000088F4A2070ED04FF6FF7337F8022B02A943EAFC
S315000089040243A01E41F8043D0422FFF715FF02347A
S31500008914023DAB070ED0023D25F00103FB5A02A926
S315000089246FEA03436FEA1343042241F8043D6019D6
S31500008934FFF702FF25B12A4639462046FFF7FCFE1B
S3150000894403B0BDE8F08304F46043B3F5005F05D1DA
S315000089540D4BC4F30B041C442646C3E7EA2108481E
S31500008964FFF740FB6FF00F060024BBE716F8013B48
S31500008974FF2BBBD0F4214846FFF734FBB6E700BF14
S315000089842CB60300FF1FE00F00E00700FFF78ABEC6
S315000089941FB5144A01AB10685168128903C31A80C3
S315000089A401238DF804300D238DF80A3003230E4C71
S315000089B4082123208DF80B3001F0C0FD01A92046C3
S315000089C402F0F9F94FF40061022342F21800074A53
S315000089D4C2F884112350516041F21C02A35004B022
S315000089E410BD00BFC2B603000080014A00E100E0EA
S315000089F4014802F0CFB900BF0080014AA52803D17F
S31500008A040021024802F0B7B9704700BF0080014A4E
S31500008A14024B586800F00100704700BF0080014A0D
S31500008A24024A536A002BFCD1704700BF0080014AFA
S31500008A3400207047002070477047000007B572B6E3
S31500008A4401F025FF894B8A495B6940228B6000232C
S31500008A540B764B768B76F023CB760B774B778B772F
S31500008A64CA77802281F8202081F82130E023602013
S31500008A7481F822307F4B81F8232083F8002383F882
S31500008A84012383F8022383F8032383F8042383F85A
S31500008A94052383F8062383F8072383F8082383F83A
S31500008AA4092383F80A2383F80B2383F80C2383F81A
S31500008AB40D2383F80E2383F80F2383F8102383F8FA
S31500008AC4112383F8122383F8132383F8142383F8DA
S31500008AD4152383F8162383F8172383F8182383F8BA
S31500008AE4192383F81A2383F81B2383F81C2383F89A
S31500008AF41D2383F81E2383F81F2383F8202383F87A
S31500008B042103202083F8222383F8232383F82423B4
S31500008B1483F8252383F8262383F8272383F8282339
S31500008B2483F8292383F82A2383F82B0383F82C0359
S31500008B3483F82D2383F82E2383F82F2383F83023F9
S31500008B4483F8312383F8322383F8332383F83423D9
S31500008B5483F8352383F8362383F8372383F83823B9
S31500008B6483F8392383F83A2383F83B2383F83C2399
S31500008B74CB6823F4E0631B041B0C43F0BF6343F48C
S31500008B840133CB604B6943F010034B614FF4E02390
S31500008B944B6203F037FFFFF72DFBEFF308834FF02B
S31500008BA4CD31354A043B93425DD2344A002192B218
S31500008BB43348FDF7B1FA62B6684602F009F8314B5C
S31500008BC49B6DDB0318D4304A136823F4FF0323F4A4
S31500008BD4FE4343F4BC1343F4A063136052F8043C0D
S31500008BE423F4704343F4404342F8043C52F8043CF3
S31500008BF443F4E06342F8043C9DF80130012B0FD1A5
S31500008C049DF8003063B94FF000531B681F4B1B6877
S31500008C141F4B1B681F4B1B681F4B1B681F4B1B6896
S31500008C241F4AD2F8803043F00303C2F88030022290
S31500008C344FF040231A6703F071FE01F081F8002318
S31500008C4400938DF80430012368468DF8033001F053
S31500008C546CFE00F027F91AF0B3FD124811F016FB6A
S31500008C6403B05DF804FB1960043B9CE70040000078
S31500008C7400ED00E000E100E0601100208C1000002F
S31500008C84A000002000C0004034C000400040002086
S31500008C940080002000C000200000012000400120C8
S31500008CA40080004074EB030040F201601AF036BD08
S31500008CB4FDF73ABE08B500210B20FDF733FEBDE8EB
S31500008CC40840FDF732BE032000F078BA08B5FFF776
S31500008CD4E1FA044B0B289ABF00B203EB8000184656
S31500008CE408BD00BF12B8030008B5FFF7D9FA044B54
S31500008CF4C0F30F2253F82230C0B203EB800008BD44
S31500008D04DCB7030010B5FFF7C5FA0446FFF7C8FA47
S31500008D14C0B228B9012C24D164F07F04E4B216E071
S31500008D24072CF9D801A353F824F000BF538D000093
S31500008D341D8D0000518D0000578D0000578D0000D9
S31500008D445B8D00005F8D0000638D000009242046C2
S31500008D5410BD0224FBE70324F9E70B24F7E70624F6
S31500008D64F5E70446F3E700BF07282DE9F84F044664
S31500008D740F462DD0082808BF022421460120FCF7FF
S31500008D8422FDFFF745FE651ED5F1000848EB0508F0
S31500008D9400B3012C1ED1A520FFF730FE2646EFF3C3
S31500008DA41089012383F31088EFF3118A4FF0000B27
S31500008DB48BF31188354D404607F0B9FE631EC5F89E
S31500008DC400B0042B59D8DFE803F00E4D4D51550081
S31500008DD40324D2E7FFF71CFE18B1FFF721FE002695
S31500008DE4DDE70646DBE72A4A136923F00403136129
S31500008DF430BF284AD2F82434D2F8202413409BB238
S31500008E04254A2B60D2F80011480102D511684901A0
S31500008E1406D4D2F80011880105D51268910102D54D
S31500008E2443F480332B601C4BD3F80021520506D53E
S31500008E341B685B0542BF2B6843F400332B601EB1ED
S31500008E440121164801F097FF404607F071FECFB1A5
S31500008E548AF3118889F310882146BDE8F84F00206B
S31500008E64FCF7B1BC012001F033FDC2E7012001F09B
S31500008E7443FDBEE701F042FDBBE788210848FFF742
S31500008E84B1F8B6E787F31088E6E700BFA02B002009
S31500008E9400ED00E000C0034000E100E00080014A6C
S31500008EA442B8030042F22041044AD2F820341B0C93
S31500008EB41B045350024A1360704700BF00C00340AE
S31500008EC49C2B00200021FFF74FBFFFF7FBBF0000DC
S31500008ED42DE9F04F89B011F0CDF90746002840F08E
S31500008EE4DD806F4E6F4D3168286818F0CFFA04465E
S31500008EF4002827D033683C46D3E900019A691268F2
S31500008F049047336804A89B699B6898473368022096
S31500008F149B69DB689847326805985368E7B2B3FBE8
S31500008F24F0F3BB42916904F1010442D8CB680020F6
S31500008F34984733689B695B6898473168286818F0D6
S31500008F44A5FA04460026DFF88891002C53D1564B27
S31500008F544FEA8608F35C002B31D1A246534BF35CEF
S31500008F640193534B03EB080B019B5FFA8AF7BB4251
S31500008F74286853D84F4BF35C002B3CD04C4B019FD5
S31500008F849844FBB27E2B286835D8D8F8003003AA5B
S31500008F9407EB030A514602AB18F0B2FC48452AD047
S31500008FA45146286818F0F2FC013704460028E8D038
S31500008FB421E012680B6907FB00209847ABE73C4B9E
S31500008FC403AA53F82670286802AB394618F098FCB1
S31500008FD4484507D078B9039B012B0CD0394628683D
S31500008FE418F0D4FC344B394653F8083028681A680C
S31500008FF418F0B0FB044601362F2EA6D1B4FA84F33A
S315000090042E4A5B0913702E4B9C4241D02DD8002C5E
S3150000901432D0013B9C423FD0C5242DE0DBF8003022
S3150000902403AA1F44394602AB18F06AFC48450AD025
S3150000903410B10AF1010A97E7039B8BB9214B029AF7
S31500009044F35C9A42F5D01F4B1B4A9B5D52F80820ED
S315000090543946286818F0F0FA0028EAD0044689E769
S315000090643946286818F092FCEDE7174B9C4211D05C
S3150000907404339C42D0D1C1242B681B7C23B14FF40A
S3150000908489711248FEF7AEFF204609B0BDE8F08F9D
S31500009094C324F1E7C424EFE7C224EDE7C624F3E7CB
S315000090A45C1E0020581E0020D48F0300E68E0300A9
S315000090B43490030003900300188F0300A42B0020B0
S315000090C402E000F0F090030004E000F0D2B80300E0
S315000090D40BE000F02E2970B506460C4615461AD844
S315000090E4144A127822B3144A1068144A52F821100A
S315000090F4134A125D3AB1324618F07AFBC0B1BDE8A4
S315000091047040FCF72CBF7F2D08BF0025324629444A
S3150000911418F0DCFAF2E7FF2903D9BDE87040FFF73F
S3150000912499BB40F24511BDE870400648FEF75ABFA8
S3150000913470BD00BFA42B0020581E002034900300ED
S31500009144D48F0300D2B803002E28F8B504460D4682
S31500009154164619D81449097829B31449144F0868CE
S31500009164144951F824103C5D3CB1126818F0F2FA27
S31500009174C8B1BDE8F840FCF7F2BE7F2D08BF002554
S31500009184294418F059FAF3E7FF2805D91A46314657
S31500009194BDE8F840FFF782BB4FF4BC71BDE8F84068
S315000091A40548FEF71FBFF8BDA42B0020581E00205B
S315000091B4D48F030034900300D2B8030008B5084BDB
S315000091C41B7863B1074B002253F82010064B18682E
S315000091D418F04EFB18B1BDE80840FCF7C0BE08BD48
S315000091E4A42B002034900300581E002070B51646A8
S315000091F485180AB9304470BD01F00F030A2B34BF39
S3150000920430243724013A2344090905F8013DD2B232
S31500009214EFE70000F0B5F9B100281CDA2D23B0F110
S31500009224004F137000D04042012115E0801B864296
S31500009234ECB205F10105F9D904B927B101274D1C92
S3150000924430345454E9B20133092B09D13030505427
S315000092540131C8B2F0BD002100231F46DFF808C063
S315000092645CF823600025E2E75CB903002DE9F04FC2
S315000092744FF0000B95B002AC81468A4617461D4650
S315000092845E46A0463B7863B902ABE41AE4B22246D2
S3150000929419465046C847002840F093803444E0B24B
S315000092A490E0252B13D0BBF1000F14D123700134A9
S315000092B412AB9C426DD3A4EB0804E4B222464146A9
S315000092C45046C84700287CD12644F6B260E0BBF17C
S315000092D4000F00D101373B78632B00F092801BD836
S315000092E4392B09D8302B80F09E80002BCCD0252B2F
S315000092F451D04FF0000BDBE7582B00F08B80622B2C
S31500009304F7D14FF0000B2B6801936B680093009B19
S315000093149B4543D10835ECE7702B1ED017D8642B38
S3150000932401D06C2BE5D16C2B05F1040B28686CD1AC
S315000093347B78752B14BF0121002101D0642B00D149
S3150000934401372246FFF766FF04445D46D1E7752BD5
S31500009354E9D0782B5ED0732BCBD1A4EB0804E4B20E
S31500009364224602A9504605F1040B2D68C84740BBA6
S315000093742644F6B2C4B22B5D0130002BFAD1224644
S3150000938429465046C847E0B95D4683462644F6B2A8
S315000093944446013776E723700134AAE7019B204649
S315000093A413F80B100222FFF721FF12AB9842044672
S315000093B40ED3A0EB0804E4B2224641465046C84701
S315000093C418B1002015B0BDE8F08F26444446F6B225
S315000093D4009B013B5B4582BF20232370013412AB03
S315000093E49C420BD3A4EB0804E4B222464146504601
S315000093F4C8470028E5D126444446F6B20BF1010BD2
S3150000940485E72B6804352370C6E7752B0CBF00214E
S31500009414012196E7204602222978FFF7E7FE05F1A7
S31500009424040B044691E77A7802F0DF02582A19D130
S31500009434322B07F1010B09D10422204629882F1D5E
S31500009444FFF7D4FE3D4604465F4652E7342B09D166
S315000094542F1D2D680422290C2046FFF7C7FE04227F
S31500009464A9B2EDE74FF0010B22E70EB403B503AA48
S3150000947452F8041B019207F062FBC0B202B05DF819
S3150000948404EB03B0704700000149FFF7EEBF00BFCD
S31500009494378903000EB433B505AA52F8041B0546F2
S315000094A4019207F04CFB04462846FFF7EDFFE0B2B5
S315000094B402B0BDE8304003B0704708B507F03FFB83
S315000094C4C0B208BD2DE9F843174B1F6D5B6D1F40F5
S315000094D400D5FEE701260025144CDFF85480DFF89A
S315000094E45490374217D02368C8F800609BB1A1682E
S315000094F462680131A16028469847637B012B0AD133
S3150000950448B909EB4513197B1A7F60F3410160F3EF
S31500009514410219731A770135082D4FEA460604F1FC
S315000095241004DED1BDE8F88300000440A82B002017
S3150000953450200440282C002070B504460125084E0E
S3150000954404B970BD94FAA4F0B0FA80F005FA00F3F9
S3150000955424EA030456F82030002BF1D09847EFE7AD
S31500009564282D0020084BD3F82404D3F820241040D7
S3150000957442F2204220F42A5020F02A004004400CF3
S315000095849850FFF7D9BF00BF00C00340084BD3F87B
S315000095942404D3F82024104042F2204220F4AA40A6
S315000095A420F055000004000C9850FFF7C5BF00BF1B
S315000095B400C00340104A30B5136841611546ABB983
S315000095C41060836011E0091B9C6841611A467CB1F6
S315000095D423465C698C42F6D9002CF4D052B19060D3
S315000095E4836013B15A69511A596130BD0022F0E7FC
S315000095F42346F4E72860F3E77C2D002010B500F03D
S31500009604AFFA094B094A196831B11368C41A4B6990
S31500009614A34203D31B1B4B61106003E0C01A002353
S3150000962410604B6110BD00BF7C2D00206C2D002006
S31500009634074B10B51B6802205C69064B1B681C446B
S3150000964400F0C2FA2046BDE8104000F091BA00BF0F
