S01500005A334C69676874536F635F4657312E73333708
S31500004000C01A00200DFB01006174000065740000F9
S31500004010A70A0A010042000004180FACA067A70116
S31500004020000000000000000000000000000000008A
S3150000403000000000F89003000000000000000000EF
S315000040400000000000000000FFFFFFFFFFFFFFFF72
S31500004050FFFFFFFF006007000000000000000000F7
S31500004060FFFFFFFFFFFFFFFF8000000000000000D2
S31500004070000000000000000000000000000000003A
S315000040800000000000000000D4510020D4510020A0
S31500004090C01A00204CF70300E05E03006011002008
S311000040A02C11002000E0070000000000CA
S31500004200C01A00200DFB01006174000065740000F7
S3150000421045BB000069740000717400000BFB0100CF
S315000042200BFB01000BFB01000BFB01000BFB01006C
S31500004230757400000BFB01000BFB01000BFB01007A
S31500004240E8740000E8740000E8740000E8740000F8
S31500004250E8740000B1900000E19D0000E8740000E1
S31500004260E8740000E8740000B58E000091100100AB
S31500004270E8740000E8740000E8740000E8740000C8
S31500004280E8740000E8740000E87400000BFB01000D
S31500004290E87400000D870000E8740000E874000070
S315000042A0E87400000D880000E5870000E87400004F
S315000042B0E8740000E8740000E8740000DDD4010032
S315000042C069D4010065D40100A5CB0100D9D4010051
S315000042D06DD401008DD4010071D401000BFB0100E7
S315000042E021D50100E8740000E87400004977000059
S315000042F0E8740000E8740000E87400000BFB01009D
S31500004300E8740000E8740000E8740000E874000037
S31500004310E8740000E8740000E8740000E874000027
S31500004320E8740000E8740000E8740000E874000017
S30900004330E874000027
S31500004334F8B500BFF8BC08BC9E467047F8B500BF88
S31500004344F8BC08BC9E46704710B5054C237833B9B3
S31500004354044B13B1044800E000BF0123237010BDD1
S315000043646C2300200000000098EE030008B5034B00
S315000043741BB10349034800E000BF08BD000000006C
S315000043847023002098EE0300154B002B08BF134B37
S315000043949D46A3F5803A00218B460F461348144ADE
S315000043A4121A31F077FD0F4B002B00D098470E4BB5
S315000043B4002B00D098470020002104000D000D4872
S315000043C4002802D00C4800E000BF31F025FD200093
S315000043D429000DF085F831F00BFD00BF0000080040
S315000043E4C01A002000000000000000006C2300201A
S315000043F4D45100200000000000000000002310B586
S3150000440401211C4640FA03F2D20744BF03F10B0212
S3150000441401FA02F203F1010348BF1443102BF1D150
S315000044240A201CF021FB2046BDE81040012108F0BB
S3150000443415BC0000024B186047F6FF70FFF7DEBF9D
S31500004444E83F002038B505460DF020FF902D0446C0
S31500004454024614D11249012010F018FB114B1A78A8
S31500004464114B3AB10020114A1B68107003B19847EA
S31500004474012038BD1B68002BFAD00220F7E70C494F
S31500004484012010F003FB2CB9074B1B68002BEFD05F
S315000044940420ECE7032CEBD1034B20461B68E6E72C
S315000044A4E05E030088230020E83F0020D83F002078
S315000044B4EF5E030008B50DF0E9FE40B9044B40F683
S315000044C4B83118701846BDE8084020F0EBB808BDAE
S315000044D4D83F002000230348034A0370137020F0DA
S315000044E4D5B800BFE03F00208923002030B51C4624
S315000044F400230546104691B08DF80D308DF80E3028
S315000045049DF850308DF80C102246014604A88DF80B
S315000045140F30043431F0B3FC03AB00930194044B25
S315000045240122294610200FF051FA11B030BD00BF08
S31500004534D278030008B501210FF0B6FABDE80840A9
S31500004544002108460FF0A6BA7FB51026054604AC2E
S3150000455404F8011D22460123002100960620FFF7D8
S31500004564C5FF2846FFF7E6FF0096234600220621EC
S3150000457428460FF02FF804B070BD00002DE9F04F67
S315000045848246894615469B460026DFF8C48085B0D8
S31500004594F4B2694620461BF095FC074620461BF0FC
S315000045A489FC044667B99DF801204A450BD19DF85C
S315000045B40430534507D1584505D10136032EE7D1BA
S315000045C405B0BDE8F08F4FF6FF739C42F5D0231D6E
S315000045D49BB2012BF1D94A45EFD1BDF80270062FE3
S315000045E4EBD1012D19D11849284610F04FFA43464C
S315000045F42A46394628460FF0E9F99DF804109DF835
S3150000460401000FF051FA214600200FF043FA294623
S315000046149DF80100FFF798FFCFE70C49012010F041
S3150000462435FA43460022394601200FF0CFF99DF8AA
S3150000463404109DF801000FF037FA214600200FF010
S3150000464429FA0021E4E700BF005F0300175F0300B7
S31500004654ED60030037B5A1F10B02042A04460B46AC
S3150000466401F1FF3511D8A1F10A034149421C012089
S3150000467410F00CFA0D2D55D8DFE805F0122E485F20
S315000046845454545454545454546FEAB2082A02D815
S31500004694421C3849EBE73849012010F0F7F9E9E7FD
S315000046A404217CB9204600F019FA01210846FFF7D7
S315000046B44BFF012223461146104603B0BDE83040A5
S315000046C4FFF75CBF012000F009FA0121022003B0C4
S315000046D4BDE83040FFF738BF7CB92849012010F007
S315000046E4D5F9204600F0A8F921460120FFF72CFF52
S315000046F40121234622460846DFE72149012010F01E
S31500004704C5F9012000F098F90021DFE7C8255CB956
S31500004714012006F0CBFE03222B46114620460095C7
S3150000472400F006FA03B030BD1BF0A8FD03F098F9BB
S315000047342B4603220095052105E0C8252CB92B46F6
S315000047440322072100950120EAE71BF097FD03F0F9
S3150000475487F900952B460422EDE724B903B0BDE89A
S315000047643040FFF7A7BE03B0BDE83040FFF7B2BE46
S31500004774435F0300545F0300695F0300725F030035
S315000047847C5F030013B50C46A1F10A03421C0749DA
S31500004794012010F07BF90E2C06D16423022200932B
S315000047A41146012000F0C4F902B010BD2F5F0300CA
S315000047B413B504461F49012010F068F9042C37D8B4
S315000047C4DFE804F01B1003101E0003221A4B4FF4FB
S315000047D47A711A7000231948037002B0BDE81040BC
S315000047E41FF060BF0122144B1A7000231348037094
S315000047F402B0BDE810401FF049BF0F4B0322F3E798
S315000048040F4B1B78A3B10F49012010F03FF94FF469
S315000048149673032200930521002000F089F90222F1
S31500004824054B06481A70002340F6B8310370D4E7E6
S3150000483402B010BD865F03008B230020EC3F0020EE
S315000048448A2300209E5F030008B50949012010F061
S315000048541DF900F015F90749074800F0BDF80748A7
S31500004864FFF7E8FDBDE8084005481FF00FBF00BF8D
S31500004874B25F03005946000089470000B5470000AF
S31500004884EC3F0020837B70B5054693B103685A88D4
S31500004894062A0ED15C790679C37C2246204901207A
S315000048A410F0F4F83EB1022E0AD0ED7C55B1012D7C
S315000048B41CD0002070BD1B49012010F0E7F8F4E776
S315000048C41949F9E7012C09D12046184910F0DEF8F8
S315000048D4284600F0B1F82946204613E0022CE8D118
S315000048E40120134910F0D2F80120F2E7012C0CD173
S315000048F41049204610F0CAF80421002000F0EEF812
S3150000490421462046FFF720FED3E7022CD1D12846C4
S31500004914094910F0BBF80421284600F0DFF8DAE76D
S31500004924BC5F0300FB5F03000B600300725F0300C0
S315000049347C5F03001D60030026600300F8B5224C6B
S31500004944636883422ED0636998422DD10125EDB266
S315000049542D0163195E683023625D1C4853430022AF
S31500004964944618440368F34003F001030168F140D8
S3150000497401F00107BB4219D10132052AF6D16219A9
S315000049841772B3B9537A01335372137B13B91048B0
S315000049941FF07CFE002301222C44A372637322734E
S315000049A4E372F8BD0025D2E7FF25D1E700223B4696
S315000049B4DCE7012382F80CC0D3724FF4FA71BDE828
S315000049C4F84004481FF06EBE581C002014C0034073
S315000049D4FC3F0020044000202DE9F74307460E461D
S315000049E4012503F0E1FE104CDFF8489004F120089D
S315000049F4002301226168207805F058FF4946207992
S31500004A0403F0E0FE626814F8100BCDE900550123AB
S31500004A14114605F005FF4445EAD1044B1F60044BDB
S31500004A241E6003B0BDE8F083581C00208C230020D0
S31500004A3490230020414900004823584301230E498E
S31500004A4470B530250A18085C51680C4C03FA01F657
S31500004A5441F2100105FB00404650107ED66905FB65
S31500004A64004003FA06F6465092F83000526B934023
S31500004A7405FB0042535070BD781C002000C0034063
S31500004A8470B5124D00242E462919285D00230422F0
S31500004A944968183405F00AFF482CF5D1002430196A
S31500004AA4C16C0023042290F84800183405F0FEFE79
S31500004AB4482CF4D10020FFF7BFFF0120FFF7BCFF0D
S31500004AC4034B044A1A60044A5A6070BD781C0020DD
S31500004AD44C400020444000200C4000204823124A49
S31500004AE42DE9F04103FB002001270022302641F284
S31500004AF4100C42F2100E0D4D0378446806FB035366
S31500004B0441FA02F818F0010F07FA04F402F101025F
S31500004B1414BF43F80E4043F80C40032A00F1180072
S31500004B24EAD1BDE8F08100BF781C002000C0034034
S31500004B3430B41824084D04FB00540125E360029B9D
S31500004B44AA402361054B22752572617253F8200031
S31500004B5430BC1FF09BBD00BF144000204C40002019
S31500004B641FB501230022009306210DF10F030EF059
S31500004B7482FD20B99DF80F3023B102F0B5FC05B0D3
S31500004B845DF804FB02F0B1FCF9E7000030B500243F
S31500004B94144D85B02C700DF079FB022817D10090C6
S31500004BA40DF10E032246032101200EF064FDBDF82B
S31500004BB40E0048B1204602F099FC4FF47A6128466B
S31500004BC41FF070FD05B030BD02F08EFCFAE707F069
S31500004BD471FF054B0090054A054901200FF056FF69
S31500004BE4F0E700BF5C400020E7AA03002F60030043
S31500004BF43460030008B50DF049FB02280CD10022ED
S31500004C04064B01201A7006F051FCBDE80840024626
S31500004C14034901200FF03ABF08BD00BF54400020ED
S31500004C247960030013B5044600900A4B0A4A0B49FF
S31500004C3401200FF02BFF5CB12246094901200FF039
S31500004C4425FF0094074B084A044901200FF01EFF74
S31500004C5402B010BDBDAC03002F6003003460030036
S31500004C6448600300E7AA030074600300FFF778BFF7
S31500004C7409B9FFF775BF704738B5C37B05460BB155
S31500004C84832038BDC47C2CB901F0F2F920B9EB7B42
S31500004C94002BF5D18120F4E72046F2E7C37B10B55B
S31500004CA404460BB1832010BDC37C1BB1012B10D06D
S31500004CB48120F8E7017D82898B1C9A420CD3806897
S31500004CC40FF029FA06F0B6FF40B9E37B002BE9D1D1
S31500004CD4EEE706F0C7FFF7E78020E4E70020E2E707
S31500004CE4F8B5C37B04460BB18320F8BDC37C052B02
S31500004CF429D8DFE803F0032A35414C4F057D828924
S31500004D04AB1C9A4201D28020EFE7ADB229468068F7
S31500004D140FF001FA0646A06802352844A7890FF069
S31500004D2413FA284401308742EDD32946A289A068A4
S31500004D340FF0F8F90146304606F078FC002848D111
S31500004D44E37B002BD0D18120CFE7017D82898B1CA8
S31500004D549A42D8D380680FF0DEF906F087FCEDE7B7
S31500004D64037D81895A1C9142CDD38268591C114412
S31500004D74D05C06F0ABFCE1E7017D82898B1C9A428C
S31500004D84C1D380680FF0C7F906F022FDD6E706F016
S31500004D947BFDD3E7057D8289AB1C9A42B3D3ADB2C2
S31500004DA4294680680FF0B7F90646A06802352844FC
S31500004DB4A7890FF0C9F9284401308742A3D32946AD
S31500004DC4A289A0680FF0AEF90146304606F0A4FDAC
S31500004DD4B4E7002089E7C37B2DE9F7430446002B9B
S31500004DE440F0BA80C37C062B00F2B880DFE803F0FB
S31500004DF4044A5A6A7585A800057D8289AB1C9A42C5
S31500004E0403D2802003B0BDE8F083ADB229468068A2
S31500004E140FF081F9A289E91C8A42064605F10203CC
S31500004E24EFD3881C8242ECD3A0680535C75C0FF02B
S31500004E3472F98046A068B4F80C9028440FF084F9FF
S31500004E44284401308145DCD32946A289A0680FF0A5
S31500004E5469F98146A06828440FF076F901300544C3
S31500004E64A0684B4610FA85F5009542463946304609
S31500004E740BF0F2FD002873D1E37B002B14BF8320D3
S31500004E848120BFE7057D8289EB1C9A42B9D3ADB276
S31500004E94294680680FF03FF9A3680235595D0BF087
S31500004EA44FFEE7E7057D8289EB1C9A42A9D3ADB292
S31500004EB4294680680FF02FF9A3680235595D0BF077
S31500004EC471FAD7E7017D82898B1C9A4299D380684F
S31500004ED40FF021F90BF0D4FACCE7057D8289EB1C9F
S31500004EE49A428ED3ADB2294680680FF014F9A368AE
S31500004EF40235595D0BF016FCBCE7057D8289AB1CB7
S31500004F049A42FFF47EAFADB2294680680FF003F9EA
S31500004F14A289E91C8A42064605F10203FFF471AF31
S31500004F24A068C75C8B1C9A4207D30FF0F4F80246BC
S31500004F34394630460BF054FC9CE74FF6FF72F7E710
S31500004F44017D82898B1C9A42FFF45BAF80680FF067
S31500004F54E2F80BF0FFFA8DE7832053E7812051E74F
S31500004F6400204FE7C37B10B504460BB1832010BD68
S31500004F74C37C012B0BD003D3022B0BD08120F6E785
S31500004F8407F060FF48B9E37B002BEFD1F6E707F0A3
S31500004F9469FFF7E707F076FFF4E70020E7E700008C
S31500004FA438B5C37B0446002B437D14BF8325C32534
S31500004FB4012B11D10368028A598858790DF072FEC3
S31500004FC450B123685B88192B04D1E37B002B14BFF3
S31500004FD483258125284638BD637D002BFAD12368B5
S31500004FE4228A598858790DF054FE0028F2D0236895
S31500004FF45B88062BEED801A252F823F01D50000060
S31500005004D94F0000D94F000027500000315000004E
S315000050143B500000455000002046BDE83840FFF7ED
S315000050242BBE2046BDE83840FFF738BE2046BDE813
S315000050343840FFF755BE2046BDE83840FFF7CBBEE3
S315000050442046BDE83840FFF78DBF00BF70470120FA
S315000050547047012070470120704770470020704751
S3150000506400207047002070470020704700207047DA
S31500005074002070470120704701207047B520704713
S3150000508400207047002070470020704700207047BA
S315000050940020704770470020704770470020704713
S315000050A4704700207047000008B5034901200FF03F
S315000050B4EDFC012008BD00BF9A6003008420704700
S315000050C470477047704770477047002070477047B5
S315000050D4704770470020704700207047034B1B68D9
S315000050E41878012808BF0220704700BF4C380020FA
S315000050F4704700207047000003460120024AC3E9B6
S31500005104032000221A7070470100FEFF704700203A
S315000051147047002070470020704700207047002029
S31500005124704700207047002070477047B5207047CD
S315000051340020704700207047704700207047704772
S3150000514470477047B5207047704770477047002016
S3150000515470477047704700000023FF21084A137008
S3150000516482F8783082F8653082F8773082F87930C0
S3150000517482F87A1082F87B30024A1360704700BFC7
S315000051849423002064400020F8B50D468C680A6814
S3150000519406462849202003F044F86B687BB9264963
S315000051A4202003F03EF820200BF056FD2349202052
S315000051B403F04CF8BDE8F84020200BF04DBD002E5E
S315000051C4F1D01F4D1F4E204F013C14F8013F23B967
S315000051D41A49202003F03AF8E5E7752B18D0762B08
S315000051E418D0772B18D0732B18D0722B18D0712B9C
S315000051F418D0622B18D06E2B18D02A2B18D013492E
S31500005204134A212B18BF1146202003F00AF8DCE7C5
S315000052142946F9E73146F7E73946F5E70D49F3E755
S315000052240D49F1E70D49EFE70D49EDE70D49EBE7C8
S315000052340D49E9E7A87E03003C610300ED60030025
S31500005244FA600300EE600300056103004661030093
S3150000525443610300116103001B610300266103001F
S31500005264316103003B61030040610300F0B5002691
S31500005274204A92F87B30184452FA80F090F865C0C0
S3150000528490F8665030461C4BA5EB0C051F78EDB222
S31500005294F4B2A54225D90CEB060313445B7811B18D
S315000052A40CB92D2B17D0782B1FD0582B05D108B14C
S315000052B437240AE0013C012C14D9602B17D8402B63
S315000052C4F6D83A2B34BF302400241B1BDBB29F4292
S315000052D403D900FB07300136DAE70523002082F8FC
S315000052E47930F0BD10270020F5E70028E2D05724D6
S315000052F4EBE700BF94230020081D0020FFF72CBF16
S31500005304034B93F8770093F87B30C01AC0B270470A
S31500005314942300200021FFF7A9BF000010B50A4B13
S3150000532493F87B20024453FA82F292F865201344E0
S315000053345C78A4F12D0359425941FFF797FF2D2CB0
S3150000534408BF404210BD00BF9423002030B50C4A6C
S3150000535492F87B300344C043DBB2C00F39B1D51891
S3150000536495F8664095F86550641B241A0C7042FA49
S3150000537483F393F865301844024B184430BD00BFDC
S315000053849423002095230020F7B515460E460DF10B
S3150000539407011C46FFF7DAFF9DF807300746AB42C4
S315000053A488BF8DF807501CB19DF807402C1BE4B24A
S315000053B422463046002100F079FB30199DF807207B
S315000053C4394600F017FB9DF8070003B0F0BD38B569
S315000053D40C4601230822FFF7D7FF04F10803621ED7
S315000053E4043413F8011D12F8015FA3421D701170F5
S315000053F4F7D138BD38B5054601460120FFF7C4FE8E
S31500005404D5E901436CB91C46084D236863B12946A6
S31500005414202002F006FF21460020FFF7B5FE0C34DB
S31500005424F3E71B786E2BEFD038BD00BF1EC7030011
S3150000543408B50449202002F0F4FEBDE80840202007
S315000054440BF00ABCAE60030038B5FFF7F1FF002489
S31500005454054D61190C34631953F80C3C03B938BD76
S315000054640020FFF791FEF4E7007003002DE9F84FE2
S315000054741F4B204D53F820201F49202002F0D1FE57
S315000054842B681BB9BDE8F84FFFF7DEBF1B4FFFF7CC
S31500005494CFFF0026B946DFF86CA097F87B30F4B24C
S315000054A4013B9C4204DB2868BDE8F84FFFF7A2BF26
S315000054B447FA86F393F8658000234C44C84494F86D
S315000054C4662094F8651003F1010B521ADBB2D2B2CE
S315000054D4934205D30A49202002F0A3FE0136DCE7F5
S315000054E443445A785146202002F09BFE5B46E6E789
S315000054F40C1D002064400020A960030094230020B2
S315000055041FC70300977F03002DE9F74F884C94F8D3
S315000055147730002B00F0A180864B671C1B7813F0B4
S31500005524010F1FD00025844E14E0631993F86620FA
S3150000553493F865302020D21A44FA85F393F865105F
S31500005544D2B239440BF083FB3146202002F069FEC7
S315000055540135EDB294F87730AB42E6D8774920208E
S3150000556402F05FFE002694F87730DFF8DCE1019361
S31500005574734B4FF00008714645461EF8012B91F80F
S3150000558401C007EB020AACEB020C5FFA8CFC18684C
S31500005594002852D00138D14619E02AB9002D4AD044
S315000055A44FF001080C33F2E719F8011BA1F1410B86
S315000055B4BBF1190F98BF2031A2F1410B98BFC9B2B4
S315000055C4BBF1190F9CBF2032D2B28A42EAD1A9EBB1
S315000055D40A01614510F8012FDFD1002ADED11D46EC
S315000055E4584B01361D6094F87B30F6B2013384F8CB
S315000055F47B30D5E90123002A35D01B786E2B31D0B8
S315000056043F2B23D04FF000094FF0070BC846042365
S3150000561494F87710AA68B14212F808702BD8AFB183
S31500005624904498F801302A2B10D0212F1CBF032355
S3150000563484F879300AE01D46B4E7B8F1000F01D1C9
S31500005644002DCDD10223002584F8793094F8790011
S31500005654002869D168680EF02FFA03B0BDE8F04F50
S31500005664FFF77ABD1346019AB24282D803221D4639
S3150000567484F87920EAE7732F09D8712F0BD2212FEA
S315000056841FD0622F3CD0002F4BD1032246E0A7F156
S315000056947502022A45D8752F29D0762F2AD0732F62
S315000056A42BD0722F47F6FF7A18BF4FF0FF3A01212D
S315000056B448460193FFF7DAFD5045019B01D984F86A
S315000056C47930AA68424452782A2A94F879201CBF71
S315000056D408F101085FFA88F8002AB7D1212F1FBF05
S315000056E4013609F10109F6B25FFA89F990E74FF03C
S315000056F4FF0ADCE74FF6FF7AD9E74FF07F0AD6E7D1
S3150000570494F87B204A4454FA82F292F865202244A3
S315000057145278222AD5D07B2AD3D0052284F8792040
S31500005724CFE784F879B0CCE7FFF7A0FE95E700BF92
S3150000573494230020102400201FC70300EB600300FD
S315000057440070030064400020F92300202DE9F34192
S3150000575406460D464FF000085C4C5D4F66B90DF1E8
S31500005764070128460BF06EFA78B1262800F0A980C6
S31500005774012384F879304BE0002D00F0A28016F85E
S31500005784013B013D8DF80730EDB23A789DF80730BC
S315000057940D2A3B7001D10A2BE0D00D2B0CD0A3F1BE
S315000057A40A025142514122788846042AD6D8DFE8B3
S315000057B402F0051D263C31000121F4E721B1FFF773
S315000057C4A3FE4FF00108C9E7202B63D0222B07D193
S315000057D40223237094F87820642A5DD10623C8E74F
S315000057E47B2B01D10323F4E70123F2E709B9202B2C
S315000057F4F0D194F87730112B3FD10323B9E7222B4C
S31500005804F7D00029E6D005234FF0010884F8793053
S3150000581404232370B8F1000FA0D094F8790008B1DE
S31500005824FFF724FEFFF798FC98E77D2B94F87A009F
S3150000583403D1FF28DDD005239BE7602B13D8402B2B
S3150000584413D8392B8CBF002230229A1AD2B20F2ACF
S3150000585410D8FF280BD0FF2302EB00128DF8072087
S3150000586484F87A30B6E75722EFE73722EDE784F873
S315000058747A2073E7202BDED170E70133DBB294F88C
S31500005884782084F87730234483F865200023237036
S31500005894002994D1884661E72378012B09D19DF824
S315000058A40730A3F1410119299CBF2033DBB28DF8DF
S315000058B407309DF80710A3180132597084F8782030
S315000058C44CE7404602B0BDE8F08100BF94230020B7
S315000058D41124002049BA89B24840C0F3031141405B
S315000058E4080380B24840C3B280EA431070471BF0F5
S315000058F4DDB8704770477047704770477047704708
S31500005904704770477047704770477047704700206C
S3150000591470477047704700207047704770470020F3
S3150000592470477047704770470020704770470120E2
S31500005934704701207047704770477047704770473B
S31500005944704770472DE9F0470024204DDFF89C90FE
S31500005954DFF89CA05FFA84F840461EF061FCFF283D
S3150000596406460CD122461A49287802F06FFC28789C
S3150000597401340BF071F9142CECD1BDE8F087154B0A
S3150000598447B213EA270338BF534659F8242012496D
S31500005994287802F05BFC002FE9DA14B1B8F1030FA2
S315000059A408D10E4B16F0010F0D49287818BF194679
S315000059B402F04CFC0A2CDAD10A4B16F0010F0A4904
S315000059C4287818BF194602F041FCD0E76920002068
S315000059D465620300ED6003008D6203002862030024
S315000059E43E620300506203005A620300D46103005E
S315000059F476C503008842F0B54FEA92031AD80446E6
S31500005A040D469BB29E00871904370434BC4205F147
S31500005A1404053AD1C3EB8333314402EB8303013EDD
S31500005A24304411FA83F3994220D011F8012B00F87F
S31500005A34012FF8E7541E204421440D4604469BB228
S31500005A44A0EB8306043E043CB442A5F104050ED142
S31500005A546FF003045C43C3EB833302EB83032144FB
S31500005A649BB201342044CB1A994209D1F0BD2F7957
S31500005A742771EF78E770AF78A7706F786770E2E701
S31500005A8411F8012900F8012DEEE715F804CC04F805
S31500005A9404CC15F803CC04F803CC15F802CC04F8AE
S31500005AA402CC15F801CC04F801CCAEE702449042CE
S31500005AB400D1704700F8011BF9E710B50138013928
S31500005AC40AB9104606E010F8014F11F8013F9C424E
S31500005AD401D0E01A10BD013A92B2F1E782B2074B47
S31500005AE44AB1000C1A8008BF4FF6CE22044B14BFED
S31500005AF418801A8070474BF6EF62F2E7DC1D00202F
S31500005B04DE1D0020094B1888020448BF80F062009D
S31500005B1442001A80064A1388190444BF83F480534A
S31500005B2483F00B035900118058407047DC1D002098
S31500005B34DE1D00200022034B1870034B1970034B23
S31500005B441A7070471B2400201A2400201C240020ED
S31500005B542DE9F04F234E85B0337807468846002B4F
S31500005B643DD04FF6FB73204D98422C7803D9522131
S31500005B741E4801F013F91E4B4FF0000B9A4632787B
S31500005B845FFA8BF94A45187811D9484402A9C0B27C
S31500005B94019327F035F9082241460DEB0200FFF781
S31500005BA48CFF0BF1010B019B0028E8D14C462B78A6
S31500005BB4A34207D1631C3278DBB29A422B7004BF2E
S31500005BC400232B709AF8003041461C44E4B2204668
S31500005BD427F03EFA18B93946204627F0DFF805B013
S31500005BE4BDE8F08F1A2400201C24002082630300E1
S31500005BF41B240020024B187800F07F00704700BF7A
S31500005C041D240020034B18780130C0B2187000F030
S31500005C147F0070471D2400201FB5030A8DF80E303F
S31500005C240323009303AB8DF80D0000F0BFF905B014
S31500005C345DF804FB1FB58DF80F100421030A8DF8D7
S31500005C440E30009103AB8DF80D0000F0AFF905B0EE
S31500005C545DF804FB2DE9F043994689B0BDF8405040
S31500005C649DF84460074688460DF10900114608224E
S31500005C74BDF84C40FFF7BEFE8DF81250012E4FEAD8
S31500005C8415258DF811908DF813508DF8146017D0E2
S31500005C94032E1CD1082212990DF11500FFF7AAFE56
S31500005CA49DF850308DF81D3016230093BDF854200E
S31500005CB402AB4146384600F079F909B0BDE8F083F5
S31500005CC48DF81540240A8DF816400F23EDE70120C0
S31500005CD4F3E71FB50C46194602238DF80D200093F1
S31500005CE40A4603AB0146204600F060F904B010BD35
S31500005CF470B586B0044616460DF10D0008221D4601
S31500005D04FFF778FE0A232A460093342103AB204684
S31500005D148DF8156000F04AF906B070BD30B5002460
S31500005D2485B0ADF80A20021D92B2012A1D46ADF8CF
S31500005D340840ADF80610ADF8044003D94FF6FF72DB
S31500005D44904207D1064A2B46127801A925F09AF902
S31500005D5405B030BD014601AA204625F059FAF7E7F9
S31500005D64E01D00202DE9F74F9846FF2A16BF474B42
S31500005D7400241B680E4618BF9C5C814618BF640845
S31500005D84B8F1FF0F16BF414B00271B6815461CBF11
S31500005D9413F808707F08FFF735FF4FEA19238DF8CB
S31500005DA400008DF803600621360A68468DF8046003
S31500005DB48DF801908DF802308DF805401EF0E8FF4D
S31500005DC4FF28064604D11824204603B0BDE8F08F08
S31500005DD44FEA440B0BF1070A0AEB4701C9B21EF05E
S31500005DE48BFF0028EFD10446A3451BD10BF1060116
S31500005DF43A4601F0FE0130465FFA8AF41FF043F892
S31500005E044FF0000A5FFA8AF5AF4223D83346BDF84D
S31500005E14302006214846FFF781FF044630461EF02F
S31500005E2459FED1E7214628461FF028F8A11D02464F
S31500005E34C9B230461FF027F8611CC9B228461FF0C4
S31500005E441DF8E11D0246C9B2304602341FF01BF8A4
S31500005E54E4B2C9E76D00EDB2294640461FF00EF8DC
S31500005E642146024630461FF00EF8691CC9B2404668
S31500005E741FF004F8611C0246C9B2304602341FF012
S31500005E8402F80AF1010AE4B2BCE700BF781D00205B
S31500005E942DE9F04188B00F4602A906460CF0C2FA75
S31500005EA400287CD0FFF7AEFE8DF810001EF08CFBA8
S31500005EB48DF811001EF088FB000A8DF812000822E6
S31500005EC439490DF11300FFF795FDBDF808300F2190
S31500005ED48DF81C301B0A8DF81D309DF80D3004A872
S31500005EE48DF81B608DF81E301EF052FFFF28044605
S31500005EF457D04FF000089DF80D305FFA88F29342B0
S31500005F0408F101081DD801220DF10E0120461EF0EC
S31500005F1481FF4FF000089DF80E305FFA88F2934235
S31500005F2408F1010824D823463A4620210020FFF729
S31500005F34F5FE054620461EF0CDFD284608B0BDE810
S31500005F44F081002130460CF099FA05468DF80700D9
S31500005F540DF10701012220461EF05CFF2D0A0122E5
S31500005F640DF1070120468DF807501EF053FFC2E7D6
S31500005F74012130460CF082FA05468DF807000DF132
S31500005F840701012220461EF045FF2D0A01220DF1CC
S31500005F94070120468DF807501EF03CFFBBE7A325FA
S31500005FA4CBE71825C9E700BF79500020F8B51C4691
S31500005FB40E4617460546FFF725FE9DF81810207075
S31500005FC420461EF0E5FEFF2804460BD003463A465B
S31500005FD428463146FFF7A2FE054620461EF07AFD06
S31500005FE42846F8BD1825FBE708B5FEF72DFCBDE8E5
S31500005FF408400FF0E5BD08B5FFF752F80FF00CFEA8
S31500006004BDE8084005F0A0BD7047FEF73BBCFFF7AE
S3150000601486B80020704738B504460D46FFF799F850
S3150000602429462046BDE838400BF096BAFFF779B802
S31500006034FFF783B801220021092010F09BBA002340
S3150000604407B5CDE90033012369464FF0FF308DF8DB
S31500006054023012F0A1F9003018BF012003B05DF838
S3150000606404FB01207047012070470120704700009F
S3150000607410B5084C23681B6858790CF0A4FF2368F4
S315000060841B685879FFF71DF800200FF059FF01200F
S3150000609410BD00BFDC4E00202DE9F84F80460D46AA
S315000060A414469946164E06F1010A0DB9BDE8F88F55
S315000060B4102D4FF00D02494650462F4628BF102793
S315000060C4FFF798FC0123337000230D48F473B37370
S315000060D427F056F8424601340A495FFA87FBE4B2D0
S315000060E412F8013B11F8010F434002F8013CA2EB00
S315000060F40803DBB25B45F3D3ED1BADB29046D4E7A0
S3150000610422240020212400202DE9F04F4FF002091B
S31500006114364D85B003930F9B174601900D220E460C
S315000061240146681CBDF838800293FFF763FC4923D7
S315000061344C46AA462B7028464FEA1823AB7385F8BB
S315000061440F8027F01DF82B7883EA17232B706B78C2
S315000061547B406B704FF0000B21E0C4F1100CA7EBF1
S315000061640B031FFA8CFC9BB2634528BF634630467B
S31500006174A11B00EB010C5FFA8CF2A0EB060C1FFAD4
S315000061848CFC9C451BD31C44E4B29B44102C1E443B
S315000061941FFA8BFB03D1284626F0F2FF0024BB45E9
S315000061A4DBD314B1504626F0EBFFB9F1010F4FF0E3
S315000061B40004039E47460BD04FF00109CAE710F8C6
S315000061C401CB1AF802E08CEA0E0C0AF802C0D0E7FA
S315000061D4029804220549FFF70DFC22460421019B7F
S315000061E4029805B0BDE8F04FFFF756BF2224002001
S315000061F4F7B5099FBDF820400646CDE900471D4680
S31500006204FFF782FF2CB13346012221462846FFF7C9
S3150000621443FF002003B0F0BD2DE9F7431E460546B3
S3150000622488469146BDF828700D4C034639463046DB
S315000062340122FFF731FF33464A4641462846CDE957
S315000062440074FFF761FF042221460B98FFF735FC23
S31500006254002814BF7E20002003B0BDE8F08300BFF1
S315000062641E2400202DE9F3410C4615461E468046A1
S31500006274084F9918214438460422FFF7BBFBCDE9A1
S31500006284006763192A4621464046FFF7C5FF02B058
S31500006294BDE8F081322400200020704700207047BA
S315000062A470477047F7B50024094E0A4F0A4D56F851
S315000062B4243003B93B6835F81420084900920120BC
S315000062C4224601340EF0E2FB292CF0D103B0F0BDD6
S315000062D4E41D00208C1E00200C410020557A03008A
S315000062E408B5FFF7DFFFBDE8084000F0F1B800008D
S315000062F407B50020FFF70EF8C2B2282A0DD8084BBE
S3150000630453F822300BB9074B1B680749012031F8B3
S315000063141210009105490EF0B9FB03B05DF804FBB9
S31500006324E41D00208C1E00200C410020557A030039
S31500006334FFF7B8BF7047000038B50020FEF7EAFF44
S3150000634404460120FEF7E6FF0546054901200EF046
S315000063549DFBA9B2E0B2BDE8384000F0D1B800BF59
S31500006364607A0300F7B50024094E0A4F0A4D56F821
S31500006374243003B93B6835F81420084900920120FB
S31500006384224601340EF082FB292CF0D103B0F0BD75
S31500006394E41D00208C1E0020BA400020557A03001C
S315000063A473B502AB03E906000446019D1DF028FE01
S315000063B4064620461DF032FE9DF800008EB1202CC4
S315000063C40FD82B78012B37D84FF6FF75394903EBD5
S315000063D44313234431F81320AA4202D0013221F890
S315000063E413204FF6FF72344B344933F8146031F8F6
S315000063F4145096421CBF721C23F8142004F0FD02AC
S31500006404092A31D19A8A898A02448A42B4BF9A8275
S31500006414998233F81430AB4204D3AE4202D22046FA
S31500006424FEF750FE0025264BEA5CA24228D0013531
S31500006434112DF9D102B070BD022BD2D14FF6FF71E6
S315000064444FF6FF751B4B33F814208A421CBF0132EA
S3150000645423F8142004F1210233F81210A9421CBFB8
S31500006464013123F81210BCE71D2CD2D15A8F111812
S31500006474A942BDBF02F1FF3212185A875D87C8E7E9
S3150000648419F0CDFF0F4B04461B78834203D8DD2158
S315000064940D4800F083FC4FF6FF710C4A04EB04141C
S315000064A42C4432F814308B42C4D0013322F8143011
S315000064B4C0E700BF5E4100200C410020BA40002026
S315000064C4E07D0300C11D0020487D030098400020A4
S315000064D4522200210148FFF7E9BA00BF0C4100200F
S315000064E45222FF210148FFF7E1BA00BFBA4000205B
S315000064F408B5FFF7EDFFBDE80840FFF7F1BF000060
S31500006504014B23F810107047BA400020032310B53E
S315000065140F4C4FF48062C4E904330E4B0E49E36119
S315000065240023A16121660D49E01DC4E919120C4935
S31500006534A3626362E3622367E366636722622FF002
S31500006544B1FC084920462FF0ADFC2023A37110BDF1
S31500006554E441002036280020F17D03003624002083
S31500006564FA7D0300FE7D03002DE9F84F1F4B164606
S315000065741A7881468A4698460AB9FFF7C7FF18274C
S3150000658407FB09873D6FD7F86CB05D452BD9BC6E08
S31500006594796E641BB44228BF3446294450462246C9
S315000065A42FF06DFCBB6E2544AB4208BF0025A24408
S315000065B4361BABEB050B5E4528BF5E4656B118236A
S315000065C403FB0983596E3246294450462FF057FC83
S315000065D43444354424B1182303FB0988C8F87050A1
S315000065E42046BDE8F88F0024E3E700BFE44100201D
S315000065F410B50B46EFF311844FF0200181F3118897
S315000066041946FFF7B1FF84F3118810BD2DE9F84F41
S31500006614144D9B462B788146884692460BB9FFF764
S3150000662475FFEFF3118C4FF0200181F311880020E0
S3150000663418236F6903FB0054666E2EB1013087423E
S31500006644F8DC4FF0FF3009E08742FADDC4E9189818
S31500006654C4F868A02667E666C4F874B08CF311889B
S31500006664BDE8F88FE4410020FFF750BF70B54FF046
S3150000667460441A4B00261A68194D42F001021A604A
S31500006684DA680C2042F08072DA60164BC4F8B03F28
S315000066940223C4F8006EC4F8806EC5F8F03003F027
S315000066A431FD114B00F5D52000F2FC40B0FBF3F0B0
S315000066B40E4A0F4B01382861C4F8406E1A600D4B20
S315000066C4C4F8803E4FF48073C5F80433D4F8003E12
S315000066D443F48073C4F8003E70BD00BFF0ED00E0E3
S315000066E4000004E055CEACC5F8590D00FF03004088
S315000066F4001000E00D00010010B501240E4B00202F
S315000067041C6004F08BF8234604220321002004F0C5
S31500006714CDF8204611F050FBFFF7A8FF11F04DFB12
S31500006724FFF7A2FF2346402204490548FFF76EFF00
S31500006734044B1860C00F10BD44D40340362C00200F
S31500006744057E0300901E0020024B1868003018BF17
S3150000675401207047F0ED00E0D123054A0370137859
S315000067644170090A8170591CC37011700420704766
S31500006774762C00202DE9F74F354E074633681C5C0E
S31500006784032C63D9DFF8CC8019F076FA4FF6FF7A3A
S315000067940025C1460534E4B20190D8F800204AB178
S315000067A4AC4207D919F068FA019BC01A80B2B0F559
S315000067B4FA7F05D9601B18BF012003B0BDE8F08F2E
S315000067C4002D3DD0012D1DD14FF0020B3268D55D51
S315000067D44FF06042D2F8801ECB0711D51146D9F886
S315000067E40C0040F08070C9F80C00D1F8000E40F49B
S315000067F48070C1F8000E086A0028F0D082F8205094
S315000068045D46CAE7E21E05F1010B95425FFA8BFB72
S3150000681402D15FFA8AF5DBE7A21E954202D1CAF3DA
S315000068240725D5E7621E95420ED0A91EC9B2384681
S315000068341EF024FB51460546FFF74CF88246C7E78F
S315000068445B254FF0010BC3E75D25C1E70120B4E7E3
S31500006854781D0020F0ED00E010B50B4B90B04022FF
S3150000686469461868FFF7C4FE58B1C1B268461EF0FF
S315000068748FFA04460146122010F04AFF20461EF005
S3150000688429F910B010BD00BF901E002000F0F4B826
S3150000689410B5002090B0FEF73DFD4022694604463F
S315000068A400F02CFA034630B12246064901200EF0C8
S315000068B4EDF810B010BD0122694608200EF078F8F4
S315000068C4F7E700BF157E030010B500F093F8002823
S315000068D414BF79226E22144901200EF0D7F800F075
S315000068E489F8F8B100F050FA002814BF79226E2214
S315000068F40E4901200EF0CAF802220D4901200EF0BD
S31500006904C5F80C4B0C491C1F53F8042C01200EF03F
S31500006914BDF804F11003E26807490120BDE8104000
S315000069240EF0B4B83F22E3E7837F03009A7F0300A7
S31500006934AA7F030090420020C97F030070B500F0CF
S315000069447FF804461F4901200EF0A0F82CB9BDE8D3
S3150000695470401D4901200EF099B800F079F80546FB
S3150000696422691A49012026880EF090F8628818498F
S3150000697401200EF08BF81749A28801200EF086F844
S315000069846388E28813F0100F14BF134913490120DA
S315000069940EF07CF8A268124901200EF077F8E2683E
S315000069A4104901200EF072F80F4A104B1049B6F543
S315000069B4817F28BF134601202A46BDE870400EF0A9
S315000069C465B800BF5F7E03006C7E03008D7E030006
S315000069D4AB7E0300CC7E0300E97E0300067F030042
S315000069E4247F0300427F03004D7E0300577E03008D
S315000069F4607F0300034B1878012894BF0020012010
S31500006A04704700BF772C002038B50446044D28781B
S31500006A14A04203D02146FEF756FB2C7038BD00BFBA
S31500006A24772C0020054B1B7820B1012B04D80220BB
S31500006A34FFF7EABF012BFBD8704700BF772C002075
S31500006A4408B500F019F8BDE8084004F05DBC000084
S31500006A5410B5084C237853B9FFF7F2FF01232370CE
S31500006A6428B10388B3F5817F24BF037D2370207882
S31500006A7410BD00BF782C002038B5164B1B78012BAF
S31500006A8427D804F029FC144C0246144901200DF0C1
S31500006A94FDFF0120FFF7C6FF2578FF2D19D104F06D
S31500006AA433FCA8B143881822C3F3400329460C4893
S31500006AB42370FEF7FBFF2378012B0AD1FFF7C8FFEB
S31500006AC4042806D9BDE83840D921064800F066B93D
S31500006AD4207038BD772C0020941E0020EC7F030024
S31500006AE48C420020FE7F0300FFF7C6BF2DE9F04F5E
S31500006AF44FF0FF33002687B0039307468A461546B0
S31500006B04CDE904668DF81030FFF7B6FFFFF7A0FF56
S31500006B145B4B80461B78012B1AD1012818D9B7FB89
S31500006B24F0F300FB13739BB1564C2268511C03D03F
S31500006B34237A13449F4237D0E268531C03D0237D43
S31500006B4413449F422FD04FF49D714F4800F026F90D
S31500006B544B4C2278012A09D1B7FBF8F308FB1373CF
S31500006B6423B140F26311484800F018F92378012B49
S31500006B7412D1EB19B3FBF8F408FB143464B1A6B2D2
S31500006B84291B1B1B3246514404A8AD1B0393ADB20B
S31500006B94FEF730FF8DF81440002D4BD1039B0133D3
S31500006BA45AD1002654E001260C2303FB0643187A27
S31500006BB432B2A8EB000953005FFA89F91344A945D8
S31500006BC44FEA830328BF5FFA85F903F1040B0093A8
S31500006BD458441FFA89F31A46514620440193FEF796
S31500006BE409FF019BED1A0C235E43A1190A7AADB283
S31500006BF44A44D2B242450A7218D103200193FFF7E0
S31500006C0403FF1FFA88F204EB0B01A05904F0F0FB12
S31500006C1406460220FFF7F8FE019BFF211A46009B59
S31500006C2423441846FEF742FF96B9CA44002DB8D04D
S31500006C344F448DE70320FFF7E7FE2A4651463846C0
S31500006C4404F0D6FB06460220FFF7DEFE002EA5D092
S31500006C54304607B0BDE8F08F0A48036801330BD00D
S31500006C64C36801330AD101230C220DEB020102FB96
S31500006C740300FEF7BFFE94E70023F5E70126E7E7E6
S31500006C84941E00208C420020FE7F030038B5184B6A
S31500006C941B78012B28D1174CFFF7EEFE236801332E
S31500006CA40FD00320FFF7B0FE2568FFF7D1FE211DA4
S31500006CB482B2284604F09CFB05460220FFF7A4FE98
S31500006CC49DB9E36801330FD00320FFF79DFEE46806
S31500006CD4FFF7BEFE084982B2204604F089FB05464A
S31500006CE40220FFF791FE05B90025284638BD00BFEE
S31500006CF4941E00208C4200209C42002070B504465D
S31500006D040D461646FFF7B8FE0420FFF77DFE324611
S31500006D142946204604F07BFB04460220FFF774FE56
S31500006D24204670BDF8B504460E46FFF7A5FE0520BD
S31500006D34FFF76AFE3146204604F078FB104D0746FD
S31500006D440220FFF761FE2B68591C09D09C4207D824
S31500006D54A219934204D20C22FF212846FEF7A6FE6E
S31500006D64EB685A1C09D0A34207D33444A34204D285
S31500006D740C22FF210348FEF799FE3846F8BD00BFF2
S31500006D848C4200209842002008B5FFF775FEBDE846
S31500006D94084004F05ABB42DE7047000038B504468A
S31500006DA40D4600F001FD03F094FC2946204610F040
S31500006DB47BFC2B4622460549012009F053FF294650
S31500006DC42046BDE83840FFF7E6BF00BF83800300D6
S31500006DD46D4B2DE9F0415A686C4CA2655A6AE2651E
S31500006DE46B4AD2F800122166D2F8042262669A6AC5
S31500006DF4A266DA6AE2661A6B22675A6B6267A26B4C
S31500006E04DB6B12F0040FA367D4E90F5318BF1D46BA
S31500006E1418F016FF002285420346606522655DD39D
S31500006E245C4A95425AD8AA696264E969A164B4F8CD
S31500006E345810C1F30801062954D157498A4251D33F
S31500006E4456498A424ED211884DF64262914249D140
S31500006E5440F201706268C4F89420A268C4F89820CD
S31500006E644F4A5049934238BF13460A468B423CD395
S31500006E74D31AE3640023C4E91F33C4E92133C4E904
S31500006E842333484E444FDFF814C1AE4233D8D4E915
S31500006E941FC7D4E92165D4E923124FF0000E013B44
S31500006EA4DBB2FF2B42D1BEF1000F05D0C4E91FC7E8
S31500006EB4C4E92165C4E92312B4F85830C3F30803BE
S31500006EC4052B57D03CD8032B47D0042B58D040F67B
S31500006ED40722013B4B2B98BF104640E000221D467B
S31500006EE4C4E911224FF42060BAE71E68B6F1CD3F1B
S31500006EF4BED10433BAE756F8042DBA42C5D3624567
S31500006F04C3D2D107C1D5002104EB010EDEF87CE023
S31500006F149645BAD004311829F6D10BB9052301E0F8
S31500006F24013BDBB204EB8301CA67AEE7E0464FF0F0
S31500006F34010EBC4637462E460D4611464246AEE77E
S31500006F440C2B1AD03B2B0CD0062BC0D140F60423B5
S31500006F54B0F5206F08BF184601E040F60120BDE8F1
S31500006F64F081114B9B6913F0020F40F2025318BFD4
S31500006F741846F4E740F60320F1E740F60520EEE76D
S31500006F8440F60220EBE700BF00ED00E00000002021
S31500006F9400E100E0A01A00204C430000E05E03007C
S31500006FA49C000020C01A00200080014A10B503F09E
S31500006FB4AFFD044603F0A4FD0022012101FA02F309
S31500006FC4234014D01B4B33F812301B4A062B13D024
S31500006FD440F207218B420DD1184919480C688442A6
S31500006FE408D14CF23C334B800B88138012E00132FB
S31500006FF4102AE3D1104AF8E74FF20F010F4B5888D5
S31500007004884214D11988B1F5406F10D211804CF220
S315000070143C325A80084B1A8840F201739A4201BFE7
S31500007024084B094AD2E90001C3E9000110BD4FF437
S31500007034C061EBE796800300842C0020000000204A
S3150000704407020FF07C2C002094000020014B1888C6
S31500007054000A7047842C0020014B1888704700BF33
S31500007064842C00202DE9F04F4D4C0546A36BD4F833
S3150000707450B05A0747BF0027B846D4F84CB0D4F8E6
S315000070845480D4F840A05DBF464FD4F83CA0DFF846
S315000070943C91DFF83C9113F0080F434B434A18BF69
S315000070A41A46B7EB08061FBF6421730801FB0B33AE
S315000070B4B3FBF6F387B01CBF9BB205933C494B4622
S315000070C4CDE9017ACDF8008008BF059601F0BEF837
S315000070D4B3B2CDE900931FFA8BF2059B35492846D6
S315000070E401F0B4F8A36B5B070AD49C3E5E4507D156
S315000070F4626D314B9A4203D23049284601F0A6F814
S31500007104BA4501D8C24504D24A462D49284601F05B
S315000071149DF8284609F0A0FD236E0BB9636EBBB338
S315000071242849284601F07DF800260127DFF8A480C7
S31500007134DFF8A490226E07FA06F3134207D058F834
S31500007144262013781BB14946284601F06AF8013611
S31500007154202EEFD100260127DFF87880DFF878901B
S31500007164626E07FA06F3134209D008EB8603D3F8D6
S31500007174802013781BB14946284601F052F801369F
S315000071841D2EEDD1284607B0BDE8F04F01F058B8E2
S3150000719428460D4907B0BDE8F04F01F057B800BFC7
S315000071A400000020C01A00209F830300A68303006A
S315000071B4AE830300DC8303009C00002015840300D7
S315000071C4418403005F8403008E8403009A830300D2
S315000071D451B50300A4840300A77E03002DE9F843F8
S315000071E40446FFF739FF40F60123984239D010D8F8
S315000071F440F2025398421DD040F20173984224D0C3
S3150000720440F20153984213D16549204601F01EF815
S3150000721422E040F6032398426CD03DD340F6042383
S31500007224984200F09C8040F60523984200F0B58011
S31500007234BDE8F8835B49204601F008F85A4B5B49E0
S315000072445A6C204601F002F806E0574A5849D2E93A
S315000072542523204600F0FAFF2046BDE8F84309F04E
S31500007264FBBC514D5349204600F0F0FF95F86C30B5
S315000072749F0703D55049204600F0E8FF95F86F3084
S315000072845E0603D54D49204600F0E0FF95F96F30C0
S31500007294002BE1DA4A49B8E7434D4A49204600F053
S315000072A4D5FF95F86830980704D06A6C3F492046A4
S315000072B400F0CCFF95F96830002B04DA6A6F424976
S315000072C4204600F0C3FF00260127DFF80881DFF817
S315000072D41491AA6E07FA06F3134207D058F826202B
S315000072E413781BB14946204600F0B0FF0136082E3C
S315000072F4EFD1B1E72C4D3549204600F0A7FF2B49C5
S315000073046A6C204600F0A2FF95F86930590703D548
S315000073142F49204600F09AFF95F96930002B04DACC
S315000073246A6F2949204600F091FF0826294FDFF8A5
S31500007334B480AB6EF340DA0707D557F826201378E6
S315000073441BB14146204600F081FF0136102EF0D1D4
S3150000735495F86830002B7FF47FAF1F4955E7124D2F
S315000073641E49204600F072FF6A6C1049204600F060
S315000073746DFF1026174FDFF86C80AB6EF340DB070A
S3150000738407D557F8262013781BB14146204600F04E
S315000073945DFF01361A2EF0D15EE711494BE700BFB7
S315000073A42981030066810300000000209681030002
S315000073B4AF810300C9810300E18103001B8203003E
S315000073C44E8203008A820300AF820300D382030045
S315000073D4EA820300B880030030830300608303005D
S315000073E479830300CB8203002DE9F84F0646002576
S315000073F4154C164FDFF85C80DFF85CA023785FFA43
S3150000740485FB0BB9BDE8F88F57F8043B22461049B3
S31500007414304600F006FF227804F1010982B9627849
S3150000742482B10BF0030103290CBF41465146304695
S3150000743400F0F7FE304609F00FFC01354C46DDE757
S315000074444C46E8E74146F2E798850300040000202D
S3150000745420810300EB6003003DB8030000F00CB884
S3150000746400F00AB800F008B800F006B800F004B856
S3150000747400F002B800F000B872B61EF0080F09D08A
S315000074841EF0040F0DD0DFF850E0AEE8FF1F6FF0DA
S3150000749402000CE0DFF840E0AEE8FF1F6FF00E00DC
S315000074A405E0DFF834E0AEE8FF1F6FF0060069463A
S315000074B4EFF309828EE8070086460848084C85459E
S315000074C401D3A54501D384F30888FFF781FC84F32F
S315000074D4088818F091FB000004000020A011002089
S315000074E4C01A0020FFF7C6BF704770477047704741
S315000074F400F07E63B3F17E6F70B505460E46144602
S3150000750416D104F017FF18B19A210D48FFF746FC6F
S3150000751422463146C5F30B0003F0B6FB044604F0DD
S3150000752415FF5CB19D21BDE870400548FFF736BCE8
S31500007534520818F0FFFA08B18F21F4E770BD00BFB6
S31500007544BC8C030037B57F2A14BF154600254BF2C1
S3150000755434629142044619D17F2241F202016846FF
S315000075640823FFF7EFFF082225496846FEF7A5FA28
S3150000757430B908237F2241F2F0116846FFF7E2FF93
S31500007584082269462046FEF735FA09E041F2F01270
S3150000759491421AD11B4901388A6CC96C1D1F0BB95B
S315000075A403B030BD013B9D4200F8012F4FEA122281
S315000075B4F5D1002203349A42F2D00132042A04F8A7
S315000075C4011F4FEA1121F6D1EAE701F47042B2F540
S315000075D4805F07D1C1F30B0404F17E649AB203FB06
S315000075E40541D0E701F46042B2F5005FD8D1C1F39A
S315000075F40B0405499AB2214403FB0511C3E700BFF6
S315000076044A8D03000080E00F00E0070070B50546D0
S3150000761416461C46DBB14BF23463994210D1082C52
S3150000762428BF08247F2241F202012346FFF78AFF7E
S31500007634A2B207492846FEF740FA40B941F2F011D2
S31500007644234632462846BDE87040FFF77BBF70BD2F
S315000076544A8D03002DE9F7430446E0070F46154615
S3150000766403D5DD213448FFF799FBE90703D5DE216D
S315000076743148FFF793FB04F47043B3F5805F3ED1C2
S31500007684C4F30B0404F17E646B1E2C4A2344934218
S31500007694264603D9E3212848FFF780FBDFF89890B4
S315000076A406EB050846453DD1A2070ED04FF6FF73FB
S315000076B437F8022B02A943EA0243A01E41F8043D0F
S315000076C40422FFF715FF0234023DAB070ED0023D3C
S315000076D425F00103FB5A02A96FEA03436FEA134339
S315000076E4042241F8043D6019FFF702FF25B12A463A
S315000076F439462046FFF7FCFE03B0BDE8F08304F4E8
S315000077046043B3F5005F05D10D4BC4F30B041C4471
S315000077142646C3E7EA210848FFF740FB6FF00F0649
S315000077240024BBE716F8013BFF2BBBD0F4214846E7
S31500007734FFF734FBB6E700BFBC8C0300FF1FE00F66
S3150000774400E00700FFF78ABE1FB5144A01AB1068B4
S315000077545168128903C31A8001238DF804300D235E
S315000077648DF80A3003230E4C082123208DF80B30A4
S3150000777402F006FE01A9204603F0BDFC4FF40061A9
S31500007784022342F21800074AC2F8841123505160BA
S3150000779441F21C02A35004B010BD00BF528D030079
S315000077A40080014A00E100E0014803F093BC00BFF9
S315000077B40080014AA52803D10021024803F07BBCBE
S315000077C4704700BF0080014A024B586800F0010070
S315000077D4704700BF0080014A024A536A002BFCD15D
S315000077E4704700BF0080014A0020704700207047A0
S315000077F47047000007B572B602F06BFF894B8A49E1
S315000078045B6940228B6000230B764B768B76F023E4
S31500007814CB760B774B778B77CA77802281F820203B
S3150000782481F82130E023602081F822307F4B81F8F3
S31500007834232083F8002383F8012383F8022383F8A3
S31500007844032383F8042383F8052383F8062383F8A4
S31500007854072383F8082383F8092383F80A2383F884
S315000078640B2383F80C2383F80D2383F80E2383F864
S315000078740F2383F8102383F8112383F8122383F844
S31500007884132383F8142383F8152383F8162383F824
S31500007894172383F8182383F8192383F81A2383F804
S315000078A41B2383F81C2383F81D2383F81E2383F8E4
S315000078B41F2383F8202383F82103202083F822231F
S315000078C483F8232383F8242383F8252383F82623A4
S315000078D483F8272383F8282383F8292383F82A2384
S315000078E483F82B0383F82C0383F82D2383F82E23A4
S315000078F483F82F2383F8302383F8312383F8322344
S3150000790483F8332383F8342383F8352383F8362323
S3150000791483F8372383F8382383F8392383F83A2303
S3150000792483F83B2383F83C23CB6823F4E0631B04EE
S315000079341B0C43F0BF6343F40133CB604B6943F044
S3150000794410034B614FF4E0234B6204F0A9F8FFF7F0
S315000079542DFBEFF308834FF0CD31354A043B9342B8
S315000079645DD2344A002192B23348FEF79FF862B6DC
S31500007974684603F0B1F9314B9B6DDB0318D4304AEA
S31500007984136823F4FF0323F4FE4343F4BC1343F4C4
S31500007994A063136052F8043C23F4704343F4404359
S315000079A442F8043C52F8043C43F4E06342F8043CD5
S315000079B49DF80130012B0FD19DF8003063B94FF0CB
S315000079C400531B681F4B1B681F4B1B681F4B1B6810
S315000079D41F4B1B681F4B1B681F4AD2F8803043F0AD
S315000079E40303C2F8803002224FF040231A6703F0E3
S315000079F4D1FF01F0E5FA002300938DF8043001234A
S31500007A0468468DF8033002F000FF00F027F918F0FD
S31500007A1445F9124810F0DAF903B05DF804FB196071
S31500007A24043B9CE70040000000ED00E000E100E0BC
S31500007A34601100208C100000A000002000C000404F
S31500007A4434C00040004000200080002000C0002018
S31500007A540000012000400120008000401CCD0300EE
S31500007A6440F2016018F0C8B8FEF71ABC08B5002148
S31500007A740B20FEF713FCBDE80840FEF712BC0320FA
S31500007A8400F078BA08B5FFF7E1FA044B0B289ABF61
S31500007A9400B203EB8000184608BD00BFA28E0300A7
S31500007AA408B5FFF7D9FA044BC0F30F2253F8223076
S31500007AB4C0B203EB800008BD6C8E030010B5FFF75F
S31500007AC4C5FA0446FFF7C8FAC0B228B9012C24D176
S31500007AD464F07F04E4B216E0072CF9D801A353F846
S31500007AE424F000BF0B7B0000D57A0000097B000060
S31500007AF40F7B00000F7B0000137B0000177B000048
S31500007B041B7B00000924204610BD0224FBE7032446
S31500007B14F9E70B24F7E70624F5E70446F3E700BF85
S31500007B2407282DE9F84F04460F462DD0082808BF2C
S31500007B34022421460120FDF70DFBFFF745FE651ED5
S31500007B44D5F1000848EB050800B3012C1ED1A52089
S31500007B54FFF730FE2646EFF31089012383F31088DE
S31500007B64EFF3118A4FF0000B8BF31188354D404625
S31500007B7409F0E0FA631EC5F800B0042B59D8DFE813
S31500007B8403F00E4D4D5155000324D2E7FFF71CFEBA
S31500007B9418B1FFF721FE0026DDE70646DBE72A4A91
S31500007BA4136923F00403136130BF284AD2F824343E
S31500007BB4D2F8202413409BB2254A2B60D2F8001138
S31500007BC4480102D51168490106D4D2F8001188018A
S31500007BD405D51268910102D543F480332B601C4B02
S31500007BE4D3F80021520506D51B685B0542BF2B68F6
S31500007BF443F400332B601EB10121164803F05BFAEF
S31500007C04404609F0B7FACFB18AF3118889F3108890
S31500007C142146BDE8F84F0020FDF79CBA012002F08A
S31500007C24C7FDC2E7012002F0D7FDBEE702F0D6FD8C
S31500007C34BBE788210848FFF7B1F8B6E787F3108851
S31500007C44E6E700BF902C002000ED00E000C00340F2
S31500007C5400E100E00080014AD28E030042F2204196
S31500007C64044AD2F820341B0C1B045350024A1360F6
S31500007C74704700BF00C003408C2C00200021FFF792
S31500007C844FBFFFF7FBBF00002DE9F04F89B010F09E
S31500007C9491F80746002840F0DD806F4E6F4D31683D
S31500007CA4286817F093F90446002827D033683C4621
S31500007CB4D3E900019A6912689047336804A89B695E
S31500007CC49B689847336802209B69DB68984732684B
S31500007CD405985368E7B2B3FBF0F3BB42916904F12C
S31500007CE4010442D8CB680020984733689B695B68D7
S31500007CF498473168286817F069F904460026DFF8C2
S31500007D048891002C53D1564B4FEA8608F35C002B1E
S31500007D1431D1A246534BF35C0193534B03EB080B4F
S31500007D24019B5FFA8AF7BB42286853D84F4BF35C32
S31500007D34002B3CD04C4B019F9844FBB27E2B286809
S31500007D4435D8D8F8003003AA07EB030A514602AB2C
S31500007D5417F076FB48452AD05146286817F0B6FB3B
S31500007D64013704460028E8D021E012680B6907FBB6
S31500007D7400209847ABE73C4B03AA53F826702868C3
S31500007D8402AB394617F05CFB484507D078B9039B2C
S31500007D94012B0CD03946286817F098FB344B39462A
S31500007DA453F8083028681A6817F074FA044601363E
S31500007DB4262EA6D1B4FA84F32E4A5B0913702E4BF1
S31500007DC49C4241D02DD8002C32D0013B9C423FD05E
S31500007DD4C5242DE0DBF8003003AA1F44394602AB64
S31500007DE417F02EFB48450AD010B10AF1010A97E7AD
S31500007DF4039B8BB9214B029AF35C9A42F5D01F4B35
S31500007E041B4A9B5D52F808203946286817F0B4F9D6
S31500007E140028EAD0044689E73946286817F056FB55
S31500007E24EDE7174B9C4211D004339C42D0D1C124B8
S31500007E342B681B7C23B14FF489711248FEF7AEFF01
S31500007E44204609B0BDE8F08FC324F1E7C424EFE768
S31500007E54C224EDE7C624F3E7E01E0020DC1E002062
S31500007E643867030078660300846703005E670300CF
S31500007E74A0660300942C002002E000F01C680300B6
S31500007E8404E000F0628F03000BE000F0252970B5D2
S31500007E9406460C4615461AD8144A127822B3144AD2
S31500007EA41068144A52F82110134A125D3AB1324648
S31500007EB417F03EFAC0B1BDE87040FDF71ABD7F2D3C
S31500007EC408BF00253246294417F0A0F9F2E7FF2936
S31500007ED403D9BDE87040FFF799BB40F24511BDE8F0
S31500007EE470400648FEF75ABF70BD00BF942C0020B0
S31500007EF4DC1E00208467030038670300628F0300DA
S31500007F042528F8B504460D46164619D814490978A5
S31500007F1429B31449144F0868144951F824103C5DD8
S31500007F243CB1126817F0B6F9C8B1BDE8F840FDF7E0
S31500007F34E0BC7F2D08BF0025294417F01DF9F3E79F
S31500007F44FF2805D91A463146BDE8F840FFF782BB3B
S31500007F544FF4BC71BDE8F8400548FEF71FBFF8BDF5
S31500007F64942C0020DC1E002038670300846703007D
S31500007F74628F030008B5084B1B7863B1074B0022D8
S31500007F8453F82010064B186817F012FA18B1BDE81A
S31500007F940840FDF7AEBC08BD942C0020846703009E
S31500007FA4DC1E002070B5164685180AB9304470BD2B
S31500007FB401F00F030A2B34BF30243724013A23443B
S31500007FC4090905F8013DD2B2EFE70000F0B5F9B1B1
S31500007FD400281CDA2D23B0F1004F137000D0404264
S31500007FE4012115E0801B8642ECB205F10105F9D9A1
S31500007FF404B927B101274D1C30345454E9B2013376
S31500008004092B09D1303050540131C8B2F0BD0021DA
S3150000801400231F46DFF808C05CF823600025E2E76A
S31500008024EC8F03002DE9F04F4FF0000B95B002AC36
S3150000803481468A4617461D465E46A0463B7863B986
S3150000804402ABE41AE4B2224619465046C847002851
S3150000805440F093803444E0B290E0252B13D0BBF17A
S31500008064000F14D12370013412AB9C426DD3A4EBE0
S315000080740804E4B2224641465046C84700287CD14B
S315000080842644F6B260E0BBF1000F00D101373B781D
S31500008094632B00F092801BD8392B09D8302B80F043
S315000080A49E80002BCCD0252B51D04FF0000BDBE764
S315000080B4582B00F08B80622BF7D14FF0000B2B6806
S315000080C401936B680093009B9B4543D10835ECE70D
S315000080D4702B1ED017D8642B01D06C2BE5D16C2BDA
S315000080E405F1040B28686CD17B78752B14BF01212C
S315000080F4002101D0642B00D101372246FFF766FF29
S3150000810404445D46D1E7752BE9D0782B5ED0732BFA
S31500008114CBD1A4EB0804E4B2224602A9504605F1E9
S31500008124040B2D68C84740BB2644F6B2C4B22B5D87
S315000081340130002BFAD1224629465046C847E0B9F9
S315000081445D4683462644F6B24446013776E72370F5
S315000081540134AAE7019B204613F80B100222FFF70D
S3150000816421FF12AB984204460ED3A0EB0804E4B2F6
S31500008174224641465046C84718B1002015B0BDE80E
S31500008184F08F26444446F6B2009B013B5B4582BF12
S3150000819420232370013412AB9C420BD3A4EB0804B6
S315000081A4E4B2224641465046C8470028E5D1264453
S315000081B44446F6B20BF1010B85E72B6804352370B0
S315000081C4C6E7752B0CBF0021012196E72046022243
S315000081D42978FFF7E7FE05F1040B044691E77A7860
S315000081E402F0DF02582A19D1322B07F1010B09D10B
S315000081F40422204629882F1DFFF7D4FE3D46044657
S315000082045F4652E7342B09D12F1D2D680422290C11
S315000082142046FFF7C7FE0422A9B2EDE74FF0010B93
S3150000822422E70EB403B503AA52F8041B019209F01F
S3150000823437F8C0B202B05DF804EB03B07047000033
S315000082440149FFF7EEBF00BFEB6003000EB433B580
S3150000825405AA52F8041B0546019209F021F80446C2
S315000082642846FFF7EDFFE0B202B0BDE8304003B0A8
S31500008274704708B509F014F8C0B208BD2DE9F04FEF
S315000082849B46584B85B01B78064689461546109F73
S315000082949DF844A0DDF85080002B00F09280072A58
S315000082A400F291800E9B002B00F08D800F9B002B1B
S315000082B400F08980129BB3F5006F00F384800128D7
S315000082C401D1002F7FD0484B03EB05131B7B002BFA
S315000082D47BD0464C1022002168462DF0DBFD04EBD2
S315000082E445141022B9F1000F5CD1494620462DF001
S315000082F4D1FDA37843F01003A370E37843F0300371
S31500008304E370BAF1000F03D1DBB243F00303E37069
S3150000831436496A01129B885A013B63F30E100E9B81
S3150000832401EB020C8852CCF808300F9B9DF84C10D8
S31500008334CCF804309CF80330012E61F38303CDF8A6
S3150000834400B08CF8033042D113230CF1100ECCF894
S315000083540C309CE80F008EE80F006FF00301DCF888
S315000083641C20B9F1010F61F39F02CCF81C20CCF854
S31500008374147004D10F9BCCF80470CCF81830002785
S3150000838419492A018B1841F80280159A28465A6021
S315000083949F605E732246694602F018FB384605B0B4
S315000083A4BDE8F08F002120462DF074FD1023A37044
S315000083B40323E370BAF1000FAAD1DBB243F0300312
S315000083C4A5E70B48EBE70B48E9E70B48E7E7B8F105
S315000083D4000FD4D19CF8023068F304138CF80230F1
S315000083E4CDE700BF182E0020982C0020182D002061
S315000083F4028000F0018000F0078000F038B5104BD1
S3150000840405461B78BBB1C0B102F06BF900230D49D8
S3150000841401EB0312147B3CB92B6001231460137324
S3150000842402F065F9204638BD0133082BF0D102F07D
S315000084345EF90548F7E70548F5E70548F3E700BFA1
S31500008444182E0020982C0020048000F0028000F0F2
S31500008454018000F038B502F044F9002305460A4AC3
S31500008464D1180C7B5CB91033802BF9D102F060FA79
S31500008474064B28461C7002F03AF9204638BD2846B9
S3150000848402F035F90248F9E7982C0020182E00204E
S31500008494058000F00D4B10B51B78044693B10728F0
S315000084A412D802F01EF90A4B03EB04131A7B2AB105
S315000084B400241C7302F01BF9204610BD02F017F9C4
S315000084C40448FAE70448F8E70448F6E7182E0020BB
S315000084D4982C0020068000F0028000F0018000F055
S315000084E4164B13B51868002301908DF8043002F07A
S315000084F4F8F8134B1C7824B102F0F9F8114802B0CD
S3150000850410BD01221A7002F0F2F80F4B1C731C778F
S3150000851483F82C4083F83C4083F84C4083F85C4055
S3150000852483F86C4083F87C4004230DEB03008DF83C
S31500008534073002F021FA2046E1E700BF109003005D
S31500008544182E0020038000F0982C002010B588B067
S315000085540E9C009207940D9C024606949DF83040AA
S3150000856405940B9C04949DF8284003940024CDE9BB
S31500008574013420460B462146FFF780FE08B010BDA5
S3150000858410B588B00E9C009207940D9C0246069482
S315000085949DF8304005940B9C04949DF82840039460
S315000085A40024CDE9013420460B460121FFF766FE7F
S315000085B408B010BD08B50A4B1B785BB107280BD869
S315000085C4084B03EB00131B7B43B1002102F0C4F9F3
S315000085D4002008BD0448FCE70448FAE70448F8E725
S315000085E4182E0020982C0020028000F0018000F054
S315000085F4078000F008B50A4B1B785BB107280BD837
S31500008604084B03EB00131B7B43B1012102F0A4F9D1
S31500008614002008BD0448FCE70448FAE70448F8E7E4
S31500008624182E0020982C0020028000F0018000F013
S31500008634078000F008B50A4B1B7853B107280AD8FF
S31500008644084B03EB00131B7B3BB102F00FFA00202F
S3150000865408BD0548FCE70548FAE70548F8E700BF02
S31500008664182E0020982C0020028000F0018000F0D3
S31500008674078000F00D4B1B7893B1072812D889B1F7
S315000086840B4B03EB00131B7B73B10A4BDA6A012312
S3150000869403FA00F010401ABF00200B7008707047F0
S315000086A4054870470548704705487047182E00204E
S315000086B4982C002000000440028000F0018000F0A5
S315000086C4078000F00B4B10B51B780C4663B10728E6
S315000086D40CD859B1084B03EB00131B7B43B102F0D2
S315000086E4D7F92060002010BD0448FCE70448FAE7E7
S315000086F40448F8E7182E0020982C0020028000F089
S31500008704018000F0078000F02DE9F843174B1F6D38
S315000087145B6D1F4000D5FEE701260025144CDFF8EB
S315000087245480DFF85490374217D02368C8F80060A5
S315000087349BB1A16862680131A16028469847637BB2
S31500008744012B0AD148B909EB4513197B1A7F60F34B
S31500008754410160F3410219731A770135082D4FEA76
S31500008764460604F11004DED1BDE8F8830000044097
S31500008774982C002050200440182D002070B5044683
S315000087840125084E04B970BD94FAA4F0B0FA80F03D
S3150000879405FA00F324EA030456F82030002BF1D03E
S315000087A49847EFE71C2E00204FF00072044BC3F8E5
S315000087B480211A604FF08062C3F880211A607047E6
S315000087C400E100E038B504460D4601F08AFF034B8C
S315000087D443F82450BDE8384001F089BF1C2E002020
S315000087E4084BD3F82404D3F82024104042F2204244
S315000087F420F42A5020F02A004004400C9850FFF739
S31500008804BDBF00BF00C00340084BD3F82404D3F80F
S315000088142024104042F2204220F4AA4020F05500C1
S315000088240004000C9850FFF7A9BF00BF00C0034026
S31500008834104A30B5136841611546ABB910608360C0
S3150000884411E0091B9C6841611A467CB123465C69A8
S315000088548C42F6D9002CF4D052B19060836013B1E7
S315000088645A69511A596130BD0022F0E72346F4E7EC
S315000088742860F3E7702E002010B500F0B1FA094B1A
S31500008884094A196831B11368C41A4B69A34203D360
S315000088941B1B4B61106003E0C01A002310604B6180
S315000088A410BD00BF702E0020602E0020074B10B5AF
S315000088B41B6802205C69064B1B681C4400F0C4FA62
S315000088C42046BDE8104000F093BA00BF702E002089
S315000088D4602E002070B59DF81450164605710025CB
S315000088E4049A8560BDF818500446C5800260C0E944
S315000088F403360D4629B961610BB11146984796B105
S31500008904354601F0EEFE0646FFF7B6FF2946204639
S31500008914FFF78EFF054B1B68A34201D1FFF7C6FF85
S31500008924304601F0E4FE002070BD00BF702E00202A
S3150000893400210C4A13687BB183420AD1836879B15A
S315000089448B6083681BB15A6941690A445A610020E5
S31500008954704719469B68EEE70028EFD0022070475F
S315000089641360EEE7702E002070B501F0BAFE114DCB
S3150000897406462C78CCB9104B1C60104B1C60104B6F
S315000089841C8000F0F3F9012000F05EFA00F0AAFA68
S315000089940C4B0246186040F2E73123460A482DF094
S315000089A49DF80A4B186001232B70304601F09FFE98
S315000089B4002070BD5C2E0020702E0020602E00204A
S315000089C4682E00206C2E002018FCFFFF642E002069
S315000089D42DE9F0410546F8B101F083FE0F4F064636
S315000089E4FFF74AFF2846D7F80080FFF7A1FF0446A1
S315000089F428B1304601F07BFE2046BDE8F081A8454B
S31500008A043B6803D123B1FFF751FFF2E7002BF0D106
S31500008A14022000F025FAECE72224EDE7702E002070
S31500008A24F0B50D4685B016461F46044680B1FFF7DD
S31500008A34CFFFBDF82C30002202939DF8283029463A
S31500008A44CDE9007320463346FFF744FF05B0F0BD79
S31500008A542220FBE738B50C46054698B191B10023B0
S31500008A640B7001F03EFE0121074B1B680BB1227807
S31500008A741AB101F03CFE002038BD9D420CBF2170A6
S31500008A849B68F3E72220F7E7702E0020F0B51F4617
S31500008A94002387B00D4616468DF817300446A0B15C
S31500008AA40DF11701FFF7D6FF9DF817207AB9BDF827
S31500008AB43430294602939DF830302046CDE90073C0
S31500008AC43346FFF707FF07B0F0BD2220FBE703207C
S31500008AD4F9E70000F8B50C460646C8B1C1B101F085
S31500008AE400FE0546FFF7C8FE73692360134B1B6837
S31500008AF4B3420FD023B9284601F0F9FD03201CE048
S31500008B04596922689B680A442260F1E700230FE052
S31500008B14222012E0276800F063F9094E3368C01A70
S31500008B248742F3D900F05CF93368C01A23681B1A2C
S31500008B342846236001F0DBFD0020F8BD702E0020DE
S31500008B44602E002070B501F0CCFD064600F048F911
S31500008B54094B05461C880120A4B200F099F918B106
S31500008B6400F03EF905460134304601F0C0FD00220E
S31500008B74214642EA050070BD682E00200A4B10B556
S31500008B841B680C4683420CD3084B4FF47A7219685F
S31500008B940023A0FB01012CF0A1FF0130206000207E
S31500008BA410BD2120FCE700BF642E00206C2E00209F
S31500008BB4104B10B51A684FF47A73A0FB0301A2B1E7
S31500008BC4531E134211D1B2FA82F2C2F11F02C2F14C
S31500008BD42004A2F1200301FA04F420FA02F222434B
S31500008BE421FA03F342EA030010BD00232CF076FFBA
S31500008BF4FAE700BF6C2E002000000000F8B5164608
S31500008C041BA3D3E900238B4208BF82422AD3174B06
S31500008C141A684FF47A73A0FB034503FB0155C2B1EE
S31500008C24531E13EA020014D1B2FA82F2C2F11F02F1
S31500008C34C2F12007A2F1200124FA02F305FA07F78C
S31500008C443B4325FA01F10B4325FA02F2C6E9003249
S31500008C54F8BD0023204629462CF040FFC6E9000152
S31500008C640020F5E72120F3E7AFF300806C2E002007
S31500008C74EFA7C64B37894100C2072DE9F84F0446D2
S31500008C840BD5374A138801339BB21380FFF7F4FDE3
S31500008C94344B1B680BB1FFF709FEA3075DD500F043
S31500008CA49FF8314E074635684FF0000A451B01F020
S31500008CB418FD8046DFF8AC90D9F80040002C48D067
S31500008CC46369AB4209D95D1B65613760FFF7EEFD49
S31500008CD44046BDE8F84F01F00ABD23462A463760F0
S31500008CE45969914209D8187994F804C0521A8445EE
S31500008CF488BF1C469B68002BF2D1404601F0F7FC66
S31500008D04D4F81480C4F814A001F0EBFC8346204682
S31500008D14FFF70EFE584601F0EAFC23694BB101F059
S31500008D24E0FC834621692046FFF782FD584601F0A0
S31500008D34DEFCE36813B121682046984700F050F83A
S31500008D444744ED1B0446054401F0CBFC2746804608
S31500008D54B2E7022000F084F8BAE7BDE8F88F00BF56
S31500008D64682E0020702E0020602E00201FB50024DF
S31500008D74184B18689A88029053F8060FADF80C2021
S31500008D841B79009002A88DF804308DF808408DF800
S31500008D940C4001F007FF694601208DF8004001F000
S31500008DA4C5FE4FF090431F219A6922F01F029A6173
S31500008DB4094A11609A6A12F00802FBD11A6201206C
S31500008DC401F0CEFE4FF48062044BC3F880211A6092
S31500008DD404B010BD149003001420004800E100E024
S31500008DE44FF090439A6A1207FCD4186A7047000041
S31500008DF44FF09042936A1907FCD4136A116C5269B6
S31500008E04120704D4CA1A022A01D899420ED1C21AE8
S31500008E14012A98BF981CB0F1FF3F28BF01304FF0DC
S31500008E24904318649A6942F008029A61054A1378D5
S31500008E343BB14FF09041CB6B43F00203CB6300236D
S31500008E44137070479C1E002082074FF0904200F07A
S31500008E540103916948BF43F008030B4393617047CC
S31500008E64830700F001020AD50121084B42F00802EB
S31500008E7419704FF09041CB6B23F00303CB634FF093
S31500008E8490418B6923EA02038B6170479C1E002084
S31500008E944FF0904301285B6904D0022805D1C3F33F
S31500008EA4C000704703F001007047002070470000BF
S31500008EB410B501F016FC4FF0904304465B691A079F
S31500008EC4074A03F0010003F00D0348BF40F0020017
S31500008ED41360FFF7D1FE2046BDE8104001F007BC41
S31500008EE4142000481B2001F00DB900000022114691
S31500008EF42D48F0B503682D4D54592CB11E68AC1895
S31500008F04002E3DD1234601210832282AF4D101B18D
S31500008F140360002214462649264E0B6895592DB146
S31500008F241F68B518002F32D12B4601240832282A8F
S31500008F34F4D104B10B6000680368002B2FD04FF006
S31500008F444022936F007923F0FF7323F4803343EABE
S31500008F5400439367184B4FF0004209681A600B6888
S31500008F64FBB14FF04022936F097923F4FF7323F08A
S31500008F7401030B439367104B4FF080421A60F0BD18
S31500008F841E792779B74284BF23460121BCE71F799E
S31500008F9495F804C0BC453CBF2B460124C6E7074BE5
S31500008FA4D9E7064BE8E700BF782E0020882E00207C
S31500008FB47C2E0020B02E00206850004068600040DF
S31500008FC410B5012228240F4B00211A700E482246A0
S31500008FD42CF060FF224600210C482CF05BFF0C4B62
S31500008FE40C4A13600C4A13604FF040430B4A13605B
S31500008FF4536020220A4BC3F880211A60FFF776FFDC
S31500009004002010BD742E0020882E0020B02E0020D3
S31500009014802E0020782E00207C2E002064600040E4
S3150000902400E100E04FF04022D2F88800D2F8883000
S31500009034C0F38800C3F388039842F5D16FF48873AC
S31500009044184440B2704700004FF04022936E526EAF
S3150000905410B5134013F0804211D0114B1B681C68E5
S315000090642CB1002119605960FFF7DCFFA0474FF0CF
S3150000907480420C4B1A60BDE81040FFF737BF002B47
S31500009084F9DA094B1B681C682CB11A605A60FFF7A1
S31500009094C9FF0121A047034B4FF00042EAE700BF96
S315000090A47C2E002064600040782E0020FFF7CCBFA1
S315000090B4012203685A619A69D207FCD541F2AC527F
S315000090C4042103795B0103F1804303F5703399505E
S315000090D47047000038B141B1013AB2F5006F044857
S315000090E438BF00207047034870470148704700BFE7
S315000090F4037000F0027000F038B504460D4601F026
S31500009104F0FAA28892B222B92A6001F0F0FA06486F
S3150000911438BD1422638802FB034308332B6001F035
S31500009124E6FA0020F4E700BF0B7000F038B50446F9
S315000091340D4601F0D6FAA3889BB223B92B6001F041
S31500009144D6FA0C4838BD14226388E18802FB03432F
S3150000915408332B6063885A1C92FBF1F301FB13233B
S315000091649BB26380A388013B9BB2A38001F0BFFA44
S315000091740020E7E70B7000F090F83130022B0BD19A
S315000091843022437F90F821005A43044B9B5823FA1C
S3150000919400F000F0010070470020704714C003403F
S315000091A4002313B51C4A52F8234094F82110814237
S315000091B40ED00133042BF6D102B010BD0028FBD12A
S315000091C49DF80730002BF7D0A068FFF7F3F9F3E713
S315000091D494F83130022BEFD12046FFF7CDFF637EA2
S315000091E42076022BE8D194F82E3003F0FF02002BF0
S315000091F4E2D102A901F8012DA068FFF73BFA237E0C
S315000092041BB194F82F30002BD8D00023A06884F823
S315000092142F30FFF7EFF9CFE7D82E0020012230B523
S3150000922490F8324087B080F82C207CB9094D036849
S31500009234CDE9024504904C682433CDE900240A683C
S315000092444169C068FFF79CF907B030BD002380F878
S315000092542C30F9E70D9B0000012330B590F832401D
S3150000926487B080F82D307CB9094D0268CDE90245F6
S3150000927404904C683C32CDE900340B68016980687F
S31500009284FFF764F907B030BD002380F82D30F9E705
S3150000929499920000F7B5906A01A91446FFF72CFFCE
S315000092A4144B984220D00025019B1D619D6001F05E
S315000092B418FA019A0746D66826B1D2E90023294648
S315000092C42046B04701A9A06AFFF730FFA06A838849
S315000092D49BB263B101A9FFF70FFF01992046FFF77F
S315000092E4BBFF384601F003FA012003B0F0BD84F851
S315000092F42D30F6E70B7000F0F8B5044617460D4618
S3150000930401F0EFF9A388E28806469A4205D80023BD
S315000093143B6001F0ECF91648F8BD1422238805F1E8
S31500009324100C02FB034308332A4603CA624518603D
S315000093345960154603F10803F6D110681422186023
S315000093442388E18802FB034308333B6023883046C5
S315000093545A1C92FBF1F301FB13239BB22380A388CF
S3150000936401339BB2A38001F0C2F90020D4E700BF09
S315000093740A7000F02DE9F3410D460446002800F07A
S31500009384868001F0AEF9012D064637D1A36A9B8883
S315000093949BB2002B39D0A068FFF74CF90023A06AD2
S315000093A484F82D3083889BB2002B34D122689369CC
S315000093B49B04FCD5023D012D1BD8E068FFF73AF962
S315000093C40023606A84F82C3083889BB2002B41D139
S315000093D494F83130032B0CD042F2AC520421237999
S315000093E45B0103F1804303F570339950022223682D
S315000093F45A61304601F07BF9002009E0022D48D17C
S31500009404636A9B889BB2002BD4D101F070F926487D
S3150000941402B0BDE8F08101A9FFF76EFE0199A068CC
S315000094240831FFF74FF9214F019B1F61A06A83881A
S315000094349BB2002BBAD001A9FFF778FE019BD3F8A3
S315000094440C80B8F1000FF1D09B6800223946204603
S31500009454C047EBE76946FFF74FFE0099E06808311D
S31500009464FFF730F9114F009B1F61606A83889BB236
S31500009474002BADD06946FFF759FE009BDD68002D31
S31500009484F3D09B68002239462046A847EDE70848F2
S31500009494BEE7032D8ED1A36A9B889BB2002B7FF473
S315000094A47AAF636A73E700BF087000F0097000F0D2
S315000094B4027000F0036898697047436A9888C0B2DE
S315000094C470472DE9F341984600230546406A0E4647
S315000094D484881746A4B2CDE900333CB16946FFF748
S315000094E40BFE01A90446E868FFF7ECF8009969B198
S315000094F464B94868019BC01A3860C8F800300B6824
S3150000950433602B68986902B0BDE8F0810021C8F881
S31500009514001039603160F4E7836A9888C0B27047F6
S315000095242DE9F341984600230546806A0E46848851
S315000095341746A4B2CDE900333CB16946FFF7DCFD1A
S3150000954401A90446A868FFF7BDF8009969B164B992
S315000095544868019BC01A3860C8F800300B6833604D
S315000095642B68986902B0BDE8F0810021C8F80010A4
S3150000957439603160F4E7007E70472DE9F041044616
S315000095840F469046FFF7A6FD0546002839D115205B
S3150000959401F0CCF80646A26A93889BB213B194F8FC
S315000095A42E308BB323689E6916F002060ED1042270
S315000095B45A619A699207FCD541F2AC52102123797B
S315000095C45B0103F1804303F570339950012384F85A
S315000095D4303094F8323033B9B8444745206818D14E
S315000095E483699B06FCD566B942F2AC5210212379F5
S315000095F45B0103F1804303F5703399500822236815
S315000096045A612846BDE8F081002EC5D0FFF77CF8E4
S31500009614C1E717F8011B01F049FDDEE710B5044662
S3150000962480B190F82E302BB9FFF7A6FD10B9A068CB
S31500009634FEF7C0FF002094F82E300133DBB284F825
S315000096442E3010BD0048FCE7027000F010B5044649
