S01800005A425F535A4544434C495F56315F305F302E733337CF
S214000000C01A00209D5A0100CD2C0000D12C000003
S214000010A70B0000000000000000FFFF54000000D7
S21400002004180F00000000000000000000000000A0
S21400003000000000000000000000000000000000BB
S214000040000000000000000000000000A701000003
S20800005000000000A7
S214000054C01A00209D5A0100CD2C0000D12C0000AF
S214000064A70A0A010002000004180FACA067A70143
S2140000740000000000000000000000000000000077
S2140000840000000000000000000000000000000067
S2140000940000000000000000FFFFFFFFFFFFFFFF5F
S2140000A4FFFFFFFF006007000000000000000000E4
S2140000B4FFFFFFFFFFFFFFFF8000000000000000BF
S2140000C40000000000000000000000000000000027
S2140000D40000000000000000604700206047002089
S2140000E4C01A0020842B030018D8020060110020D8
S2100000F42C11002000E0070000000000B7
S214000200C01A00209D5A0100CD2C0000D12C000001
S214000210397A0000D52C0000DD2C00009B5A010026
S2140002209B5A01009B5A01009B5A01009B5A0100F1
S214000230E12C00009B5A01009B5A01009B5A0100CA
S214000240542D0000542D0000542D0000542D0000A5
S214000250542D00001949000049560000542D000096
S214000260542D0000542D00001D470000B19A0000D8
S214000270542D0000542D0000542D0000542D000075
S214000280542D0000542D0000542D00009B5A0100F0
S214000290542D0000793F0000542D0000542D00001E
S2140002A0542D00007940000051400000542D0000FD
S2140002B0542D0000542D0000542D00006D34010014
S2140002C0F9330100F5330100352B010069340100D4
S2140002D0FD3301001D340100013401009B5A01006A
S2140002E0B1340100542D0000542D0000B52F00003D
S2140002F0542D0000542D0000542D00009B5A010080
S214000300542D0000542D0000542D0000542D0000E4
S214000310542D0000542D0000542D0000542D0000D4
S214000320542D0000542D0000542D0000542D0000C4
S208000330542D000043
S214000334F8B500BFF8BC08BC9E467047F8B500BFC9
S214000344F8BC08BC9E46704710B5054C237833B9F4
S214000354044B13B1044800E000BF0123237010BD12
S2140003646022002000000000DC23030008B5034BD5
S2140003741BB10349034800E000BF08BD00000000AD
S21400038464220020DC230300154B002B08BF134B0C
S2140003949D46A3F5803A00218B460F461348144A1F
S2140003A4121A2DF013FA0F4B002B00D098470E4B61
S2140003B4002B00D098470020002104000D000D48B3
S2140003C4002802D00C4800E000BF2DF0C1F9200040
S2140003D4290009F095FD2DF0A7F900BF00000800DC
S2140003E4C01A002000000000000000006022002068
S2140003F4604700200000000000000000002310B545
S21400040401211C4640FA03F2D20744BF03F10B0253
S21400041401FA02F203F1010348BF1443102BF1D191
S2140004240A2016F0E5FA2046BDE81040012108F03F
S21400043401BA0000024B186047F6FF70FFF7DEBFF4
S214000444C83E002038B505460AF066FB902D0446E3
S214000454024614D1124901200BF080FF114B1A7882
S214000464114B3AB10020114A1B68107003B198472B
S214000474012038BD1B68002BFAD00220F7E70C4990
S21400048401200BF06BFF2CB9074B1B68002BEFD039
S2140004940420ECE7032CEBD1034B20461B68E6E76D
S2140004A418D802007C220020C83E0020B83E002057
S2140004B427D80200002208B5054B1A700AF02CFB58
S2140004C428B908F0F1F8034A13780133137008BD0D
S2140004D4B83E00207C22002008B50AF01DFB40B977
S2140004E4044B40F6B83118701846BDE808401AF0B8
S2140004F47FB808BDB83E002000230348034A0370B3
S21400050413701AF069B800BFC03E00207D22002098
S2140005141FB50AF001FB28B3144C2378042B21D80A
S2140005240223002000934FF48A5203AB48F23401AE
S2140005348DF80D0001F07CFC23782BB100F084F8D4
S21400054415F060FE1DF07EF823780949013301207A
S21400055423700BF003FF4FF47A7106481AF048F83C
S21400056404B010BD02F0B2FEFAE700BF7D22002000
S21400057451F40200C03E002030B51C460023054658
S214000584104691B08DF80D308DF80E309DF8503031
S2140005948DF80C102246014604A88DF80F3004345A
S2140005A42DF009F903AB00930194044B012229466C
S2140005B410200BF035FD11B030BD00BF45D8020049
S2140005C408B501210BF09AFDBDE808400021084655
S2140005D40BF08ABD30B501241A4B89B018685968E7
S2140005E406AA03C253F8080F8DF80F401B7904902F
S2140005F48DF814300AF090FA022820D142250E23F2
S21400060406AA052100200095FFF7B6FF2046FFF74F
S214000614D7FF052304AA042100200095FFF7ACFFAA
S2140006242046FFF7CDFF2023002000930DF10F0294
S21400063423462146FFF7A0FF2046FFF7C1FF09B077
S21400064430BD00BF38D802001FB502230020009337
S2140006544FF48A5203AB48F234018DF80D0001F0D2
S214000664E7FB05B05DF804FB7FB52326054604AC1E
S21400067444F8041D22460423002100964FF48060AB
S214000684FFF77AFF2846FFF79BFF009623460022D3
S2140006944FF4806128460BF033FB04B070BD7FB581
S2140006A42326054604AC44F8041D224604230021F0
S2140006B4009640F20240FFF75FFF2846FFF780FFF0
S2140006C400962346002240F2024128460BF018FB0F
S2140006D404B070BD7FB52326054604AC44F8041D5B
S2140006E4224604230021009640F20540FFF744FF0B
S2140006F42846FFF765FF00962346002240F2054190
S21400070428460BF0FDFA04B070BD0000A1F10B03FF
S214000714042B37B505460C461AD8A1F10A03184926
S214000724421C01200BF01AFE042C03D00E2C1BD006
S214000734032C0BD155B115F065FD02F0C7FDC82397
S214000744224600930521012000F0DEFB03B030BDF5
S2140007544B1E082B03D80B46421C0A49E1E70A49FC
S21400076401200BF0FBFDDFE725B903B0BDE8304000
S214000774FFF7B2BE03B0BDE83040FFF7BDBE00BF12
S214000784A1D80200B2D80200C7D8020013B50C469E
S214000794A1F10A03421C074901200BF0DFFD0E2CD1
S2140007A406D16423022200931146012000F0ACFB1C
S2140007B402B010BD8DD8020013B504461F490120AF
S2140007C40BF0CCFD042C37D8DFE804F01B10031024
S2140007D41E0003221A4B4FF47A711A70002319482C
S2140007E4037002B0BDE8104019F002BF0122144B9A
S2140007F41A7000231348037002B0BDE8104019F0C5
S214000804EBBE0F4B0322F3E70F4B1B78A3B10F4944
S21400081401200BF0A3FD4FF49673032200930521E9
S214000824002000F071FB0222054B06481A700023D4
S21400083440F6B8310370D4E702B010BDD0D8020039
S21400084499220020D03E002098220020E8D80200FA
S21400085408B5154901200BF081FD00F027FB13496C
S214000864134800F02DF91348FFF7E4FD00F04AFAA8
S21400087400F00CFC00F042FCF0EE000A9FED0E1AAD
S214000884B0EE600A00F0BAF94FF47A710B4819F02A
S214000894AFFE0B484FF47A7119F0AAFEBDE8084083
S2140008A4084819F099BE00BFFCD8020011070000E2
S2140008B491070000BD0700006F12833AF43E002043
S2140008C4DC3E0020D03E0020F7B50020184D194E1F
S2140008D42C783070022C2F4615D0032C1AD05CB915
S2140008E40AF01AF94FF496730322009340B90121D3
S2140008F400F00AFB01233B700023337003B0F0BD05
S21400090405212046F4E701232B70FFF79DFE02F035
S214000914DDFCF1E74FF4967322460124009305218B
S21400092400F0F2FA044B1C70FFF754FE2C70E3E759
S21400093499220020D03E00209822002000207047F4
S214000944002302486421037019F052BEE83E0020DA
S2140009540022104B10B51A7000F034FA01460E4C03
S21400096420600E4803685B1A002BB8BF5B421E2B40
S21400097403DD01600120FFF777FE226808490120A5
S2140009840BF0ECFCBDE8104041F28831014819F048
S2140009942FBE00BFF43E00209022002094220020A8
S2140009A447D80200002238B5184B194C1A7000F0CC
S2140009B413FC206000F026FC164A174D1368014607
S2140009C41B1A002BB8BF5B42012B286003DD1060A6
S2140009D40220FFF764FE114A216813685B1A002B95
S2140009E4B8BF5B42052B03DD03201160FFF772FEE0
S2140009F42B6822680A4901200BF0B0FCBDE8384099
S214000A0442F21071014819F0F3BD00BFDC3E00202D
S214000A14842200208C2200208822002080220020AD
S214000A2460D80200F8B5224C636883422ED063690E
S214000A3498422DD10125EDB22D0163195E6830234D
S214000A44625D1C4853430022944618440368F340EE
S214000A5403F001030168F14001F00107BB4219D11C
S214000A640132052AF6D162191772B3B9537A0133E3
S214000A745372137B13B9104819F0AEFD00230122FC
S214000A842C44A37263732273E372F8BD0025D2E785
S214000A94FF25D1E700223B46DCE7012382F80CC0A1
S214000AA4D3724FF4FA71BDE8F840044819F0A0BDBB
S214000AB4581C002014C00340043F00200C3F0020B4
S214000AC42DE9F74307460E46012503F0A3FA104C1A
S214000AD4DFF8489004F1200800230122616820789A
S214000AE405F018FB4946207903F0A2FA626814F868
S214000AF4100BCDE900550123114605F0C5FA44450F
S214000B04EAD1044B1F60044B1E6003B0BDE8F083BB
S214000B14581C00209C220020A0220020290A000045
S214000B242DE9F84300241A4B4FF005081C704FF0CB
S214000B3401092346174D184FEE7826B36B78013318
S214000B44DBB2042B84BF00222A703A686B7088BF1D
S214000B5485F804905AB1B3FBF8F101EB81001B1A37
S214000B6413F0FF0F03D10A31C9B22046904710355F
S214000B7434B156B1BDE8F843C821054819F038BD6C
S214000B8401243346D8E71E46F1E7BDE8F88300BFE4
S214000B94043F0020611C00209C220020F8B500259C
S214000BA42E46134B134C144F1D70E37A7BB13B68EF
S214000BB43BB1627BE8B27AB9617A0A2928BF11216F
S214000BC49847A67266722673E672267266731034A7
S214000BD405B1F8BD0125E8E7A17A1D299FBF0522C6
S214000BE4B1FBF2F10A31C9B288BF1121E8E700BFB0
S214000BF40C3F0020581C0020A0220020044B83ED4C
S214000C04000A044BC3ED000A034B83ED001A704739
S214000C14003F0020CC3E0020D83E00202DE9F843BB
S214000C242B4D2C4B2DED048BD3ED007AD5ED008A9D
S214000C3478EEA77A284C88EEA79AD4ED007A30EEA0
S214000C44670AB0EE678AA9EE008A77EEC87AF0EEF5
S214000C54E77A224B17EE900A83ED009A204B83ED39
S214000C64008A2CF051F81F4B064618680F462CF0E5
S214000C744BF802460B46304639462CF09DF806469D
S214000C8419EE100A0F462CF03FF802460B460020D9
S214000C9415492BF0D9FE804618EE900A89462CF0AA
S214000CA433F802460B46404649462CF085F8024681
S214000CB40B46304639462BF0C9FE2CF055FBB0EEF9
S214000CC4480A84ED008ABDEC048B2860BDE8F883EE
S214000CD4CC3E0020003F0020FC3E0020F03E0020DA
S214000CE4E43E0020D83E00200000F03F07EE900AC5
S214000CF408B5B8EE670AFFF791FFFCEEC07A17EE68
S214000D04900A08BDF0B52B4E8FB008AD00240FCE68
S214000D1403270FC596E80300012685E80300264D41
S214000D24CDE903442846CDE9054407948DF80E70B2
S214000D348DF808608DF809408DF80A408DF80B4050
S214000D4405F054FC0221052004F04EFF022322463F
S214000D541A4928468DF8173005F0BEFC23468DF850
S214000D6419000090224642F2107128468DF823702E
S214000D7405F0CAFC04238DF82130A5238DF8250040
S214000D8408AA05A928468DF809308DF80E408DF876
S214000D94086005F0DDFC02AA03A9284605F0E6FB78
S214000DA4074AD2F8283343F48033C2F828330FB006
S214000DB4F0BD00BF08D902000040004A40420F00C0
S214000DC400C0034007B500221E4B1A7001221E4BBA
S214000DD4DA605A6902F4A072B2F5807FF9D11A4932
S214000DE4684605F00BFE0098184B1860FFF77EFF68
S214000DF4174B184A1860184B03FB0023B3FBF0F09C
S214000E04164B186018682BF05DFF9FED0A1B41EC2B
S214000E14100B29F033FA09A3D3E9002351EC100B85
S214000E242BF0CAFF2CF078FA0D4B1860186803B044
S214000E345DF804FB666666666666F6BF000000003C
S214000E44D8227E41F43E00200040004AAC22002016
S214000E54A4220020408AF701F0D8FFFF143F0020A8
S214000E64A82200204823584301230E4970B5302594
S214000E740A18085C51680C4C03FA01F641F210019A
S214000E8405FB00404650107ED66905FB004003FA79
S214000E9406F6465092F83000526B934005FB00422B
S214000EA4535070BD781C002000C0034070B5124D2E
S214000EB400242E462919285D002304224968183484
S214000EC405F028F9482CF5D100243019C16C00230C
S214000ED4042290F84800183405F01CF9482CF4D184
S214000EE40020FFF7BFFF0120FFF7BCFF034B044AB7
S214000EF41A60044A5A6070BD781C0020583F0020CF
S214000F04503F0020183F002030B41824084D04FB3E
S214000F1400540125E360029BAA402361054B227519
S214000F242572617253F8200030BC19F055BB00BF1F
S214000F34203F0020583F002018222DE9F047404D5E
S214000F44044602FB0052137D3E49002B59D013F091
S214000F54010F4FF0480332D003FB00134FF0010E8D
S214000F640021302741F2100842F2100992F809C015
S214000F74354E1A78586807FB02624CFA01FA1AF0E2
S214000F84010F0EFA00F001F1010114BF42F8090046
S214000F9442F80800032903F11803EAD1182303FBD7
S214000FA40453D968294B53F8240019F021FB18235D
S214000FB403FB0454237D013B2375BDE8F0874343BC
S214000FC4C818CE5C01234FF0300C41681E4F03FA5C
S214000FD401FE41F210010CFB067646F801E090F89B
S214000FE418E0C6690CFB0E7E03FA06F64EF801609E
S214000FF490F83060406B83400CFB067043501169D8
S214001004D0E7137248235C43012330250A19085D90
S21400101451680D4C03FA01F641F2100105FB00403D
S2140010244650107ED66905FB004003FA06F6465085
S21400103492F83000526B934005FB00425350BCE7D5
S214001044203F0020781C002000C00340583F0020AA
S2140010540020044B1870044B1B7A012B01D1FFF7B8
S2140010646BBF7047503F0020203F00200022054BF6
S2140010741A70054B93F82000012801D1FFF75CBFD6
S214001084704700BF183F0020203F002030B585B0D1
S2140010946C46164B164D0FCB84E80F0001230B222B
S2140010A41946184605F036F801230B221846002187
S2140010B405F030F80F4B1048D3F8A014014041F067
S2140010C40111C3F8A014D3F89C242146024042F030
S2140010D40102C3F89C2403222846C3F8982405F08A
S2140010E4A1F81023AB6005B030BD00BF20D90200C4
S2140010F40000014A00C00340FCFFF0FF4CF6FC125F
S21400110430B5184B89B0039308AB23F81C2D049311
S2140011140223ADF8143002AB0693032303A9124846
S214001124ADF81C3005F0ACF904460F4D012C13D075
S21400113422460E4901200BF011F99DF808200CB93F
S214001144142A03D00A4901200BF008F909490120A2
S2140011540BF004F909B030BD284605F085F80446BE
S214001164E4E700BF800004000000014A30D9020012
S21400117440D9020067D90200F0B5154B87B000AF1E
S2140011847B6007F1180303F8181DBB600123BB81BD
S2140011940223073202F4FC72ADEB020D0546391D3C
S2140011A40C48C7F810D0BB826C4605F069F9094EA6
S2140011B4012808D00120227863781C3703EB022329
S2140011C42B60BD46F0BD304605F04EF8F0E700BF94
S2140011D4800004000000014A07B50222E52101A8A8
S2140011E4FFF7CAFF50B143F2D403019A5343642273
S2140011F41B0CA3F51673B3FBF2F30193019803B02B
S2140012045DF804FB07B50222E02101A8FFF7B4FF4E
S21400121458B144F2A443019A534364221B0CA3F529
S21400122492530D3BB3FBF2F30193019803B05DF8C0
S21400123404FB000030B50024144D85B02C7009F072
S2140012446BFC022817D100900DF10E0322460321F1
S21400125401200AF0A6FDBDF80E0048B1204601F0B4
S2140012647AFD4FF47A61284619F0C2F905B030BD0C
S21400127401F070FDFAE707F017FA054B0090054AEF
S214001284054901200BF06AF8F0E700BF683F00202C
S21400129480D9020086D902008BD9020008B509F06D
S2140012A43BFC02280CD10022064B01201A7006F0E3
S2140012B4C5FABDE808400246034901200BF04EB8C3
S2140012C408BD00BF603F0020D9D9020013B504460C
S2140012D400900A4B0A4A0B4901200BF03FF85CB118
S2140012E42246094901200BF039F80094074B084AB6
S2140012F4044901200BF032F802B010BD9FD9020059
S21400130486D902008BD90200A8D9020080D902002F
S214001314D4D9020038B5C37B05460BB1832038BD4B
S214001324C47C2CB900F0E4FD20B9EB7B002BF5D18E
S2140013348120F4E72046F2E7C37B10B504460BB1E0
S214001344832010BDC37C1BB1012B10D08120F8E78D
S214001354017D82898B1C9A420CD380680AF061FF57
S21400136406F0E2FB40B9E37B002BE9D1EEE706F09A
S214001374F3FBF7E78020E4E70020E2E738B5C37B19
S2140013840446002B437D14BF8325C325012B11D1AE
S2140013940368028A598858790AF08AF850B1236893
S2140013A45B88032B02D1E37B13B18325284638BD23
S2140013B48125FBE7637D002BF8D12368228A5988B0
S2140013C458790AF06CF80028F0D023685B88B3F5E7
S2140013D4806FE8D007D873B1032BE7D12046BDE869
S2140013E43840FFF7A9BF40F202429342DBD040F2F6
S2140013F405429342D6E72046BDE83840FFF78ABF49
S2140014040120704701207047012070477047002074
S2140014147047002070470020704700207047002067
S2140014247047002070470020704701207047012055
S2140014347047002070470020704700207047002047
S21400144470470020704700207047704700207047A0
S214001454842070477047002070477047704700200C
S21400146470477047002070477047704700207047E9
S21400147400207047034B1B681878012808BF022019
S214001484704700BF3C370020002070470346012009
S214001494024AC3E9032000221A7070470100FEFFC7
S2140014A470470020704700207047002070470020D7
S2140014B4704700207047002070477047B52070477B
S2140014C40020704700207047002070477047704720
S2140014D47047704700207047704770470023FF210D
S2140014E4084A137082F8783082F8653082F87730CC
S2140014F482F8793082F87A1082F87B30024A1360D8
S214001504704700BFB0220020703F0020F8B50D469B
S2140015148C680A6806462849202002F0B8FA6B68E8
S2140015247BB92649202002F0B2FA202008F0A4F85D
S2140015342349202002F0C0FABDE8F840202008F035
S2140015449BB8002EF1D01F4D1F4E204F013C14F8BF
S214001554013F23B91A49202002F0AEFAE5E7752BBD
S21400156418D0762B18D0772B18D0732B18D0722B54
S21400157418D0712B18D0622B18D06E2B18D02A2BAB
S21400158418D01349134A212B18BF1146202002F005
S2140015947EFADCE72946F9E73146F7E73946F5E708
S2140015A40D49F3E70D49F1E70D49EFE70D49EDE77E
S2140015B40D49EBE70D49E9E7D6F5020090DA02009B
S2140015C441DA02004EDA020042DA020059DA020078
S2140015D49ADA020097DA020065DA02006FDA02008D
S2140015E47ADA020085DA02008FDA020094DA020060
S2140015F4F0B50026204A92F87B30184452FA80F060
S21400160490F865C090F8665030461C4BA5EB0C0568
S2140016141F78EDB2F4B2A54225D90CEB06031344A9
S2140016245B7811B10CB92D2B17D0782B1FD0582B03
S21400163405D108B137240AE0013C012C14D9602BEB
S21400164417D8402BF6D83A2B34BF302400241B1B63
S214001654DBB29F4203D900FB07300136DAE70523E5
S214001664002082F87930F0BD10270020F5E7002826
S214001674E2D05724EBE700BFB0220020081D00206C
S214001684FFF72CBF38B5054601460120FFF73EFF9D
S214001694D5E901436CB91C46084D236863B1294655
S2140016A4202002F0F4F921460020FFF72FFF0C3427
S2140016B4F3E71B786E2BEFD038BD00BF5DD8020071
S2140016C408B50449202002F0E2F9BDE808402020CD
S2140016D407F0D2BF02DA020038B5FFF7F1FF0024A4
S2140016E4054D61190C34631953F80C3C03B938BD25
S2140016F40020FFF70BFFF4E7B4DF02002DE9F84FF4
S2140017041F4B204D53F820201F49202002F0BFF91C
S2140017142B681BB9BDE8F84FFFF7DEBF1B4FFFF77A
S214001724CFFF0026B946DFF86CA097F87B30F4B2FA
S214001734013B9C4204DB2868BDE8F84FFFF7A2BFD4
S21400174447FA86F393F8658000234C44C84494F81B
S214001754662094F8651003F1010B521ADBB2D2B27C
S214001764934205D30A49202002F091F90136DCE7BA
S21400177443445A785146202002F089F95B46E6E74E
S2140017840C1D0020703F0020FAD90200B022002071
S2140017945ED80200FFD902002DE9F74F884C94F872
S2140017A47730002B00F0A180864B671C1B7813F063
S2140017B4010F1FD00025844E14E0631993F86620A9
S2140017C493F865302020D21A44FA85F393F865100E
S2140017D4D2B2394407F04BFF3146202002F057F9C5
S2140017E40135EDB294F87730AB42E6D8774920203D
S2140017F402F04DF9002694F87730DFF8DCE1019327
S214001804734B4FF00008714645461EF8012B91F8BD
S21400181401C007EB020AACEB020C5FFA8CFC1868FA
S214001824002852D00138D14619E02AB9002D4AD0F2
S2140018344FF001080C33F2E719F8011BA1F1410B34
S214001844BBF1190F98BF2031A2F1410B98BFC9B262
S214001854BBF1190F9CBF2032D2B28A42EAD1A9EB5F
S2140018640A01614510F8012FDFD1002ADED11D469A
S214001874584B01361D6094F87B30F6B2013384F879
S2140018847B30D5E90123002A35D01B786E2B31D066
S2140018943F2B23D04FF000094FF0070BC846042314
S2140018A494F87710AA68B14212F808702BD8AFB132
S2140018B4904498F801302A2B10D0212F1CBF032304
S2140018C484F879300AE01D46B4E7B8F1000F01D178
S2140018D4002DCDD10223002584F8793094F87900C0
S2140018E4002869D168680AF011FC03B0BDE8F04F1F
S2140018F4FFF7F4BD1346019AB24282D803221D466E
S21400190484F87920EAE7732F09D8712F0BD2212F98
S2140019141FD0622F3CD0002F4BD1032246E0A7F104
S2140019247502022A45D8752F29D0762F2AD0732F10
S2140019342BD0722F47F6FF7A18BF4FF0FF3A0121DB
S21400194448460193FFF754FE5045019B01D984F89D
S2140019547930AA68424452782A2A94F879201CBF1F
S21400196408F101085FFA88F8002AB7D1212F1FBFB3
S214001974013609F10109F6B25FFA89F990E74FF0EA
S214001984FF0ADCE74FF6FF7AD9E74FF07F0AD6E77F
S21400199494F87B204A4454FA82F292F86520224452
S2140019A45278222AD5D07B2AD3D0052284F87920EF
S2140019B4CFE784F879B0CCE7FFF7A0FE95E700BF41
S2140019C4B02200202C2300205ED802003FDA02005A
S2140019D4B4DF0200703F0020152300202DE9F341F8
S2140019E406460D464FF000085C4C5D4F66B90DF197
S2140019F40701284607F036FE78B1262800F0A980AD
S214001A04012384F879304BE0002D00F0A28016F80C
S214001A14013B013D8DF80730EDB23A789DF807306A
S214001A240D2A3B7001D10A2BE0D00D2B0CD0A3F16C
S214001A340A025142514122788846042AD6D8DFE861
S214001A4402F0051D263C31000121F4E721B1FFF721
S214001A54A3FE4FF00108C9E7202B63D0222B07D141
S214001A640223237094F87820642A5DD10623C8E7FD
S214001A747B2B01D10323F4E70123F2E709B9202BDA
S214001A84F0D194F87730112B3FD10323B9E7222BFA
S214001A94F7D00029E6D005234FF0010884F8793002
S214001AA404232370B8F1000FA0D094F8790008B18D
S214001AB4FFF724FEFFF712FD98E77D2B94F87A00D3
S214001AC403D1FF28DDD005239BE7602B13D8402BDA
S214001AD413D8392B8CBF002230229A1AD2B20F2A7E
S214001AE410D8FF280BD0FF2302EB00128DF8072036
S214001AF484F87A30B6E75722EFE73722EDE784F822
S214001B047A2073E7202BDED170E70133DBB294F83A
S214001B14782084F87730234483F8652000232370E4
S214001B24002994D1884661E72378012B09D19DF8D2
S214001B340730A3F1410119299CBF2033DBB28DF88D
S214001B4407309DF80710A3180132597084F87820DE
S214001B544CE7404602B0BDE8F08100BFB02200204A
S214001B642D23002049BA89B24840C0F303114140EE
S214001B74080380B24840C3B280EA4310704714F0AA
S214001B8459BF704770477047704770477047704733
S214001B94704770477047704770477047002070471B
S214001BA470477047002070477047704700207047A2
S214001BB47047704770470020704770470120704791
S214001BC401207047704770477047704770477047EA
S214001BD470478842F0B54FEA92031AD804460D4679
S214001BE49BB29E00871904370434BC4205F10405F1
S214001BF43AD1C3EB8333314402EB8303013E3044D2
S214001C0411FA83F3994220D011F8012B00F8012F22
S214001C14F8E7541E204421440D4604469BB2A0EB2C
S214001C248306043E043CB442A5F104050ED16FF0CD
S214001C3403045C43C3EB833302EB830321449BB26C
S214001C4401342044CB1A994209D1F0BD2F7927716B
S214001C54EF78E770AF78A7706F786770E2E711F8EF
S214001C64012900F8012DEEE715F804CC04F804CC9D
S214001C7415F803CC04F803CC15F802CC04F802CC0F
S214001C8415F801CC04F801CCAEE70244904200D12A
S214001C94704700F8011BF9E710B5013801390AB995
S214001CA4104606E010F8014F11F8013F9C4201D09F
S214001CB4E01A10BD013A92B2F1E7000082B2074B77
S214001CC44AB1000C1A8008BF4FF6CE22044B14BF4C
S214001CD418801A8070474BF6EF62F2E7DC1D00208E
S214001CE4DE1D0020094B1888020448BF80F06200FD
S214001CF442001A80064A1388190444BF83F48053AA
S214001D0483F00B035900118058407047DC1D0020F7
S214001D14DE1D00200022034B1870034B1970034B82
S214001D241A707047372300203623002038230020FB
S214001D342DE9F04F234E85B0337807468846002BAE
S214001D443DD04FF6FB73204D98422C7803D9522190
S214001D541E4800F059FC1E4B4FF0000B9A46327892
S214001D645FFA8BF94A45187811D9484402A9C0B2DB
S214001D74019320F057FF082241460DEB0200FFF7BF
S214001D848BFF0BF1010B019B0028E8D14C462B7806
S214001D94A34207D1631C3278DBB29A422B7004BF8D
S214001DA400232B709AF8003041461C44E4B22046C7
S214001DB421F060F818B93946204620F001FF05B036
S214001DC4BDE8F08F362300203823002025DB0200F0
S214001DD437230020034B18780130C0B2187000F087
S214001DE47F0070473923002030B5002485B0ADF855
S214001DF40A20021D92B2012A1D46ADF80840ADF82D
S214001E040610ADF8044003D94FF6FF72904207D18E
S214001E14064A2B46127801A91FF094F805B030BD87
S214001E24014601AA20461FF053F9F7E7E01D0020FB
S214001E34F8B51C460E4617460546FFF7CBFF9DF839
S214001E4418102070204618F049FFFF2804460BD0CF
S214001E5403463A4628463146FFF7C6FF054620465F
S214001E6418F0DEFD2846F8BD1825FBE708B5FEF792
S214001E74EFFC0AF083FFBDE8084005F069BB08B52F
S214001E84FFF7E3FA0AF0A4FF05F090FCBDE808406B
S214001E9405F0D4BD7047FEF751BDFFF708BB002020
S214001EA4704738B504460D46FFF716FB294620460C
S214001EB4BDE8384008F056B8FFF7FBBAFFF704BB96
S214001EC4002307B5CDE90033012369464FF0FF3000
S214001ED48DF802300CF028FA003018BF012003B049
S214001EE45DF804FB0120704701207047012070470D
S214001EF410B5084C23681B68587909F032FC23682F
S214001F041B685879FFF7A9FA00200BF0E3F80120C4
S214001F1410BD00BFDC4400202DE9F84F80460D4676
S214001F2414469946164E06F1010A0DB9BDE8F88F17
S214001F34102D4FF00D02494650462F4628BF102755
S214001F44FFF747FE0123337000230D48F473B37381
S214001F5421F028F8424601340A495FFA87FBE4B2C6
S214001F6412F8013B11F8010F434002F8013CA2EBC2
S214001F740803DBB25B45F3D3ED1BADB29046D4E762
S214001F843E2300203D2300202DE9F04F4FF00209A8
S214001F94364D85B003930F9B174601900D220E46CF
S214001FA40146681CBDF838800293FFF712FE4923E9
S214001FB44C46AA462B7028464FEA1823AB7385F87E
S214001FC40F8020F0EFFF2B7883EA17232B706B78B3
S214001FD47B406B704FF0000B21E0C4F1100CA7EBB4
S214001FE40B031FFA8CFC9BB2634528BF634630463E
S214001FF4A11B00EB010C5FFA8CF2A0EB060C1FFA97
S2140020048CFC9C451BD31C44E4B29B44102C1E44FD
S2140020141FFA8BFB03D1284620F0C4FF0024BB45DF
S214002024DBD314B1504620F0BDFFB9F1010F4FF0D9
S2140020340004039E47460BD04FF00109CAE710F888
S21400204401CB1AF802E08CEA0E0C0AF802C0D0E7BC
S214002054029804220549FFF7BCFD22460421019B91
S214002064029805B0BDE8F04FFFF756BF3E230020A8
S214002074F7B5099FBDF820400646CDE900471D4642
S214002084FFF782FF2CB13346012221462846FFF78C
S21400209443FF002003B0F0BD2DE9F7431E46054676
S2140020A488469146BDF828700D4C0346394630469E
S2140020B40122FFF731FF33464A4641462846CDE91A
S2140020C40074FFF761FF042221460B98FFF7E4FD36
S2140020D4002814BF7E20002003B0BDE8F08300BFB4
S2140020E43A2300202DE9F3410C4615461E46804649
S2140020F4084F9918214438460422FFF76AFDCDE9B3
S214002104006763192A4621464046FFF7C5FF02B01A
S214002114BDE8F0814E230020002070470020704761
S2140021247047704773B502AB03E906000446019D89
S21400213417F02AFF0646204617F034FF9DF80000E5
S2140021448EB1202C0FD82B78012B37D84FF6FF757D
S214002154394903EB4313234431F81320AA4202D02F
S214002164013221F813204FF6FF72344B344933F80A
S214002174146031F8145096421CBF721C23F81420C5
S21400218404F0FD02092A31D19A8A898A02448A42D5
S214002194B4BF9A82998233F81430AB4204D3AE4269
S2140021A402D22046FFF75AF90025264BEA5CA242E3
S2140021B428D00135112DF9D102B070BD022BD2D131
S2140021C44FF6FF714FF6FF751B4B33F814208A4207
S2140021D41CBF013223F8142004F1210233F8121034
S2140021E4A9421CBF013123F81210BCE71D2CD2D122
S2140021F45A8F1118A942BDBF02F1FF3212185A872E
S2140022045D87C8E714F0CFF80F4B04461B7883426B
S21400221403D8DD210D4800F0F7F94FF6FF710C4A9C
S21400222404EB04142C4432F814308B42C4D001332B
S21400223422F81430C0E700BF6A400020184000208F
S214002244C63F002058E00200C11D0020C0DF020087
S214002254A43F0020522200210148FFF716BD00BF0C
S214002264184000205222FF210148FFF70EBD00BF90
S214002274C63F002008B5FFF7EDFFBDE80840FFF7AE
S214002284F1BF0000032310B50F4C4FF48062C4E97D
S21400229404330E4B0E49E3610023A16121660D4908
S2140022A4E01DC4E919120C49A3626362E362236762
S2140022B4E366636722622BF091FA084920462BF006
S2140022C48DFA2023A37110BDF04000205227002071
S2140022D469E002005223002072E0020076E0020069
S2140022E42DE9F84F1F4B16461A7881468A469846BB
S2140022F40AB9FFF7C7FF182707FB09873D6FD7F80A
S2140023046CB05D452BD9BC6E796E641BB44228BF95
S21400231434462944504622462BF04DFABB6E2544DB
S214002324AB4208BF0025A244361BABEB050B5E454B
S21400233428BF5E4656B1182303FB0983596E3246FE
S214002344294450462BF037FA3444354424B1182334
S21400235403FB0988C8F870502046BDE8F88F0024AF
S214002364E3E700BFF040002010B50B46EFF31184FE
S2140023744FF0200181F311881946FFF7B1FF84F36B
S214002384118810BD2DE9F84F144D9B462B788146D5
S214002394884692460BB9FFF775FFEFF3118C4FF0A2
S2140023A4200181F31188002018236F6903FB005471
S2140023B4666E2EB101308742F8DC4FF0FF3009E03C
S2140023C48742FADDC4E91898C4F868A02667E6666A
S2140023D4C4F874B08CF31188BDE8F88FF040002080
S2140023E4FFF750BF70B54FF060441A4B00261A68CA
S2140023F4194D42F001021A60DA680C2042F080722D
S214002404DA60164BC4F8B03F0223C4F8006EC4F872
S214002414806EC5F8F03003F0A9FA114B00F5D5200C
S21400242400F2FC40B0FBF3F00E4A0F4B0138286173
S214002434C4F8406E1A600D4BC4F8803E4FF48073A7
S214002444C5F80433D4F8003E43F48073C4F8003E61
S21400245470BD00BFF0ED00E0000004E055CEACC552
S214002464F8590D00FF030040001000E00D000100C5
S21400247410B501240E4B00201C6003F003FE234617
S21400248404220321002003F045FE20460BF05CFCEA
S214002494FFF7A8FF0BF059FCFFF7A2FF23464022E4
S2140024A404490548FFF76EFF044B1860C00F10BDC3
S2140024B444D40340522B00207DE00200E41D00209B
S2140024C4024B1868003018BF01207047F0ED00E09A
S2140024D4D123054A037013784170090A8170591C88
S2140024E4C370117004207047922B00202DE9F74F1B
S2140024F4354E074633681C5C032C63D9DFF8CC8062
S21400250413F082FB4FF6FF7A0025C1460534E4B289
S2140025140190D8F800204AB1AC4207D913F074FBF6
S214002524019BC01A80B2B0F5FA7F05D9601B18BFAC
S214002534012003B0BDE8F08F002D3DD0012D1DD144
S2140025444FF0020B3268D55D4FF06042D2F8801E21
S214002554CB0711D51146D9F80C0040F08070C9F8A5
S2140025640C00D1F8000E40F48070C1F8000E086A22
S2140025740028F0D082F820505D46CAE7E21E05F136
S214002584010B95425FFA8BFB02D15FFA8AF5DBE713
S214002594A21E954202D1CAF30725D5E7621E9542CC
S2140025A40ED0A91EC9B2384618F00EFC5146054690
S2140025B4FFF7D8FA8246C7E75B254FF0010BC3E75F
S2140025C45D25C1E70120B4E7781D0020F0ED00E0AA
S2140025D410B50B4B90B0402269461868FFF7C4FE4E
S2140025E458B1C1B2684618F079FB04460146122079
S2140025F40BF056F8204618F013FA10B010BD00BFC2
S214002604E41D002042DE704738B504460D4600F04F
S21400261401FD03F092FC294620460BF00DF82B46EC
S21400262422460549012007F02DF829462046BDE834
S2140026343840FFF7E7BF00BF8DE002006D4B2DE981
S214002644F0415A686C4CA2655A6AE2656B4AD2F845
S21400265400122166D2F8042262669A6AA266DA6AD0
S214002664E2661A6B22675A6B6267A26BDB6B12F028
S214002674040FA367D4E90F5318BF1D4613F0A8FA36
S214002684002285420346606522655DD35C4A954216
S2140026945AD8AA696264E969A164B4F85810C1F307
S2140026A40801062954D157498A4251D356498A42C9
S2140026B44ED211884DF64262914249D140F20170E1
S2140026C46268C4F89420A268C4F898204F4A504917
S2140026D4934238BF13460A468B423CD3D31AE3646C
S2140026E40023C4E91F33C4E92133C4E92333484E25
S2140026F4444FDFF814C1AE4233D8D4E91FC7D4E937
S2140027042165D4E923124FF0000E013BDBB2FF2B08
S21400271442D1BEF1000F05D0C4E91FC7C4E9216544
S214002724C4E92312B4F85830C3F30803052B57D072
S2140027343CD8032B47D0042B58D040F60722013B45
S2140027444B2B98BF104640E000221D46C4E91122D8
S2140027544FF42060BAE71E68B6F1CD3FBED104330D
S214002764BAE756F8042DBA42C5D36245C3D2D10798
S214002774C1D5002104EB010EDEF87CE09645BAD004
S21400278404311829F6D10BB9052301E0013BDBB26D
S21400279404EB8301CA67AEE7E0464FF0010EBC4681
S2140027A437462E460D4611464246AEE70C2B1AD047
S2140027B43B2B0CD0062BC0D140F60423B0F5206F7B
S2140027C408BF184601E040F60120BDE8F081114B31
S2140027D49B6913F0020F40F2025318BF1846F4E741
S2140027E440F60320F1E740F60520EEE740F6022027
S2140027F4EBE700BF00ED00E00000002000E100E091
S214002804A01A00204C03000018D802009C000020E8
S214002814C01A00200080014A10B504F0E7F9044607
S21400282404F0DCF90022012101FA02F3234014D05B
S2140028341B4B33F812301B4A062B13D040F20721E9
S2140028448B420DD1184919480C68844208D14CF2C1
S2140028543C334B800B88138012E00132102AE3D1FC
S214002864104AF8E74FF20F010F4B5888884214D1EC
S2140028741988B1F5406F10D211804CF23C325A8060
S214002884084B1A8840F201739A4201BF084B094A62
S214002894D2E90001C3E9000110BD4FF4C061EBE7C3
S2140028A4A0E002009C2B00200000002007020FF08E
S2140028B4942B002094000020014B1888000A7047CF
S2140028C49C2B0020014B1888704700BF9C2B0020CF
S2140028D42DE9F04F4D4C0546A36BD4F850B05A077B
S2140028E447BF0027B846D4F84CB0D4F85480D4F880
S2140028F440A05DBF464FD4F83CA0DFF83C91DFF81B
S2140029043C9113F0080F434B434A18BF1A46B7EBE3
S21400291408061FBF6421730801FB0B33B3FBF6F3F1
S21400292487B01CBF9BB205933C494B46CDE9017A60
S214002934CDF8008008BF059601F0BEF8B3B2CDE925
S21400294400931FFA8BF2059B3549284601F0B4F82C
S214002954A36B5B070AD49C3E5E4507D1626D314B80
S2140029649A4203D23049284601F0A6F8BA4501D85F
S214002974C24504D24A462D49284601F09DF8284609
S21400298406F07AFE236E0BB9636EBBB3284928465D
S21400299401F07DF800260127DFF8A480DFF8A49074
S2140029A4226E07FA06F3134207D058F82620137847
S2140029B41BB14946284601F06AF80136202EEFD1AD
S2140029C400260127DFF87880DFF87890626E07FA31
S2140029D406F3134209D008EB8603D3F88020137855
S2140029E41BB14946284601F052F801361D2EEDD19A
S2140029F4284607B0BDE8F04F01F058B828460D4900
S214002A0407B0BDE8F04F01F057B800BF0000002043
S214002A14C01A0020A7E30200AEE30200B6E30200F9
S214002A24E4E302009C0000201DE4020049E40200E6
S214002A3467E4020096E40200A2E3020015FA02002C
S214002A44ACE40200D5F502002DE9F8430446FFF78E
S214002A5439FF40F60123984239D010D840F2025389
S214002A6498421DD040F20173984224D040F201539C
S214002A74984213D16549204601F01EF822E040F63C
S214002A84032398426CD03DD340F60423984200F0CA
S214002A949C8040F60523984200F0B580BDE8F88394
S214002AA45B49204601F008F85A4B5B495A6C2046AD
S214002AB401F002F806E0574A5849D2E92523204691
S214002AC400F0FAFF2046BDE8F84306F0D5BD514DA8
S214002AD45349204600F0F0FF95F86C309F0703D565
S214002AE45049204600F0E8FF95F86F305E0603D59F
S214002AF44D49204600F0E0FF95F96F30002BE1DAEF
S214002B044A49B8E7434D4A49204600F0D5FF95F8B0
S214002B146830980704D06A6C3F49204600F0CCFF22
S214002B2495F96830002B04DA6A6F4249204600F0B3
S214002B34C3FF00260127DFF80881DFF81491AA6E88
S214002B4407FA06F3134207D058F8262013781BB169
S214002B544946204600F0B0FF0136082EEFD1B1E713
S214002B642C4D3549204600F0A7FF2B496A6C2046B9
S214002B7400F0A2FF95F86930590703D52F4920467F
S214002B8400F09AFF95F96930002B04DA6A6F294938
S214002B94204600F091FF0826294FDFF8B480AB6E7C
S214002BA4F340DA0707D557F8262013781BB14146B9
S214002BB4204600F081FF0136102EF0D195F86830DB
S214002BC4002B7FF47FAF1F4955E7124D1E49204660
S214002BD400F072FF6A6C1049204600F06DFF102664
S214002BE4174FDFF86C80AB6EF340DB0707D557F85A
S214002BF4262013781BB14146204600F05DFF0136BF
S214002C041A2EF0D15EE711494BE700BF31E102000E
S214002C146EE10200000000209EE10200B7E102001F
S214002C24D1E10200E9E1020023E2020056E20200DA
S214002C3492E20200B7E20200DBE20200F2E20200E5
S214002C44C0E0020038E3020068E3020081E3020009
S214002C54D3E202002DE9F84F06460025154C164F20
S214002C64DFF85C80DFF85CA023785FFA85FB0BB99D
S214002C74BDE8F88F57F8043B22461049304600F06A
S214002C8406FF227804F1010982B9627882B10BF05A
S214002C94030103290CBF41465146304600F0F7FEB7
S214002CA4304606F0E9FC01354C46DDE74C46E8E7DD
S214002CB44146F2E7A0E502000400002028E10200F5
S214002CC43FDA020067FB020000F00CB800F00AB816
S214002CD400F008B800F006B800F004B800F002B837
S214002CE400F000B872B61EF0080F09D01EF0040FEC
S214002CF40DD0DFF850E0AEE8FF1F6FF002000CE0E6
S214002D04DFF840E0AEE8FF1F6FF00E0005E0DFF8E6
S214002D1434E0AEE8FF1F6FF006006946EFF3098261
S214002D248EE8070086460848084C854501D3A54525
S214002D3401D384F30888FFF781FC84F3088812F033
S214002D4423FF000004000020A0110020C01A002069
S214002D54FFF7C6BF704770477047000000F07E63F9
S214002D64B3F17E6F70B505460E46144616D105F0CF
S214002D74E9F918B19A210D48FFF746FC2246314678
S214002D84C5F30B0003F0EEFF044605F0E7F95CB16B
S214002D949D21BDE870400548FFF736BC520812F086
S214002DA491FE08B18F21F4E770BD00BFC2EC0200AB
S214002DB437B57F2A14BF154600254BF2346291427C
S214002DC4044619D17F2241F2020168460823FFF720
S214002DD4EFFF082225496846FEF75EFF30B9082350
S214002DE47F2241F2F0116846FFF7E2FF08226946A7
S214002DF42046FEF7EEFE09E041F2F01291421AD1A7
S214002E041B4901388A6CC96C1D1F0BB903B030BD51
S214002E14013B9D4200F8012F4FEA1222F5D1002211
S214002E2403349A42F2D00132042A04F8011F4FEA0E
S214002E341121F6D1EAE701F47042B2F5805F07D1BA
S214002E44C1F30B0404F17E649AB203FB0541D0E798
S214002E5401F46042B2F5005FD8D1C1F30B04054912
S214002E649AB2214403FB0511C3E700BF50ED0200EC
S214002E740080E00F00E0070070B5054616461C46C5
S214002E84DBB14BF23463994210D1082C28BF0824D6
S214002E947F2241F202012346FFF78AFFA2B20749C6
S214002EA42846FEF7F9FE40B941F2F01123463246B1
S214002EB42846BDE87040FFF77BBF70BD50ED0200AA
S214002EC42DE9F7430446E0070F46154603D5DD21F2
S214002ED43448FFF799FBE90703D5DE213148FFF7AD
S214002EE493FB04F47043B3F5805F3ED1C4F30B0444
S214002EF404F17E646B1E2C4A23449342264603D96F
S214002F04E3212848FFF780FBDFF8989006EB0508D6
S214002F1446453DD1A2070ED04FF6FF7337F8022B75
S214002F2402A943EA0243A01E41F8043D0422FFF727
S214002F3415FF0234023DAB070ED0023D25F0010317
S214002F44FB5A02A96FEA03436FEA1343042241F8CB
S214002F54043D6019FFF702FF25B12A46394620468C
S214002F64FFF7FCFE03B0BDE8F08304F46043B3F55A
S214002F74005F05D10D4BC4F30B041C442646C3E77F
S214002F84EA210848FFF740FB6FF00F060024BBE772
S214002F9416F8013BFF2BBBD0F4214846FFF734FB61
S214002FA4B6E700BFC2EC0200FF1FE00F00E0070018
S214002FB4FFF78ABE1FB5144A01AB10685168128920
S214002FC403C31A8001238DF804300D238DF80A30CC
S214002FD403230E4C082123208DF80B3002F004FE48
S214002FE401A9204604F0F5F84FF40061022342F2EA
S214002FF41800074AC2F884112350516041F21C029B
S214003004A35004B010BD00BF58ED02000080014A72
S21400301400E100E0014804F0CBB800BF0080014A9C
S214003024A52803D10021024804F0B3B8704700BFB6
S2140030340080014A024B586800F00100704700BF48
S2140030440080014A024A536A002BFCD1704700BF35
S2140030540080014A00207047002070477047000037
S21400306407B572B602F069FF894B8A495B6940224C
S2140030748B6000230B764B768B76F023CB760B7720
S2140030844B778B77CA77802281F8202081F821300D
S214003094E023602081F822307F4B81F8232083F8D8
S2140030A4002383F8012383F8022383F8032383F899
S2140030B4042383F8052383F8062383F8072383F879
S2140030C4082383F8092383F80A2383F80B2383F859
S2140030D40C2383F80D2383F80E2383F80F2383F839
S2140030E4102383F8112383F8122383F8132383F819
S2140030F4142383F8152383F8162383F8172383F8F9
S214003104182383F8192383F81A2383F81B2383F8D8
S2140031141C2383F81D2383F81E2383F81F2383F8B8
S214003124202383F82103202083F8222383F82323F3
S21400313483F8242383F8252383F8262383F8272378
S21400314483F8282383F8292383F82A2383F82B0378
S21400315483F82C0383F82D2383F82E2383F82F2358
S21400316483F8302383F8312383F8322383F8332318
S21400317483F8342383F8352383F8362383F83723F8
S21400318483F8382383F8392383F83A2383F83B23D8
S21400319483F83C23CB6823F4E0631B041B0C43F046
S2140031A4BF6343F40133CB604B6943F010034B61B8
S2140031B44FF4E0234B6204F0EDFBFFF72DFBEFF337
S2140031C408834FF0CD31354A043B93425DD2344AEE
S2140031D4002192B23348FEF758FD62B6684603F003
S2140031E4E9FD314B9B6DDB0318D4304A136823F496
S2140031F4FF0323F4FE4343F4BC1343F4A0631360B9
S21400320452F8043C23F4704343F4404342F8043C2D
S21400321452F8043C43F4E06342F8043C9DF8013061
S214003224012B0FD19DF8003063B94FF000531B6893
S2140032341F4B1B681F4B1B681F4B1B681F4B1B68D1
S2140032441F4B1B681F4AD2F8803043F00303C2F8B2
S214003254803002224FF040231A6704F015FB01F079
S214003264E3FA002300938DF80430012368468DF8B2
S214003274033002F0FEFE00F027F912F0D7FC1248E5
S2140032840AF06CFD03B05DF804FB1960043B9CE790
S2140032945400000000ED00E000E100E060110020B2
S2140032A48C100000A000002000C0004034C0004085
S2140032B4004000200080002000C000200000012004
S2140032C400400120008000405802030040F20160E4
S2140032D412F05ABCFEF724BF08B500210B20FEF7F7
S2140032E41DFFBDE80840FEF71CBF032000F078BAB7
S2140032F408B5FFF7E1FA044B0B289ABF00B203EBBC
S2140033048000184608BD00BFAAEE020008B5FFF705
S214003314D9FA044BC0F30F2253F82230C0B203EBA1
S214003324800008BD74EE020010B5FFF7C5FA044627
S214003334FFF7C8FAC0B228B9012C24D164F07F0480
S214003344E4B216E0072CF9D801A353F824F000BF22
S2140033547733000041330000753300007B330000F0
S2140033647B3300007F330000833300008733000084
S2140033740924204610BD0224FBE70324F9E70B24A6
S214003384F7E70624F5E70446F3E700BF07282DE928
S214003394F84F04460F462DD0082808BF02242146BD
S2140033A40120FEF79AF8FFF745FE651ED5F10008E2
S2140033B448EB050800B3012C1ED1A520FFF730FE0C
S2140033C42646EFF31089012383F31088EFF3118A5E
S2140033D44FF0000B8BF31188354D404606F0BAFBD0
S2140033E4631EC5F800B0042B59D8DFE803F00E4D71
S2140033F44D5155000324D2E7FFF71CFE18B1FFF722
S21400340421FE0026DDE70646DBE72A4A136923F099
S2140034140403136130BF284AD2F82434D2F8202497
S21400342413409BB2254A2B60D2F80011480102D5FE
S2140034341168490106D4D2F80011880105D512682E
S214003444910102D543F480332B601C4BD3F8002142
S214003454520506D51B685B0542BF2B6843F4003350
S2140034642B601EB10121164803F093FE404606F079
S21400347491FBCFB18AF3118889F310882146BDE801
S214003484F84F0020FEF729B8012002F0C5FDC2E778
S214003494012002F0D5FDBEE702F0D4FDBBE788218B
S2140034A40848FFF7B1F8B6E787F31088E6E700BFE9
S2140034B4A82B002000ED00E000C0034000E100E07F
S2140034C40080014ADAEE020042F22041044AD2F8B1
S2140034D420341B0C1B045350024A1360704700BF71
S2140034E400C00340A42B00200021FFF74FBFFFF7C6
S2140034F4FBBF00002DE9F04F89B00AF023FC074615
S214003504002840F0DD806F4E6F4D3168286811F05A
S21400351425FD0446002827D033683C46D3E900013D
S2140035249A6912689047336804A89B699B68984711
S214003534336802209B69DB689847326805985368AD
S214003544E7B2B3FBF0F3BB42916904F1010442D83D
S214003554CB680020984733689B695B689847316856
S214003564286811F0FBFC04460026DFF88891002C3E
S21400357453D1564B4FEA8608F35C002B31D1A24652
S214003584534BF35C0193534B03EB080B019B5FFA1D
S2140035948AF7BB42286853D84F4BF35C002B3CD0C9
S2140035A44C4B019F9844FBB27E2B286835D8D8F83C
S2140035B4003003AA07EB030A514602AB11F008FFDA
S2140035C448452AD05146286811F048FF013704467A
S2140035D40028E8D021E012680B6907FB0020984712
S2140035E4ABE73C4B03AA53F82670286802AB39466F
S2140035F411F0EEFE484507D078B9039B012B0CD09A
S2140036043946286811F02AFF344B394653F80830F7
S21400361428681A6811F006FE04460136232EA6D141
S214003624B4FA84F32E4A5B0913702E4B9C4241D0A5
S2140036342DD8002C32D0013B9C423FD0C5242DE02F
S214003644DBF8003003AA1F44394602AB11F0C0FE73
S21400365448450AD010B10AF1010A97E7039B8BB9D3
S214003664214B029AF35C9A42F5D01F4B1B4A9B5D92
S21400367452F808203946286811F046FD0028EAD09A
S214003684044689E73946286811F0E8FEEDE7174B4B
S2140036949C4211D004339C42D0D1C1242B681B7C9D
S2140036A423B14FF489711248FEF7AEFF204609B0E5
S2140036B4BDE8F08FC324F1E7C424EFE7C224EDE7A6
S2140036C4C624F3E7301E00202C1E0020BCDE0200B9
S2140036D40CDE020004DF0200DFDE020030DE020041
S2140036E4AC2B002002E000F090DF020004E000F0C3
S2140036F46AEF02000BE000F0222970B506460C467D
S21400370415461AD8144A127822B3144A1068144A72
S21400371452F82110134A125D3AB1324611F0D0FD28
S214003724C0B1BDE87040FEF72CBA7F2D08BF002557
S2140037343246294411F032FDF2E7FF2903D9BDE8E9
S2140037447040FFF799BB40F24511BDE8704006484B
S214003754FEF75ABF70BD00BFAC2B00202C1E002005
S21400376404DF0200BCDE02006AEF02002228F8B57D
S21400377404460D46164619D81449097829B314493F
S214003784144F0868144951F824103C5D3CB1126883
S21400379411F048FDC8B1BDE8F840FEF7F2B97F2D38
S2140037A408BF0025294411F0AFFCF3E7FF2805D92C
S2140037B41A463146BDE8F840FFF782BB4FF4BC71A9
S2140037C4BDE8F8400548FEF71FBFF8BDAC2B002047
S2140037D42C1E0020BCDE020004DF02006AEF02009A
S2140037E408B5084B1B7863B1074B002253F820102A
S2140037F4064B186811F0A4FD18B1BDE80840FEF7A2
S214003804C0B908BDAC2B002004DF02002C1E00202B
S21400381470B5164685180AB9304470BD01F00F031A
S2140038240A2B34BF30243724013A2344090905F807
S214003834013DD2B2EFE70000F0B5F9B100281CDA7A
S2140038442D23B0F1004F137000D04042012115E043
S214003854801B8642ECB205F10105F9D904B927B1FB
S21400386401274D1C30345454E9B20133092B09D1D5
S214003874303050540131C8B2F0BD002100231F4639
S214003884DFF808C05CF823600025E2E7F4EF0200E6
S2140038942DE9F04F4FF0000B95B002AC81468A46F6
S2140038A417461D465E46A0463B7863B902ABE41A4B
S2140038B4E4B2224619465046C847002840F0938092
S2140038C43444E0B290E0252B13D0BBF1000F14D1A2
S2140038D42370013412AB9C426DD3A4EB0804E4B20B
S2140038E4224641465046C84700287CD12644F6B2B4
S2140038F460E0BBF1000F00D101373B78632B00F08A
S21400390492801BD8392B09D8302B80F09E80002B50
S214003914CCD0252B51D04FF0000BDBE7582B00F012
S2140039248B80622BF7D14FF0000B2B6801936B68EA
S2140039340093009B9B4543D10835ECE7702B1ED0C3
S21400394417D8642B01D06C2BE5D16C2B05F1040B36
S21400395428686CD17B78752B14BF0121002101D017
S214003964642B00D101372246FFF766FF04445D4608
S214003974D1E7752BE9D0782B5ED0732BCBD1A4EB93
S2140039840804E4B2224602A9504605F1040B2D6849
S214003994C84740BB2644F6B2C4B22B5D0130002BA8
S2140039A4FAD1224629465046C847E0B95D468346C2
S2140039B42644F6B24446013776E723700134AAE774
S2140039C4019B204613F80B100222FFF721FF12ABCF
S2140039D4984204460ED3A0EB0804E4B222464146BD
S2140039E45046C84718B1002015B0BDE8F08F2644ED
S2140039F44446F6B2009B013B5B4582BF20232370FE
S214003A04013412AB9C420BD3A4EB0804E4B2224666
S214003A1441465046C8470028E5D126444446F6B2F7
S214003A240BF1010B85E72B6804352370C6E7752B6D
S214003A340CBF0021012196E7204602222978FFF7D1
S214003A44E7FE05F1040B044691E77A7802F0DF02FC
S214003A54582A19D1322B07F1010B09D1042220462A
S214003A6429882F1DFFF7D4FE3D4604465F4652E7DD
S214003A74342B09D12F1D2D680422290C2046FFF76C
S214003A84C7FE0422A9B2EDE74FF0010B22E70EB4FD
S214003A9403B503AA52F8041B019206F011F9C0B24A
S214003AA402B05DF804EB03B0704700000149FFF76D
S214003AB4EEBF00BF3FDA02000EB433B505AA52F8D3
S214003AC4041B0546019206F0FBF804462846FFF759
S214003AD4EDFFE0B202B0BDE8304003B0704708B571
S214003AE406F0EEF8C0B208BD2DE9F04F9B46584BE1
S214003AF485B01B78064689461546109F9DF844A057
S214003B04DDF85080002B00F09280072A00F29180A6
S214003B140E9B002B00F08D800F9B002B00F08980FD
S214003B24129BB3F5006F00F38480012801D1002FA7
S214003B347FD0484B03EB05131B7B002B7BD0464CF6
S214003B4410220021684629F041FE04EB4514102299
S214003B54B9F1000F5CD14946204629F037FEA37818
S214003B6443F01003A370E37843F03003E370BAF134
S214003B74000F03D1DBB243F00303E37036496A0156
S214003B84129B885A013B63F30E100E9B01EB020C4A
S214003B948852CCF808300F9B9DF84C10CCF80430B3
S214003BA49CF80330012E61F38303CDF800B08CF843
S214003BB4033042D113230CF1100ECCF80C309CE8E1
S214003BC40F008EE80F006FF00301DCF81C20B9F13B
S214003BD4010F61F39F02CCF81C20CCF8147004D1BA
S214003BE40F9BCCF80470CCF81830002719492A012A
S214003BF48B1841F80280159A28465A609F605E73B7
S214003C042246694602F050FF384605B0BDE8F08FFC
S214003C140021204629F0DAFD1023A3700323E37065
S214003C24BAF1000FAAD1DBB243F03003A5E70B4884
S214003C34EBE70B48E9E70B48E7E7B8F1000FD4D108
S214003C449CF8023068F304138CF80230CDE700BF0A
S214003C54302D0020B02B0020302C0020028000F0F5
S214003C64018000F0078000F038B5104B05461B783D
S214003C74BBB1C0B102F069F900230D4901EB031290
S214003C84147B3CB92B6001231460137302F063F9B0
S214003C94204638BD0133082BF0D102F05CF9054804
S214003CA4F7E70548F5E70548F3E700BF302D0020A1
S214003CB4B02B0020048000F0028000F0018000F0A9
S214003CC438B502F042F9002305460A4AD1180C7B9F
S214003CD45CB91033802BF9D102F098FE064B2846C7
S214003CE41C7002F038F9204638BD284602F033F935
S214003CF40248F9E7B02B0020302D0020058000F0A4
S214003D040D4B10B51B78044693B1072812D802F061
S214003D141CF90A4B03EB04131A7B2AB100241C7308
S214003D2402F019F9204610BD02F015F90448FAE726
S214003D340448F8E70448F6E7302D0020B02B0020AE
S214003D44068000F0028000F0018000F0164B13B5E8
S214003D541868002301908DF8043002F0F6F8134B2F
S214003D641C7824B102F0F7F8114802B010BD012205
S214003D741A7002F0F0F80F4B1C731C7783F82C4073
S214003D8483F83C4083F84C4083F85C4083F86C40EE
S214003D9483F87C4004230DEB03008DF8073002F013
S214003DA459FE2046E1E700BF18F00200302D00203F
S214003DB4038000F0B02B002010B588B00E9C009253
S214003DC407940D9C024606949DF8304005940B9C7F
S214003DD404949DF8284003940024CDE90134204639
S214003DE40B462146FFF780FE08B010BD10B588B01C
S214003DF40E9C009207940D9C024606949DF8304053
S214003E0405940B9C04949DF8284003940024CDE963
S214003E14013420460B460121FFF766FE08B010BDAC
S214003E2408B50A4B1B785BB107280BD8084B03EB85
S214003E3400131B7B43B1002102F0FCFD002008BDEB
S214003E440448FCE70448FAE70448F8E7302D002065
S214003E54B02B0020028000F0018000F0078000F004
S214003E6408B50A4B1B785BB107280BD8084B03EB45
S214003E7400131B7B43B1012102F0DCFD002008BDCA
S214003E840448FCE70448FAE70448F8E7302D002025
S214003E94B02B0020028000F0018000F0078000F0C4
S214003EA408B50A4B1B7853B107280AD8084B03EB0E
S214003EB400131B7B3BB102F047FE002008BD0548FB
S214003EC4FCE70548FAE70548F8E700BF302D002070
S214003ED4B02B0020028000F0018000F0078000F084
S214003EE40D4B1B7893B1072812D889B10B4B03EB03
S214003EF400131B7B73B10A4BDA6A012303FA00F042
S214003F0410401ABF00200B700870704705487047B1
S214003F140548704705487047302D0020B02B002018
S214003F2400000440028000F0018000F0078000F0EA
S214003F340B4B10B51B780C4663B107280CD859B147
S214003F44084B03EB00131B7B43B102F00FFE20600B
S214003F54002010BD0448FCE70448FAE70448F8E7E4
S214003F64302D0020B02B0020028000F0018000F0ED
S214003F74078000F02DE9F843174B1F6D5B6D1F405B
S214003F8400D5FEE701260025144CDFF85480DFF840
S214003F945490374217D02368C8F800609BB1A168D4
S214003FA462680131A16028469847637B012B0AD1D9
S214003FB448B909EB4513197B1A7F60F3410160F396
S214003FC4410219731A770135082D4FEA460604F1A3
S214003FD41004DED1BDE8F88300000440B02B0020B6
S214003FE450200440302C002070B504460125084EAD
S214003FF404B970BD94FAA4F0B0FA80F005FA00F3A0
S21400400424EA030456F82030002BF1D09847EFE753
S214004014342D00204FF00072044BC3F880211A6040
S2140040244FF08062C3F880211A60704700E100E018
S21400403438B504460D4601F088FF034B43F8245078
S214004044BDE8384001F087BF342D0020084BD3F874
S2140040542404D3F82024104042F2204220F42A50AC
S21400406420F02A004004400C9850FFF7BDBF00BF64
S21400407400C00340084BD3F82404D3F8202410408F
S21400408442F2204220F4AA4020F055000004000C1E
S2140040949850FFF7A9BF00BF00C00340104A30B5D0
S2140040A4136841611546ABB91060836011E0091BC3
S2140040B49C6841611A467CB123465C698C42F6D9F9
S2140040C4002CF4D052B19060836013B15A69511A2F
S2140040D4596130BD0022F0E72346F4E72860F3E791
S2140040E4882D002010B500F0AFFA094B094A19686C
S2140040F431B11368C41A4B69A34203D31B1B4B612B
S214004104106003E0C01A002310604B6110BD00BFAE
S214004114882D0020782D0020074B10B51B68022040
S2140041245C69064B1B681C4400F0C2FA2046BDE8D6
S214004134104000F091BA00BF882D0020782D002092
S21400414470B59DF81450164605710025049A8560CE
S214004154BDF818500446C5800260C0E903360D4613
S21400416429B961610BB11146984796B1354601F0FD
S214004174ECFE0646FFF7B6FF29462046FFF78EFFFD
S214004184054B1B68A34201D1FFF7C6FF304601F07A
S214004194E2FE002070BD00BF882D002000210C4ADE
S2140041A413687BB183420AD1836879B18B608368D4
S2140041B41BB15A6941690A445A610020704719467E
S2140041C49B68EEE70028EFD0022070471360EEE706
S2140041D4882D002070B501F0B8FE114D06462C78E7
S2140041E4CCB9104B1C60104B1C60104B1C8000F0AC
S2140041F4F1F9012000F05CFA00F0A8FA0C4B024634
S214004204186040F2E73123460A4829F0FDF80A4BC5
S214004214186001232B70304601F09DFE002070BD0F
S214004224742D0020882D0020782D0020802D00205D
S214004234842D002018FCFFFF7C2D00202DE9F04182
S2140042440546F8B101F081FE0F4F0646FFF74AFF18
S2140042542846D7F80080FFF7A1FF044628B1304669
S21400426401F079FE2046BDE8F081A8453B6803D1FD
S21400427423B1FFF751FFF2E7002BF0D1022000F044
S21400428423FAECE72224EDE7882D0020F0B50D464E
S21400429485B016461F46044680B1FFF7CFFFBDF82B
S2140042A42C30002202939DF828302946CDE900736D
S2140042B420463346FFF744FF05B0F0BD2220FBE757
S2140042C438B50C46054698B191B100230B7001F041
S2140042D43CFE0121074B1B680BB122781AB101F092
S2140042E43AFE002038BD9D420CBF21709B68F3E760
S2140042F42220F7E7882D0020F0B51F46002387B05C
S2140043040D4616468DF817300446A0B10DF1170178
S214004314FFF7D6FF9DF817207AB9BDF83430294642
S21400432402939DF830302046CDE900733346FFF7FC
S21400433407FF07B0F0BD2220FBE70320F9E70000E3
S214004344F8B50C460646C8B1C1B101F0FEFD0546F7
S214004354FFF7C8FE73692360134B1B68B3420FD084
S21400436423B9284601F0F7FD03201CE059692268AA
S2140043749B680A442260F1E700230FE0222012E043
S214004384276800F061F9094E3368C01A8742F3D9EA
S21400439400F05AF93368C01A23681B1A28462360AB
S2140043A401F0D9FD0020F8BD882D0020782D0020CE
S2140043B470B501F0CAFD064600F046F9094B0546FD
S2140043C41C880120A4B200F097F918B100F03CF95B
S2140043D405460134304601F0BEFD0022214642EA7D
S2140043E4050070BD802D00200A4B10B51B680C46D6
S2140043F483420CD3084B4FF47A7219680023A0FB4F
S214004404010129F001F801302060002010BD2120B0
S214004414FCE700BF7C2D0020842D0020104B10B537
S2140044241A684FF47A73A0FB0301A2B1531E134219
S21400443411D1B2FA82F2C2F11F02C2F12004A2F133
S214004444200301FA04F420FA02F2224321FA03F3C9
S21400445442EA030010BD002328F0D6FFFAE700BFA7
S214004464842D0020F8B516461BA3D3E900238B42FF
S21400447408BF82422AD3174B1A684FF47A73A0FBFC
S214004484034503FB0155C2B1531E13EA020014D1BF
S214004494B2FA82F2C2F11F02C2F12007A2F1200191
S2140044A424FA02F305FA07F73B4325FA01F10B4316
S2140044B425FA02F2C6E90032F8BD00232046294652
S2140044C428F0A2FFC6E900010020F5E72120F3E763
S2140044D4AFF30080842D0020EFA7C64B3789410038
S2140044E4C2072DE9F84F04460BD5374A1388013323
S2140044F49BB21380FFF7F6FD344B1B680BB1FFF736
S2140045040BFEA3075DD500F09FF8314E07463568CD
S2140045144FF0000A451B01F018FD8046DFF8AC900A
S214004524D9F80040002C48D06369AB4209D95D1B1A
S21400453465613760FFF7F0FD4046BDE8F84F01F0CF
S2140045440ABD23462A4637605969914209D8187924
S21400455494F804C0521A844588BF1C469B68002BF6
S214004564F2D1404601F0F7FCD4F81480C4F814A045
S21400457401F0EBFC83462046FFF710FE584601F098
S214004584EAFC23694BB101F0E0FC8346216920462E
S214004594FFF784FD584601F0DEFCE36813B121689A
S2140045A42046984700F050F84744ED1B044605445F
S2140045B401F0CBFC27468046B2E7022000F084F8E0
S2140045C4BAE7BDE8F88F00BF802D0020882D0020B4
S2140045D4782D00201FB50024184B18689A8802907E
S2140045E453F8060FADF80C201B79009002A88DF83E
S2140045F404308DF808408DF80C4002F041FB694603
S21400460401208DF8004002F0FFFA4FF090431F217E
S2140046149A6922F01F029A61094A11609A6A12F096
S2140046240802FBD11A62012002F008FB4FF48062F4
S214004634044BC3F880211A6004B010BD1CF00200BD
S2140046441420004800E100E04FF090439A6A1207F5
S214004654FCD4186A704700004FF09042936A19071A
S214004664FCD4136A116C5269120704D4CA1A022ABB
S21400467401D899420ED1C21A012A98BF981CB0F1EB
S214004684FF3F28BF01304FF0904318649A6942F008
S21400469408029A61054A13783BB14FF09041CB6B00
S2140046A443F00203CB63002313707047EC1D002015
S2140046B482074FF0904200F00103916948BF43F02F
S2140046C408030B4393617047830700F001020AD581
S2140046D40121084B42F0080219704FF09041CB6B51
S2140046E423F00303CB634FF090418B6923EA020364
S2140046F48B617047EC1D00204FF0904301285B69E6
S21400470404D0022805D1C3F3C000704703F00100AB
S214004714704700207047000010B501F016FC4FF0FB
S214004724904304465B691A07074A03F0010003F046
S2140047340D0348BF40F002001360FFF7D1FE204689
S214004744BDE8104001F007BC142000481B2001F00F
S2140047540DB90000002211462D48F0B503682D4D12
S21400476454592CB11E68AC18002E3DD123460121A5
S2140047740832282AF4D101B10360002214462649DF
S214004784264E0B6895592DB11F68B518002F32D1E7
S2140047942B4601240832282AF4D104B10B600068A1
S2140047A40368002B2FD04FF04022936F007923F03C
S2140047B4FF7323F4803343EA00439367184B4FF0A8
S2140047C4004209681A600B68FBB14FF04022936FF1
S2140047D4097923F4FF7323F001030B439367104B0B
S2140047E44FF080421A60F0BD1E792779B74284BF25
S2140047F423460121BCE71F7995F804C0BC453CBF9D
S2140048042B460124C6E7074BD9E7064BE8E700BF6B
S214004814902D0020A02D0020942D0020C82D0020CF
S214004824685000406860004010B5012228240F4BF1
S21400483400211A700E48224628F0C8FF224600219E
S2140048440C4828F0C3FF0C4B0C4A13600C4A136048
S2140048544FF040430B4A1360536020220A4BC3F8C0
S21400486480211A60FFF776FF002010BD8C2D0020F3
S214004874A02D0020C82D0020982D0020902D00206B
S214004884942D00206460004000E100E04FF04022D8
S214004894D2F88800D2F88830C0F38800C3F38803BF
S2140048A49842F5D16FF48873184440B270470000FC
S2140048B44FF04022936E526E10B5134013F08042B0
S2140048C411D0114B1B681C682CB10021196059606B
S2140048D4FFF7DCFFA0474FF080420C4B1A60BDE8A0
S2140048E41040FFF737BF002BF9DA094B1B681C682A
S2140048F42CB11A605A60FFF7C9FF0121A047034B89
S2140049044FF00042EAE700BF942D002064600040A8
S214004914902D0020FFF7CCBF012203685A619A69E4
S214004924D207FCD541F2AC52042103795B0103F1B2
S214004934804303F5703399507047000038B141B195
S214004944013AB2F5006F044838BF002070470348A8
S21400495470470148704700BF037000F0027000F013
S21400496438B504460D4601F0F0FAA28892B222B990
S2140049742A6001F0F0FA064838BD1422638802FB68
S214004984034308332B6001F0E6FA0020F4E700BF87
S2140049940B7000F038B504460D4601F0D6FAA3882D
S2140049A49BB223B92B6001F0D6FA0C4838BD14220A
S2140049B46388E18802FB034308332B6063885A1C30
S2140049C492FBF1F301FB13239BB26380A388013BA4
S2140049D49BB2A38001F0BFFA0020E7E70B7000F05B
S2140049E490F83130022B0BD13022437F90F821000F
S2140049F45A43044B9B5823FA00F000F0010070471A
S214004A040020704714C00340002313B51C4A52F814
S214004A14234094F8211081420ED00133042BF6D1A2
S214004A2402B010BD0028FBD19DF80730002BF7D04C
S214004A34A068FFF7F5F9F3E794F83130022BEFD1CD
S214004A442046FFF7CDFF637E2076022BE8D194F84C
S214004A542E3003F0FF02002BE2D102A901F8012D4B
S214004A64A068FFF73DFA237E1BB194F82F30002B85
S214004A74D8D00023A06884F82F30FFF7F1F9CFE7E9
S214004A84F02D0020012230B590F8324087B080F82F
S214004A942C207CB9094D0368CDE9024504904C6886
S214004AA42433CDE900240A684169C068FFF79EF9FB
S214004AB407B030BD002380F82C30F9E775530000AA
S214004AC4012330B590F8324087B080F82D307CB999
S214004AD4094D0268CDE9024504904C683C32CDE9A4
S214004AE400340B6801698068FFF766F907B030BDCB
S214004AF4002380F82D30F9E7014B0000F7B5906AE3
S214004B0401A91446FFF72CFF144B984220D0002529
S214004B14019B1D619D6001F018FA019A0746D6684C
S214004B2426B1D2E9002329462046B04701A9A06A47
S214004B34FFF730FFA06A83889BB263B101A9FFF731
S214004B440FFF01992046FFF7BBFF384601F003FA32
S214004B54012003B0F0BD84F82D30F6E70B7000F0AA
S214004B64F8B5044617460D4601F0EFF9A388E28827
S214004B7406469A4205D800233B6001F0ECF9164835
S214004B84F8BD1422238805F1100C02FB03430833F6
S214004B942A4603CA624518605960154603F108039D
S214004BA4F6D11068142218602388E18802FB0343B8
S214004BB408333B60238830465A1C92FBF1F301FB12
S214004BC413239BB22380A38801339BB2A38001F0F6
S214004BD4C2F90020D4E700BF0A7000F02DE9F341C3
S214004BE40D460446002800F0868001F0AEF9012D3B
S214004BF4064637D1A36A9B889BB2002B39D0A0689F
S214004C04FFF74EF90023A06A84F82D3083889BB200
S214004C14002B34D1226893699B04FCD5023D012DF8
S214004C241BD8E068FFF73CF90023606A84F82C3050
S214004C3483889BB2002B41D194F83130032B0CD0DF
S214004C4442F2AC52042123795B0103F1804303F55D
S214004C5470339950022223685A61304601F07BF97A
S214004C64002009E0022D48D1636A9B889BB2002B82
S214004C74D4D101F070F9264802B0BDE8F08101A94C
S214004C84FFF76EFE0199A0680831FFF751F9214F2E
S214004C94019B1F61A06A83889BB2002BBAD001A92E
S214004CA4FFF778FE019BD3F80C80B8F1000FF1D023
S214004CB49B68002239462046C047EBE76946FFF763
S214004CC44FFE0099E0680831FFF732F9114F009B58
S214004CD41F61606A83889BB2002BADD06946FFF7DC
S214004CE459FE009BDD68002DF3D09B6800223946F0
S214004CF42046A847EDE70848BEE7032D8ED1A36AF1
S214004D049B889BB2002B7FF47AAF636A73E700BF7D
S214004D14087000F0097000F0027000F003689869EB
S214004D247047436A9888C0B270472DE9F3419846A5
S214004D3400230546406A0E4684881746A4B2CDE989
S214004D4400333CB16946FFF70BFE01A90446E86848
S214004D54FFF7EEF8009969B164B94868019BC01A78
S214004D643860C8F800300B6833602B68986902B066
S214004D74BDE8F0810021C8F8001039603160F4E71E
S214004D84836A9888C0B270472DE9F3419846002399
S214004D940546806A0E4684881746A4B2CDE90033D9
S214004DA43CB16946FFF7DCFD01A90446A868FFF795
S214004DB4BFF8009969B164B94868019BC01A3860A5
S214004DC4C8F800300B6833602B68986902B0BDE8F9
S214004DD4F0810021C8F8001039603160F4E7007EE5
S214004DE470472DE9F04104460F469046FFF7A6FDAE
S214004DF40546002839D1152001F0CCF80646A26AEB
S214004E0493889BB213B194F82E308BB323689E69B3
S214004E1416F002060ED104225A619A699207FCD54E
S214004E2441F2AC52102123795B0103F1804303F570
S214004E3470339950012384F8303094F8323033B903
S214004E44B8444745206818D183699B06FCD566B9E3
S214004E5442F2AC52102123795B0103F1804303F53F
S214004E6470339950082223685A612846BDE8F081B9
S214004E74002EC5D0FFF77EF8C1E717F8011B02F035
S214004E8483F9DEE710B5044680B190F82E302BB9CE
S214004E94FFF7A6FD10B9A068FEF7C2FF002094F83D
S214004EA42E300133DBB284F82E3010BD0048FCE708
S214004EB4027000F010B50446A0B190F82E309BB1F5
S214004EC490F82E30012B05D1FFF78AFD10B9A068A3
S214004ED4FEF7C6FF002094F82E30013BDBB284F8C0
S214004EE42E3010BD0148FCE70148FAE7027000F0D6
S214004EF4057000F037B590F831500446022D1ED1E7
S214004F04012190F82220457E837F01FA02F23020A8
S214004F14154925B900FB031342F2100105E0012DE3
S214004F2407D100FB031341F210015A50002003B0CE
S214004F3430BD247E00FB0313002CF4D1ECE7012DD6
S214004F44F4D1037E73B911238DF80730FFF79AFF67
S214004F542A460DF107012046FFF743FF2046FFF7D8
S214004F64A9FFE3E71323EFE700C00340F0B50446C8
S214004F748BB09E4F03AE0D460FCF0FC697E80700C3
S214004F8486E807001CB99A4C20460BB0F0BD0DB954
S214004F94984CF9E738220021204628F017FC964959
S214004FA4964A0B78002B40F0D3800120C2E90033E8
S214004FB4C2E90233087042F823402B7D286884F83F
S214004FC431300023206084F832302B7B23718C4BE5
S214004FD4984240F0CA80202384F82330894B23610A
S214004FE44FF4802300266361D5E9072362621680A6
S214004FF45680968084F82C60A3621E805E809E8015
S2140050046B6803A90593EB8984F82D60ADF81C3012
S2140050142B8A84F82F60ADF81A30AB7C8DF80C60C0
S2140050248DF81830EB7C8DF81E3005238DF819307A
S21400503402F02CF814212A7B734B287A03EB4217D0
S214005044C7F8AC15A97A2E3240EA014C03EB42139A
S214005054C3F804C06A7AEB7A42EA034CC7F8BCC5C4
S214005064E17784F820306B7DE07622776377AB7D3A
S214005074042284F82130EB7DA3772B7E84F822303B
S214005084012301F047F80123022294F82010207F20
S21400509401F040F894F83130022B7DD133460122DA
S2140050A494F82110607F01F035F83346042294F812
S2140050B42210A07F01F02EF8012394F82120607FAF
S2140050C41146CDE9003300F0DFFF00F03EFF2E7DF1
S2140050D40746032E71D141F2AC5202212B7B0420E9
S2140050E45B0103F1804303F57033995041F25C028F
S2140050F429688850297EEA7D42EA014241F2B85185
S2140051045A50A97D6A7D42EA014241F2B4515A508E
S2140051144FF0FF3242F248032868C2502B7D032B1F
S2140051240CBF0521042101F06BFF4FF440622B688D
S2140051345A61FEF70BFE002104F10800FEF794FD09
S214005144014600284AD0314C384600F004FF1BE7DD
S214005154002352F8231000293FF42DAF8C423FF46D
S2140051642AAF0133042BF4D10DE7294B984207D11B
S214005174212384F82330274B23614FF4A02331E7FF
S214005184254B98427FF404AF222384F82330234B24
S21400519423614FF4C02325E7032B96D1334694F8B6
S2140051A42110607F012200F0B5FF3346042294F8F4
S2140051B42210A07F00F0AEFF87E7022EA8D194F855
S2140051C421001749FEF734FFFEF724FF0023667616
S2140051D4A37623762046FFF78DFE99E704F10C00AC
S2140051E4FEF742FD04460028AED0ACE728F00200E5
S2140051F4027000F0037000F0002E0020F02D002056
S214005204008005400200040000C003400E7000F059
S21400521400C005400200050000000640020006002B
S2140052240D4A000090F83130032B05D00229417650
S21400523418BF0176FFF75EBE00487047057000F0A1
S21400524413B50446002862D00321FFF7C7FC0021EB
S2140052542046FFF7E7FF0023E17F1A46E07E00F0D2
S21400526459FF002394F820101A46207F00F052FFBE
S21400527494F83130022B39D1002394F821101A46C1
S214005284607F00F047FF002394F822101A46A07FA0
S21400529400F040FF0021012394F82120607FCDE92F
S2140052A40031114600F0F0FE94F8323013B90A22A9
S2140052B423685A6194F83130032B04D0002194F803
S2140052C42100FEF7B5FEA068FEF71AFDE068FEF7BB
S2140052D417FDFEF7F5FC0020636A18805880988056
S2140052E4A36A18805880988002B010BD032BDBD1C7
S2140052F4002394F821101A46607F00F00BFF002369
S21400530494F822101A46A07F00F004FFCCE7014868
S214005314EAE700BF027000F0F0B587B00446164610
S214005324FFF70CFB0546E8B90493104BCDE90116CC
S2140053346A4601A9606A03960593FFF711FC0546C1
S21400534480B994F82C306BB92046FFF7E5FA00993B
S214005354FFF798FB94F83130032B03D025762046CC
S214005364FFF7C8FD284607B0F0BD00BF017000F087
S21400537473B5506A01A91446FFF7F2FA2F4B984208
S21400538430D094F83200019B002839D12268916C01
S21400539411F4007129D02A499860196142F2480331
S2140053A44FF40071D15000F0D0FD01990646CD6847
S2140053B435B14A688B682046D31A0A680969A84733
S2140053C401A9606AFFF7E6FA606A8588ADB2DDB1C6
S2140053D401A9FFF7C5FA01992046FFF753FB3046AB
S2140053E400F0B9FD012002B070BD906CC00507D571
S2140053F41448996018614FF4807142F24803D1E76B
S21400540400221A619A60CEE7012320462376FFF72E
S21400541471FD94F8313084F82C50032BDFD042F21F
S214005424AC52042123795B0103F1804303F5703306
S2140054349950022223685A61D1E700BF0B7000F02E
S2140054440D7000F00C7000F090F8312010B5012AB1
S214005454034610D102290ED0827E8A4201D1002052
S21400546410BD997611B9FFF725FDF8E70129F6D1A5
S214005474FFF708FDF3E70148F2E700BF057000F008
S214005484F0B587B004461646FFF758FA054600BB43
S2140054940493114BCDE901166A4601A9A06A039646
S2140054A40593FFF75DFB054698B994F82D3083B94C
S2140054B400F04BFDA36A06469B889BB233B1009965
S2140054C42046FFF7FDFA012384F83030304600F01A
S2140054D442FD284607B0F0BD017000F070B588B0F4
S2140054E40E22002104A828F071F901230D220021C0
S2140054F468468DF8103028F069F90223244C6A4671
S214005504002120468DF8063001F0DEFC236B4FF6B2
S214005514FF73204EE36100233546ADF8123004A92C
S214005524204601F084FC062000F020FABDF8123074
S2140055340133B0FBF3F09BB2B3F5806F3060ADF887
S214005544123002D2144B9842E9D80E2000F00EFA1C
S2140055541249134CB1FBF0F128680025E1FB004525
S214005564104A00232046294627F04EFF0E4B084AD1
S214005574186000200D4B1870936923F01003936194
S21400558440220B4BC3F880211A6008B070BD00BFE0
S21400559400800440042E002080841E0000B0710B9E
S2140055A420A1070040420F00082E00200C2E0020E9
S2140055B400E100E0F7B500251D4B1E4C19681E4A95
S2140055C4E0FB014500232046294627F01DFF4FF641
S2140055D4E85400254FF6E75E4FF0FF37DFF860C06B
S2140055E4164E8D4208BF844211D380B260B1144A6D
S2140055F4516A89B2536A9BB2ADF80630BDF80630DC
S2140056045B1A9BB29842F5D8002003B0F0BDDCF8D4
S214005614242092B2DCF824309BB2ADF80430BDF8F6
S21400562404309B1A9BB27345F4D980197941D8E7A4
S214005634042E002020A1070040420F001802FFFF9E
S21400564400800440054B5A69D20606D542F214027D
S214005654102199500122024B1A70704700800440B2
S2140056640C2E002038B5124B0546D3F820310C46D4
S21400567403F00703013B032B17D8DFE803F0020A05
S2140056840E1201F03BFE042305B1286004B123701A
S21400569438BD01F01DFE0323F6E701F03BFE0523AB
S2140056A4F2E701F033FE0223EEE700231846EBE7A9
S2140056B40080004037B50C460021114B0191D3F809
S2140056C48031054603F00303022B0ED0032B11D0C2
S2140056D4012B03D101A8FFF7C5FF0D210DB1019BD6
S2140056E42B6004B1217003B030BD01F013FE052118
S2140056F40190F3E701F00AFE02210190EEE700BFF5
S2140057040080004038B5104B0546D3F840310C46AF
S21400571403F00303022B0BD0032B0DD0012B0FD168
S21400572401F03CFE082305B1286004B1237038BD9F
S21400573401F03AFE0723F6E701F033FE0923F2E709
S21400574400231846EFE700BF0080004038B5104B32
S2140057540546D3F860310C4603F00303022B0BD046
S214005764032B0DD0012B0FD101F018FE082305B131
S214005774286004B1237038BD01F016FE0723F6E74F
S21400578401F00FFE0923F2E700231846EFE700BFF7
S2140057940080004038B5134B0546D3F800320C465B
S2140057A403F00703013B032B18D8DFE803F0020AD3
S2140057B40E1201F0F3FD082305B1286004B123702E
S2140057C438BD01F0F1FD0723F6E701F0EAFD0923F1
S2140057D4F2E701F067FD0C23800AEDE70023184684
S2140057E4EAE700BF0080004038B5134B0546D3F8FF
S2140057F408320C4603F00703013B032B18D8DFE8F6
S21400580403F0020A0E1201F0C9FD082305B1286050
S21400581404B1237038BD01F0C7FD0723F6E701F095
S214005824C0FD0923F2E701F03DFD0C23800AEDE7F5
S21400583400231846EAE700BF0080004038B5104B46
S2140058440546D3F840320C4603F00303022B0BD074
S214005854032B0DD0012B0FD101F0A0FD082305B1B9
S214005864286004B1237038BD01F09EFD0723F6E7D7
S21400587401F097FD0923F2E700231846EFE700BF7F
S2140058840080004038B5104B0546D3F800310C466E
S21400589403F00303022B0BD0032B0DD0012B0FD1E7
S2140058A401F016FD032305B1286004B1237038BD4A
S2140058B401F07AFD0723F6E701F026FD0623F2E75A
S2140058C401230020EFE700BF0080004041F671325C
S2140058D40F4B10B5D969DA639A680E4C22F440125D
S2140058E4A04288BF42F480129A600B4A0B4CD2F84E
S2140058F41832A04223F0020388BF43F0020301F4E7
S2140059048031C2F8183211B10022014BDA6310BD9F
S21400591400000340C017530200C0074080F0FA029C
S21400592408B501F0D1FCBDE80840FFF7CFBF000082
S21400593402280CD007D8012814D10B4B186FC0F3DB
S214005944013001307047032807D00E28F4E7064BD1
S214005954D3F89000C0F30460F3E7034B186FC0F36A
S2140059648020EEE70020ECE700800040002307B527
S2140059740193242817D8DFE800F0131A1D262B35C8
S2140059843A3F44494E5358661A3F1616441A262B75
S21400599426351A3F26663A3A3A3A262626494E00CD
S2140059A401F066FC0190019803B05DF804FB01F079
S2140059B479FCF7E701F05CFC02460220FFF7B8FF2B
