S01700005A334C696768745F5A42526F757465722E733337DC
S214000000C01A0020551602008548000089480000E6
S214000010A70B0000000000000000FFFF54000000D7
S21400002004180F00000000000000000000000000A0
S21400003000000000000000000000000000000000BB
S214000040000000000000000000000000A701000003
S20800005000000000A7
S214000054C01A002055160200854800008948000092
S214000064A70A0A010002000004180FACA067A70143
S2140000740000000000000000000000000000000077
S2140000840000000000000000000000000000000067
S2140000940000000000000000FFFFFFFFFFFFFFFF5F
S2140000A4FFFFFFFF006007000000000000000000E4
S2140000B4FFFFFFFFFFFFFFFF8000000000000000BF
S2140000C40000000000000000000000000000000027
S2140000D40000000000000000185100201851002005
S2140000E4C01A002090F603009068030060110020F8
S2100000F42C11002000E0070000000000B7
S214000200C01A0020551602008548000089480000E4
S21400021035A200008D4800009548000051160200E7
S2140002205116020051160200511602005116020025
S214000230994800005116020051160200511602009D
S2140002400C4900000C4900000C4900000C49000055
S2140002500C490000D1640000017200000C49000047
S2140002600C4900000C490000D56200001DE70000A4
S2140002700C4900000C4900000C4900000C49000025
S2140002800C4900000C4900000C4900005116020001
S2140002900C490000315B00000C4900000C490000CE
S2140002A00C490000315C0000095C00000C490000AD
S2140002B00C4900000C4900000C490000C1D901009F
S2140002C04DD9010049D9010089D00100BDD90100EE
S2140002D051D9010071D9010055D90100511602000B
S2140002E005DA01000C4900000C4900006D4B0000C7
S2140002F00C4900000C4900000C4900005116020091
S2140003000C4900000C4900000C4900000C49000094
S2140003100C4900000C4900000C4900000C49000084
S2140003200C4900000C4900000C4900000C49000074
S2080003300C4900006F
S214000334F8B500BFF8BC08BC9E467047F8B500BFC9
S214000344F8BC08BC9E46704710B5054C237833B9F4
S214000354044B13B1044800E000BF0123237010BD12
S2140003643C230020000000000CEE030008B5034BFD
S2140003741BB10349034800E000BF08BD00000000AD
S214000384402300200CEE0300154B002B08BF134B34
S2140003949D46A3F5803A00218B460F461348144A1F
S2140003A4121A36F051FA0F4B002B00D098470E4B1A
S2140003B4002B00D098470020002104000D000D48B3
S2140003C4002802D00C4800E000BF36F0FFF92000F9
S2140003D429000EF0CBFB36F0E5F900BF000008005C
S2140003E4C01A002000000000000000003C2300208B
S2140003F41851002000000000000000000346042BF3
S214000404084609D111B1012903D0704708490120D3
S21400041400E0084912F0F6B8032B07D111B1012900
S21400042402D070470449F2E70449F3E7704700BF77
S21400043490680300A0680300AF680300BF68030069
S21400044408B50120034912F0DDF8BDE8084002486B
S21400045400F006B8CE6803000104000000207047D0
S21400046410B504460349012012F0CCF80CB1024B37
S2140004741C6010BDD868030058230020014B1B687D
S214000484184700BF582300201FB5012300220093FD
S21400049406210DF10F0310F064FE20B99DF80F300D
S2140004A423B104F033FA05B05DF804FB04F02FFA28
S2140004B4F9E7000030B50024144D85B02C700FF019
S2140004C49DFA022817D100900DF10E03224603214F
S2140004D4012010F046FEBDF80E0048B1204604F098
S2140004E417FA4FF47A61284626F0C6F805B030BDF0
S2140004F404F00CFAFAE70BF099FE054B0090054A57
S2140005040549012012F07EF8F0E700BF784000208D
S21400051488850300E4680300E968030008B50FF063
S2140005246DFA02280CD10022064B01201A7008F03E
S214000534EDF8BDE8084002460349012012F062B80F
S21400054408BD00BF7040002048690300912808B524
S21400055404D1002004F0DBF9002008BD9028FBD16C
S214000564002004F0D3F9024826F07AF8F4E700BF36
S2140005747040002013B5044600900D4B0D4A0E49FA
S214000584012012F03FF88CB115F036F8024618B187
S2140005940A49012012F036F800200BF057F8084BF1
S2140005A40090084A0449012012F02CF802B010BD4D
S2140005B40E690300E4680300E96803001769030092
S2140005C48885030043690300002307B5044A0093A3
S2140005D40449054B012012F015F803B05DF804FB3E
S2140005E4FD680300E96803000E690300FFF74CBFCB
S2140005F409B9FFF749BF704738B5C37B05460BB149
S214000604832038BDC47C2CB902F0B6F820B9EB7B45
S214000614002BF5D18120F4E72046F2E7C37B10B522
S21400062404460BB1832010BDC37C012B13D003D327
S214000634402B13D08120F6E7017D82898B1C9A42D9
S21400064418D3806811F02EFB09F06CFEA0B9E37B8A
S214000654002BE7D1EEE709F07DFEF7E7037D8189FD
S2140006649A1C914206D38268591C515CD05C15F0E2
S21400067453FAEBE78020D6E70020D4E7F8B5C37B2F
S21400068404460BB18320F8BDC37C052B29D8DFE8CC
S21400069403F0032A35414C4F057D8289AB1C9A42F0
S2140006A401D28020EFE7ADB22946806811F0FAFA4D
S2140006B40646A06802352844A78911F00BFB284497
S2140006C401308742EDD32946A289A06811F0F0FADA
S2140006D40146304609F01EFB002848D1E37B002B78
S2140006E4D0D18120CFE7017D82898B1C9A42D8D352
S2140006F4806811F0D7FA09F02DFBEDE7037D8189B8
S2140007045A1C9142CDD38268591C1144D05C09F01E
S21400071451FBE1E7017D82898B1C9A42C1D3806834
S21400072411F0C0FA09F0C8FBD6E709F021FCD3E7BC
S214000734057D8289AB1C9A42B3D3ADB22946806844
S21400074411F0B0FA0646A06802352844A78911F0CD
S214000754C1FA284401308742A3D32946A289A06857
S21400076411F0A6FA0146304609F04AFCB4E7002028
S21400077489E7C37B2DE9F7430446002B40F03E810E
S214000784C37C042B00F0B7800BD8012B00F08880C4
S2140007943FD3022B00F09480032B00F0A18081202D
S2140007A43DE0402B00F0DA800FD8052B00F0B38034
S2140007B4062BF4D1017D82898B1C9A422ED3806845
S2140007C411F070FA0DF004F861E0412B00F0058199
S2140007D4422BE4D1037D8289D91D8A421ED39DB261
S2140007E48068691CC65C11F05DFA0746A068EB1CBD
S2140007F4A289291D10F8038011F054FAA36806355F
S2140008045B5D4246009339460346304615F06CFC61
S2140008143DE0057D8289AB1C9A4203D2802003B05A
S214000824BDE8F083ADB22946806811F03BFAA28990
S214000834E91C8A42064605F10203EFD3881C82426D
S214000844ECD3A0680535C75C11F02CFA8046A06886
S214000854B4F80C90284411F03DFA28440130814540
S214000864DCD32946A289A06811F022FA8146A06842
S214000874284411F02FFA01300544A0684B4610FABC
S21400088485F500954246394630460DF0B9FB0028FA
S21400089440F0B680E37B002B14BF83208120BEE7A4
S2140008A4057D8289EB1C9A42B8D3ADB2294680688E
S2140008B411F0F8F9A3680235595D0DF087FCE6E7F8
S2140008C4057D8289EB1C9A42A8D3ADB2294680687E
S2140008D411F0E8F9A3680235595D0CF0A3FED6E7DB
S2140008E4017D82898B1C9A4298D3806811F0DAF9CC
S2140008F40CF006FFCBE7057D8289EB1C9A428DD36C
S214000904ADB22946806811F0CDF9A3680235595D69
S2140009140DF0AAF8BBE7057D8289AB1C9A42FFF46A
S2140009247DAFADB22946806811F0BCF9A289E91CF6
S2140009348A42064605F10203FFF470AFA068C75C5E
S2140009448B1C9A4207D311F0ADF90246394630465D
S2140009540DF062F99BE74FF6FF72F7E7057D828993
S214000964AB1C9A42FFF45AAFADB22946806811F028
S21400097499F9A289E91C8A42064605F10203FFF4A6
S2140009844DAF881C8242FFF449AFA0680535C75CAA
S21400099411F088F98046A068B4F80C90284411F049
S2140009A499F9284401308145FFF438AFA2892946D5
S2140009B4A06811F07DF98146A068284411F08AF9F0
S2140009C401300544A0684B4610FA85F5009542466A
S2140009D43946304615F070FB59E7057D8289EB1CD5
S2140009E49A42FFF41BAFADB22946806811F05AF95B
S2140009F4A3680235595D15F06FFB48E783200EE7C0
S214000A0400200CE7F8B5C37B04460BB18320F8BD81
S214000A14C37C022B21D004D8ABB1012B1AD0812081
S214000A24F5E7412B1CD0422B1DD0402BF7D1037D7C
S214000A3481899A1C91422DD38268591C515CD05CE2
S214000A4415F0B4F901E00BF0B7FD28BBE37B002BEF
S214000A54E5D0DBE70BF0C6FDF7E70BF0D9FDF4E7CE
S214000A6415F0EAF9F1E7037D8289591D8A4211D30C
S214000A749DB28068691CC65C11F014F9A289074609
S214000A84E91CA06811F00EF939460246304615F006
S214000A9413FADAE78020BAE70020B8E7C37BF7B595
S214000AA40446002B40F0D280C37C072B00F2D08093
S214000AB4DFE813F008003800590086009B00AA00FF
S214000AC4B600C900037D8289591C8A42C0F0C280E0
S214000AD49DB2691C881C8242C0F0BC80A068C75CBA
S214000AE411F0E0F8EB1CA6895A1C964228BFA268AF
S214000AF4014624BFD25C2B1D03F1010038BFFF2240
S214000B0486422ABFA068FF23C35C38460AF0E4F98D
S214000B14002840F0A180E37B002B14BF83208120B3
S214000B2403B0F0BD067D8589731C9D42C0F092809B
S214000B34B7B2BA1C954207F10103C0F08B808068F7
S214000B44C15C13460132954224BFC25CFB1C03F110
S214000B54010738BFFF22BD422CBFC35CFF23805D64
S214000B640AF0D7F9D4E7037D8289591C8A4271D3E7
S214000B749DB2A91C8A4205F101076BD3881C8242E8
S214000B8468D3A068C65CC75D11F08CF8291DB4F85C
S214000B940CC04B1C9C4528BFA368024624BF5B5C64
S214000BA4691D01F1010038BFFF23844532BFFF21D0
S214000BB4A068415C3046009139460AF0C2F9A7E7BE
S214000BC4027D8189501C814293B222BFA068013302
S214000BD4805C03F1010238BFFF2091422ABFA2685D
S214000BE4FF21D15C0AF0C9F992E7017D8289CB1C0A
S214000BF49A422FD38068455C013111F053F80146C0
S214000C0428460AF077F983E7037D81899A1C914286
S214000C1420D38268591C515CD05C0AF086F977E7C9
S214000C24037D8289191D8A4214D3806899B2C55CF3
S214000C344B1C0231C65C11F035F831460246284694
S214000C440AF08DF964E70AF0A0F961E7832067E704
S214000C54812065E7802063E7002061E72DE9F04FF7
S214000C64C37B8FB004461BB183200FB0BDE8F08F62
S214000C74C37C0B2B4DD8DFE813F00C005500300175
S214000C844C004C004C0057014C004C004C00C40176
S214000C94D801037D8289581C824234BF4FF0FF0876
S214000CA4A06899B224BF10F80380013118F0070534
S214000CB409D10F1DBA422FD3A06810F0EDFF0646E7
S214000CC4B9B2FF2711E0022D25D101F108039A429B
S214000CD4C0F0DF81A5680D4499B24B1C9A421BD321
S214000CE44FF0FF36A268575C99B2A2890B1D9A4250
S214000CF415D3A06810F0D0FF00903B462A46314634
S214000D04404607F08DFF002840F0C181E37B002BAE
S214000D14AAD18120A9E700254FF0FF36D1E74FF08E
S214000D24FF30E9E7037D82899DB203339A4218D3E4
S214000D342946806810F0B3FF0646033516F0070709
S214000D4412D1A28905F104084245C0F0AD802946B7
S214000D54A06810F0A1FF83461FFA88F54FF0FF0A3B
S214000D6418E04FF0FF36E9E7022F40F09C80A28996
S214000D7405F108039A42C0F08E81A7682F449DB2FD
S214000D846B1C9A42C0F090804FF0FF3BA26812F8AA
S214000D9405A09DB216F0100340F0898016F0600995
S214000DA403D0B9F1600F40F07B81A28905F10803F6
S214000DB49A42C0F07281A168294409919DB2B9F1A2
S214000DC4000F03D0B9F1600F40F06B81AB1C9A4260
S214000DD4C0F06C812946A0680A9310F063FF804631
S214000DE40A9B9DB2B9F1200F02D0B9F1400F62D12F
S214000DF4A289AB1C9A420A935DD32946A06810F0D8
S214000E0451FF81460A9B9DB206F01803082B55D164
S214000E14A2896B1C9A4251D3A268525D9DB20A9273
S214000E2471044ED5A2892B1D9A424AD32946A0683E
S214000E340C9310F031FF0C9B0B909DB216F40043FC
S214000E4444D0A28905F110039A423ED3A2682A44EC
S214000E540C929DB2F2033BD5A289AB1C9A4237D3BF
S214000E642946A0680D9310F01DFF0D9B9DB2B30399
S214000E7431D5A2896B1C9A422DD3A3685B5DCDE95C
S214000E8406030C9BCDF8048005930B9B3A4604930B
S214000E940A9B5946CDE90293099B30460093534674
S214000EA407F0C0FE2FE700274FF0FF3B56E700236E
S214000EB44FF6FF7809934FF6FF79A5E7FF230A93C9
S214000EC4AEE74FF0FF330B93B8E700230C93C1E76C
S214000ED44FF6FF70CBE7FF23D1E7017D8289481CDC
S214000EE4824234BFFF25A0688BB224BF455C013321
S214000EF4A90714D59E1CB24211D31946A06810F057
S214000F04D1FE0146B3B2EA060CD5A0895A1C90421B
S214000F1408D3A268D25C284607F040FEF3E64FF6F4
S214000F24FF71F0E7FF22F6E7037D8289591C8A42A7
S214000F349DB228BF0135806805F102062CBF10F863
S214000F4403804FF0FF08B24234D3294610F0AAFEBD
S214000F548146B5B2A2896B1CA0689A422ABF10F8D3
S214000F6405A04FF0FF0A9DB218F0070625D105F13B
S214000F74040B5A4531D3294610F08EFE07461FFA55
S214000F848BF54FF0FF0BA289691C8A4238BFFF23FA
S214000F94A06832BF0993435D8DB2284428BF0993E5
S214000FA40A9210F097FE0A9A28440130824217D219
S214000FB480205AE64FF6FF79CCE7022E0CD105F1D5
S214000FC408039A4270D346199DB210F805B001354D
S214000FD4ADB24FF0FF37D6E700264FF0FF37D0E725
S214000FE4A2892946A06810F063FE099B0390CDE908
S214000FF401B300963B4652464946404607F0A8FED3
S21400100481E6007DA289031D9A42D1D3A56886B2E3
S214001014F31CB21C711C0436EB5CAA5C695C285C8D
S2140010243544009507F052FF6DE6037D8289591C0E
S2140010348A42BDD380689FB2C65C791C16F01F0531
S21400104404D110F029FE791D002206E0022D1BD1E2
S21400105442184FF0FF3007F1090106F00703022B90
S21400106401BFA3684D1C5B5CA9B206F0180518BF47
S214001074FF23082D12BFFF25A5686D5C0146009569
S214001084304608F011F83EE64FF0FF30DCE700206B
S214001094EBE5002521E6002772E6002309938EE699
S2140010A409934FF6FF789DE600268EE7B9F1200FE8
S2140010B44FF6FF787FF499AEFDE62DE9F043C37B47
S2140010C485B00446002B40F0A582C37C062B00F0B6
S2140010D45B8139D8022B00F0EB8007D8002B00F098
S2140010E48F80012B00F0C58081208FE0042B067DC5
S2140010F4858900F02A8140F20381731C9D42C0F06A
S2140011048480B7B207F1010C0CF101039D427CD335
S214001114FA1C954207F1020377D38068F91CC25C77
S2140011244B1C9D4224BF435C391D01F1010738BFA7
S214001134FF23BD4234BFFF25455C10F80C10805DCC
S214001144009502F04DF88BE00A2B00F0AD813AD8FA
S214001154082B017D828900F07D8140F245818B1C3D
S2140011649A4252D38DB22946806810F09BFDA91C82
S214001174A2898B1C9A42074647D3A06810F092FDBA
S214001184291DA2898B1C9A4280463ED3A06810F083
S21400119489FDA91DA6894B1C9E4228BFA36802464A
S2140011A424BF5B5CE91D01F1010038BFFF238642C2
S2140011B432BFFF21A068415C38B200910FFA88F173
S2140011C402F028F94CE04B2B00F09A814C2B00F0EF
S2140011D4D881472B88D1027D8189501C814293B2E5
S2140011E422BFA0680133805C03F1010238BFFF20F0
S2140011F491422ABFA268FF21D15C02F0ADFA2FE02B
S214001204037D8289591C8A4203D2802005B0BDE83A
S214001214F0839DB2A91C8A4205F10107F5D3881C08
S2140012248242F2D3A068C65CC75D10F03BFD291D60
S214001234B4F80CC04B1C9C4528BFA368024624BFC8
S2140012445B5C691D01F1010038BFFF23844532BF92
S214001254FF21A068415C30460091394601F0B2FE99
S214001264002840F0D981E37B002B14BF8320812023
S214001274CCE7067D8589731C9D42C6D3B7B2BA1CDB
S214001284954207F10103C0D38068C15C134601325E
S214001294954224BFC25CFB1C03F1010738BFFF2242
S2140012A4BD422CBFC35CFF23805D01F0D7FDD7E7AA
S2140012B4077D85897B1C9D42A7D3BEB206F1010C2F
S2140012C40CF101039D42A0D3F21C954206F10203E1
S2140012D49BD38068F11CC25C4B1C9D4224BF435CBC
S2140012E4311D01F1010638BFFF23B54234BFFF2587
S2140012F4455C10F80C10C05D009501F015FFAFE7D3
S214001304731C9D4281D3B7B2791C8B1C9D42FFF49B
S2140013147CAF80682A46865D10F0C4FCFB1CA58959
S2140013245A1C954228BFA268014624BFD25C3B1DC6
S21400133403F1010038BFFF2285422ABFA068FF23BD
S214001344C35C304601F0A6FE8AE7731C9D42FFF498
S2140013545CAFB7B2BA1C954207F10103FFF455AF70
S2140013648068C15C13460132954224BFC25CFB1CF4
S21400137403F1010738BFFF22BD422CBFC35CFF2325
S214001384805D01F0CDFD6BE7037D8289591C8A429E
S214001394FFF43BAF9DB2A91C8A4205F10107FFF496
S2140013A434AF881C8242FFF430AFA068C65CC75DC9
S2140013B410F078FC291DB4F80CC04B1C9C4528BFC3
S2140013C4A368024624BF5B5C691D01F1010038BFB7
S2140013D4FF23844532BFFF21A068415C304600915C
S2140013E4394601F0CDFC3BE78B1C9A42FFF40DAF67
S2140013F48DB22946806810F055FCA91CA2898B1C66
S2140014049A420746FFF401AFA06810F04BFC291D72
S214001414A2898B1C9A428046FFF4F7AEA06810F0AF
S21400142441FCA91DA6894B1C9E4228BFA368024600
S21400143424BF5B5CE91D01F1010038BFFF2386422F
S21400144432BFFF21A068415C38460091414601F056
S2140014541FFF05E78B1C9A42FFF4D7AE8DB22946D0
S214001464806810F01FFCA91CA2898B1C9A420746B0
S214001474FFF4CBAEA06810F015FC2B1DA6895A1CF1
S214001484964228BFA26801B224BFD25C6B1D03F14A
S214001494010038BFFF2286422ABFA068FF23C35C30
S2140014A438B201F049FFDBE6057D8289AB1C9A421F
S2140014B4FFF4ABAEADB22946806810F0F3FBA91C6E
S2140014C4A2898B1C9A420746FFF49FAEA06810F0D0
S2140014D4E9FB2B1DA6895A1C964228BFA268014622
S2140014E424BFD25C6B1D03F1010038BFFF22864285
S2140014F42ABFA068FF23C35C384602F005F8AFE6AF
S214001504037D8289591C8A42FFF47FAE9DB2691C12
S214001514881C8242FFF479AEA068C65C10F0C2FB59
S214001524E91CA2898B1C9A420746FFF46EAEA0689B
S21400153410F0B8FB691DA2898B1C9A428046FFF402
S21400154464AEA06810F0AEFBEA1DB4F80CC0511CE3
S2140015548C4528BFA168034624BF895C05F10802B0
S21400156402F1010038BFFF21844532BFFF22A06884
S214001574825C3046CDE900124246394601F0DEFF71
S2140015846EE6037D8289591C8A42FFF43EAE9DB204
S214001594691C881C8242FFF438AEA068C65C10F052
S2140015A481FBE91CA2898B1C9A420746FFF42DAEE8
S2140015B4A06810F077FB691DA2898B1C9A428046AE
S2140015C4FFF423AEA06810F06DFBE91DA2898B1C06
S2140015D49A428146FFF419AEA06810F063FB05F149
S2140015E40902A389511C8B4229BFA168FF21895C8B
S2140015F405F10A02551CAB4232BFFF22A3689A5C6F
S2140016040090CDE901124B4642463946304601F079
S214001614FBFF25E68320F9E50020F7E5C37B10B53C
S21400162404460BB1832010BDC37C412B03D0422B50
S2140016340FD08120F7E7037D81895A1C914212D38B
S2140016448268D05C14F042FE78B9E37B002BE9D1C3
S214001654EFE7037D81895A1C914204D38268D05CEB
S21400166414F07CFEF0E78020DDE70020DBE738B5E9
S214001674C37B0446002B437D14BF8325C325012B5F
S2140016840FD10368028A598858790EF01BFF40B1BF
S21400169423685B88212B16D12046BDE83840FFF727
S2140016A4DDBA637D7BB92368228A598858790EF09F
S2140016B400FF40B123685B88052B2AD005D8032B8E
S2140016C41DD021D8B3B1284638BD082B26D006D85D
S2140016D4062BF8D12046BDE83840FFF793B9B3F59A
S2140016E4407F20D0B3F5805FEDD12046BDE838407A
S2140016F4FFF794BF2046BDE83840FEF77DBF20467E
S214001704BDE83840FEF78ABF2046BDE83840FEF7FD
S214001714B5BF2046BDE83840FFF72BB82046BDE8E5
S2140017243840FFF7BBB92046BDE83840FFF7C5BCD4
S21400173470470120704701207047012070477047AA
S2140017440020704700207047002070470020704734
S2140017540020704700207047012070470120704722
S214001764B52070470020704700207047002070475F
S214001774002070477047002070470020704770476D
S2140017840020704784207047704770477047704742
S214001794704770477047002070477047704770471F
S2140017A400207047704700F023BD032070470020D8
S2140017B470470000034B1B681878012808BF0220F6
S2140017C4704700BFC438002000207047034601203D
S2140017D4024AC3E9032000221A7070470100FEFF84
S2140017E470477047704700207047002070470020FD
S2140017F470470020704770470020704770470020ED
S2140018047047002070470020704700207047002073
S214001814704700207047002070477047B520704717
S21400182400207047002070477047002070477047BC
S2140018347047B52070477047704770470020704760
S214001844704770470023FF21084A137082F87830E7
S21400185482F8653082F8773082F8793082F87A1028
S21400186482F87B30024A1360704700BF5C23002076
S21400187480400020F8B50D468C680A68064628495C
S214001884202003F0E0FE6B687BB92649202003F095
S214001894DAFE20200CF026FD2349202003F0E8FE83
S2140018A4BDE8F84020200CF01DBD002EF1D01F4DE1
S2140018B41F4E204F013C14F8013F23B91A4920203B
S2140018C403F0D6FEE5E7752B18D0762B18D0772BC9
S2140018D418D0732B18D0722B18D0712B18D0622BFB
S2140018E418D06E2B18D02A2B18D01349134A212B44
S2140018F418BF1146202003F0A6FEDCE72946F9E7C8
S2140019043146F7E73946F5E70D49F3E70D49F1E7C0
S2140019140D49EFE70D49EDE70D49EBE70D49E9E71A
S21400192491BF0300FC690300AD690300BA690300B4
S214001934AE690300C5690300066A0300036A030070
S214001944D1690300DB690300E6690300F16903005B
S214001954FB690300006A0300F0B50026204A92F8EB
S2140019647B30184452FA80F090F865C090F86650C0
S21400197430461C4BA5EB0C051F78EDB2F4B2A5421D
S21400198425D90CEB060313445B7811B10CB92D2B47
S21400199417D0782B1FD0582B05D108B137240AE06E
S2140019A4013C012C14D9602B17D8402BF6D83A2BBF
S2140019B434BF302400241B1BDBB29F4203D900FB38
S2140019C407300136DAE70523002082F87930F0BDC7
S2140019D410270020F5E70028E2D05724EBE700BFE5
S2140019E45C230020581C0020FFF72CBF034B93F801
S2140019F4770093F87B30C01AC0B270475C2300208F
S214001A040021FFF7A9BF000010B50A4B93F87B200E
S214001A14024453FA82F292F8652013445C78A4F1E7
S214001A242D0359425941FFF797FF2D2C08BF40421A
S214001A3410BD00BF5C23002030B50C4A92F87B3002
S214001A440344C043DBB2C00F39B1D51895F86640DD
S214001A5495F86550641B241A0C7042FA83F393F8C5
S214001A6465301844024B184430BD00BF5C23002088
S214001A745D230020F7B515460E460DF107011C46FA
S214001A84FFF7DAFF9DF807300746AB4288BF8DF8AC
S214001A9407501CB19DF807402C1BE4B22246304682
S214001AA4002100F079FB30199DF80720394600F034
S214001AB417FB9DF8070003B0F0BD38B50C460123AC
S214001AC40822FFF7D7FF04F10803621E043413F854
S214001AD4011D12F8015FA3421D701170F7D138BDC5
S214001AE438B5054601460120FFF7C4FED5E9014393
S214001AF46CB91C46084D236863B12946202003F0C0
S214001B04A2FD21460020FFF7B5FE0C34F3E71B7850
S214001B146E2BEFD038BD00BFADC1030008B5044935
S214001B24202003F090FDBDE8084020200CF0DABB2E
S214001B346E69030038B5FFF7F1FF0024054D6119FF
S214001B440C34631953F80C3C03B938BD0020FFF776
S214001B5491FEF4E7B87A03002DE9F84F1F4B204DA9
S214001B6453F820201F49202003F06DFD2B681BB975
S214001B74BDE8F84FFFF7DEBF1B4FFFF7CFFF002689
S214001B84B946DFF86CA097F87B30F4B2013B9C4270
S214001B9404DB2868BDE8F84FFFF7A2BF47FA86F3D0
S214001BA493F8658000234C44C84494F8662094F85F
S214001BB4651003F1010B521ADBB2D2B2934205D37D
S214001BC40A49202003F03FFD0136DCE743445A78F7
S214001BD45146202003F037FD5B46E6E75C1C0020F8
S214001BE480400020696903005C230020AEC1030026
S214001BF430C403002DE9F74F884C94F87730002B57
S214001C0400F0A180864B671C1B7813F0010F1FD0D1
S214001C140025844E14E0631993F8662093F8653023
S214001C242020D21A44FA85F393F86510D2B23944C8
S214001C340CF053FB3146202003F005FD0135EDB2D0
S214001C4494F87730AB42E6D87749202003F0FBFCC3
S214001C54002694F87730DFF8DCE10193734B4FF0FD
S214001C640008714645461EF8012B91F801C007EBA3
S214001C74020AACEB020C5FFA8CFC1868002852D0FF
S214001C840138D14619E02AB9002D4AD04FF0010890
S214001C940C33F2E719F8011BA1F1410BBBF1190F44
S214001CA498BF2031A2F1410B98BFC9B2BBF1190FFE
S214001CB49CBF2032D2B28A42EAD1A9EB0A0161451E
S214001CC410F8012FDFD1002ADED11D46584B01360D
S214001CD41D6094F87B30F6B2013384F87B30D5E986
S214001CE40123002A35D01B786E2B31D03F2B23D00E
S214001CF44FF000094FF0070BC846042394F87710FA
S214001D04AA68B14212F808702BD8AFB1904498F87C
S214001D1401302A2B10D0212F1CBF032384F87930DE
S214001D240AE01D46B4E7B8F1000F01D1002DCDD16D
S214001D340223002584F8793094F87900002869D1C4
S214001D4468680FF07DFC03B0BDE8F04FFFF77ABD7E
S214001D541346019AB24282D803221D4684F879209B
S214001D64EAE7732F09D8712F0BD2212F1FD0622FC9
S214001D743CD0002F4BD1032246E0A7F17502022A7D
S214001D8445D8752F29D0762F2AD0732F2BD0722FB3
S214001D9447F6FF7A18BF4FF0FF3A012148460193F1
S214001DA4FFF7DAFD5045019B01D984F87930AA681B
S214001DB4424452782A2A94F879201CBF08F1010874
S214001DC45FFA88F8002AB7D1212F1FBF013609F120
S214001DD40109F6B25FFA89F990E74FF0FF0ADCE7EB
S214001DE44FF6FF7AD9E74FF07F0AD6E794F87B20C0
S214001DF44A4454FA82F292F8652022445278222AFF
S214001E04D5D07B2AD3D0052284F87920CFE784F86E
S214001E1479B0CCE7FFF7A0FE95E700BF5C2300206F
S214001E24D8230020AEC10300AB690300B87A0300D0
S214001E3480400020C12300202DE9F34106460D46CC
S214001E444FF000085C4C5D4F66B90DF1070128465B
S214001E540CF03EFA78B1262800F0A980012384F815
S214001E6479304BE0002D00F0A28016F8013B013DCE
S214001E748DF80730EDB23A789DF807300D2A3B709E
S214001E8401D10A2BE0D00D2B0CD0A3F10A0251424B
S214001E94514122788846042AD6D8DFE802F0051D88
S214001EA4263C31000121F4E721B1FFF7A3FE4FF0F1
S214001EB40108C9E7202B63D0222B07D10223237005
S214001EC494F87820642A5DD10623C8E77B2B01D1D9
S214001ED40323F4E70123F2E709B9202BF0D194F8A1
S214001EE47730112B3FD10323B9E7222BF7D00029F3
S214001EF4E6D005234FF0010884F8793004232370D4
S214001F04B8F1000FA0D094F8790008B1FFF724FECA
S214001F14FFF798FC98E77D2B94F87A0003D1FF2806
S214001F24DDD005239BE7602B13D8402B13D8392B21
S214001F348CBF002230229A1AD2B20F2A10D8FF2859
S214001F440BD0FF2302EB00128DF8072084F87A30BA
S214001F54B6E75722EFE73722EDE784F87A2073E7EF
S214001F64202BDED170E70133DBB294F8782084F8B6
S214001F747730234483F8652000232370002994D106
S214001F84884661E72378012B09D19DF80730A3F131
S214001F94410119299CBF2033DBB28DF807309DF828
S214001FA40710A3180132597084F878204CE740468D
S214001FB402B0BDE8F08100BF5C230020D9230020D6
S214001FC449BA89B24840C0F303114140080380B2BD
S214001FD44840C3B280EA4310704720F03FBD7047C4
S214001FE47047704770477047704770477047704730
S214001FF470477047704770477047002070477047B7
S214002004704700207047704770470020704770473D
S21400201470470020704770470120704701207047C2
S21400202470477047704770477047704770470000A6
S2140020342DE9F0470024204DDFF89C90DFF89CA0A3
S2140020445FFA84F8404624F0D5F8FF2806460CD1FB
S21400205422461A49287803F00BFB287801340CF042
S21400206441F9142CECD1BDE8F087154B47B213EABE
S214002074270338BF534659F824201249287803F01A
S214002084F7FA002FE9DA14B1B8F1030F08D10E4BB2
S21400209416F0010F0D49287818BF194603F0E8FA20
S2140020A40A2CDAD10A4B16F0010F0A49287818BF11
S2140020B4194603F0DDFAD0E739200020256B03002B
S2140020C4AD6903004D6B0300E86A0300FE6A030073
S2140020D4106B03001A6B0300946A030004C0030029
S2140020E48842F0B54FEA92031AD804460D469BB2CE
S2140020F49E00871904370434BC4205F104053AD11E
S214002104C3EB8333314402EB8303013E304411FABC
S21400211483F3994220D011F8012B00F8012FF8E739
S214002124541E204421440D4604469BB2A0EB83066D
S214002134043E043CB442A5F104050ED16FF003043A
S2140021445C43C3EB833302EB830321449BB2013429
S2140021542044CB1A994209D1F0BD2F792771EF7824
S214002164E770AF78A7706F786770E2E711F8012917
S21400217400F8012DEEE715F804CC04F804CC15F8A5
S21400218403CC04F803CC15F802CC04F802CC15F8FA
S21400219401CC04F801CCAEE70244904200D170476B
S2140021A400F8011BF9E710B5013801390AB91046E1
S2140021B406E010F8014F11F8013F9C4201D0E01AE6
S2140021C410BD013A92B2F1E782B2074B4AB1000C55
S2140021D41A8008BF4FF6CE22044B14BF18801A800C
S2140021E470474BF6EF62F2E73C1D00203E1D0020D0
S2140021F4094B1888020448BF80F0620042001A8027
S214002204064A1388190444BF83F4805383F00B03EF
S21400221459001180584070473C1D00203E1D002088
S2140022240022034B1870034B1970034B1A70704747
S214002234E6230020E5230020E72300202DE9F04FC5
S214002244234E85B0337807468846002B3DD04FF69C
S214002254FB73204D98422C7803D952211E4801F076
S21400226401FF1E4B4FF0000B9A4632785FFA8BF94B
S2140022744A45187811D9484402A9C0B201932CF0F3
S21400228427FE082241460DEB0200FFF78CFF0BF1F8
S214002294010B019B0028E8D14C462B78A34207D1BA
S2140022A4631C3278DBB29A422B7004BF00232B7077
S2140022B49AF8003041461C44E4B220462CF030FF25
S2140022C418B9394620462CF0D1FD05B0BDE8F08F8C
S2140022D4E5230020E7230020426C0300E6230020C9
S2140022E4024B187800F07F00704700BFE8230020F8
S2140022F4034B18780130C0B2187000F07F007047A6
S214002304E82300201FB5030A8DF80E30032300933C
S21400231403AB8DF80D0000F0BFF905B05DF804FBC3
S2140023241FB58DF80F100421030A8DF80E300091A6
S21400233403AB8DF80D0000F0AFF905B05DF804FBB3
S2140023442DE9F043994689B0BDF840509DF84460A5
S214002354074688460DF1090011460822BDF84C4090
S214002364FFF7BEFE8DF81250012E4FEA15258DF8A4
S21400237411908DF813508DF8146017D0032E1CD1CD
S214002384082212990DF11500FFF7AAFE9DF85030A9
S2140023948DF81D3016230093BDF8542002AB414639
S2140023A4384600F079F909B0BDE8F0838DF8154099
S2140023B4240A8DF816400F23EDE70120F3E71FB536
S2140023C40C46194602238DF80D2000930A4603ABEB
S2140023D40146204600F060F904B010BD70B586B022
S2140023E4044616460DF10D0008221D46FFF778FE3A
S2140023F40A232A460093342103AB20468DF8156041
S21400240400F04AF906B070BD30B5002485B0ADF8CA
S2140024140A20021D92B2012A1D46ADF80840ADF806
S2140024240610ADF8044003D94FF6FF72904207D168
S214002434064A2B46127801A92AF08CFE05B030BD58
S214002444014601AA20462AF04BFFF7E7401D00206C
S2140024542DE9F74F9846FF2A16BF474B00241B6802
S2140024640E4618BF9C5C814618BF6408B8F1FF0F7F
S21400247416BF414B00271B6815461CBF13F808708F
S2140024847F08FFF735FF4FEA19238DF800008DF813
S21400249403600621360A68468DF804608DF80190BC
S2140024A48DF802308DF8054024F05CFCFF280646C3
S2140024B404D11824204603B0BDE8F08F4FEA440B3D
S2140024C40BF1070A0AEB4701C9B224F0FFFB002808
S2140024D4EFD10446A3451BD10BF106013A4601F0A1
S2140024E4FE0130465FFA8AF424F0B7FC4FF0000A87
S2140024F45FFA8AF5AF4223D83346BDF8302006216A
S2140025044846FFF781FF0446304624F0CDFAD1E76B
S2140025142146284624F09CFCA11D0246C9B230463A
S21400252424F09BFC611CC9B2284624F091FCE11DF2
S2140025340246C9B23046023424F08FFCE4B2C9E73E
S2140025446D00EDB22946404624F082FC2146024640
S214002554304624F082FC691CC9B2404624F078FC5C
S214002564611C0246C9B23046023424F076FC0AF1F5
S214002574010AE4B2BCE700BFD81C00202DE9F041F4
S21400258488B00F4602A906460DF006FB00287CD04C
S214002594FFF7AEFE8DF8100024F000F88DF8110059
S2140025A423F0FCFF000A8DF81200082239490DF1C9
S2140025B41300FFF795FDBDF808300F218DF81C3089
S2140025C41B0A8DF81D309DF80D3004A88DF81B608D
S2140025D48DF81E3024F0C6FBFF28044657D04FF073
S2140025E400089DF80D305FFA88F2934208F101085E
S2140025F41DD801220DF10E01204624F0F5FB4FF004
S21400260400089DF80E305FFA88F2934208F101083C
S21400261424D823463A4620210020FFF7F5FE054637
S214002624204624F041FA284608B0BDE8F08100218F
S21400263430460DF0DDFA05468DF807000DF107016A
S2140026440122204624F0D0FB2D0A01220DF10701B9
S21400265420468DF8075024F0C7FBC2E70121304618
S2140026640DF0C6FA05468DF807000DF107010122A4
S214002674204624F0B9FB2D0A01220DF1070120465D
S2140026848DF8075024F0B0FBBBE7A325CBE718254D
S214002694C9E700BFE54F0020F8B51C460E461746AE
S2140026A40546FFF725FE9DF818102070204624F0F6
S2140026B459FBFF2804460BD003463A4628463146C3
S2140026C4FFF7A2FE0546204624F0EEF92846F8BD9C
S2140026D41825FBE708B5FDF7B3FE11F021F8BDE8B1
S2140026E4084009F0A9B808B5FFF749F811F046F80C
S2140026F4BDE8084007F0A0BD7047FDF7AFBEFFF782
S21400270486B830B4BDF80840BDF80C50CDE9024593
S21400271430BC06F093BD38B504460D46FFF790F876
S2140027242946204609F0A4F829462046BDE8384044
S2140027340CF058BAFFF76DB8FFF777B801220021FE
S214002744092011F0F5BC002307B5CDE900330123B9
S21400275469464FF0FF308DF8023016F08FF80030DF
S21400276418BF012003B05DF804FB01207047012068
S214002774704701207047000010B5084C23681B689A
S21400278458790EF07CF923681B685879FEF7FDFF2C
S214002794002011F087F9012010BD00BFDC4D002099
S2140027A42DE9F84F80460D4614469946164E06F116
S2140027B4010A0DB9BDE8F88F102D4FF00D024946F9
S2140027C450462F4628BF1027FFF78AFC0123337094
S2140027D400230D48F473B3732CF03AFD42460134DB
S2140027E40A495FFA87FBE4B212F8013B11F8010FBD
S2140027F4434002F8013CA2EB0803DBB25B45F3D38B
S214002804ED1BADB29046D4E7ED230020EC23002068
S2140028142DE9F04F4FF00209364D85B003930F9B18
S214002824174601900D220E460146681CBDF83880F6
S2140028340293FFF755FC49234C46AA462B702846BC
S2140028444FEA1823AB7385F80F802CF001FD2B7824
S21400285483EA17232B706B787B406B704FF0000B6A
S21400286421E0C4F1100CA7EB0B031FFA8CFC9BB2FF
S214002874634528BF63463046A11B00EB010C5FFA94
S2140028848CF2A0EB060C1FFA8CFC9C451BD31C4454
S214002894E4B29B44102C1E441FFA8BFB03D128463B
S2140028A42CF0D6FC0024BB45DBD314B150462CF0E8
S2140028B4CFFCB9F1010F4FF00004039E47460BD03E
S2140028C44FF00109CAE710F801CB1AF802E08CEAC7
S2140028D40E0C0AF802C0D0E7029804220549FFF756
S2140028E4FFFB22460421019B029805B0BDE8F04F89
S2140028F4FFF756BFED230020F7B5099FBDF820402B
S2140029040646CDE900471D46FFF782FF2CB1334645
S214002914012221462846FFF743FF002003B0F0BDFE
S2140029242DE9F7431E46054688469146BDF82870AD
S2140029340D4C0346394630460122FFF731FF334635
S2140029444A4641462846CDE90074FFF761FF042253
S21400295421460B98FFF727FC002814BF7E20002092
S21400296403B0BDE8F08300BFE92300202DE9F3415E
S2140029740C4615461E468046084F9918214438468C
S2140029840422FFF7ADFBCDE9006763192A4621460A
S2140029944046FFF7C5FF02B0BDE8F081FD230020E6
S2140029A40020704700207047704770470023034A92
S2140029B41370034A1370034A13707047BC40002018
S2140029C4B4400020C44000201FB5022344F20B028A
S2140029D400934FF440710DF10E030EF0C2FB10B1DC
S2140029E40023ADF80E30BDF80E0005B05DF804FB0C
S2140029F41FB5022344F20C0200934FF440710DF10C
S214002A040E030EF0AEFB18B14FF6FF63ADF80E30B2
S214002A14BDF80E0005B05DF804FB81B143888088DC
S214002A2483429EBF1A46034610461B1A0A20584382
S214002A34B0FBF1F0B0F5803F01D280B270474FF69C
S214002A44FF7070471FB50123002200934FF44071B6
S214002A540DF10F030EF085FB20B140F2323104482D
S214002A6401F000FB9DF80F0005B05DF804FB00BF05
S214002A74F68503001FB50123082200934FF4407126
S214002A840DF10F030EF06DFB18B19121034801F010
S214002A94E9FA9DF80F0005B05DF804FBF68503001F
S214002AA4F0B585B00F460546FFF7E4FFB842044686
S214002AB438D0202304AE06F8017D44F201020093C8
S214002AC44FF44071334628460EF0FAFA20B14FF41C
S214002AD48171174801F0C6FA2023082200934FF4A8
S214002AE44071334628460EF0EBFA20B140F2091145
S214002AF40F4801F0B7FA04EB0710C0B2102813D041
S214002B0407D801280BD002280CD12846FEF73FFE32
S214002B1408E0202808D0212801D01228F4E7284607
S214002B24FEF736FE05B0F0BD2846FEF72FFEF9E7A1
S214002B34F68503001FB501220DF10F0300924FF432
S214002B4440710EF00EFB20B14FF45071034801F0B3
S214002B5489FA9DF80F0005B05DF804FBF6850300BE
S214002B6470B50026074C0546A680FFF76BFF257256
S214002B746070054C2846E680FFF7DCFFA57360808E
S214002B8470BD00BF022400200E2400201FB50223BF
S214002B94032200934FF440710DF10E030EF0E1FA98
S214002BA420B140F21B41044801F05CFABDF80E0067
S214002BB405B05DF804FB00BFF68503001FB50223CD
S214002BC4042200934FF440710DF10E030EF0C9FA7F
S214002BD420B140F22941044801F044FABDF80E0041
S214002BE405B05DF804FB00BFF68503001FB502239D
S214002BF4072200934FF440710DF10E030EF0B1FA64
S214002C0418B19F21034801F02DFABDF80E0005B057
S214002C145DF804FBF68503002DE9F8439146054666
S214002C240C46FFF7D1FE07462846FFF7E1FEB9F14A
S214002C34000F064608BF4FF00109FFF7B7FE022152
S214002C442846FFF72DFFBC4238BF3C46A4B2B44228
S214002C54284628BF3446FFF7C9FFDFF83C80A4B2F5
S214002C64A8F800002846FFF7C1FFA8F80440A8F813
S214002C740200A8F80690A8F8089088F80E50A8F85D
S214002C840A70A8F80C606421BDE8F843014823F0F4
S214002C94F3BC00BFBC4000201E240020F0B50E4646
S214002CA485B00621074615460DF015FC012304469B
S214002CB448B300930F220DF10E034FF440713846CB
S214002CC40EF04FFA10B100238DF80E3001230022C7
S214002CD4009306210DF10F0338460EF042FA50B960
S214002CE49DF80F403CB9FF2E08D1FF2D06D19DF864
S214002CF40E4004F00104204605B0F0BDF307F6D5F7
S214002D0405F00104F7E71C46F5E700001FB521228D
S214002D1404AB23F8021D00924FF4407102220EF019
S214002D24CFF918B1F821034801F09CF905B05DF815
S214002D3404FB00BFF685030010B50446C088E8B15E
S214002D44013881B2E180A07BFFF7E0FFA2886388A8
S214002D54E08893420FD0238821899A428BBFD31AE6
S214002D649B1A434343438BBFB3FBF1F3B3FBF1F32B
S214002D74D31A9B186380B0FA80F0400910BD000097
S214002D842DE9F8431E46314B15461B6880461B68E2
S214002D940F465C792046FFF755FE002D08BF012537
S214002DA4B8F1FF0F814601D0FF2F05D1802010F027
S214002DB479FE0120BDE8F8839DF8202031462046A0
S214002DC4FFF76CFF0028F2D0C14538D2A8EB0906FD
S214002DD47E2ECCBF00260126FFF7E8FD0021204604
S214002DE4FFF75EFE2046FFF7BBFE194B204683F82E
S214002DF402804FF000085E7283F8009083F801901A
S214002E049D80DD801C7283F80A80FFF793FE114EC6
S214002E1430802046FFF78EFEFE237080294620462B
S214002E24B381B780F5803581B473A6F80A80FFF7BE
S214002E346DFF0948642123F01FFC4046B7E7A9EB61
S214002E4408067F2ED4BF00260126C5E7DC4D0020E9
S214002E54022400200E240020C4400020F8B50D46AD
S214002E6411462B4A07461268126856791A463046A7
S214002E74FFF714FF20B9002010F014FE0120F8BD5F
S214002E84FFF794FD002FF6D000213046FFF708FE2A
S214002E943046FFF765FE3046FFF7D4FD1D4C207024
S214002EA43046FFF7CFFD012F607020D13046FFF784
S214002EB4C9FD012315FA80F080B2FE2884BFFE38CF
S214002EC480B2A07063720A23A380E3800123267273
S214002ED4A37200244FF6FF713046FFF717FF0E4B20
S214002EE40E486421DC8023F0C7FB2046C4E7032F8A
S214002EF40BD13046FFF7A6FD83B2A8423CBFFE3393
S214002F049BB25D1BA5700023DCE78020B4E700BFFE
S214002F14DC4D0020022400200E240020C4400020A3
S214002F242DE9F0410E461146224A80461268126880
S214002F3455791A462846FFF7B1FE28B9002010F046
S214002F44B1FD0120BDE8F081FFF730FDB8F1000FB8
S214002F54F4D0002EF2D0002700212846FFF7A0FD6B
S214002F642846FFF7FDFD144B28469F80FFF7E2FD39
S214002F74124C20802846FFF7DDFDB8F1010F08BF8C
S214002F84FE23314660800D480CBFA380A780FFF760
S214002F9444FD0026FE230146E08020812846A381C6
S214002FA4A5736681FFF7B2FE0548642123F064FB2F
S214002FB43046C4E7DC4D0020022400200E24002006
S214002FC4C44000202DE9F04117462E4A8046126878
S214002FD40C461268194655799DF818202846FFF7BE
S214002FE45DFE20B910F05EFD0120BDE8F0812846A4
S214002FF4FFF728FD002F08BF0127B8F1FF0F01D106
S2140030048020EFE7032CFBD8DFE804F0023239090E
S214003014A0EB080010F0800F0CBF03240124FFF778
S214003024C5FC00212846FFF73BFD2846FFF798FD20
S2140030342846FFF707FD144E30702846FFF702FDBA
S214003044631E5C425C4174720024104B70703946F7
S2140030542846DC8086F80280B780F7803572B47222
S214003064FFF754FE0A48642123F006FB2046B9E71E
S214003074A0EB080010F0800F18BF0324CFE701244C
S214003084CDE700BFDC4D0020022400200E240020E3
S214003094C44000202DE9F0410E4611461E4A8046E3
S2140030A41268126855791A462846FFF7F7FD20B9C4
S2140030B410F0F8FC0120BDE8F081002E08BF0126C0
S2140030C4B8F1FF0F01D18020F2E70027FFF76EFC6E
S2140030D400212846FFF7E4FC2846FFF741FD0F4B86
S2140030E428469F80FFF726FD0D4C20802846FFF7D4
S2140030F421FDFE23608031462846A381A4F804807F
S214003104E6802681A5736781FFF700FE05486421E3
S21400311423F0B2FA3846CBE7DC4D00200224002028
S2140031240E240020C44000202DE9F0411446284A0D
S214003134804612680F461268194655799DF818207D
S2140031442846FFF7ABFD28B9002010F0ABFC0120A1
S214003154BDE8F0812846FFF775FC002C08BF012463
S2140031640646FFF723FCB8F1000FEDD000212846F1
S214003174FFF796FC2846FFF7F3FC164AB8F1010F52
S21400318416705670B3B2B9B219D10B449BB2FE2B6B
S21400319484BFFE3B9BB293700123A1B200245372FA
S2140031A40D4B28469180D18015729472DC80FFF70F
S2140031B4ADFD0A48642123F05FFA2046C5E7BE4207
S2140031C43CBFFE339BB25B1A93700023E5E700BF57
S2140031D4DC4D0020022400200E240020C4400020E1
S2140031E42DE9F0411446264A804612680F461268B6
S2140031F4194655799DF818202846FFF74FFD28B93B
S214003204002010F04FFC0120BDE8F0812846FFF7AF
S21400321491FC002C08BF01240646FFF7C7FBB8F153
S214003224000FEDD000212846FFF73AFC2846FFF7AA
S21400323497FC0020134BB2B29880134BB8F1010FE1
S2140032441A805A8016D13A4492B2FE2A28BFFE2229
S214003254A1B29A800024FE222846D98019819D7343
S2140032645C819A81FFF752FD0848642123F004FA32
S2140032742046C6E7BE4226BFF21BD2B20246E7E7A6
S214003284DC4D0020022400200E240020C440002030
S2140032942DE9F8431546244A0746126889461268FB
S2140032A4194654799DF820202046FFF7F7FC20B9EC
S2140032B410F0F8FB0120BDE8F883002D08BF0125B7
S2140032C4FFF774FB01212046FFF7EAFB2046FFF7D1
S2140032D45DFC164E4FF6FF6830802046FFF756FC1E
S2140032E4B780002770802046F5803581B4737781D7
S2140032F4A6F80C80FFF762FC0D4E30802046FFF7E0
S2140033045DFC294670802046A6F80490F580358139
S214003314B4737781A6F80C80FFF7F8FC054864219F
S21400332423F0AAF93846C3E7DC4D00202E240020FB
S2140033343E240020B44000202DE9F8430E461146F2
S214003344304A07461268126855791A462846FFF727
S214003354A5FC28B9002010F0A5FB0120BDE8F883E1
S214003364FFF724FB0FB9002EF4D001212846FFF7FF
S21400337497FB2846FFF70AFC002FCCBF4FF6FF63E7
S2140033840023214CB9B2DCBF494289B22080608058
S2140033941D48CCBFA380A380FFF73FFB4FF0000877
S2140033A44FF6FF690746E08020812846A573A4F8F7
S2140033B40A80A4F80C90FFF701FC144C4645B1B201
S2140033C4DCBF494289B2208060801048CCBFA4F894
S2140033D40490A4F80480FFF720FB002363814FF6D3
S2140033E4FF6387420146E080208138BF394628467D
S2140033F4A573A381FFF78AFC6421054823F03CF9F2
S214003404A8E700BFDC4D00202E2400203E24002028
S214003414B44000202DE9F0471746374A064612689E
S2140034240D461268194654799DF820202046FFF769
S21400343435FC20B910F036FB0120BDE8F0872046A5
S214003444FFF7A4FB86194CD4B6F57F4F4BDAB6B219
S2140034542046FFF7B3FB451948D4B5F57F4F47DA46
S214003464ADB2002F08BF0127FFF7A0FA01212046BE
S214003474FFF716FB2046FFF789FBDFF888804FF03E
S2140034840009A8F800002046FFF780FB4FF6FF6A05
S214003494A8F802002046A8F80460A8F80670A8F861
S2140034A4087088F80E40A8F80A90A8F80CA0FFF751
S2140034B485FB124E30802046FFF780FB394670802D
S2140034C42046B580F7803781B473A6F80A90A6F82C
S2140034D40CA0FFF71BFC0A48642123F0CDF84846ED
S2140034E4A8E70026B4E74FF6FF66B1E70025B8E77D
S2140034F44FF6FF65B5E700BFDC4D00203E240020F4
S214003504B44000202E24002070B50E4611460A4A08
S21400351405461268126854791A462046FFF7BEFB21
S21400352418B910F0BFFA012070BD2046324629466D
S214003534FFF772FB0020F4E7DC4D00202DE9F84F7E
S2140035441E462E4B83461B6889461B6817465D79C4
S2140035549DF82C209DF828102846FFF79FFB08B9F5
S214003564002010E02846FFF72FFA80462846FFF78B
S2140035743FFA8246FFF71AFABBF1000FF0D0B9F112
S214003584000F05D1852010F08DFA0120BDE8F88FD4
S214003594474538BF4746864228BF06460221284686
S2140035A4FFF77EFA2846FFF721FB154CBFB22080B2
S2140035B42846FFF71BFBBBF1010FB6B2608016D19D
S2140035C4B24528BFB246A4F804A049460C48FFF703
S2140035D424FA0146E08020812846A5736781A681E7
S2140035E4FFF794FB6421074823F046F8B8E7B8458C
S2140035F438BFB846A4F80480E7E700BFDC4D0020D7
S2140036041E240020BC4000202DE9F0471C462C4B0D
S21400361482461B680F461B6816465D799DF828206F
S2140036249DF824102846FFF739FB28B9002010F02F
S21400363439FA0120BDE8F0872846FFF7C5F9814628
S2140036442846FFF7D5F9002E08BF0126FFF7AEF986
S214003654BAF1000FEAD0BDF82080A14538BFA146D4
S214003664404528BF404602211FFA80F82846FFF747
S21400367417FA2846FFF7BAFA124C1FFA89F920807F
S2140036842846FFF7B3FABAF1010F6080284613D133
S214003694FFF7ACFA3844A08031462846E6802681F7
S2140036A4A573A4F80A90A4F80C80FFF72FFB6421F6
S2140036B4054822F0E1FFB9E7FFF798FAC01BEAE7EE
S2140036C4DC4D00201E240020BC4000207FB54FF4B3
S2140036D4407104460CF0FFFE00283BD02046FFF75E
S2140036E4C9F9022836D100900DF10E0344F20D02FA
S2140036F44FF4407120460DF034FD20B12046FFF70C
S21400370463F9ADF80E002046BDF80E60FFF770F9B9
S21400371401230546009300220DF10E0308212046DE
S2140037240DF01FFD10B17F238DF80E309DF80E307E
S214003734012B0AD9FD2B9FBFA91B5943FE23B1FBBE
S214003744F3F18EBF3546691A8DB20022294620460B
S214003754FFF762FA04B070BD08B5084B0A461B684A
S21400376401461B685879FFF799FA08B1FFF71EF966
S214003774002010F097F9012008BD00BFDC4D0020A2
S2140037847FB5524CA188257A002933D100265048AB
S214003794FFF7D2FA16B9002800F09380FFF706F96F
S2140037A4627804AB03F8012D2022207A00924FF4AD
S2140037B4407100220DF084FC20B140F213114548FC
S2140037C400F050FC424B4FF440715A88987B04AB8F
S2140037D403F8022D2022009201220DF071FC20B184
S2140037E440F21D113B4800F03DFC2846FDF7CEFF95
S2140037F404B070BD0139A37A89B2A18013B92846F2
S214003804FFF784FAA0786378834219D02378617A24
S2140038149AB286B2002930D098422CBF314606F1BF
S214003824FE018A1AA188D2B24A43E388B2FBF3F2B5
S214003834D2B290423CBF06F1FE039EB2B21A627048
S214003844A388002BA2D1A37A002B38D02278667ADC
S21400385493B281B22EB390422CBF0A4601F1FE0207
S214003864D31A51FA83F39BB2FE2B84BFFE3B9BB262
S2140038742070A3700A23A38088E7984284BFFE3290
S21400388492B2931BA288DBB25343E288B3FBF2F3F3
S21400389456FA83F39BB2FE2B84BFFE3B9BB2637047
S2140038A4CEE7904284BFFE339BB25B1ADAB29042F4
S2140038B43CBF01F1FE0399B220708B1AD9E70126AA
S2140038C465E76421044822F0D7FE69E70224002055
S2140038D40E240020F6850300C44000207FB51E4C4D
S2140038E42046A57BFFF728FA06461C48FFF724FA6D
S2140038F406B958B3FFF75AF8628804AB23F8022DCA
S2140039042122A07B00924FF4407103220DF0D8FBD5
S21400391420B140F22711124800F0A4FB0F4BA07B05
S2140039245A8804AB23F8042D21224FF440710092E8
S21400393404220DF0C5FB20B140F23111084800F016
S21400394491FB2846FDF724FF04B070BD64210548AA
S21400395422F092FED0E700BF2E2400203E24002052
S214003964F6850300B440002030B5124C85B02046DE
S214003974A57BFFF7E1F9C0B1FFF718F8628804AB3E
S21400398423F8022D2122A07B00924FF440710722D7
S2140039940DF096FB20B140F23B11074800F062FBA5
S2140039A42846FDF7F4FE05B030BD6421034822F036
S2140039B463FEE3E71E240020F6850300BC400020D7
S2140039C44FF6FF72F0B587B006AB23F8042D022637
S2140039D400220093CDE90162402344F210024FF422
S2140039E4407104460DF0AFFB002842D14FF6FF634A
S2140039F406AD25F8023D0095CDE901604023072277
S214003A044FF4407120460DF09EFB90BB2046FEF717
S214003A14DBFF07462046FEF7EBFFBDF81430BB423B
S214003A2427D3834225D8ADF8163021230722CDE9C3
S214003A3400534FF44071402320460DF021FBC0B9DB
S214003A44302706AD05F8056D402308224FF4407173
S214003A54CDE9005720460DF013FBCDE9005740236F
S214003A6444F201024FF4407120468DF813600DF0C5
S214003A7407FB07B0F0BD0000F7B50024094E0A4F57
S214003A840A4D56F8243003B93B6835F81420084923
S214003A9400920120224601340EF0B4FD292CF0D108
S214003AA403B0F0BD441D0020EC1D00204041002062
S214003AB4A286030008B5FFF7DFFFBDE8084000F064
S214003AC4F1B8000007B50020FDF79AFFC2B2282A15
S214003AD40DD8084B53F822300BB9074B1B6807491F
S214003AE4012031F81210009105490EF08BFD03B049
S214003AF45DF804FB441D0020EC1D0020404100201E
S214003B04A2860300FFF7B8BF7047000038B5002050
S214003B14FDF776FF04460120FDF772FF05460549CA
S214003B2401200EF06FFDA9B2E0B2BDE8384000F007
S214003B34D1B800BFAD860300F7B50024094E0A4F7E
S214003B440A4D56F8243003B93B6835F81420084962
S214003B5400920120224601340EF054FD292CF0D1A7
S214003B6403B0F0BD441D0020EC1D0020EE400020F4
S214003B74A286030073B502AB03E906000446019D62
S214003B8422F028FA0646204622F032FA9DF8000073
S214003B948EB1202C0FD82B78012B37D84FF6FF7513
S214003BA4394903EB4313234431F81320AA4202D0C5
S214003BB4013221F813204FF6FF72344B344933F8A0
S214003BC4146031F8145096421CBF721C23F814205B
S214003BD404F0FD02092A31D19A8A898A02448A426B
S214003BE4B4BF9A82998233F81430AB4204D3AE42FF
S214003BF402D22046FDF7CDFD0025264BEA5CA24204
S214003C0428D00135112DF9D102B070BD022BD2D1C6
S214003C144FF6FF714FF6FF751B4B33F814208A429C
S214003C241CBF013223F8142004F1210233F81210C9
S214003C34A9421CBF013123F81210BCE71D2CD2D1B7
S214003C445A8F1118A942BDBF02F1FF3212185A87C3
S214003C545D87C8E71EF087F90F4B04461B7883423E
S214003C6403D8DD210D4800F0FDF94FF6FF710C4A2C
S214003C7404EB04142C4432F814308B42C4D00133C1
S214003C8422F81430C0E700BF9241002040410020D3
S214003C94EE4000202D8A0300211D00209589030094
S214003CA4CC400020522200210148FEF775BA00BF1E
S214003CB4404100205222FF210148FEF76DBA00BFA2
S214003CC4EE40002008B5FFF7EDFFBDE80840FFF71B
S214003CD4F1BF0000014B23F810107047EE4000209F
S214003CE4032310B50F4C4FF48062C4E904330E4B23
S214003CF40E49E3610023A16121660D49E01DC4E974
S214003D0419120C49A3626362E3622367E36663677E
S214003D14226232F0A1FD0849204632F09DFD2023A0
S214003D24A37110BD184200204E2800203E8A0300CE
S214003D344E240020478A03004B8A03002DE9F84FDF
S214003D441F4B16461A7881468A4698460AB9FFF7E4
S214003D54C7FF182707FB09873D6FD7F86CB05D458A
S214003D642BD9BC6E796E641BB44228BF34462944F2
S214003D745046224632F05DFDBB6E2544AB4208BF7A
S214003D840025A244361BABEB050B5E4528BF5E46FA
S214003D9456B1182303FB0983596E3246294450460C
S214003DA432F047FD3444354424B1182303FB098814
S214003DB4C8F870502046BDE8F88F0024E3E700BF3B
S214003DC41842002010B50B46EFF311844FF0200183
S214003DD481F311881946FFF7B1FF84F3118810BDEB
S214003DE42DE9F84F144D9B462B788146884692461B
S214003DF40BB9FFF775FFEFF3118C4FF0200181F339
S214003E041188002018236F6903FB0054666E2EB1D8
S214003E1401308742F8DC4FF0FF3009E08742FADDD4
S214003E24C4E91898C4F868A02667E666C4F874B0AF
S214003E348CF31188BDE8F88F18420020FFF750BFB6
S214003E4470B54FF060441A4B00261A68194D42F0BC
S214003E5401021A60DA680C2042F08072DA60164BAF
S214003E64C4F8B03F0223C4F8006EC4F8806EC5F8E8
S214003E74F03003F057FB114B00F5D52000F2FC4060
S214003E84B0FBF3F00E4A0F4B01382861C4F8406EBD
S214003E941A600D4BC4F8803E4FF48073C5F80433A3
S214003EA4D4F8003E43F48073C4F8003E70BD00BFEF
S214003EB4F0ED00E0000004E055CEACC5F8590D0066
S214003EC4FF030040001000E00D00010010B50124BF
S214003ED40E4B00201C6003F0B1FE2346042203218F
S214003EE4002003F0F3FE204614F0D8F9FFF7A8FFED
S214003EF414F0D5F9FFF7A2FF2346402204490548EB
S214003F04FFF76EFF044B1860C00F10BD44D4034087
S214003F144E2C0020528A0300F01D0020024B186825
S214003F24003018BF01207047F0ED00E0D123054AA9
S214003F34037013784170090A8170591CC37011709C
S214003F44042070478E2C00202DE9F74F354E074687
S214003F5433681C5C032C63D9DFF8CC801DF030FC7E
S214003F644FF6FF7A0025C1460534E4B20190D8F82E
S214003F7400204AB1AC4207D91DF022FC019BC01AAE
S214003F8480B2B0F5FA7F05D9601B18BF012003B0D4
S214003F94BDE8F08F002D3DD0012D1DD14FF0020B52
S214003FA43268D55D4FF06042D2F8801ECB0711D53B
S214003FB41146D9F80C0040F08070C9F80C00D1F80E
S214003FC4000E40F48070C1F8000E086A0028F0D095
S214003FD482F820505D46CAE7E21E05F1010B9542C1
S214003FE45FFA8BFB02D15FFA8AF5DBE7A21E9542E5
S214003FF402D1CAF30725D5E7621E95420ED0A91E44
S214004004C9B2384622F024FF51460546FDF7D8FFCC
S2140040148246C7E75B254FF0010BC3E75D25C1E782
S2140040240120B4E7D81C0020F0ED00E010B50B4BDF
S21400403490B0402269461868FFF7C4FE58B1C1B272
S214004044684622F08FFE04460146122012F0E4FA77
S214004054204622F029FD10B010BD00BFF01D002040
S21400406442DE704738B504460D4600F0AFFD03F057
S21400407440FD2946204612F09BFA2B462246054967
S21400408401200AF035F929462046BDE83840FFF7F6
S214004094E7BF00BF628A03006D4B2DE9F0415A6802
S2140040A46C4CA2655A6AE2656B4AD2F80012216625
S2140040B4D2F8042262669A6AA266DA6AE2661A6B22
S2140040C422675A6B6267A26BDB6B12F0040FA3675E
S2140040D4D4E90F5318BF1D461DF056FB0022854237
S2140040E40346606522655DD35C4A95425AD8AA6940
S2140040F46264E969A164B4F85810C1F3080106299A
S21400410454D157498A4251D356498A424ED21188CD
S2140041144DF64262914249D140F201706268C4F899
S2140041249420A268C4F898204F4A5049934238BF56
S21400413413460A468B423CD3D31AE3640023C4E9ED
S2140041441F33C4E92133C4E92333484E444FDFF810
S21400415414C1AE4233D8D4E91FC7D4E92165D4E9E3
S21400416423124FF0000E013BDBB2FF2B42D1BEF10F
S214004174000F05D0C4E91FC7C4E92165C4E92312AA
S214004184B4F85830C3F30803052B57D03CD8032B98
S21400419447D0042B58D040F60722013B4B2B98BF40
S2140041A4104640E000221D46C4E911224FF4206068
S2140041B4BAE71E68B6F1CD3FBED10433BAE756F867
S2140041C4042DBA42C5D36245C3D2D107C1D5002156
S2140041D404EB010EDEF87CE09645BAD004311829CB
S2140041E4F6D10BB9052301E0013BDBB204EB8301F6
S2140041F4CA67AEE7E0464FF0010EBC4637462E4689
S2140042040D4611464246AEE70C2B1AD03B2B0CD07B
S214004214062BC0D140F60423B0F5206F08BF18461D
S21400422401E040F60120BDE8F081114B9B6913F0D4
S214004234020F40F2025318BF1846F4E740F6032074
S214004244F1E740F60520EEE740F60220EBE700BF74
S21400425400ED00E00000002000E100E0A01A0020CD
S2140042644C030000906803009C000020C01A002045
S2140042740080014A042804D003280CBF0120022031
S21400428470470020704700004FF480732DE9F04318
S21400429485B0ADF80C30002401F098FC0127DFF857
S2140042A44480DFF8449003ABE35C012218F83360E3
S2140042B408EBC3035D6830460023294603F006FD79
S2140042C44946E8B201F090FCCDE9007701232A467E
S2140042D42946304603F0B4FC14B105B0BDE8F083BB
S2140042E40124E0E7788A03007143000008B5FFF76D
S2140042F4C1FF022816BF024B0020185C08BD00BF91
S2140043048F2C002008B5FFF7B5FF02281CBF014B11
S214004314195408BD8F2C002008B5FFF7ABFF022800
S21400432405D0034A135CB3FA83F35B09135408BD40
S2140043348F2C002008B5FFF79DFF02280FD03021F0
S214004344084A12F8303002EBC0025943064B506854
S2140043545B5823FA00F0C04300F0010008BD0020BB
S214004364FCE700BF788A030014C0034070B5044617
S2140043740026FFF7DFFF054601E000261D4620461F
S214004384FFF7D8FFA8420346F7D10136052EF2D12F
S2140043942046FFF7ABFFA8420BD029462046FFF77E
S2140043A4B1FF2046FFF7A2FF014620460BF078FA3D
S2140043B470BD2046FFF7B0FF2046FFF797FF014683
S2140043C420460BF06DFA2046FFF7A6FFE9E700004B
S2140043D410B503F0ADFD044603F0A2FD0022012152
S2140043E401FA02F3234014D01B4B33F812301B4A55
S2140043F4062B13D040F207218B420DD118491948D9
S2140044040C68844208D14CF23C334B800B881380F2
S21400441412E00132102AE3D1104AF8E74FF20F01F6
S2140044240F4B5888884214D11988B1F5406F10D2C2
S21400443411804CF23C325A80084B1A8840F20173C1
S2140044449A4201BF084B094AD2E90001C3E90001B8
S21400445410BD4FF4C061EBE7888A03009C2C002053
S2140044640000002007020FF0942C00209400002087
S214004474014B1888000A70479C2C0020014B1888B2
S214004484704700BF9C2C00202DE9F04F4D4C05468C
S214004494A36BD4F850B05A0747BF0027B846D4F8E1
S2140044A44CB0D4F85480D4F840A05DBF464FD4F83E
S2140044B43CA0DFF83C91DFF83C9113F0080F434B27
S2140044C4434A18BF1A46B7EB08061FBF6421730891
S2140044D401FB0B33B3FBF6F387B01CBF9BB205930B
S2140044E43C494B46CDE9017ACDF8008008BF0596D5
S2140044F401F0BEF8B3B2CDE900931FFA8BF2059B28
S2140045043549284601F0B4F8A36B5B070AD49C3EF1
S2140045145E4507D1626D314B9A4203D23049284634
S21400452401F0A6F8BA4501D8C24504D24A462D4938
S214004534284601F09DF8284609F0D4FE236E0BB9F0
S214004544636EBBB32849284601F07DF80026012790
S214004554DFF8A480DFF8A490226E07FA06F313426D
S21400456407D058F8262013781BB14946284601F090
S2140045746AF80136202EEFD100260127DFF878806E
S214004584DFF87890626E07FA06F3134209D008EB58
S2140045948603D3F8802013781BB14946284601F0D9
S2140045A452F801361D2EEDD1284607B0BDE8F04F6F
S2140045B401F058B828460D4907B0BDE8F04F01F0A1
S2140045C457B800BF00000020C01A00208F8D0300DB
S2140045D4968D03009E8D0300CC8D03009C00002066
S2140045E4058E0300318E03004F8E03007E8E03007B
S2140045F48A8D030089A90300948E030090BF0300EC
S2140046042DE9F8430446FFF739FF40F601239842A4
S21400461439D010D840F2025398421DD040F20173AC
S214004624984224D040F20153984213D1654920465B
S21400463401F01EF822E040F6032398426CD03DD3E6
S21400464440F60423984200F09C8040F605239842E6
S21400465400F0B580BDE8F8835B49204601F008F811
S2140046645A4B5B495A6C204601F002F806E0574A5A
S2140046745849D2E92523204600F0FAFF2046BDE833
S214004684F84309F02FBE514D5349204600F0F0FF81
S21400469495F86C309F0703D55049204600F0E8FF94
S2140046A495F86F305E0603D54D49204600F0E0FFCE
S2140046B495F96F30002BE1DA4A49B8E7434D4A4989
S2140046C4204600F0D5FF95F86830980704D06A6C49
S2140046D43F49204600F0CCFF95F96830002B04DAF9
S2140046E46A6F4249204600F0C3FF00260127DFF820
S2140046F40881DFF81491AA6E07FA06F3134207D06E
S21400470458F8262013781BB14946204600F0B0FF1F
S2140047140136082EEFD1B1E72C4D3549204600F07E
S214004724A7FF2B496A6C204600F0A2FF95F8693073
S214004734590703D52F49204600F09AFF95F96930AA
S214004744002B04DA6A6F2949204600F091FF0826F8
S214004754294FDFF8B480AB6EF340DA0707D557F875
S214004764262013781BB14146204600F081FF01360F
S214004774102EF0D195F86830002B7FF47FAF1F49D8
S21400478455E7124D1E49204600F072FF6A6C104928
S214004794204600F06DFF1026174FDFF86C80AB6ED6
S2140047A4F340DB0707D557F8262013781BB141469C
S2140047B4204600F05DFF01361A2EF0D15EE711495F
S2140047C44BE700BF198B0300568B03000000002044
S2140047D4868B03009F8B0300B98B0300D18B0300E9
S2140047E40B8C03003E8C03007A8C03009F8C030022
S2140047F4C38C0300DA8C0300A88A0300208D030010
S214004804508D0300698D0300BB8C03002DE9F84F1F
S21400481406460025154C164FDFF85C80DFF85CA0D2
S21400482423785FFA85FB0BB9BDE8F88F57F8043B8D
S21400483422461049304600F006FF227804F10109AA
S21400484482B9627882B10BF0030103290CBF41469A
S2140048545146304600F0F7FE304609F043FD013578
S2140048644C46DDE74C46E8E74146F2E7888F03000E
S21400487404000020108B0300AB690300ACAE0300F9
S21400488400F00CB800F00AB800F008B800F006B85B
S21400489400F004B800F002B800F000B872B61EF0DB
S2140048A4080F09D01EF0040F0DD0DFF850E0AEE874
S2140048B4FF1F6FF002000CE0DFF840E0AEE8FF1FD9
S2140048C46FF00E0005E0DFF834E0AEE8FF1F6FF08F
S2140048D406006946EFF309828EE807008646084814
S2140048E4084C854501D3A54501D384F30888FFF712
S2140048F4D3FB84F308881CF023FF00000400002088
S214004904A0110020C01A0020FFF7C6BF70477047EA
S2140049147047704700F07E63B3F17E6F70B505464E
S2140049240E46144616D106F045FC18B19A210D48D9
S214004934FFF798FB22463146C5F30B0003F0B4FBA1
S214004944044606F043FC5CB19D21BDE87040054872
S214004954FFF788BB52081CF091FE08B18F21F4E7DC
S21400496470BD00BFAC96030037B57F2A14BF15464A
S21400497400254BF234629142044619D17F2241F25B
S214004984020168460823FFF7EFFF08222549684618
S214004994FDF709FC30B908237F2241F2F01168467E
S2140049A4FFF7E2FF082269462046FDF799FB09E077
S2140049B441F2F01291421AD11B4901388A6CC96C33
S2140049C41D1F0BB903B030BD013B9D4200F8012FFB
S2140049D44FEA1222F5D1002203349A42F2D0013271
S2140049E4042A04F8011F4FEA1121F6D1EAE701F47C
S2140049F47042B2F5805F07D1C1F30B0404F17E6404
S214004A049AB203FB0541D0E701F46042B2F5005FB9
S214004A14D8D1C1F30B0405499AB2214403FB05110E
S214004A24C3E700BF3A9703000080E00F00E00700EA
S214004A3470B5054616461C46DBB14BF23463994204
S214004A4410D1082C28BF08247F2241F202012346F5
S214004A54FFF78AFFA2B207492846FDF7A4FB40B930
S214004A6441F2F011234632462846BDE87040FFF76F
S214004A747BBF70BD3A9703002DE9F7430446E00771
S214004A840F46154603D5DD213448FFF7EBFAE90750
S214004A9403D5DE213148FFF7E5FA04F47043B3F595
S214004AA4805F3ED1C4F30B0404F17E646B1E2C4A73
S214004AB423449342264603D9E3212848FFF7D2FA33
S214004AC4DFF8989006EB050846453DD1A2070ED0C0
S214004AD44FF6FF7337F8022B02A943EA0243A01EDF
S214004AE441F8043D0422FFF715FF0234023DAB07EC
S214004AF40ED0023D25F00103FB5A02A96FEA0343D8
S214004B046FEA1343042241F8043D6019FFF702FFDD
S214004B1425B12A4639462046FFF7FCFE03B0BDE819
S214004B24F08304F46043B3F5005F05D10D4BC4F382
S214004B340B041C442646C3E7EA210848FFF792FA0A
S214004B446FF00F060024BBE716F8013BFF2BBBD023
S214004B54F4214846FFF786FAB6E700BFAC96030092
S214004B64FF1FE00F00E00700FFF78ABE1FB5144AD8
S214004B7401AB10685168128903C31A8001238DF8AB
S214004B8404300D238DF80A3003230E4C082123200D
S214004B948DF80B3002F004FE01A9204603F0BBFC9E
S214004BA44FF40061022342F21800074AC2F8841147
S214004BB42350516041F21C02A35004B010BD00BF44
S214004BC4429703000080014A00E100E0014803F038
S214004BD491BC00BF0080014AA52803D100210248E9
S214004BE403F079BC704700BF0080014A024B586846
S214004BF400F00100704700BF0080014A024A536A71
S214004C04002BFCD1704700BF0080014A002070478B
S214004C14002070477047000007B572B602F069FFBF
S214004C24894B8A495B6940228B6000230B764B765E
S214004C348B76F023CB760B774B778B77CA778022ED
S214004C4481F8202081F82130E023602081F822308A
S214004C547F4B81F8232083F8002383F8012383F80D
S214004C64022383F8032383F8042383F8052383F8B5
S214004C74062383F8072383F8082383F8092383F895
S214004C840A2383F80B2383F80C2383F80D2383F875
S214004C940E2383F80F2383F8102383F8112383F855
S214004CA4122383F8132383F8142383F8152383F835
S214004CB4162383F8172383F8182383F8192383F815
S214004CC41A2383F81B2383F81C2383F81D2383F8F5
S214004CD41E2383F81F2383F8202383F82103202030
S214004CE483F8222383F8232383F8242383F82523B5
S214004CF483F8262383F8272383F8282383F8292395
S214004D0483F82A2383F82B0383F82C0383F82D23B4
S214004D1483F82E2383F82F2383F8302383F8312354
S214004D2483F8322383F8332383F8342383F8352334
S214004D3483F8362383F8372383F8382383F8392314
S214004D4483F83A2383F83B2383F83C23CB6823F485
S214004D54E0631B041B0C43F0BF6343F40133CB60D6
S214004D644B6943F010034B614FF4E0234B6205F0AC
S214004D740FFAFFF72DFBEFF308834FF0CD31354ADA
S214004D84043B93425DD2344A002192B23348FDF785
S214004D9403FA62B6684603F0AFF9314B9B6DDB034A
S214004DA418D4304A136823F4FF0323F4FE4343F471
S214004DB4BC1343F4A063136052F8043C23F470431A
S214004DC443F4404342F8043C52F8043C43F4E063A2
S214004DD442F8043C9DF80130012B0FD19DF80030B9
S214004DE463B94FF000531B681F4B1B681F4B1B68AF
S214004DF41F4B1B681F4B1B681F4B1B681F4AD2F8B0
S214004E04803043F00303C2F8803002224FF0402380
S214004E141A6705F033F901F0E3FA002300938DF8DE
S214004E240430012368468DF8033002F0FEFE00F0DD
S214004E3427F91CF0D7FC124813F03AFA03B05DF8D1
S214004E4404FB1960043B9CE75400000000ED00E0FE
S214004E5400E100E0601100208C100000A00000209B
S214004E6400C0004034C00040004000200080002005
S214004E7400C0002000000120004001200080004007
S214004E84BCCC030040F201601CF05ABCFDF78CBD9C
S214004E9408B500210B20FDF785FDBDE80840FDF7A9
S214004EA484BD032000F078BA08B5FFF7E1FA044B96
S214004EB40B289ABF00B203EB8000184608BD00BF5B
S214004EC49298030008B5FFF7D9FA044BC0F30F22F3
S214004ED453F82230C0B203EB800008BD5C98030090
S214004EE410B5FFF7C5FA0446FFF7C8FAC0B228B9EA
S214004EF4012C24D164F07F04E4B216E0072CF9D820
S214004F0401A353F824F000BF2F4F0000F94E000011
S214004F142D4F0000334F0000334F0000374F000082
S214004F243B4F00003F4F00000924204610BD0224DA
S214004F34FBE70324F9E70B24F7E70624F5E7044622
S214004F44F3E700BF07282DE9F84F04460F462DD097
S214004F54082808BF022421460120FCF772FCFFF74C
S214004F6445FE651ED5F1000848EB050800B3012C84
S214004F741ED1A520FFF730FE2646EFF31089012345
S214004F8483F31088EFF3118A4FF0000B8BF311882C
S214004F94354D404609F014FC631EC5F800B0042BDA
S214004FA459D8DFE803F00E4D4D5155000324D2E7DF
S214004FB4FFF71CFE18B1FFF721FE0026DDE70646C4
S214004FC4DBE72A4A136923F00403136130BF284A37
S214004FD4D2F82434D2F8202413409BB2254A2B60FE
S214004FE4D2F80011480102D51168490106D4D2F856
S214004FF40011880105D51268910102D543F4803367
S2140050042B601C4BD3F80021520506D51B685B05A4
S21400501442BF2B6843F400332B601EB101211648AF
S21400502403F059FA404609F0EBFBCFB18AF3118836
S21400503489F310882146BDE8F84F0020FCF701BC30
S214005044012002F0C5FDC2E7012002F0D5FDBEE74F
S21400505402F0D4FDBBE788210848FFF703F8B6E75B
S21400506487F31088E6E700BFA82C002000ED00E0D8
S21400507400C0034000E100E00080014AC29803003B
S21400508442F22041044AD2F820341B0C1B0453502D
S214005094024A1360704700BF00C00340A42C0020DF
S2140050A40021FFF74FBFFFF7FBBF00002DE9F04FCD
S2140050B489B013F0F1F80746002840F0DD806F4E03
S2140050C46F4D316828681AF0F3F90446002827D093
S2140050D433683C46D3E900019A69126890473368FE
S2140050E404A89B699B689847336802209B69DB6821
S2140050F49847326805985368E7B2B3FBF0F3BB42AF
S214005104916904F1010442D8CB68002098473368BB
S2140051149B695B689847316828681AF0C9F90446A1
S2140051240026DFF88891002C53D1564B4FEA8608A8
S214005134F35C002B31D1A246534BF35C0193534BE3
S21400514403EB080B019B5FFA8AF7BB42286853D827
S2140051544F4BF35C002B3CD04C4B019F9844FBB266
S2140051647E2B286835D8D8F8003003AA07EB030A44
S214005174514602AB1AF0D6FB48452AD05146286859
S2140051841AF016FC013704460028E8D021E012681D
S2140051940B6907FB00209847ABE73C4B03AA53F880
S2140051A42670286802AB39461AF0BCFB484507D07F
S2140051B478B9039B012B0CD0394628681AF0F8FB03
S2140051C4344B394653F8083028681A681AF0D4FA6B
S2140051D4044601362F2EA6D1B4FA84F32E4A5B0970
S2140051E413702E4B9C4241D02DD8002C32D0013B5C
S2140051F49C423FD0C5242DE0DBF8003003AA1F44B0
S214005204394602AB1AF08EFB48450AD010B10AF1B3
S214005214010A97E7039B8BB9214B029AF35C9A42E7
S214005224F5D01F4B1B4A9B5D52F808203946286868
S2140052341AF014FA0028EAD0044689E739462868A2
S2140052441AF0B6FBEDE7174B9C4211D004339C4290
S214005254D0D1C1242B681B7C23B14FF4897112482A
S214005264FEF700FF204609B0BDE8F08FC324F1E73F
S214005274C424EFE7C224EDE7C624F3E75C1E00204F
S214005284581E0020487003005A6F0300A8700300DD
S214005294777003008C6F0300AC2C002002E000F053
S2140052A46471030004E000F0529903000BE000F080
S2140052B42E2970B506460C4615461AD8144A127896
S2140052C422B3144A1068144A52F82110134A125D85
S2140052D43AB132461AF09EFAC0B1BDE87040FCF707
S2140052E47EBE7F2D08BF0025324629441AF000FAF8
S2140052F4F2E7FF2903D9BDE87040FFF799BB40F2F7
S2140053044511BDE870400648FEF7ACBE70BD00BF50
S214005314AC2C0020581E0020A87003004870030020
S214005324529903002E28F8B504460D46164619D899
S2140053341449097829B31449144F0868144951F8D4
S21400534424103C5D3CB112681AF016FAC8B1BDE8E8
S214005354F840FCF744BE7F2D08BF002529441AF008
S2140053647DF9F3E7FF2805D91A463146BDE8F8402B
S214005374FFF782BB4FF4BC71BDE8F8400548FEF762
S21400538471BEF8BDAC2C0020581E002048700300E7
S214005394A87003005299030008B5084B1B7863B144
S2140053A4074B002253F82010064B18681AF072FABE
S2140053B418B1BDE80840FCF712BE08BDAC2C0020AE
S2140053C4A8700300581E002070B5164685180AB942
S2140053D4304470BD01F00F030A2B34BF3024372449
S2140053E4013A2344090905F8013DD2B2EFE700006B
S2140053F4F0B5F9B100281CDA2D23B0F1004F137074
S21400540400D04042012115E0801B8642ECB205F133
S2140054140105F9D904B927B101274D1C3034545479
S214005424E9B20133092B09D1303050540131C8B2E6
S214005434F0BD002100231F46DFF808C05CF8236097
S2140054440025E2E7DC9903002DE9F04F4FF0000B4E
S21400545495B002AC81468A4617461D465E46A0466F
S2140054643B7863B902ABE41AE4B2224619465046C6
S214005474C847002840F093803444E0B290E0252BDF
S21400548413D0BBF1000F14D12370013412AB9C422D
S2140054946DD3A4EB0804E4B2224641465046C847FE
S2140054A400287CD12644F6B260E0BBF1000F00D1A0
S2140054B401373B78632B00F092801BD8392B09D830
S2140054C4302B80F09E80002BCCD0252B51D04FF073
S2140054D4000BDBE7582B00F08B80622BF7D14FF0E4
S2140054E4000B2B6801936B680093009B9B4543D18C
S2140054F40835ECE7702B1ED017D8642B01D06C2B24
S214005504E5D16C2B05F1040B28686CD17B78752BE0
S21400551414BF0121002101D0642B00D1013722469B
S214005524FFF766FF04445D46D1E7752BE9D0782B78
S2140055345ED0732BCBD1A4EB0804E4B2224602A9B6
S214005544504605F1040B2D68C84740BB2644F6B206
S214005554C4B22B5D0130002BFAD1224629465046B0
S214005564C847E0B95D4683462644F6B2444601374A
S21400557476E723700134AAE7019B204613F80B1044
S2140055840222FFF721FF12AB984204460ED3A0EB8B
S2140055940804E4B2224641465046C84718B10020E3
S2140055A415B0BDE8F08F26444446F6B2009B013B96
S2140055B45B4582BF20232370013412AB9C420BD37D
S2140055C4A4EB0804E4B2224641465046C8470028E5
S2140055D4E5D126444446F6B20BF1010B85E72B6869
S2140055E404352370C6E7752B0CBF0021012196E70E
S2140055F4204602222978FFF7E7FE05F1040B04464D
S21400560491E77A7802F0DF02582A19D1322B07F193
S214005614010B09D10422204629882F1DFFF7D4FE4A
S2140056243D4604465F4652E7342B09D12F1D2D68AC
S2140056340422290C2046FFF7C7FE0422A9B2EDE790
S2140056444FF0010B22E70EB403B503AA52F8041B6D
S214005654019209F06BF9C0B202B05DF804EB03B036
S214005664704700000149FFF7EEBF00BFAB690300B7
S2140056740EB433B505AA52F8041B0546019209F088
S21400568455F904462846FFF7EDFFE0B202B0BDE840
S214005694304003B0704708B509F048F9C0B208BDF9
S2140056A42DE9F04F9B46584B85B01B780646894635
S2140056B41546109F9DF844A0DDF85080002B00F09E
S2140056C49280072A00F291800E9B002B00F08D80BA
S2140056D40F9B002B00F08980129BB3F5006F00F33C
S2140056E48480012801D1002F7FD0484B03EB05139B
S2140056F41B7B002B7BD0464C10220021684631F0E1
S214005704A3F804EB45141022B9F1000F5CD1494606
S214005714204631F099F8A37843F01003A370E37899
S21400572443F03003E370BAF1000F03D1DBB243F069
S2140057340303E37036496A01129B885A013B63F3FC
S2140057440E100E9B01EB020C8852CCF808300F9B0F
S2140057549DF84C10CCF804309CF80330012E61F30D
S2140057648303CDF800B08CF8033042D113230CF138
S214005774100ECCF80C309CE80F008EE80F006FF08B
S2140057840301DCF81C20B9F1010F61F39F02CCF889
S2140057941C20CCF8147004D10F9BCCF80470CCF801
S2140057A41830002719492A018B1841F80280159AE7
S2140057B428465A609F605E732246694602F016FBCE
S2140057C4384605B0BDE8F08F0021204631F03CF89D
S2140057D41023A3700323E370BAF1000FAAD1DBB23F
S2140057E443F03003A5E70B48EBE70B48E9E70B4823
S2140057F4E7E7B8F1000FD4D19CF8023068F304133D
S2140058048CF80230CDE700BF302E0020B02C0020EC
S214005814302D0020028000F0018000F0078000F0A8
S21400582438B5104B05461B78BBB1C0B102F069F918
S21400583400230D4901EB0312147B3CB92B600123B2
S2140058441460137302F063F9204638BD0133082B45
S214005854F0D102F05CF90548F7E70548F5E7054896
S214005864F3E700BF302E0020B02C0020048000F0A8
S214005874028000F0018000F038B502F042F90023FF
S21400588405460A4AD1180C7B5CB91033802BF9D133
S21400589402F05EFA064B28461C7002F038F92046E1
S2140058A438BD284602F033F90248F9E7B02C002048
S2140058B4302E0020058000F00D4B10B51B780446F2
S2140058C493B1072812D802F01CF90A4B03EB041311
S2140058D41A7B2AB100241C7302F019F9204610BD65
S2140058E402F015F90448FAE70448F8E70448F6E72E
S2140058F4302E0020B02C0020068000F0028000F03D
S214005904018000F0164B13B51868002301908DF83B
S214005914043002F0F6F8134B1C7824B102F0F7F8C2
S214005924114802B010BD01221A7002F0F0F80F4BB5
S2140059341C731C7783F82C4083F83C4083F84C4057
S21400594483F85C4083F86C4083F87C4004230DEBBA
S21400595403008DF8073002F01FFA2046E1E700BF87
S214005964009A0300302E0020038000F0B02C0020A4
S21400597410B588B00E9C009207940D9C02460694BF
S2140059849DF8304005940B9C04949DF8284003949D
S2140059940024CDE9013420460B462146FFF780FE5D
S2140059A408B010BD10B588B00E9C009207940D9CEC
S2140059B4024606949DF8304005940B9C04949DF88A
