:10000000C01A00207D9C0100293900002D39000014
:10001000A70B0000000000000000FFFF54000000DC
:1000200004180F00000000000000000000000000A5
:1000300000000000000000000000000000000000C0
:10004000000000000000000000000000A701000008
:0400500000000000AC
:10005400C01A00207D9C0100293900002D390000C0
:10006400A70A0A010002000004180FACA067A70148
:10007400000000000000000000000000000000007C
:10008400000000000000000000000000000000006C
:100094000000000000000000FFFFFFFFFFFFFFFF64
:1000A400FFFFFFFF006007000000000000000000E9
:1000B400FFFFFFFFFFFFFFFF8000000000000000C4
:1000C400000000000000000000000000000000002C
:1000D4000000000000000000944F0020944F002016
:1000E400C01A00200C9B0300481C03006011002070
:0C00F4002C11002000E0070000000000BC
:10020000C01A00207D9C0100293900002D39000012
:10021000D585000031390000393900007B9C010090
:100220007B9C01007B9C01007B9C01007B9C01006E
:100230003D3900007B9C01007B9C01007B9C010000
:10024000B0390000B0390000B0390000B03900000A
:10025000B039000079550000A9620000B0390000F3
:10026000B0390000B03900007D53000059B00000E3
:10027000B0390000B0390000B0390000B0390000DA
:10028000B0390000B0390000B03900007B9C01009B
:10029000B0390000D54B0000B0390000B039000083
:1002A000B0390000D54C0000AD4C0000B039000062
:1002B000B0390000B0390000B03900004D760100BF
:1002C000D9750100D5750100156D01004976010051
:1002D000DD750100FD750100E17501007B9C0100E9
:1002E00091760100B0390000B0390000113C0000E7
:1002F000B0390000B0390000B03900007B9C01002B
:10030000B0390000B0390000B0390000B039000049
:10031000B0390000B0390000B0390000B039000039
:10032000B0390000B0390000B0390000B039000029
:04033000B0390000E0
:10033400F8B500BFF8BC08BC9E467047F8B500BFCE
:10034400F8BC08BC9E46704710B5054C237833B9F9
:10035400044B13B1044800E000BF0123237010BD17
:10036400D023002000000000F491030008B5034BE3
:100374001BB10349034800E000BF08BD00000000B2
:10038400D4230020F4910300154B002B08BF134B1A
:100394009D46A3F5803A00218B460F461348144A24
:1003A400121A31F02BFC0F4B002B00D098470E4B48
:1003B400002B00D098470020002104000D000D48B8
:1003C400002802D00C4800E000BF31F0D9FB200027
:1003D40029000BF069F831F0BFFB00BF00000800F2
:1003E400C01A00200000000000000000D0230020FC
:1003F400944F002000000000000000001FB50123FE
:100404000022009306210DF10F030DF014FA20B918
:100414009DF80F3023B103F0CBFA05B05DF804FB6F
:1004240003F0C7FAF9E7000030B50024144D85B095
:100434002C700BF02DFF022817D100900DF10E0344
:100444002246032101200DF0F6F9BDF80E0048B153
:10045400204603F0AFFA4FF47A6128461EF0F6F90D
:1004640005B030BD03F0A4FAFAE709F0EBFA054B46
:100474000090054A054901200EF0C6FBF0E700BFD5
:10048400704000207C340300481C03004D1C030012
:1004940008B50BF0FDFE02280CD10022064B01200A
:1004A4001A7007F099FFBDE808400246034901208D
:1004B4000EF0AABB08BD00BF68400020AC1C0300BE
:1004C40013B5044600900A4B0A4A0B4901200EF06A
:1004D4009BFB5CB12246094901200EF095FB009478
:1004E400074B084A044901200EF08EFB02B010BDF0
:1004F400611C0300481C03004D1C03007B1C03000B
:100504007C340300A71C0300FFF778BF09B9FFF789
:1005140075BF704738B5C37B05460BB1832038BD22
:10052400C47C2CB902F08EFA20B9EB7B002BF5D1F8
:100534008120F4E72046F2E738B5C37B05460BB1CA
:10054400832038BDC47C6CB9017D82898B1C9A429E
:100554000AD380680DF0B9FE07F0FCFE30B9EB7BDE
:10056400002BEDD18120ECE78020EAE72046E8E784
:10057400C37B10B504460BB1832010BDC37C1BB1F3
:10058400012B10D08120F8E7017D82898B1C9A42CF
:100594000CD380680DF099FE08F094F840B9E37B21
:1005A400002BE9D1EEE708F0A5F8F7E78020E4E7AF
:1005B4000020E2E7C37B10B504460BB1832010BDD5
:1005C400C37C012B0BD003D3022B0BD08120F6E785
:1005D40009F000FC48B9E37B002BEFD1F6E709F002
:1005E40009FCF7E709F016FCF4E70020E7E7C37B12
:1005F400F7B50446002B40F0D280C37C072B00F2F1
:10060400D080DFE813F008003800590086009B0012
:10061400AA00B600C900037D8289591C8A42C0F031
:10062400C2809DB2691C881C8242C0F0BC80A06854
:10063400C75C0DF04AFEEB1CA6895A1C964228BFE3
:10064400A268014624BFD25C2B1D03F1010038BF10
:10065400FF2286422ABFA068FF23C35C384608F005
:1006640033FD002840F0A180E37B002B14BF8320DE
:10067400812003B0F0BD067D8589731C9D42C0F0C6
:100684009280B7B2BA1C954207F10103C0F08B8087
:100694008068C15C13460132954224BFC25CFB1CD6
:1006A40003F1010738BFFF22BD422CBFC35CFF2307
:1006B400805D08F01DFDD4E7037D8289591C8A42C0
:1006C40071D39DB2A91C8A4205F101076BD3881C22
:1006D400824268D3A068C65CC75D0DF0F6FD291D93
:1006E400B4F80CC04B1C9C4528BFA368024624BF29
:1006F4005B5C691D01F1010038BFFF23844532BFF3
:10070400FF21A068415C30460091394608F000FDA5
:10071400A7E7027D8189501C814293B222BFA06861
:100724000133805C03F1010238BFFF2091422ABFEC
:10073400A268FF21D15C08F0FDFC92E7017D82896B
:10074400CB1C9A422FD38068455C01310DF0BDFD6E
:100754000146284608F0C2FC83E7037D81899A1C80
:10076400914220D38268591C515CD05C08F0C8FCCB
:1007740077E7037D8289191D8A4214D3806899B270
:10078400C55C4B1C0231C65C0DF09FFD3146024630
:10079400284608F0C6FC64E708F0D1FC61E7832032
:1007A40067E7812065E7802063E7002061E70000B8
:1007B40038B5C37B0446002B437D14BF8325C32572
:1007C400012B19D10368028A598858790CF0ACFAC4
:1007D40090B123685B88032B03D0062B06D02846F0
:1007E40038BD2046BDE83840FFF7A6BEE37B002BAA
:1007F40014BF83258125F2E7637D002BEFD12368A5
:10080400228A598858790CF086FA0028E7D02368A0
:100814005B88082BE3D801A252F823F045080000B6
:10082400E3070000E30700004F080000E3070000AF
:10083400E307000059080000E30700006308000014
:100844002046BDE83840FFF765BE2046BDE8384085
:10085400FFF78EBE2046BDE83840FFF7ABBE20460A
:10086400BDE83840FFF7C3BE704701207047012040
:100874007047012070477047002070470020704780
:100884000020704700207047002070470020704708
:10089400002070470120704701207047B520704741
:1008A40000207047002070470020704700207047E8
:1008B40070470020704700207047704781207047C0
:1008C40000207047842070477047704770470120AC
:1008D400704700000246024901200EF095B900BF9E
:1008E400CD1C0300704770470020704770470020FC
:1008F40070470000034B1B681878012808BF0220CA
:10090400704700BFD83800200020704703460120FC
:10091400024AC3E9032000221A7070470100FEFF57
:100924007047002070470020704700207047002067
:10093400704700207047002070477047B52070470B
:1009440000207047002070477047002070477047B0
:100954007047B52070477047704770470020704754
:10096400704770470023FF21084A137082F87830DB
:1009740082F8653082F8773082F8793082F87A101C
:1009840082F87B30024A1360704700BFEC230020DA
:1009940078400020F8B50D468C680A680646284958
:1009A400202003F0A2FE6B687BB92649202003F0C7
:1009B4009CFE20200AF034F92349202003F0AAFEEB
:1009C400BDE8F84020200AF02BB9002EF1D01F4DCD
:1009D4001F4E204F013C14F8013F23B91A4920202F
:1009E40003F098FEE5E7752B18D0762B18D0772BFB
:1009F40018D0732B18D0722B18D0712B18D0622BEF
:100A040018D06E2B18D02A2B18D01349134A212B37
:100A140018BF1146202003F068FEDCE72946F9E7F9
:100A24003146F7E73946F5E70D49F3E70D49F1E7B4
:100A34000D49EFE70D49EDE70D49EBE70D49E9E70E
:100A440051680300881D0300391D0300461D03007F
:100A54003A1D0300511D0300921D03008F1D030066
:100A64005D1D0300671D0300721D03007D1D03004F
:100A7400871D03008C1D0300F0B50026204A92F860
:100A84007B30184452FA80F090F865C090F86650B4
:100A940030461C4BA5EB0C051F78EDB2F4B2A54211
:100AA40025D90CEB060313445B7811B10CB92D2B3B
:100AB40017D0782B1FD0582B05D108B137240AE062
:100AC400013C012C14D9602B17D8402BF6D83A2BB3
:100AD40034BF302400241B1BDBB29F4203D900FB2C
:100AE40007300136DAE70523002082F87930F0BDBB
:100AF40010270020F5E70028E2D05724EBE700BFD9
:100B0400EC230020581C0020FFF72CBF034B93F864
:100B1400770093F87B30C01AC0B27047EC230020F2
:100B24000021FFF7A9BF000010B50A4B93F87B2002
:100B3400024453FA82F292F8652013445C78A4F1DB
:100B44002D0359425941FFF797FF2D2C08BF40420E
:100B540010BD00BFEC23002030B50C4A92F87B3066
:100B64000344C043DBB2C00F39B1D51895F86640D1
:100B740095F86550641B241A0C7042FA83F393F8B9
:100B840065301844024B184430BD00BFEC230020EC
:100B9400ED230020F7B515460E460DF107011C465E
:100BA400FFF7DAFF9DF807300746AB4288BF8DF8A0
:100BB40007501CB19DF807402C1BE4B22246304676
:100BC400002100F079FB30199DF80720394600F028
:100BD40017FB9DF8070003B0F0BD38B50C460123A0
:100BE4000822FFF7D7FF04F10803621E043413F848
:100BF400011D12F8015FA3421D701170F7D138BDB9
:100C040038B5054601460120FFF7C4FED5E9014386
:100C14006CB91C46084D236863B12946202003F0B3
:100C240064FD21460020FFF7B5FE0C34F3E71B7882
:100C34006E2BEFD038BD00BF8C35030008B50449D6
:100C4400202003F052FDBDE80840202009F0E8BF51
:100C5400FA1C030038B5FFF7F1FF0024054D6119B4
:100C64000C34631953F80C3C03B938BD0020FFF76A
:100C740091FEF4E7982A03002DE9F84F1F4B204D0D
:100C840053F820201F49202003F02FFD2B681BB9A7
:100C9400BDE8F84FFFF7DEBF1B4FFFF7CFFF00267D
:100CA400B946DFF86CA097F87B30F4B2013B9C4264
:100CB40004DB2868BDE8F84FFFF7A2BF47FA86F3C4
:100CC40093F8658000234C44C84494F8662094F853
:100CD400651003F1010B521ADBB2D2B2934205D371
:100CE4000A49202003F001FD0136DCE743445A7829
:100CF4005146202003F0F9FC5B46E6E75C1C00202B
:100D040078400020F51C0300EC2300208D350300FF
:100D1400906C03002DE9F74F884C94F87730002B42
:100D240000F0A180864B671C1B7813F0010F1FD0C5
:100D34000025844E14E0631993F8662093F8653017
:100D44002020D21A44FA85F393F86510D2B23944BC
:100D540009F061FF3146202003F0C7FC0135EDB2F4
:100D640094F87730AB42E6D87749202003F0BDFCF5
:100D7400002694F87730DFF8DCE10193734B4FF0F1
:100D84000008714645461EF8012B91F801C007EB97
:100D9400020AACEB020C5FFA8CFC1868002852D0F3
:100DA4000138D14619E02AB9002D4AD04FF0010884
:100DB4000C33F2E719F8011BA1F1410BBBF1190F38
:100DC40098BF2031A2F1410B98BFC9B2BBF1190FF2
:100DD4009CBF2032D2B28A42EAD1A9EB0A01614512
:100DE40010F8012FDFD1002ADED11D46584B013601
:100DF4001D6094F87B30F6B2013384F87B30D5E97A
:100E04000123002A35D01B786E2B31D03F2B23D001
:100E14004FF000094FF0070BC846042394F87710ED
:100E2400AA68B14212F808702BD8AFB1904498F870
:100E340001302A2B10D0212F1CBF032384F87930D2
:100E44000AE01D46B4E7B8F1000F01D1002DCDD161
:100E54000223002584F8793094F87900002869D1B8
:100E640068680CF021FF03B0BDE8F04FFFF77ABDCE
:100E74001346019AB24282D803221D4684F879208F
:100E8400EAE7732F09D8712F0BD2212F1FD0622FBD
:100E94003CD0002F4BD1032246E0A7F17502022A71
:100EA40045D8752F29D0762F2AD0732F2BD0722FA7
:100EB40047F6FF7A18BF4FF0FF3A012148460193E5
:100EC400FFF7DAFD5045019B01D984F87930AA680F
:100ED400424452782A2A94F879201CBF08F1010868
:100EE4005FFA88F8002AB7D1212F1FBF013609F114
:100EF4000109F6B25FFA89F990E74FF0FF0ADCE7DF
:100F04004FF6FF7AD9E74FF07F0AD6E794F87B20B3
:100F14004A4454FA82F292F8652022445278222AF2
:100F2400D5D07B2AD3D0052284F87920CFE784F862
:100F340079B0CCE7FFF7A0FE95E700BFEC230020D3
:100F4400682400208D350300371D0300982A030010
:100F540078400020512400202DE9F34106460D4637
:100F64004FF000085C4C5D4F66B90DF1070128464F
:100F740009F04CFE78B1262800F0A980012384F8FA
:100F840079304BE0002D00F0A28016F8013B013DC2
:100F94008DF80730EDB23A789DF807300D2A3B7092
:100FA40001D10A2BE0D00D2B0CD0A3F10A0251423F
:100FB400514122788846042AD6D8DFE802F0051D7C
:100FC400263C31000121F4E721B1FFF7A3FE4FF0E5
:100FD4000108C9E7202B63D0222B07D102232370F9
:100FE40094F87820642A5DD10623C8E77B2B01D1CD
:100FF4000323F4E70123F2E709B9202BF0D194F895
:101004007730112B3FD10323B9E7222BF7D00029E6
:10101400E6D005234FF0010884F8793004232370C7
:10102400B8F1000FA0D094F8790008B1FFF724FEBE
:10103400FFF798FC98E77D2B94F87A0003D1FF28FA
:10104400DDD005239BE7602B13D8402B13D8392B15
:101054008CBF002230229A1AD2B20F2A10D8FF284D
:101064000BD0FF2302EB00128DF8072084F87A30AE
:10107400B6E75722EFE73722EDE784F87A2073E7E3
:10108400202BDED170E70133DBB294F8782084F8AA
:101094007730234483F8652000232370002994D1FA
:1010A400884661E72378012B09D19DF80730A3F125
:1010B400410119299CBF2033DBB28DF807309DF81C
:1010C4000710A3180132597084F878204CE7404681
:1010D40002B0BDE8F08100BFEC23002069240020A9
:1010E40049BA89B24840C0F303114140080380B2B1
:1010F4004840C3B280EA4310704719F0ABBD704753
:101104007047704770477047704770477047704723
:1011140070477047704770477047002070477047AA
:101124007047002070477047704700207047704731
:1011340070477047002070477047012070470120B6
:1011440070477047704770477047704770477047E3
:101154002DE9F0470024204DDFF89C90DFF89CA097
:101164005FFA84F840461DF02FF9FF2806460CD19B
:1011740022461A49287803F0CDFA2878013409F078
:101184004FFD142CECD1BDE8F087154B47B213EAA0
:10119400270338BF534659F824201249287803F00E
:1011A400B9FA002FE9DA14B1B8F1030F08D10E4BE4
:1011B40016F0010F0D49287818BF194603F0AAFA52
:1011C4000A2CDAD10A4B16F0010F0A49287818BF05
:1011D400194603F09FFAD0E7C5200020B11E030092
:1011E400391D0300D91E0300741E03008A1E030068
:1011F4009C1E0300A61E0300201E0300C4680300F7
:101204008842F0B54FEA92031AD804460D469BB2C1
:101214009E00871904370434BC4205F104053AD111
:10122400C3EB8333314402EB8303013E304411FAB0
:1012340083F3994220D011F8012B00F8012FF8E72D
:10124400541E204421440D4604469BB2A0EB830661
:10125400043E043CB442A5F104050ED16FF003042E
:101264005C43C3EB833302EB830321449BB201341D
:101274002044CB1A994209D1F0BD2F792771EF7818
:10128400E770AF78A7706F786770E2E711F801290B
:1012940000F8012DEEE715F804CC04F804CC15F899
:1012A40003CC04F803CC15F802CC04F802CC15F8EE
:1012B40001CC04F801CCAEE70244904200D170475F
:1012C40000F8011BF9E710B5013801390AB91046D5
:1012D40006E010F8014F11F8013F9C4201D0E01ADA
:1012E40010BD013A92B2F1E782B2074B4AB1000C49
:1012F4001A8008BF4FF6CE22044B14BF18801A8000
:1013040070474BF6EF62F2E72C1D00202E1D0020E3
:10131400094B1888020448BF80F0620042001A801A
:10132400064A1388190444BF83F4805383F00B03E3
:1013340059001180584070472C1D00202E1D00209C
:101344000022034B1870034B1970034B1A7070473B
:101354007324002072240020742400202DE9F04F0F
:10136400234E85B0337807468846002B3DD04FF690
:10137400FB73204D98422C7803D952211E4801F06A
:1013840071FF1E4B4FF0000B9A4632785FFA8BF9CF
:101394004A45187811D9484402A9C0B2019325F0EE
:1013A40003FE082241460DEB0200FFF78CFF0BF110
:1013B400010B019B0028E8D14C462B78A34207D1AE
:1013C400631C3278DBB29A422B7004BF00232B706B
:1013D4009AF8003041461C44E4B2204625F00CFF44
:1013E40018B93946204625F0ADFD05B0BDE8F08FAB
:1013F4007224002074240020CE1F030073240020D4
:10140400024B187800F07F00704700BF752400205D
:10141400034B18780130C0B2187000F07F00704799
:10142400752400201FB5030A8DF80E3003230093A2
:1014340003AB8DF80D0000F0BFF905B05DF804FBB7
:101444001FB58DF80F100421030A8DF80E3000919A
:1014540003AB8DF80D0000F0AFF905B05DF804FBA7
:101464002DE9F043994689B0BDF840509DF8446099
:10147400074688460DF1090011460822BDF84C4084
:10148400FFF7BEFE8DF81250012E4FEA15258DF898
:1014940011908DF813508DF8146017D0032E1CD1C1
:1014A400082212990DF11500FFF7AAFE9DF850309D
:1014B4008DF81D3016230093BDF8542002AB41462D
:1014C400384600F079F909B0BDE8F0838DF815408D
:1014D400240A8DF816400F23EDE70120F3E71FB52A
:1014E4000C46194602238DF80D2000930A4603ABDF
:1014F4000146204600F060F904B010BD70B586B016
:10150400044616460DF10D0008221D46FFF778FE2D
:101514000A232A460093342103AB20468DF8156034
:1015240000F04AF906B070BD30B5002485B0ADF8BE
:101534000A20021D92B2012A1D46ADF80840ADF8FA
:101544000610ADF8044003D94FF6FF72904207D15C
:10155400064A2B46127801A923F068FE05B030BD77
:10156400014601AA204623F027FFF7E7301D00209B
:101574002DE9F74F9846FF2A16BF474B00241B68F6
:101584000E4618BF9C5C814618BF6408B8F1FF0F73
:1015940016BF414B00271B6815461CBF13F8087083
:1015A4007F08FFF735FF4FEA19238DF800008DF807
:1015B40003600621360A68468DF804608DF80190B0
:1015C4008DF802308DF805401DF0B6FCFF28064664
:1015D40004D11824204603B0BDE8F08F4FEA440B31
:1015E4000BF1070A0AEB4701C9B21DF059FC0028A8
:1015F400EFD10446A3451BD10BF106013A4601F095
:10160400FE0130465FFA8AF41DF011FD4FF0000A26
:101614005FFA8AF5AF4223D83346BDF8302006215D
:101624004846FFF781FF044630461DF027FBD1E70B
:10163400214628461DF0F6FCA11D0246C9B23046DB
:101644001DF0F5FC611CC9B228461DF0EBFCE11D40
:101654000246C9B2304602341DF0E9FCE4B2C9E7DF
:101664006D00EDB2294640461DF0DCFC21460246E1
:1016740030461DF0DCFC691CC9B240461DF0D2FCAA
:10168400611C0246C9B2304602341DF0D0FC0AF196
:10169400010AE4B2BCE700BFC81C00202DE9F041F8
:1016A40088B00F4602A906460AF0BEFE00287CD088
:1016B400FFF7AEFE8DF810001DF05AF88DF81100FA
:1016C4001DF056F8000A8DF81200082239490DF170
:1016D4001300FFF795FDBDF808300F218DF81C307D
:1016E4001B0A8DF81D309DF80D3004A88DF81B6081
:1016F4008DF81E301DF020FCFF28044657D04FF013
:1017040000089DF80D305FFA88F2934208F1010851
:101714001DD801220DF10E0120461DF04FFC4FF0A3
:1017240000089DF80E305FFA88F2934208F1010830
:1017340024D823463A4620210020FFF7F5FE05462B
:1017440020461DF09BFA284608B0BDE8F081002130
:1017540030460AF095FE05468DF807000DF10701A5
:10176400012220461DF02AFC2D0A01220DF1070159
:1017740020468DF807501DF021FCC2E701213046B8
:101784000AF07EFE05468DF807000DF107010122DF
:1017940020461DF013FC2D0A01220DF107012046FD
:1017A4008DF807501DF00AFCBBE7A325CBE71825ED
:1017B400C9E700BF394E0020F8B51C460E4617464F
:1017C4000546FFF725FE9DF81810207020461DF0F1
:1017D400B3FBFF2804460BD003463A46284631465D
:1017E400FFF7A2FE054620461DF048FA2846F8BD3C
:1017F4001825FBE708B500F065FBBDE808400EF0CE
:101804009BBA08B5FFF759F80EF0C0FABDE80840D6
:1018140006F0E2BE704700F0CFBBFFF788B80020A7
:10182400704738B504460D46FFF79AF82946204616
:10183400BDE8384009F074BEFFF77BB8FFF785B800
:101844000222062101200EF04FBF42220621012070
:101854000EF04ABF4122062101200EF045BF0122AD
:10186400062110460EF040BF4022062101200EF052
:101874003BBF0022062101200EF036BF4022032187
:1018840001200EF031BF0122032110460EF02CBFBF
:101894000022032101200EF027BF02220321012090
:1018A4000EF022BF0122002109200EF01DBF0023EB
:1018B40010B501211C4640FA03F2D20744BF03F1DC
:1018C4000B0201FA02F203F1010348BF1443102B87
:1018D400F1D10A2019F09CF92046BDE810400121FD
:1018E40008F084B9024B186047F6FF70FFF7DFBFBA
:1018F400BC40002038B505460AF0CAFC902D0446C9
:10190400024614D1124901200DF07EF9114B1A78C8
:10191400114B3AB10020114A1B68107003B198476B
:10192400012038BD1B68002BFAD00220F7E70C49D0
:1019340001200DF069F92CB9074B1B68002BEFD07F
:101944000420ECE7032CEBD1034B20461B68E6E7AD
:10195400FE34030076240020BC400020AC4000206C
:101964000D350300002208B5054B1A700AF090FCEF
:1019740028B908F067F8034A13780133137008BDD7
:10198400AC4000207624002008B50AF081FC40B960
:10199400044B40F6B83118701846BDE808401CF0F6
:1019A40055BF08BDAC40002000230348034A037020
:1019B40013701CF03FBF00BFB44000207724002008
:1019C4001FB50AF065FC28B3144C2378042B21D8E6
:1019D4000223002000934FF48A5203AB48F23401EF
:1019E4008DF80D00FFF7E8FE23782BB100F0B9F86D
:1019F40018F018FD1FF0A8FF2378094901330120CE
:101A040023700DF001F94FF47A7106481CF01EFFA3
:101A140004B010BD02F088FAFAE700BF7724002072
:101A24004F510300B4400020436810B55A8848F26F
:101A340005039A420DD1084B90F91140186800F043
:101A4400DEFF22460346054901200DF0DDF80120A2
:101A540010BD0020FCE700BFC04000201E3503007D
:101A640030B51C4600230546104691B08DF80D3064
:101A74008DF80E309DF850308DF80C10224601463A
:101A840004A88DF80F30043430F0ADF803AB0093A4
:101A94000194044B0122294610200CF077F811B070
:101AA40030BD00BF7433030008B501210CF0F4F815
:101AB400BDE80840002108460CF0CCB830B501243C
:101AC4001A4B89B01868596806AA03C253F8080F5C
:101AD4008DF80F401B7904908DF814300AF0D8FB70
:101AE400022820D142250E2306AA052100200095B4
:101AF400FFF7B6FF2046FFF7D7FF052304AA04210A
:101B040000200095FFF7ACFF2046FFF7CDFF202310
:101B1400002000930DF10F0223462146FFF7A0FF9A
:101B24002046FFF7C1FF09B030BD00BF3A350300BE
:101B34007FB51026054604AC04F8011D2246012396
:101B4400002100960620FFF78BFF2846FFF7ACFF25
:101B5400009623460022062128460BF01BFE04B003
:101B640070BD1FB50223002000934FF48A5203ABCB
:101B740048F234018DF80D00FFF71EFE05B05DF844
:101B840004FB7FB52326054604AC44F8041D224615
:101B94000423002100964FF48060FFF761FF28467C
:101BA400FFF782FF0096234600224FF48061284607
:101BB4000BF0F0FD04B070BD7FB52326054604ACE0
:101BC40044F8041D224604230021009640F20240FA
:101BD400FFF746FF2846FFF767FF009623460022DB
:101BE40040F2024128460BF0D5FD04B070BD000060
:101BF4002DE9F04F8246894615469B460026DFF8BC
:101C0400C48085B0F4B26946204618F013FA07463A
:101C1400204618F007FA044667B99DF801204A45A2
:101C24000BD19DF80430534507D1584505D10136F1
:101C3400032EE7D105B0BDE8F08F4FF6FF739C4249
:101C4400F5D0231D9BB2012BF1D94A45EFD1BDF844
:101C54000270062FEBD1012D19D1184928460CF03A
:101C6400D3FF43462A46394628460BF08FFF9DF89A
:101C740004109DF801000CF00FF8214600200BF031
:101C8400E9FF29469DF80100FFF752FFCFE70C4911
:101C940001200CF0B9FF43460022394601200BF025
:101CA40075FF9DF804109DF801000BF0F5FF214627
:101CB40000200BF0CFFF0021E4E700BF473503000D
:101CC4005E350300391D030037B5A1F10B02042A68
:101CD40004460B4601F1FF3511D8A1F10A0343492B
:101CE400421C01200CF090FF0D2D55D8DFE805F0C3
:101CF400122E485F54545454545454545472EAB2F7
:101D0400082A02D8421C3A49EBE73A4901200CF070
:101D14007BFFE9E704217CB9204600F0B1FC0121F6
:101D24000846FFF705FF012223461146104603B07B
:101D3400BDE83040FFF75CBF012000F0A1FC0121A9
:101D4400022003B0BDE83040FFF7F2BE7CB92A4957
:101D540001200CF059FF204600F040FC21460120F0
:101D6400FFF7E6FE0121234622460846DFE7234922
:101D740001200CF049FF012000F030FC0021DFE7D6
:101D8400C8255CB9012006F027FB03222B46114627
:101D94002046009500F09EFC03B030BD18F042FBD5
:101DA40002F0C2F82B4603220095052108E0C8255D
:101DB40044B9012006F04AFA2B4603220721009574
:101DC4000120E7E718F02EFB02F0AEF800952B4651
:101DD4000422EAE724B903B0BDE83040FFF7D4BDDC
:101DE40003B0BDE83040FFF7DFBD00BFD0350300CE
:101DF400E1350300F6350300FF350300093603001F
:101E040013B50C46A1F10A03421C074901200CF04A
:101E1400FBFE0E2C06D164230222009311460120FE
:101E240000F058FC02B010BDBC35030013B50446E5
:101E34001F4901200CF0E8FE042C37D8DFE804F039
:101E44001B1003101E0003221A4B4FF47A711A70F0
:101E540000231948037002B0BDE810401CF0F6BC22
:101E64000122144B1A7000231348037002B0BDE81A
:101E740010401CF0DFBC0F4B0322F3E70F4B1B7821
:101E8400A3B10F4901200CF0BFFE4FF49673032257
:101E940000930521002000F01DFC0222054B06489A
:101EA4001A70002340F6B8310370D4E702B010BDB5
:101EB4001336030089240020C84000208824002011
:101EC4002B36030008B5154901200CF09DFE00F0E7
:101ED400A9FB1349134800F0ADF91348FFF702FDBD
:101EE40000F0CAFA00F0B8FC00F0EEFCF0EE000AD4
:101EF4009FED0E1AB0EE600A00F03AFA4FF47A71D0
:101F04000B481CF0A3FC0B484FF47A711CF09EFCA8
:101F1400BDE8084008481CF08DBC00BF3F360300F4
:101F2400CD1C0000051E0000311E00006F12833A14
:101F3400EC400020D4400020C8400020F7B5002029
:101F44001A4D1B4E2C783070022C2F4619D0032CBE
:101F54001ED06CB90AF09CF94FF4967303220093D7
:101F640050B9012100F0B6FBFFF70EFD01233B70D1
:101F74000023337003B0F0BD0521204600F0AAFB16
:101F8400F4E701232B70FFF7ECFD01F0CDFFEFE741
:101F94004FF49673224601240093052100F09AFB26
:101FA400044B1C70FFF78AFD2C70E1E789240020A4
:101FB400C840002088240020837B70B505462BB1DF
:101FC40003685A88062A03D0082A45D0002070BD29
:101FD4005C790679C37C2246324901200CF014FE58
:101FE400A6B1022E17D0ED7CBDB1012DEED1012C8E
:101FF40027D12D4920460CF007FE0421002000F0D3
:102004003FFB21462046FFF793FDDFE727490120E8
:102014000CF0FAFDE7E72649F9E7012C09D120463F
:1020240024490CF0F1FD284600F0D8FA2946204650
:10203400E9E7022CCAD101201F490CF0E5FD01207B
:10204400F2E7022CC2D128461C490CF0DDFD042124
:10205400284600F015FBE9E7C27C002AB6D1027DD0
:102064008089511C8842B1D35C79AB6814499D5C6A
:1020740001202A460CF0C8FD012CA7D1452D02D918
:102084000221204603E0272D04D92146204600F0F2
:10209400F7FA9BE70DB10421F3E7204600F09EFA1E
:1020A40094E700BF49360300AA36030088360300CC
:1020B40098360300FF35030009360300B3360300E6
:1020C400BC36030000230248642103701CF0BEBB2D
:1020D400E0400020002238B5184B194D1A7000F06A
:1020E4002DFA2B68174C1B1A002BB8BF5B421E2B12
:1020F4000146206011DD28600320FFF742FD2A68B5
:10210400114901200CF080FD41F288332A689A427B
:102114000FD90221012000F0B3FA22680A490120F4
:102124000CF072FDBDE8384041F2883103481CF0E0
:102134008DBB012000F052FAEFE700BFEC40002015
:10214400842400208024002076350300002370B509
:102154000D4C0E4D237000F025FC286000F038FC77
:102164000B4E014630600420FFF726FD33682A68D1
:10217400084901200CF048FD2046BDE8704042F2B9
:1021840010711CF063BB00BFD440002078240020F1
:102194007C2400208F350300F8B5224C6368834209
:1021A4002ED0636998422DD10125EDB22D0163191A
:1021B4005E683023625D1C485343002294461844F1
:1021C4000368F34003F001030168F14001F00107E3
:1021D400BB4219D10132052AF6D162191772B3B97B
:1021E400537A01335372137B13B910481CF022FB4A
:1021F400002301222C44A37263732273E372F8BD9B
:102204000025D2E7FF25D1E700223B46DCE7012386
:1022140082F80CC0D3724FF4FA71BDE8F840044858
:102224001CF014BB341D002014C00340FC400020EB
:10223400044100202DE9F74307460E46012502F02C
:1022440017FD104CDFF8489004F120080023012208
:102254006168207804F08EFD4946207902F016FD6D
:10226400626814F8100BCDE900550123114604F0FF
:102274003BFD4445EAD1044B1F60044B1E6003B090
:10228400BDE8F083341D00208C240020902400201D
:102294009D2100002DE9F84300241A4B4FF0050856
:1022A4001C704FF001092346174D184FEE7826B3E2
:1022B4006B780133DBB2042B84BF00222A703A68A6
:1022C4006B7088BF85F804905AB1B3FBF8F101EB49
:1022D40081001B1A13F0FF0F03D10A31C9B2204643
:1022E4009047103534B156B1BDE8F843C8210548CC
:1022F4001CF0ACBA01243346D8E71E46F1E7BDE82A
:10230400F88300BFFC4000203D1D00208C240020E9
:10231400F8B500252E46134B134C144F1D70E37A69
:102324007BB13B683BB1627BE8B27AB9617A0A2936
:1023340028BF11219847A67266722673E672267228
:102344006673103405B1F8BD0125E8E7A17A1D29AB
:102354009FBF0522B1FBF2F10A31C9B288BF112136
:10236400E8E700BF04410020341D00209024002031
:10237400044B83ED000A044BC3ED000A034B83EDC9
:10238400001A7047F8400020C4400020D0400020CC
:102394002DE9F8432B4D2C4B2DED048BD3ED007A16
:1023A400D5ED008A78EEA77A284C88EEA79AD4ED6A
:1023B400007A30EE670AB0EE678AA9EE008A77EEFB
:1023C400C87AF0EEE77A224B17EE900A83ED009A72
:1023D400204B83ED008A2EF0AFFE1F4B0646186893
:1023E4000F462EF0A9FE02460B46304639462EF023
:1023F400FBFE064619EE100A0F462EF09DFE02461D
:102404000B46002015492EF037FD804618EE900A41
:1024140089462EF091FE02460B46404649462EF070
:10242400E3FE02460B46304639462EF027FD2FF0D8
:10243400B3F9B0EE480A84ED008ABDEC048B286041
:10244400BDE8F883C4400020F8400020F440002098
:10245400E8400020DC400020D04000200000F03F95
:1024640007EE900A08B5B8EE670AFFF791FFFCEE95
:10247400C07A17EE900A08BDF0B52B4E8FB008ADA8
:1024840000240FCE03270FC596E80300012685E834
:102494000300264DCDE903442846CDE905440794BD
:1024A4008DF80E708DF808608DF809408DF80A409B
:1024B4008DF80B4004F0CAFE0221052004F0C4F993
:1024C400022322461A4928468DF8173004F034FFB7
:1024D40023468DF819000090224642F210712846D6
:1024E4008DF8237004F040FF04238DF82130A523D8
:1024F4008DF8250008AA05A928468DF809308DF81D
:102504000E408DF8086004F053FF02AA03A9284680
:1025140004F05CFE074AD2F8283343F48033C2F84F
:1025240028330FB0F0BD00BFEC3603000040004A72
:1025340040420F0000C003400000000007B5002225
:102544001E4B1A7001221E4BDA605A6902F4A07203
:10255400B2F5807FF9D11A49684605F07FF80098F2
:10256400184B1860FFF77CFF174B184A1860184B7C
:1025740003FB0023B3FBF0F0164B186018682EF031
:10258400B9FD9FED0A1B41EC100B2CF097F809A341
:10259400D3E9002351EC100B2EF026FE2FF0D4F8D3
:1025A4000D4B1860186803B05DF804FB6666666638
:1025B4006666F6BF00000000D8227E41EC40002091
:1025C4000040004A9C24002094240020408AF70103
:1025D400F0D8FFFF0C4100209824002048235843E2
:1025E40001230E4970B530250A18085C51680C4C5B
:1025F40003FA01F641F2100105FB00404650107E3B
:10260400D66905FB004003FA06F6465092F83000FE
:10261400526B934005FB0042535070BD541D002083
:1026240000C0034070B5124D00242E462919285DC0
:10263400002304224968183404F09CFB482CF5D18B
:1026440000243019C16C0023042290F84800183487
:1026540004F090FB482CF4D10020FFF7BFFF0120C9
:10266400FFF7BCFF034B044A1A60044A5A6070BD6A
:10267400541D0020504100204841002010410020FA
:102684004823124A2DE9F04103FB002001270022D0
:10269400302641F2100C42F2100E0D4D03784468BE
:1026A40006FB035341FA02F818F0010F07FA04F489
:1026B40002F1010214BF43F80E4043F80C40032A10
:1026C40000F11800EAD1BDE8F08100BF541D0020DC
:1026D40000C0034030B41824084D04FB0054012505
:1026E400E360029BAA402361054B22752572617247
:1026F40053F8200030BC1CF09DB800BF18410020E6
:102704005041002018222DE9F047404D044602FBB9
:102714000052137D3E49002B59D013F0010F4FF0A6
:10272400480332D003FB00134FF0010E0021302781
:1027340041F2100842F2100992F809C0354E1A7895
:10274400586807FB02624CFA01FA1AF0010F0EFAFC
:1027540000F001F1010114BF42F8090042F8080039
:10276400032903F11803EAD1182303FB0453D9689E
:10277400294B53F824001CF069F8182303FB045474
:10278400237D013B2375BDE8F0874343C818CE5C25
:1027940001234FF0300C41681E4F03FA01FE41F251
:1027A40010010CFB067646F801E090F818E0C669C3
:1027B4000CFB0E7E03FA06F64EF8016090F83060CA
:1027C400406B83400CFB067043501169D0E71372D1
:1027D40048235C43012330250A19085D51680D4CD8
:1027E40003FA01F641F2100105FB00404650107E49
:1027F400D66905FB004003FA06F6465092F830000D
:10280400526B934005FB00425350BCE71841002033
:10281400541D002000C00340504100200020044B00
:102824001870044B1B7A012B01D1FFF76BBF704763
:1028340048410020184100200022054B1A70054B26
:1028440093F82000012801D1FFF75CBF704700BF57
:10285400104100201841002030B585B06C46164B5D
:10286400164D0FCB84E80F0001230B22194618469E
:1028740004F080FA01230B221846002104F07AFAAE
:102884000F4B1048D3F8A014014041F00111C3F8D4
:10289400A014D3F89C242146024042F00102C3F85C
:1028A4009C2403222846C3F8982404F0EBFA10234E
:1028B400AB6005B030BD00BF043703000000014A1F
:1028C40000C00340FCFFF0FF4CF6FC1230B5184B7F
:1028D40089B0039308AB23F81C2D04930223ADF8AD
:1028E400143002AB0693032303A91248ADF81C303D
:1028F40004F0F6FB04460F4D012C13D022460E497A
:1029040001200CF081F99DF808200CB9142A03D099
:102914000A4901200CF078F9094901200CF074F9F6
:1029240009B030BD284604F0CFFA0446E4E700BFFE
:10293400800004000000014A143703002437030018
:102944004B370300F0B5154B87B000AF7B6007F140
:10295400180303F8181DBB600123BB81022307324F
:1029640002F4FC72ADEB020D0546391D0C48C7F8A4
:1029740010D0BB826C4604F0B3FB094E012808D08A
:102984000120227863781C3703EB02232B60BD46B9
:10299400F0BD304604F098FAF0E700BF8000040070
:1029A4000000014A07B50222E52101A8FFF7CAFF8A
:1029B40050B143F2D403019A534364221B0CA3F590
:1029C4001673B3FBF2F30193019803B05DF804FBB3
:1029D40007B50222E02101A8FFF7B4FF58B144F281
:1029E400A443019A534364221B0CA3F592530D3B59
:1029F400B3FBF2F30193019803B05DF804FB10B547
:102A0400044617F0F6F9A04236BFE443001B001950
:102A140010BD002307B5CDE90033012369464FF00B
:102A2400FF308DF802300FF06FFD003018BF012029
:102A340003B05DF804FB01207047012070470120BA
:102A44007047000010B5084C23681B6858790AF0D9
:102A540090FB23681B685879FDF737FF00200DF0C1
:102A640029FB012010BD00BF9C4C00202DE9F84F2C
:102A740080460D4614469946164E06F1010A0DB9D4
:102A8400BDE8F88F102D4FF00D02494650462F46F1
:102A940028BF1027FEF7B4FB0123337000230D4831
:102AA400F473B37324F040FC424601340A495FFADC
:102AB40087FBE4B212F8013B11F8010F434002F81E
:102AC400013CA2EB0803DBB25B45F3D3ED1BADB2D3
:102AD4009046D4E7A4240020A32400202DE9F04F3D
:102AE4004FF00209364D85B003930F9B17460190B2
:102AF4000D220E460146681CBDF838800293FEF78D
:102B04007FFB49234C46AA462B7028464FEA1823DC
:102B1400AB7385F80F8024F007FC2B7883EA172326
:102B24002B706B787B406B704FF0000B21E0C4F18D
:102B3400100CA7EB0B031FFA8CFC9BB2634528BF58
:102B440063463046A11B00EB010C5FFA8CF2A0EB4C
:102B5400060C1FFA8CFC9C451BD31C44E4B29B441A
:102B6400102C1E441FFA8BFB03D1284624F0DCFBF7
:102B74000024BB45DBD314B1504624F0D5FBB9F196
:102B8400010F4FF00004039E47460BD04FF001099C
:102B9400CAE710F801CB1AF802E08CEA0E0C0AF826
:102BA40002C0D0E7029804220549FEF729FB224619
:102BB4000421019B029805B0BDE8F04FFFF756BF12
:102BC400A4240020F7B5099FBDF820400646CDE9AE
:102BD40000471D46FFF782FF2CB1334601222146F0
:102BE4002846FFF743FF002003B0F0BD2DE9F7436B
:102BF4001E46054688469146BDF828700D4C03468E
:102C0400394630460122FFF731FF33464A464146F2
:102C14002846CDE90074FFF761FF042221460B9892
:102C2400FEF751FB002814BF7E20002003B0BDE84E
:102C3400F08300BFA02400202DE9F3410C46154683
:102C44001E468046084F9918214438460422FEF750
:102C5400D7FACDE9006763192A4621464046FFF7B3
:102C6400C5FF02B0BDE8F081B42400200020704705
:102C74000020704770477047F7B50024094E0A4F8B
:102C84000A4D56F8243003B93B6835F81420084936
:102C940000920120224601340BF0B6FF292CF0D11A
:102CA40003B0F0BDE41D00208C1E0020CC410020A8
:102CB4006437030008B5FFF7DFFFBDE8084000F004
:102CC400F1B8000007B50020FDF72AFFC2B2282A98
:102CD4000DD8084B53F822300BB9074B1B68074932
:102CE400012031F81210009105490BF08DFF03B05B
:102CF4005DF804FBE41D00208C1E0020CC41002064
:102D040064370300FFF7B8BF7047000038B50020F0
:102D1400FDF706FF04460120FDF702FF05460549BD
:102D240001200BF071FFA9B2E0B2BDE8384000F019
:102D3400D1B800BF6F370300F7B50024094E0A4F1E
:102D44000A4D56F8243003B93B6835F81420084975
:102D540000920120224601340BF056FF292CF0D1B9
:102D640003B0F0BDE41D00208C1E00207A41002039
:102D74006437030073B502AB03E906000446019D02
:102D84001BF012FA064620461BF01CFA9DF80000C0
:102D94008EB1202C0FD82B78012B37D84FF6FF7526
:102DA400394903EB4313234431F81320AA4202D0D8
:102DB400013221F813204FF6FF72344B344933F8B3
:102DC400146031F8145096421CBF721C23F814206E
:102DD40004F0FD02092A31D19A8A898A02448A427E
:102DE400B4BF9A82998233F81430AB4204D3AE4212
:102DF40002D22046FDF76AFD0025264BEA5CA2427A
:102E040028D00135112DF9D102B070BD022BD2D1D9
:102E14004FF6FF714FF6FF751B4B33F814208A42AF
:102E24001CBF013223F8142004F1210233F81210DC
:102E3400A9421CBF013123F81210BCE71D2CD2D1CA
:102E44005A8F1118A942BDBF02F1FF3212185A87D6
:102E54005D87C8E717F0B7FB0F4B04461B78834226
:102E640003D8DD210D4800F0FDF94FF6FF710C4A3F
:102E740004EB04142C4432F814308B42C4D00133D4
:102E840022F81430C0E700BF1E420020CC410020CD
:102E94007A410020EF3A0300111D0020573A030045
:102EA40058410020522200210148FEF705BA00BF14
:102EB400CC4100205222FF210148FEF7FDB900BF9A
:102EC4007A41002008B5FFF7EDFFBDE80840FFF7A1
:102ED400F1BF0000014B23F8101070477A41002025
:102EE400032310B50F4C4FF48062C4E904330E4B36
:102EF4000E49E3610023A16121660D49E01DC4E987
:102F040019120C49A3626362E3622367E366636791
:102F140022622EF07BFE084920462EF077FE202305
:102F2400A37110BDA4420020B8280020003B030078
:102F3400B8240020093B03000D3B03002DE9F84FA2
:102F44001F4B16461A7881468A4698460AB9FFF7F7
:102F5400C7FF182707FB09873D6FD7F86CB05D459D
:102F64002BD9BC6E796E641BB44228BF3446294405
:102F7400504622462EF037FEBB6E2544AB4208BFB6
:102F84000025A244361BABEB050B5E4528BF5E460D
:102F940056B1182303FB0983596E3246294450461F
:102FA4002EF021FE3444354424B1182303FB098850
:102FB400C8F870502046BDE8F88F0024E3E700BF4E
:102FC400A442002010B50B46EFF311844FF020010A
:102FD40081F311881946FFF7B1FF84F3118810BDFE
:102FE4002DE9F84F144D9B462B788146884692462E
:102FF4000BB9FFF775FFEFF3118C4FF0200181F34C
:103004001188002018236F6903FB0054666E2EB1EB
:1030140001308742F8DC4FF0FF3009E08742FADDE7
:10302400C4E91898C4F868A02667E666C4F874B0C2
:103034008CF31188BDE8F88FA4420020FFF750BF3D
:1030440070B54FF060441A4B00261A68194D42F0CF
:1030540001021A60DA680C2042F08072DA60164BC2
:10306400C4F8B03F0223C4F8006EC4F8806EC5F8FB
:10307400F03003F0ABFA114B00F5D52000F2FC4020
:10308400B0FBF3F00E4A0F4B01382861C4F8406ED0
:103094001A600D4BC4F8803E4FF48073C5F80433B6
:1030A400D4F8003E43F48073C4F8003E70BD00BF02
:1030B400F0ED00E0000004E055CEACC5F8590D0079
:1030C400FF030040001000E00D00010010B50124D2
:1030D4000E4B00201C6003F005FE2346042203214E
:1030E400002003F047FE20460EF01EFFFFF7A8FF66
:1030F4000EF01BFFFFF7A2FF2346402204490548B8
:10310400FFF76EFF044B1860C00F10BD44D403409A
:10311400B82C0020143B0300901E0020024B1868BA
:10312400003018BF01207047F0ED00E0D123054ABC
:10313400037013784170090A8170591CC3701170AF
:1031440004207047F82C00202DE9F74F354E074630
:1031540033681C5C032C63D9DFF8CC8016F044FE82
:103164004FF6FF7A0025C1460534E4B20190D8F841
:1031740000204AB1AC4207D916F036FE019BC01AB2
:1031840080B2B0F5FA7F05D9601B18BF012003B0E7
:10319400BDE8F08F002D3DD0012D1DD14FF0020B65
:1031A4003268D55D4FF06042D2F8801ECB0711D54E
:1031B4001146D9F80C0040F08070C9F80C00D1F821
:1031C400000E40F48070C1F8000E086A0028F0D0A8
:1031D40082F820505D46CAE7E21E05F1010B9542D4
:1031E4005FFA8BFB02D15FFA8AF5DBE7A21E9542F8
:1031F40002D1CAF30725D5E7621E95420ED0A91E57
:10320400C9B238461BF00EFF51460546FDF768FF6C
:103214008246C7E75B254FF0010BC3E75D25C1E795
:103224000120B4E7C81C0020F0ED00E010B50B4B02
:1032340090B0402269461868FFF7C4FE58B1C1B285
:1032440068461BF079FE0446014612200EF018FB76
:1032540020461BF013FD10B010BD00BF901E0020CF
:1032640042DE704738B504460D4600F001FD03F018
:1032740094FC294620460EF0CFFA2B4622460549F7
:10328400012007F0D3FC29462046BDE83840FFF76B
:10329400E7BF00BF243B03006D4B2DE9F0415A68A2
:1032A4006C4CA2655A6AE2656B4AD2F80012216638
:1032B400D2F8042262669A6AA266DA6AE2661A6B35
:1032C40022675A6B6267A26BDB6B12F0040FA36771
:1032D400D4E90F5318BF1D4616F06AFD002285423B
:1032E4000346606522655DD35C4A95425AD8AA6953
:1032F4006264E969A164B4F85810C1F308010629AD
:1033040054D157498A4251D356498A424ED21188E0
:103314004DF64262914249D140F201706268C4F8AC
:103324009420A268C4F898204F4A5049934238BF69
:1033340013460A468B423CD3D31AE3640023C4E900
:103344001F33C4E92133C4E92333484E444FDFF823
:1033540014C1AE4233D8D4E91FC7D4E92165D4E9F6
:1033640023124FF0000E013BDBB2FF2B42D1BEF122
:10337400000F05D0C4E91FC7C4E92165C4E92312BD
:10338400B4F85830C3F30803052B57D03CD8032BAB
:1033940047D0042B58D040F60722013B4B2B98BF53
:1033A400104640E000221D46C4E911224FF420607B
:1033B400BAE71E68B6F1CD3FBED10433BAE756F87A
:1033C400042DBA42C5D36245C3D2D107C1D5002169
:1033D40004EB010EDEF87CE09645BAD004311829DE
:1033E400F6D10BB9052301E0013BDBB204EB830109
:1033F400CA67AEE7E0464FF0010EBC4637462E469C
:103404000D4611464246AEE70C2B1AD03B2B0CD08E
:10341400062BC0D140F60423B0F5206F08BF184630
:1034240001E040F60120BDE8F081114B9B6913F0E7
:10343400020F40F2025318BF1846F4E740F6032087
:10344400F1E740F60520EEE740F60220EBE700BF87
:1034540000ED00E00000002000E100E0A01A0020E0
:103464004C030000481C03009C000020C01A0020EC
:103474000080014A10B504F0E9F9044604F0DEF9CD
:103484000022012101FA02F3234014D01B4B33F82C
:1034940012301B4A062B13D040F207218B420DD168
:1034A400184919480C68844208D14CF23C334B80CB
:1034B4000B88138012E00132102AE3D1104AF8E796
:1034C4004FF20F010F4B5888884214D11988B1F577
:1034D400406F10D211804CF23C325A80084B1A884B
:1034E40040F201739A4201BF084B094AD2E9000134
:1034F400C3E9000110BD4FF4C061EBE7383B0300A2
:10350400042D00200000002007020FF0FC2C0020F6
:1035140094000020014B1888000A7047042D0020F5
:10352400014B1888704700BF042D00202DE9F04F8F
:103534004D4C0546A36BD4F850B05A0747BF00273B
:10354400B846D4F84CB0D4F85480D4F840A05DBF49
:10355400464FD4F83CA0DFF83C91DFF83C9113F0DF
:10356400080F434B434A18BF1A46B7EB08061FBF60
:103574006421730801FB0B33B3FBF6F387B01CBF64
:103584009BB205933C494B46CDE9017ACDF80080C6
:1035940008BF059601F0BEF8B3B2CDE900931FFA57
:1035A4008BF2059B3549284601F0B4F8A36B5B0701
:1035B4000AD49C3E5E4507D1626D314B9A4203D2D8
:1035C4003049284601F0A6F8BA4501D8C24504D2CC
:1035D4004A462D49284601F09DF8284607F020FB6D
:1035E400236E0BB9636EBBB32849284601F07DF8FE
:1035F40000260127DFF8A480DFF8A490226E07FAE2
:1036040006F3134207D058F8262013781BB1494615
:10361400284601F06AF80136202EEFD10026012752
:10362400DFF87880DFF87890626E07FA06F31342C9
:1036340009D008EB8603D3F8802013781BB14946E0
:10364400284601F052F801361D2EEDD1284607B068
:10365400BDE8F04F01F058B828460D4907B0BDE861
:10366400F04F01F057B800BF00000020C01A00203E
:103674003F3E0300463E03004E3E03007C3E0300F3
:103684009C000020B53E0300E13E0300FF3E030022
:103694002E3F03003A3E030015570300443F030046
:1036A400506803002DE9F8430446FFF739FF40F65C
:1036B4000123984239D010D840F2025398421DD0C9
:1036C40040F20173984224D040F20153984213D13E
:1036D4006549204601F01EF822E040F60323984293
:1036E4006CD03DD340F60423984200F09C8040F611
:1036F4000523984200F0B580BDE8F8835B49204675
:1037040001F008F85A4B5B495A6C204601F002F864
:1037140006E0574A5849D2E92523204600F0FAFF2B
:103724002046BDE8F84307F07BBA514D5349204683
:1037340000F0F0FF95F86C309F0703D55049204600
:1037440000F0E8FF95F86F305E0603D54D4920463A
:1037540000F0E0FF95F96F30002BE1DA4A49B8E751
:10376400434D4A49204600F0D5FF95F86830980744
:1037740004D06A6C3F49204600F0CCFF95F96830CC
:10378400002B04DA6A6F4249204600F0C3FF00268A
:103794000127DFF80881DFF81491AA6E07FA06F30F
:1037A400134207D058F8262013781BB14946204607
:1037B40000F0B0FF0136082EEFD1B1E72C4D3549AA
:1037C400204600F0A7FF2B496A6C204600F0A2FFB8
:1037D40095F86930590703D52F49204600F09AFF20
:1037E40095F96930002B04DA6A6F2949204600F004
:1037F40091FF0826294FDFF8B480AB6EF340DA0757
:1038040007D557F8262013781BB14146204600F00F
:1038140081FF0136102EF0D195F86830002B7FF42B
:103824007FAF1F4955E7124D1E49204600F072FF35
:103834006A6C1049204600F06DFF1026174FDFF820
:103844006C80AB6EF340DB0707D557F8262013785E
:103854001BB14146204600F05DFF01361A2EF0D11F
:103864005EE711494BE700BFC93B0300063C030078
:1038740000000020363C03004F3C0300693C030079
:10388400813C0300BB3C0300EE3C03002A3D0300E3
:103894004F3D0300733D03008A3D0300583B030082
:1038A400D03D0300003E0300193E03006B3D0300BE
:1038B4002DE9F84F06460025154C164FDFF85C80BD
:1038C400DFF85CA023785FFA85FB0BB9BDE8F88FBD
:1038D40057F8043B22461049304600F006FF227890
:1038E40004F1010982B9627882B10BF00301032962
:1038F4000CBF41465146304600F0F7FE304607F013
:103904008FF901354C46DDE74C46E8E74146F2E7DE
:103914003840030004000020C03B0300371D0300AF
:10392400F25B030000F00CB800F00AB800F008B82D
:1039340000F006B800F004B800F002B800F000B8D7
:1039440072B61EF0080F09D01EF0040F0DD0DFF878
:1039540050E0AEE8FF1F6FF002000CE0DFF840E03B
:10396400AEE8FF1F6FF00E0005E0DFF834E0AEE8CC
:10397400FF1F6FF006006946EFF309828EE8070027
:1039840086460848084C854501D3A54501D384F3F0
:103994000888FFF781FC84F3088816F0E5F9000035
:1039A40004000020A0110020C01A0020FFF7C6BFA9
:1039B400704770477047704700F07E63B3F17E6FC5
:1039C40070B505460E46144616D105F07BFC18B1B9
:1039D4009A210D48FFF746FC22463146C5F30B00F9
:1039E40003F0F0FF044605F079FC5CB19D21BDE8CD
:1039F40070400548FFF736BC520816F053F908B179
:103A04008F21F4E770BD00BF5C47030037B57F2A00
:103A140014BF154600254BF234629142044619D175
:103A24007F2241F2020168460823FFF7EFFF0822D4
:103A340025496846FDF747FC30B908237F2241F247
:103A4400F0116846FFF7E2FF082269462046FDF7B9
:103A5400D7FB09E041F2F01291421AD11B49013817
:103A64008A6CC96C1D1F0BB903B030BD013B9D426C
:103A740000F8012F4FEA1222F5D1002203349A42B2
:103A8400F2D00132042A04F8011F4FEA1121F6D1C1
:103A9400EAE701F47042B2F5805F07D1C1F30B0489
:103AA40004F17E649AB203FB0541D0E701F460425D
:103AB400B2F5005FD8D1C1F30B0405499AB2214491
:103AC40003FB0511C3E700BFEA4703000080E00FD2
:103AD40000E0070070B5054616461C46DBB14BF204
:103AE4003463994210D1082C28BF08247F2241F264
:103AF40002012346FFF78AFFA2B207492846FDF7D1
:103B0400E2FB40B941F2F011234632462846BDE8B3
:103B14007040FFF77BBF70BDEA4703002DE9F74310
:103B24000446E0070F46154603D5DD213448FFF768
:103B340099FBE90703D5DE213148FFF793FB04F431
:103B44007043B3F5805F3ED1C4F30B0404F17E648B
:103B54006B1E2C4A23449342264603D9E32128486A
:103B6400FFF780FBDFF8989006EB050846453DD14A
:103B7400A2070ED04FF6FF7337F8022B02A943EACF
:103B84000243A01E41F8043D0422FFF715FF02344E
:103B9400023DAB070ED0023D25F00103FB5A02A9FA
:103BA4006FEA03436FEA1343042241F8043D6019AA
:103BB400FFF702FF25B12A4639462046FFF7FCFEEF
:103BC40003B0BDE8F08304F46043B3F5005F05D1AE
:103BD4000D4BC4F30B041C442646C3E7EA210848F2
:103BE400FFF740FB6FF00F060024BBE716F8013B1C
:103BF400FF2BBBD0F4214846FFF734FBB6E700BFE8
:103C04005C470300FF1FE00F00E00700FFF78ABED8
:103C14001FB5144A01AB10685168128903C31A8096
:103C240001238DF804300D238DF80A3003230E4C44
:103C3400082123208DF80B3002F006FE01A920464E
:103C440004F0F7F84FF40061022342F21800074A27
:103C5400C2F884112350516041F21C02A35004B0F5
:103C640010BD00BFF24703000080014A00E100E0FC
:103C7400014804F0CDB800BF0080014AA52803D153
:103C84000021024804F0B5B8704700BF0080014A23
:103C9400024B586800F00100704700BF0080014AE1
:103CA400024A536A002BFCD1704700BF0080014ACE
:103CB40000207047002070477047000007B572B6B7
:103CC40002F06BFF894B8A495B6940228B600023B9
:103CD4000B764B768B76F023CB760B774B778B7703
:103CE400CA77802281F8202081F82130E0236020E7
:103CF40081F822307F4B81F8232083F8002383F856
:103D0400012383F8022383F8032383F8042383F82D
:103D1400052383F8062383F8072383F8082383F80D
:103D2400092383F80A2383F80B2383F80C2383F8ED
:103D34000D2383F80E2383F80F2383F8102383F8CD
:103D4400112383F8122383F8132383F8142383F8AD
:103D5400152383F8162383F8172383F8182383F88D
:103D6400192383F81A2383F81B2383F81C2383F86D
:103D74001D2383F81E2383F81F2383F8202383F84D
:103D84002103202083F8222383F8232383F8242388
:103D940083F8252383F8262383F8272383F828230D
:103DA40083F8292383F82A2383F82B0383F82C032D
:103DB40083F82D2383F82E2383F82F2383F83023CD
:103DC40083F8312383F8322383F8332383F83423AD
:103DD40083F8352383F8362383F8372383F838238D
:103DE40083F8392383F83A2383F83B2383F83C236D
:103DF400CB6823F4E0631B041B0C43F0BF6343F460
:103E04000133CB604B6943F010034B614FF4E02363
:103E14004B6204F08DFBFFF72DFBEFF308834FF0AB
:103E2400CD31354A043B93425DD2344A002192B2EB
:103E34003348FDF741FA62B6684603F0EBFD314BB7
:103E44009B6DDB0318D4304A136823F4FF0323F477
:103E5400FE4343F4BC1343F4A063136052F8043CE0
:103E640023F4704343F4404342F8043C52F8043CC6
:103E740043F4E06342F8043C9DF80130012B0FD178
:103E84009DF8003063B94FF000531B681F4B1B684B
:103E94001F4B1B681F4B1B681F4B1B681F4B1B686A
:103EA4001F4AD2F8803043F00303C2F88030022264
:103EB4004FF040231A6704F0B5FA01F0E5FA002345
:103EC40000938DF80430012368468DF8033002F026
:103ED40000FF00F027F915F099FF12480EF02EF8B4
:103EE40003B05DF804FB1960043B9CE75400000038
:103EF40000ED00E000E100E0601100208C10000003
:103F0400A000002000C0004034C000400040002059
:103F14000080002000C0002000000120004001209B
:103F2400008000405C70030040F2016015F01CBF8B
:103F3400FEF7A0BE08B500210B20FEF799FEBDE8F0
:103F44000840FEF798BE032000F078BA08B5FFF7E2
:103F5400E1FA044B0B289ABF00B203EB8000184629
:103F640008BD00BF4249030008B5FFF7D9FA044B66
:103F7400C0F30F2253F82230C0B203EB800008BD17
:103F84000C49030010B5FFF7C5FA0446FFF7C8FA59
:103F9400C0B228B9012C24D164F07F04E4B216E045
:103FA400072CF9D801A353F824F000BFD33F000035
:103FB4009D3F0000D13F0000D73F0000D73F0000E5
:103FC400DB3F0000DF3F0000E33F00000924204600
:103FD40010BD0224FBE70324F9E70B24F7E70624CA
:103FE400F5E70446F3E700BF07282DE9F84F044638
:103FF4000F462DD0082808BF022421460120FCF7D3
:10400400B0FCFFF745FE651ED5F1000848EB050836
:1040140000B3012C1ED1A520FFF730FE2646EFF396
:104024001089012383F31088EFF3118A4FF0000BFA
:104034008BF31188354D404607F060F8631EC5F8D0
:1040440000B0042B59D8DFE803F00E4D4D51550054
:104054000324D2E7FFF71CFE18B1FFF721FE002668
:10406400DDE70646DBE72A4A136923F004031361FC
:1040740030BF284AD2F82434D2F8202413409BB20B
:10408400254A2B60D2F80011480102D51168490174
:1040940006D4D2F80011880105D51268910102D521
:1040A40043F480332B601C4BD3F80021520506D512
:1040B4001B685B0542BF2B6843F400332B601EB1C1
:1040C4000121164803F095FE404607F037F8CFB1BA
:1040D4008AF3118889F310882146BDE8F84F00203F
:1040E400FCF73FBC012002F0C7FDC2E7012002F04B
:1040F400D7FDBEE702F0D6FDBBE788210848FFF7ED
:10410400B1F8B6E787F31088E6E700BF102D00206A
:1041140000ED00E000C0034000E100E00080014A3F
:104124007249030042F22041044AD2F820341B0CA5
:104134001B045350024A1360704700BF00C0034081
:104144000C2D00200021FFF74FBFFFF7FBBF00003D
:104154002DE9F04F89B00DF0E5FE0746002840F048
:10416400DD806F4E6F4D3168286814F0E7FF044618
:10417400002827D033683C46D3E900019A691268C5
:104184009047336804A89B699B689847336802206A
:104194009B69DB689847326805985368E7B2B3FBBC
:1041A400F0F3BB42916904F1010442D8CB680020CA
:1041B400984733689B695B6898473168286814F0AE
:1041C400BDFF04460026DFF88891002C53D1564BDE
:1041D4004FEA8608F35C002B31D1A246534BF35CC3
:1041E4000193534B03EB080B019B5FFA8AF7BB4225
:1041F400286853D84F4BF35C002B3CD04C4B019FA9
:104204009844FBB27E2B286835D8D8F8003003AA2E
:1042140007EB030A514602AB15F0CAF948452AD008
:104224005146286815F00AFA013704460028E8D0F8
:1042340021E012680B6907FB00209847ABE73C4B71
:1042440003AA53F82670286802AB394615F0B0F972
:10425400484507D078B9039B012B0CD03946286810
:1042640015F0ECF9344B394653F8083028681A68CD
:1042740015F0C8F804460136272EA6D1B4FA84F303
:104284002E4A5B0913702E4B9C4241D02DD8002C32
:1042940032D0013B9C423FD0C5242DE0DBF80030F6
:1042A40003AA1F44394602AB15F082F948450AD0E7
:1042B40010B10AF1010A97E7039B8BB9214B029ACB
:1042C400F35C9A42F5D01F4B1B4A9B5D52F80820C1
:1042D4003946286815F008F80028EAD0044689E72A
:1042E4003946286815F0AAF9EDE7174B9C4211D01E
:1042F40004339C42D0D1C1242B681B7C23B14FF4DE
:1043040089711248FEF7AEFF204609B0BDE8F08F70
:10431400C324F1E7C424EFE7C224EDE7C624F3E79E
:10432400E01E0020DC1E002078230300B4220300DA
:10433400C82303009F230300DC220300142D002064
:1043440002E000F06424030004E000F0024A0300E9
:104354000BE000F0262970B506460C4615461AD81F
:10436400144A127822B3144A1068144A52F82110DD
:10437400134A125D3AB1324615F092F8C0B1BDE865
:104384007040FCF7BCBE7F2D08BF0025324629448F
:1043940014F0F4FFF2E7FF2903D9BDE87040FFF7FA
:1043A40099BB40F24511BDE870400648FEF75ABF7C
:1043B40070BD00BF142D0020DC1E0020C8230300A4
:1043C40078230300024A03002628F8B504460D4664
:1043D400164619D81449097829B31449144F0868A2
:1043E400144951F824103C5D3CB1126815F00AF8E8
:1043F400C8B1BDE8F840FCF782BE7F2D08BF002598
:10440400294414F071FFF3E7FF2805D91A46314611
:10441400BDE8F840FFF782BB4FF4BC71BDE8F8403B
:104424000548FEF71FBFF8BD142D0020DC1E002038
:1044340078230300C8230300024A030008B5084B8D
:104444001B7863B1074B002253F82010064B186801
:1044540015F066F818B1BDE80840FCF750BE08BD79
:10446400142D0020C8230300DC1E002070B516465E
:1044740085180AB9304470BD01F00F030A2B34BF0C
:1044840030243724013A2344090905F8013DD2B206
:10449400EFE70000F0B5F9B100281CDA2D23B0F1E4
:1044A400004F137000D04042012115E0801B86426A
:1044B400ECB205F10105F9D904B927B101274D1C66
:1044C40030345454E9B20133092B09D130305054FB
:1044D4000131C8B2F0BD002100231F46DFF808C037
:1044E4005CF823600025E2E78C4A03002DE9F04FD5
:1044F4004FF0000B95B002AC81468A4617461D4624
:104504005E46A0463B7863B902ABE41AE4B22246A5
:1045140019465046C847002840F093803444E0B21E
:1045240090E0252B13D0BBF1000F14D1237001347C
:1045340012AB9C426DD3A4EB0804E4B2224641467C
:104544005046C84700287CD12644F6B260E0BBF14F
:10455400000F00D101373B78632B00F092801BD809
:10456400392B09D8302B80F09E80002BCCD0252B02
:1045740051D04FF0000BDBE7582B00F08B80622BFF
:10458400F7D14FF0000B2B6801936B680093009BED
:104594009B4543D10835ECE7702B1ED017D8642B0C
:1045A40001D06C2BE5D16C2B05F1040B28686CD180
:1045B4007B78752B14BF0121002101D0642B00D11D
:1045C40001372246FFF766FF04445D46D1E7752BA9
:1045D400E9D0782B5ED0732BCBD1A4EB0804E4B2E2
:1045E400224602A9504605F1040B2D68C84740BB7A
:1045F4002644F6B2C4B22B5D0130002BFAD1224618
:1046040029465046C847E0B95D4683462644F6B27B
:104614004446013776E723700134AAE7019B20461C
:1046240013F80B100222FFF721FF12AB9842044645
:104634000ED3A0EB0804E4B2224641465046C847D4
:1046440018B1002015B0BDE8F08F26444446F6B2F8
:10465400009B013B5B4582BF20232370013412ABD6
:104664009C420BD3A4EB0804E4B2224641465046D4
:10467400C8470028E5D126444446F6B20BF1010BA5
:1046840085E72B6804352370C6E7752B0CBF002122
:10469400012196E7204602222978FFF7E7FE05F17B
:1046A400040B044691E77A7802F0DF02582A19D104
:1046B400322B07F1010B09D10422204629882F1D32
:1046C400FFF7D4FE3D4604465F4652E7342B09D13A
:1046D4002F1D2D680422290C2046FFF7C7FE042253
:1046E400A9B2EDE74FF0010B22E70EB403B503AA1C
:1046F40052F8041B019206F0B7FDC0B202B05DF897
:1047040004EB03B0704700000149FFF7EEBF00BFA0
:10471400371D03000EB433B505AA52F8041B054631
:10472400019206F0A1FD04462846FFF7EDFFE0B232
:1047340002B0BDE8304003B0704708B506F094FD00
:10474400C0B208BD2DE9F04F9B46584B85B01B788D
:10475400064689461546109F9DF844A0DDF8508012
:10476400002B00F09280072A00F291800E9B002B10
:1047740000F08D800F9B002B00F08980129BB3F515
:10478400006F00F38480012801D1002F7FD0484BB3
:1047940003EB05131B7B002B7BD0464C102200211E
:1047A40068462DF02BFA04EB45141022B9F1000FE2
:1047B4005CD1494620462DF021FAA37843F010033A
:1047C400A370E37843F03003E370BAF1000F03D130
:1047D400DBB243F00303E37036496A01129B885A43
:1047E400013B63F30E100E9B01EB020C8852CCF8D4
:1047F40008300F9B9DF84C10CCF804309CF8033023
:10480400012E61F38303CDF800B08CF8033042D15C
:1048140013230CF1100ECCF80C309CE80F008EE83A
:104824000F006FF00301DCF81C20B9F1010F61F3F4
:104834009F02CCF81C20CCF8147004D10F9BCCF848
:104844000470CCF81830002719492A018B1841F854
:104854000280159A28465A609F605E732246694614
:1048640002F052FF384605B0BDE8F08F0021204623
:104874002DF0C4F91023A3700323E370BAF1000FE1
:10488400AAD1DBB243F03003A5E70B48EBE70B48B2
:10489400E9E70B48E7E7B8F1000FD4D19CF8023000
:1048A40068F304138CF80230CDE700BF982E002083
:1048B400182D0020982D0020028000F0018000F0C7
:1048C400078000F038B5104B05461B78BBB1C0B16A
:1048D40002F06BF900230D4901EB0312147B3CB980
:1048E4002B6001231460137302F065F9204638BD70
:1048F4000133082BF0D102F05EF90548F7E70548CB
:10490400F5E70548F3E700BF982E0020182D002096
:10491400048000F0028000F0018000F038B502F05D
:1049240044F9002305460A4AD1180C7B5CB91033BC
:10493400802BF9D102F09AFE064B28461C7002F037
:104944003AF9204638BD284602F035F90248F9E71D
:10495400182D0020982E0020058000F00D4B10B576
:104964001B78044693B1072812D802F01EF90A4BAB
:1049740003EB04131A7B2AB100241C7302F01BF905
:10498400204610BD02F017F90448FAE70448F8E796
:104994000448F6E7982E0020182D0020068000F029
:1049A400028000F0018000F0164B13B51868002354
:1049B40001908DF8043002F0F8F8134B1C7824B100
:1049C40002F0F9F8114802B010BD01221A7002F089
:1049D400F2F80F4B1C731C7783F82C4083F83C408F
:1049E40083F84C4083F85C4083F86C4083F87C4047
:1049F40004230DEB03008DF8073002F05BFE204624
:104A0400E1E700BFB04A0300982E0020038000F0C5
:104A1400182D002010B588B00E9C009207940D9CB0
:104A2400024606949DF8304005940B9C04949DF82E
:104A3400284003940024CDE9013420460B46214646
:104A4400FFF780FE08B010BD10B588B00E9C009230
:104A540007940D9C024606949DF8304005940B9CE7
:104A640004949DF8284003940024CDE901342046A1
:104A74000B460121FFF766FE08B010BD08B50A4BCE
:104A84001B785BB107280BD8084B03EB00131B7B87
:104A940043B1002102F0FEFD002008BD0448FCE7FC
:104AA4000448FAE70448F8E7982E0020182D00205F
:104AB400028000F0018000F0078000F008B50A4B86
:104AC4001B785BB107280BD8084B03EB00131B7B47
:104AD40043B1012102F0DEFD002008BD0448FCE7DB
:104AE4000448FAE70448F8E7982E0020182D00201F
:104AF400028000F0018000F0078000F008B50A4B46
:104B04001B7853B107280AD8084B03EB00131B7B0F
:104B14003BB102F049FE002008BD0548FCE705480A
:104B2400FAE70548F8E700BF982E0020182D00206A
:104B3400028000F0018000F0078000F00D4B1B782C
:104B440093B1072812D889B10B4B03EB00131B7BDD
:104B540073B10A4BDA6A012303FA00F010401ABF5A
:104B640000200B700870704705487047054870476F
:104B740005487047982E0020182D0020000004409E
:104B8400028000F0018000F0078000F00B4B10B5AC
:104B94001B780C4663B107280CD859B1084B03EBBA
:104BA40000131B7B43B102F011FE2060002010BDF6
:104BB4000448FCE70448FAE70448F8E7982E002084
:104BC400182D0020028000F0018000F0078000F022
:104BD4002DE9F843174B1F6D5B6D1F4000D5FEE7B1
:104BE40001260025144CDFF85480DFF85490374236
:104BF40017D02368C8F800609BB1A16862680131CE
:104C0400A16028469847637B012B0AD148B909EB78
:104C14004513197B1A7F60F3410160F34102197354
:104C24001A770135082D4FEA460604F11004DED147
:104C3400BDE8F88300000440182D002050200440F3
:104C4400982D002070B504460125084E04B970BDA6
:104C540094FAA4F0B0FA80F005FA00F324EA03040D
:104C640056F82030002BF1D09847EFE79C2E002017
:104C74004FF00072044BC3F880211A604FF0806239
:104C8400C3F880211A60704700E100E038B504469B
:104C94000D4601F08AFF034B43F82450BDE8384029
:104CA40001F089BF9C2E0020084BD3F82404D3F8CC
:104CB4002024104042F2204220F42A5020F02A00FE
:104CC4004004400C9850FFF7BDBF00BF00C0034034
:104CD400084BD3F82404D3F82024104042F2204295
:104CE40020F4AA4020F055000004000C9850FFF76F
:104CF400A9BF00BF00C00340104A30B5136841612A
:104D04001546ABB91060836011E0091B9C684161D2
:104D14001A467CB123465C698C42F6D9002CF4D047
:104D240052B19060836013B15A69511A596130BD10
:104D34000022F0E72346F4E72860F3E7F02E002092
:104D440010B500F0B1FA094B094A196831B113687A
:104D5400C41A4B69A34203D31B1B4B61106003E0CD
:104D6400C01A002310604B6110BD00BFF02E00205C
:104D7400E02E0020074B10B51B6802205C69064B2F
:104D84001B681C4400F0C4FA2046BDE8104000F043
:104D940093BA00BFF02E0020E02E002070B59DF8DD
:104DA4001450164605710025049A8560BDF8185004
:104DB4000446C5800260C0E903360D4629B9616125
:104DC4000BB11146984796B1354601F0EEFE064602
:104DD400FFF7B6FF29462046FFF78EFF054B1B68F9
:104DE400A34201D1FFF7C6FF304601F0E4FE0020E4
:104DF40070BD00BFF02E002000210C4A13687BB167
:104E040083420AD1836879B18B6083681BB15A6984
:104E140041690A445A610020704719469B68EEE7CD
:104E24000028EFD0022070471360EEE7F02E002038
:104E340070B501F0BAFE114D06462C78CCB9104B72
:104E44001C60104B1C60104B1C8000F0F3F9012017
:104E540000F05EFA00F0AAFA0C4B0246186040F229
:104E6400E73123460A482CF0E7FC0A4B186001237B
:104E74002B70304601F09FFE002070BDDC2E002018
:104E8400F02E0020E02E0020E82E0020EC2E002042
:104E940018FCFFFFE42E00202DE9F0410546F8B18F
:104EA40001F083FE0F4F0646FFF74AFF2846D7F866
:104EB4000080FFF7A1FF044628B1304601F07BFED5
:104EC4002046BDE8F081A8453B6803D123B1FFF734
:104ED40051FFF2E7002BF0D1022000F025FAECE7B5
:104EE4002224EDE7F02E0020F0B50D4685B01646DD
:104EF4001F46044680B1FFF7CFFFBDF82C300022D7
:104F040002939DF828302946CDE9007320463346A4
:104F1400FFF744FF05B0F0BD2220FBE738B50C468F
:104F2400054698B191B100230B7001F03EFE0121BA
:104F3400074B1B680BB122781AB101F03CFE00202C
:104F440038BD9D420CBF21709B68F3E72220F7E730
:104F5400F02E0020F0B51F46002387B00D461646FC
:104F64008DF817300446A0B10DF11701FFF7D6FFF5
:104F74009DF817207AB9BDF83430294602939DF87C
:104F840030302046CDE900733346FFF707FF07B002
:104F9400F0BD2220FBE70320F9E70000F8B50C463A
:104FA4000646C8B1C1B101F000FE0546FFF7C8FED0
:104FB40073692360134B1B68B3420FD023B928468F
:104FC40001F0F9FD03201CE0596922689B680A443A
:104FD4002260F1E700230FE0222012E0276800F0AE
:104FE40063F9094E3368C01A8742F3D900F05CF9BB
:104FF4003368C01A23681B1A2846236001F0DBFDBE
:105004000020F8BDF02E0020E02E002070B501F045
:10501400CCFD064600F048F9094B05461C880120E2
:10502400A4B200F099F918B100F03EF90546013434
:10503400304601F0C0FD0022214642EA050070BD61
:10504400E82E00200A4B10B51B680C4683420CD393
:10505400084B4FF47A7219680023A0FB01012CF06D
:10506400EBFB01302060002010BD2120FCE700BFD5
:10507400E42E0020EC2E0020104B10B51A684FF4DB
:105084007A73A0FB0301A2B1531E134211D1B2FAE9
:1050940082F2C2F11F02C2F12004A2F1200301FA3C
:1050A40004F420FA02F2224321FA03F342EA030051
:1050B40010BD00232CF0C0FBFAE700BFEC2E00204B
:1050C40000000000F8B516461BA3D3E900238B4269
:1050D40008BF82422AD3174B1A684FF47A73A0FB95
:1050E400034503FB0155C2B1531E13EA020014D158
:1050F400B2FA82F2C2F11F02C2F12007A2F120012A
:1051040024FA02F305FA07F73B4325FA01F10B43AE
:1051140025FA02F2C6E90032F8BD002320462946EA
:105124002CF08AFBC6E900010020F5E72120F3E713
:10513400AFF30080EC2E0020EFA7C64B3789410067
:10514400C2072DE9F84F04460BD5374A13880133BB
:105154009BB21380FFF7F4FD344B1B680BB1FFF7D0
:1051640009FEA3075DD500F09FF8314E0746356868
:105174004FF0000A451B01F018FD8046DFF8AC90A3
:10518400D9F80040002C48D06369AB4209D95D1BB3
:1051940065613760FFF7EEFD4046BDE8F84F01F06A
:1051A4000ABD23462A4637605969914209D81879BD
:1051B40094F804C0521A844588BF1C469B68002B8F
:1051C400F2D1404601F0F7FCD4F81480C4F814A0DE
:1051D40001F0EBFC83462046FFF70EFE584601F033
:1051E400EAFC23694BB101F0E0FC834621692046C7
:1051F400FFF782FD584601F0DEFCE36813B1216835
:105204002046984700F050F84744ED1B04460544F7
:1052140001F0CBFC27468046B2E7022000F084F878
:10522400BAE7BDE8F88F00BFE82E0020F02E00207A
:10523400E02E00201FB50024184B18689A880290AD
:1052440053F8060FADF80C201B79009002A88DF8D6
:1052540004308DF808408DF80C4002F041FB69469B
:1052640001208DF8004002F0FFFA4FF090431F2117
:105274009A6922F01F029A61094A11609A6A12F02F
:105284000802FBD11A62012002F008FB4FF480628D
:10529400044BC3F880211A6004B010BDB44A030063
:1052A4001420004800E100E04FF090439A6A12078E
:1052B400FCD4186A704700004FF09042936A1907B3
:1052C400FCD4136A116C5269120704D4CA1A022A54
:1052D40001D899420ED1C21A012A98BF981CB0F184
:1052E400FF3F28BF01304FF0904318649A6942F0A1
:1052F40008029A61054A13783BB14FF09041CB6B99
:1053040043F00203CB63002313707047981E002000
:1053140082074FF0904200F00103916948BF43F0C7
:1053240008030B4393617047830700F001020AD519
:105334000121084B42F0080219704FF09041CB6BE9
:1053440023F00303CB634FF090418B6923EA0203FC
:105354008B617047981E00204FF0904301285B69D1
:1053640004D0022805D1C3F3C000704703F0010044
:10537400704700207047000010B501F016FC4FF094
:10538400904304465B691A07074A03F0010003F0DF
:105394000D0348BF40F002001360FFF7D1FE204622
:1053A400BDE8104001F007BC142000481B2001F0A8
:1053B4000DB90000002211462D48F0B503682D4DAB
:1053C40054592CB11E68AC18002E3DD1234601213E
:1053D4000832282AF4D101B1036000221446264978
:1053E400264E0B6895592DB11F68B518002F32D180
:1053F4002B4601240832282AF4D104B10B6000683A
:105404000368002B2FD04FF04022936F007923F0D4
:10541400FF7323F4803343EA00439367184B4FF040
:10542400004209681A600B68FBB14FF04022936F89
:10543400097923F4FF7323F001030B439367104BA3
:105444004FF080421A60F0BD1E792779B74284BFBD
:1054540023460121BCE71F7995F804C0BC453CBF35
:105464002B460124C6E7074BD9E7064BE8E700BF04
:10547400F82E0020082F0020FC2E0020302F0020C2
:10548400685000406860004010B5012228240F4B8A
:1054940000211A700E4822462CF0B0FB224600214F
:1054A4000C482CF0ABFB0C4B0C4A13600C4A1360F9
:1054B4004FF040430B4A1360536020220A4BC3F859
:1054C40080211A60FFF776FF002010BDF42E002023
:1054D400082F0020302F0020002F0020F82E00205D
:1054E400FC2E00206460004000E100E04FF0402208
:1054F400D2F88800D2F88830C0F38800C3F3880358
:105504009842F5D16FF48873184440B27047000094
:105514004FF04022936E526E10B5134013F0804248
:1055240011D0114B1B681C682CB100211960596003
:10553400FFF7DCFFA0474FF080420C4B1A60BDE838
:105544001040FFF737BF002BF9DA094B1B681C68C2
:105554002CB11A605A60FFF7C9FF0121A047034B21
:105564004FF00042EAE700BFFC2E002064600040D8
:10557400F82E0020FFF7CCBF012203685A619A6914
:10558400D207FCD541F2AC52042103795B0103F14B
:10559400804303F5703399507047000038B141B12E
:1055A400013AB2F5006F044838BF00207047034841
:1055B40070470148704700BF037000F0027000F0AC
:1055C40038B504460D4601F0F0FAA28892B222B929
:1055D4002A6001F0F0FA064838BD1422638802FB01
:1055E400034308332B6001F0E6FA0020F4E700BF20
:1055F4000B7000F038B504460D4601F0D6FAA388C6
:105604009BB223B92B6001F0D6FA0C4838BD1422A2
:105614006388E18802FB034308332B6063885A1CC8
:1056240092FBF1F301FB13239BB26380A388013B3C
:105634009BB2A38001F0BFFA0020E7E70B7000F0F3
:1056440090F83130022B0BD13022437F90F82100A7
:105654005A43044B9B5823FA00F000F001007047B2
:105664000020704714C00340002313B51C4A52F8AD
:10567400234094F8211081420ED00133042BF6D13B
:1056840002B010BD0028FBD19DF80730002BF7D0E5
:10569400A068FFF7F3F9F3E794F83130022BEFD168
:1056A4002046FFF7CDFF637E2076022BE8D194F8E5
:1056B4002E3003F0FF02002BE2D102A901F8012DE4
:1056C400A068FFF73BFA237E1BB194F82F30002B20
:1056D400D8D00023A06884F82F30FFF7EFF9CFE784
:1056E400582F0020012230B590F8324087B080F85E
:1056F4002C207CB9094D0368CDE9024504904C681F
:105704002433CDE900240A684169C068FFF79CF995
:1057140007B030BD002380F82C30F9E7D55F0000D6
:10572400012330B590F8324087B080F82D307CB931
:10573400094D0268CDE9024504904C683C32CDE93C
:1057440000340B6801698068FFF764F907B030BD65
:10575400002380F82D30F9E761570000F7B5906A0F
:1057640001A91446FFF72CFF144B984220D00025C2
:10577400019B1D619D6001F018FA019A0746D668E5
:1057840026B1D2E9002329462046B04701A9A06AE0
:10579400FFF730FFA06A83889BB263B101A9FFF7CA
:1057A4000FFF01992046FFF7BBFF384601F003FACB
:1057B400012003B0F0BD84F82D30F6E70B7000F043
:1057C400F8B5044617460D4601F0EFF9A388E288C0
:1057D40006469A4205D800233B6001F0ECF91648CE
:1057E400F8BD1422238805F1100C02FB034308338F
:1057F4002A4603CA624518605960154603F1080336
:10580400F6D11068142218602388E18802FB034350
:1058140008333B60238830465A1C92FBF1F301FBAA
:1058240013239BB22380A38801339BB2A38001F08E
:10583400C2F90020D4E700BF0A7000F02DE9F3415B
:105844000D460446002800F0868001F0AEF9012DD3
:10585400064637D1A36A9B889BB2002B39D0A06837
:10586400FFF74CF90023A06A84F82D3083889BB29B
:10587400002B34D1226893699B04FCD5023D012D91
:105884001BD8E068FFF73AF90023606A84F82C30EB
:1058940083889BB2002B41D194F83130032B0CD078
:1058A40042F2AC52042123795B0103F1804303F5F6
:1058B40070339950022223685A61304601F07BF913
:1058C400002009E0022D48D1636A9B889BB2002B1B
:1058D400D4D101F070F9264802B0BDE8F08101A9E5
:1058E400FFF76EFE0199A0680831FFF74FF9214FC9
:1058F400019B1F61A06A83889BB2002BBAD001A9C7
:10590400FFF778FE019BD3F80C80B8F1000FF1D0BB
:105914009B68002239462046C047EBE76946FFF7FB
:105924004FFE0099E0680831FFF730F9114F009BF2
:105934001F61606A83889BB2002BADD06946FFF774
:1059440059FE009BDD68002DF3D09B680022394688
:105954002046A847EDE70848BEE7032D8ED1A36A89
:105964009B889BB2002B7FF47AAF636A73E700BF16
:10597400087000F0097000F0027000F00368986984
:105984007047436A9888C0B270472DE9F34198463E
:1059940000230546406A0E4684881746A4B2CDE922
:1059A40000333CB16946FFF70BFE01A90446E868E1
:1059B400FFF7ECF8009969B164B94868019BC01A13
:1059C4003860C8F800300B6833602B68986902B0FF
:1059D400BDE8F0810021C8F8001039603160F4E7B7
:1059E400836A9888C0B270472DE9F3419846002332
:1059F4000546806A0E4684881746A4B2CDE9003372
:105A04003CB16946FFF7DCFD01A90446A868FFF72D
:105A1400BDF8009969B164B94868019BC01A38603F
:105A2400C8F800300B6833602B68986902B0BDE891
:105A3400F0810021C8F8001039603160F4E7007E7D
:105A440070472DE9F04104460F469046FFF7A6FD46
:105A54000546002839D1152001F0CCF80646A26A83
:105A640093889BB213B194F82E308BB323689E694C
:105A740016F002060ED104225A619A699207FCD5E7
:105A840041F2AC52102123795B0103F1804303F509
:105A940070339950012384F8303094F8323033B99C
:105AA400B8444745206818D183699B06FCD566B97C
:105AB40042F2AC52102123795B0103F1804303F5D8
:105AC40070339950082223685A612846BDE8F08152
:105AD400002EC5D0FFF77CF8C1E717F8011B02F0D0
:105AE40083F9DEE710B5044680B190F82E302BB967
:105AF400FFF7A6FD10B9A068FEF7C0FF002094F8D8
:105B04002E300133DBB284F82E3010BD0048FCE7A0
:105B1400027000F010B50446A0B190F82E309BB18D
:105B240090F82E30012B05D1FFF78AFD10B9A0683B
:105B3400FEF7C4FF002094F82E30013BDBB284F85A
:105B44002E3010BD0148FCE70148FAE7027000F06E
:105B5400057000F037B590F831500446022D1ED17F
:105B6400012190F82220457E837F01FA02F2302041
:105B7400154925B900FB031342F2100105E0012D7C
:105B840007D100FB031341F210015A50002003B067
:105B940030BD247E00FB0313002CF4D1ECE7012D6F
:105BA400F4D1037E73B911238DF80730FFF79AFF00
:105BB4002A460DF107012046FFF743FF2046FFF771
:105BC400A9FFE3E71323EFE700C00340F0B5044661
